{
  "contractName": "eazyVideoNFTContract",
  "abi": [
    {
      "inputs": [],
      "stateMutability": "nonpayable",
      "type": "constructor"
    },
    {
      "anonymous": false,
      "inputs": [
        {
          "indexed": true,
          "internalType": "address",
          "name": "owner",
          "type": "address"
        },
        {
          "indexed": true,
          "internalType": "address",
          "name": "approved",
          "type": "address"
        },
        {
          "indexed": true,
          "internalType": "uint256",
          "name": "tokenId",
          "type": "uint256"
        }
      ],
      "name": "Approval",
      "type": "event"
    },
    {
      "anonymous": false,
      "inputs": [
        {
          "indexed": true,
          "internalType": "address",
          "name": "owner",
          "type": "address"
        },
        {
          "indexed": true,
          "internalType": "address",
          "name": "operator",
          "type": "address"
        },
        {
          "indexed": false,
          "internalType": "bool",
          "name": "approved",
          "type": "bool"
        }
      ],
      "name": "ApprovalForAll",
      "type": "event"
    },
    {
      "anonymous": false,
      "inputs": [
        {
          "indexed": true,
          "internalType": "address",
          "name": "from",
          "type": "address"
        },
        {
          "indexed": true,
          "internalType": "address",
          "name": "to",
          "type": "address"
        },
        {
          "indexed": true,
          "internalType": "uint256",
          "name": "tokenId",
          "type": "uint256"
        }
      ],
      "name": "Transfer",
      "type": "event"
    },
    {
      "anonymous": false,
      "inputs": [
        {
          "indexed": true,
          "internalType": "uint256",
          "name": "tokenId",
          "type": "uint256"
        },
        {
          "indexed": true,
          "internalType": "address",
          "name": "user",
          "type": "address"
        },
        {
          "indexed": false,
          "internalType": "uint64",
          "name": "expires",
          "type": "uint64"
        }
      ],
      "name": "UpdateUser",
      "type": "event"
    },
    {
      "inputs": [
        {
          "internalType": "address",
          "name": "",
          "type": "address"
        }
      ],
      "name": "accountType",
      "outputs": [
        {
          "internalType": "uint256",
          "name": "",
          "type": "uint256"
        }
      ],
      "stateMutability": "view",
      "type": "function"
    },
    {
      "inputs": [
        {
          "internalType": "address",
          "name": "to",
          "type": "address"
        },
        {
          "internalType": "uint256",
          "name": "tokenId",
          "type": "uint256"
        }
      ],
      "name": "approve",
      "outputs": [],
      "stateMutability": "nonpayable",
      "type": "function"
    },
    {
      "inputs": [
        {
          "internalType": "address",
          "name": "owner",
          "type": "address"
        }
      ],
      "name": "balanceOf",
      "outputs": [
        {
          "internalType": "uint256",
          "name": "",
          "type": "uint256"
        }
      ],
      "stateMutability": "view",
      "type": "function"
    },
    {
      "inputs": [
        {
          "internalType": "uint256",
          "name": "",
          "type": "uint256"
        }
      ],
      "name": "forLendServices",
      "outputs": [
        {
          "internalType": "uint256",
          "name": "tokenId",
          "type": "uint256"
        },
        {
          "internalType": "uint256",
          "name": "price",
          "type": "uint256"
        },
        {
          "internalType": "uint256",
          "name": "duration",
          "type": "uint256"
        },
        {
          "internalType": "address",
          "name": "renter",
          "type": "address"
        }
      ],
      "stateMutability": "view",
      "type": "function"
    },
    {
      "inputs": [
        {
          "internalType": "uint256",
          "name": "tokenId",
          "type": "uint256"
        }
      ],
      "name": "getApproved",
      "outputs": [
        {
          "internalType": "address",
          "name": "",
          "type": "address"
        }
      ],
      "stateMutability": "view",
      "type": "function"
    },
    {
      "inputs": [
        {
          "internalType": "uint256",
          "name": "",
          "type": "uint256"
        }
      ],
      "name": "idToNftItem",
      "outputs": [
        {
          "internalType": "uint256",
          "name": "serviceid",
          "type": "uint256"
        },
        {
          "internalType": "string",
          "name": "serviceName",
          "type": "string"
        },
        {
          "internalType": "string",
          "name": "ImageUri",
          "type": "string"
        },
        {
          "internalType": "string",
          "name": "description",
          "type": "string"
        },
        {
          "internalType": "uint256",
          "name": "duration",
          "type": "uint256"
        },
        {
          "internalType": "uint64",
          "name": "endTime",
          "type": "uint64"
        },
        {
          "internalType": "uint256",
          "name": "price",
          "type": "uint256"
        },
        {
          "internalType": "address payable",
          "name": "owner",
          "type": "address"
        },
        {
          "internalType": "address payable",
          "name": "serviceProvider",
          "type": "address"
        }
      ],
      "stateMutability": "view",
      "type": "function"
    },
    {
      "inputs": [
        {
          "internalType": "address",
          "name": "owner",
          "type": "address"
        },
        {
          "internalType": "address",
          "name": "operator",
          "type": "address"
        }
      ],
      "name": "isApprovedForAll",
      "outputs": [
        {
          "internalType": "bool",
          "name": "",
          "type": "bool"
        }
      ],
      "stateMutability": "view",
      "type": "function"
    },
    {
      "inputs": [],
      "name": "name",
      "outputs": [
        {
          "internalType": "string",
          "name": "",
          "type": "string"
        }
      ],
      "stateMutability": "view",
      "type": "function"
    },
    {
      "inputs": [
        {
          "internalType": "uint256",
          "name": "tokenId",
          "type": "uint256"
        }
      ],
      "name": "ownerOf",
      "outputs": [
        {
          "internalType": "address",
          "name": "",
          "type": "address"
        }
      ],
      "stateMutability": "view",
      "type": "function"
    },
    {
      "inputs": [
        {
          "internalType": "address",
          "name": "from",
          "type": "address"
        },
        {
          "internalType": "address",
          "name": "to",
          "type": "address"
        },
        {
          "internalType": "uint256",
          "name": "tokenId",
          "type": "uint256"
        }
      ],
      "name": "safeTransferFrom",
      "outputs": [],
      "stateMutability": "nonpayable",
      "type": "function"
    },
    {
      "inputs": [
        {
          "internalType": "address",
          "name": "from",
          "type": "address"
        },
        {
          "internalType": "address",
          "name": "to",
          "type": "address"
        },
        {
          "internalType": "uint256",
          "name": "tokenId",
          "type": "uint256"
        },
        {
          "internalType": "bytes",
          "name": "data",
          "type": "bytes"
        }
      ],
      "name": "safeTransferFrom",
      "outputs": [],
      "stateMutability": "nonpayable",
      "type": "function"
    },
    {
      "inputs": [
        {
          "internalType": "address",
          "name": "",
          "type": "address"
        },
        {
          "internalType": "uint256",
          "name": "",
          "type": "uint256"
        }
      ],
      "name": "serviceProviderToIds",
      "outputs": [
        {
          "internalType": "uint256",
          "name": "",
          "type": "uint256"
        }
      ],
      "stateMutability": "view",
      "type": "function"
    },
    {
      "inputs": [
        {
          "internalType": "uint256",
          "name": "",
          "type": "uint256"
        }
      ],
      "name": "services",
      "outputs": [
        {
          "internalType": "uint256",
          "name": "serviceid",
          "type": "uint256"
        },
        {
          "internalType": "string",
          "name": "name",
          "type": "string"
        },
        {
          "internalType": "string",
          "name": "ImageUri",
          "type": "string"
        },
        {
          "internalType": "string",
          "name": "description",
          "type": "string"
        },
        {
          "internalType": "uint64",
          "name": "planDuration",
          "type": "uint64"
        },
        {
          "internalType": "uint256",
          "name": "price",
          "type": "uint256"
        },
        {
          "internalType": "address payable",
          "name": "serviceProvider",
          "type": "address"
        }
      ],
      "stateMutability": "view",
      "type": "function"
    },
    {
      "inputs": [
        {
          "internalType": "address",
          "name": "operator",
          "type": "address"
        },
        {
          "internalType": "bool",
          "name": "approved",
          "type": "bool"
        }
      ],
      "name": "setApprovalForAll",
      "outputs": [],
      "stateMutability": "nonpayable",
      "type": "function"
    },
    {
      "inputs": [
        {
          "internalType": "uint256",
          "name": "tokenId",
          "type": "uint256"
        },
        {
          "internalType": "address",
          "name": "user",
          "type": "address"
        },
        {
          "internalType": "uint64",
          "name": "expires",
          "type": "uint64"
        }
      ],
      "name": "setUser",
      "outputs": [],
      "stateMutability": "nonpayable",
      "type": "function"
    },
    {
      "inputs": [
        {
          "internalType": "bytes4",
          "name": "interfaceId",
          "type": "bytes4"
        }
      ],
      "name": "supportsInterface",
      "outputs": [
        {
          "internalType": "bool",
          "name": "",
          "type": "bool"
        }
      ],
      "stateMutability": "view",
      "type": "function"
    },
    {
      "inputs": [],
      "name": "symbol",
      "outputs": [
        {
          "internalType": "string",
          "name": "",
          "type": "string"
        }
      ],
      "stateMutability": "view",
      "type": "function"
    },
    {
      "inputs": [],
      "name": "tID",
      "outputs": [
        {
          "internalType": "uint256",
          "name": "",
          "type": "uint256"
        }
      ],
      "stateMutability": "view",
      "type": "function"
    },
    {
      "inputs": [
        {
          "internalType": "uint256",
          "name": "tokenId",
          "type": "uint256"
        }
      ],
      "name": "tokenURI",
      "outputs": [
        {
          "internalType": "string",
          "name": "",
          "type": "string"
        }
      ],
      "stateMutability": "view",
      "type": "function"
    },
    {
      "inputs": [],
      "name": "totalLendServices",
      "outputs": [
        {
          "internalType": "uint256",
          "name": "",
          "type": "uint256"
        }
      ],
      "stateMutability": "view",
      "type": "function"
    },
    {
      "inputs": [],
      "name": "totalServices",
      "outputs": [
        {
          "internalType": "uint256",
          "name": "",
          "type": "uint256"
        }
      ],
      "stateMutability": "view",
      "type": "function"
    },
    {
      "inputs": [],
      "name": "totalTokensMinted",
      "outputs": [
        {
          "internalType": "uint256",
          "name": "",
          "type": "uint256"
        }
      ],
      "stateMutability": "view",
      "type": "function"
    },
    {
      "inputs": [
        {
          "internalType": "address",
          "name": "from",
          "type": "address"
        },
        {
          "internalType": "address",
          "name": "to",
          "type": "address"
        },
        {
          "internalType": "uint256",
          "name": "tokenId",
          "type": "uint256"
        }
      ],
      "name": "transferFrom",
      "outputs": [],
      "stateMutability": "nonpayable",
      "type": "function"
    },
    {
      "inputs": [
        {
          "internalType": "address",
          "name": "",
          "type": "address"
        },
        {
          "internalType": "uint256",
          "name": "",
          "type": "uint256"
        }
      ],
      "name": "userAvailablePlans",
      "outputs": [
        {
          "internalType": "uint256",
          "name": "",
          "type": "uint256"
        }
      ],
      "stateMutability": "view",
      "type": "function"
    },
    {
      "inputs": [
        {
          "internalType": "uint256",
          "name": "tokenId",
          "type": "uint256"
        }
      ],
      "name": "userExpires",
      "outputs": [
        {
          "internalType": "uint256",
          "name": "",
          "type": "uint256"
        }
      ],
      "stateMutability": "view",
      "type": "function"
    },
    {
      "inputs": [
        {
          "internalType": "address",
          "name": "",
          "type": "address"
        },
        {
          "internalType": "uint256",
          "name": "",
          "type": "uint256"
        }
      ],
      "name": "userForLendPlans",
      "outputs": [
        {
          "internalType": "uint256",
          "name": "tokenId",
          "type": "uint256"
        },
        {
          "internalType": "uint256",
          "name": "price",
          "type": "uint256"
        },
        {
          "internalType": "uint256",
          "name": "duration",
          "type": "uint256"
        },
        {
          "internalType": "address",
          "name": "renter",
          "type": "address"
        }
      ],
      "stateMutability": "view",
      "type": "function"
    },
    {
      "inputs": [
        {
          "internalType": "uint256",
          "name": "tokenId",
          "type": "uint256"
        }
      ],
      "name": "userOf",
      "outputs": [
        {
          "internalType": "address",
          "name": "",
          "type": "address"
        }
      ],
      "stateMutability": "view",
      "type": "function"
    },
    {
      "inputs": [
        {
          "internalType": "uint256",
          "name": "_accountType",
          "type": "uint256"
        }
      ],
      "name": "login",
      "outputs": [
        {
          "internalType": "string",
          "name": "",
          "type": "string"
        }
      ],
      "stateMutability": "nonpayable",
      "type": "function"
    },
    {
      "inputs": [
        {
          "internalType": "string",
          "name": "_name",
          "type": "string"
        },
        {
          "internalType": "string",
          "name": "_ImageUri",
          "type": "string"
        },
        {
          "internalType": "string",
          "name": "_description",
          "type": "string"
        },
        {
          "internalType": "uint64",
          "name": "_planDuration",
          "type": "uint64"
        },
        {
          "internalType": "uint256",
          "name": "_planPrice",
          "type": "uint256"
        }
      ],
      "name": "AddServiceToPlatform",
      "outputs": [],
      "stateMutability": "nonpayable",
      "type": "function"
    },
    {
      "inputs": [
        {
          "internalType": "uint256",
          "name": "_serviceid",
          "type": "uint256"
        }
      ],
      "name": "BuyServiceFromServiceProvider",
      "outputs": [],
      "stateMutability": "payable",
      "type": "function"
    },
    {
      "inputs": [
        {
          "internalType": "uint256",
          "name": "_tokenId",
          "type": "uint256"
        },
        {
          "internalType": "uint256",
          "name": "_days",
          "type": "uint256"
        },
        {
          "internalType": "uint256",
          "name": "_amount",
          "type": "uint256"
        }
      ],
      "name": "LendUserNFTPlan",
      "outputs": [],
      "stateMutability": "nonpayable",
      "type": "function"
    },
    {
      "inputs": [
        {
          "internalType": "uint256",
          "name": "_tokenId",
          "type": "uint256"
        },
        {
          "internalType": "uint64",
          "name": "_days",
          "type": "uint64"
        },
        {
          "internalType": "uint256",
          "name": "_amount",
          "type": "uint256"
        }
      ],
      "name": "RentPlan",
      "outputs": [],
      "stateMutability": "nonpayable",
      "type": "function"
    },
    {
      "inputs": [
        {
          "internalType": "uint256",
          "name": "_serviceid",
          "type": "uint256"
        },
        {
          "internalType": "string",
          "name": "_serviceName",
          "type": "string"
        },
        {
          "internalType": "string",
          "name": "_imageUri",
          "type": "string"
        },
        {
          "internalType": "string",
          "name": "_description",
          "type": "string"
        },
        {
          "internalType": "uint64",
          "name": "_duration",
          "type": "uint64"
        },
        {
          "internalType": "uint64",
          "name": "_endTime",
          "type": "uint64"
        },
        {
          "internalType": "uint256",
          "name": "_price",
          "type": "uint256"
        },
        {
          "internalType": "address",
          "name": "_owner",
          "type": "address"
        },
        {
          "internalType": "address",
          "name": "_serviceProvider",
          "type": "address"
        }
      ],
      "name": "mintNFT",
      "outputs": [],
      "stateMutability": "nonpayable",
      "type": "function"
    },
    {
      "inputs": [
        {
          "internalType": "uint256",
          "name": "tokenID",
          "type": "uint256"
        },
        {
          "internalType": "uint64",
          "name": "_days",
          "type": "uint64"
        },
        {
          "internalType": "uint256",
          "name": "_amount",
          "type": "uint256"
        }
      ],
      "name": "rentNFT",
      "outputs": [],
      "stateMutability": "payable",
      "type": "function"
    },
    {
      "inputs": [],
      "name": "getTotalServices",
      "outputs": [
        {
          "internalType": "uint256",
          "name": "",
          "type": "uint256"
        }
      ],
      "stateMutability": "view",
      "type": "function"
    },
    {
      "inputs": [
        {
          "internalType": "uint256",
          "name": "_tokenID",
          "type": "uint256"
        }
      ],
      "name": "getNFTDetailsFromId",
      "outputs": [
        {
          "components": [
            {
              "internalType": "uint256",
              "name": "serviceid",
              "type": "uint256"
            },
            {
              "internalType": "string",
              "name": "serviceName",
              "type": "string"
            },
            {
              "internalType": "string",
              "name": "ImageUri",
              "type": "string"
            },
            {
              "internalType": "string",
              "name": "description",
              "type": "string"
            },
            {
              "internalType": "uint256",
              "name": "duration",
              "type": "uint256"
            },
            {
              "internalType": "uint64",
              "name": "endTime",
              "type": "uint64"
            },
            {
              "internalType": "uint256",
              "name": "price",
              "type": "uint256"
            },
            {
              "internalType": "address payable",
              "name": "owner",
              "type": "address"
            },
            {
              "internalType": "address payable",
              "name": "serviceProvider",
              "type": "address"
            }
          ],
          "internalType": "struct eazyVideoNFTContract.NFTItem",
          "name": "",
          "type": "tuple"
        }
      ],
      "stateMutability": "view",
      "type": "function"
    },
    {
      "inputs": [],
      "name": "fetchAllUserAvailableNFTPlans",
      "outputs": [
        {
          "internalType": "uint256[]",
          "name": "",
          "type": "uint256[]"
        }
      ],
      "stateMutability": "view",
      "type": "function"
    },
    {
      "inputs": [],
      "name": "fetchAllUserLendNFTPlans",
      "outputs": [
        {
          "components": [
            {
              "internalType": "uint256",
              "name": "tokenId",
              "type": "uint256"
            },
            {
              "internalType": "uint256",
              "name": "price",
              "type": "uint256"
            },
            {
              "internalType": "uint256",
              "name": "duration",
              "type": "uint256"
            },
            {
              "internalType": "address",
              "name": "renter",
              "type": "address"
            }
          ],
          "internalType": "struct eazyVideoNFTContract.Lend[]",
          "name": "",
          "type": "tuple[]"
        }
      ],
      "stateMutability": "view",
      "type": "function"
    }
  ],
  "bytecode": "0x60806040523480156200001157600080fd5b506040518060400160405280600981526020017f65617a79566964656f00000000000000000000000000000000000000000000008152506040518060400160405280600481526020017f65617a7900000000000000000000000000000000000000000000000000000000815250816000908051906020019062000096929190620000f9565b508060019080519060200190620000af929190620000f9565b50505033600760006101000a81548173ffffffffffffffffffffffffffffffffffffffff021916908373ffffffffffffffffffffffffffffffffffffffff1602179055506200020e565b8280546200010790620001a9565b90600052602060002090601f0160209004810192826200012b576000855562000177565b82601f106200014657805160ff191683800117855562000177565b8280016001018555821562000177579182015b828111156200017657825182559160200191906001019062000159565b5b5090506200018691906200018a565b5090565b5b80821115620001a55760008160009055506001016200018b565b5090565b60006002820490506001821680620001c257607f821691505b60208210811415620001d957620001d8620001df565b5b50919050565b7f4e487b7100000000000000000000000000000000000000000000000000000000600052602260045260246000fd5b615cb5806200021e6000396000f3fe6080604052600436106102255760003560e01c8063784bc61411610123578063ba99af70116100ab578063dd82309d1161006f578063dd82309d146108bd578063e030565e146108e6578063e985e9c51461090f578063eacc50031461094c578063fccbbf2f1461097557610225565b8063ba99af7014610798578063c22c4f43146107d5578063c2f1f14a14610818578063c87b56dd14610855578063dd5ddfa41461089257610225565b80638fc88c48116100f25780638fc88c48146106a157806395d89b41146106de578063a22cb46514610709578063b88d4fde14610732578063b9314b541461075b57610225565b8063784bc614146105ec5780637c707129146106155780637d549e99146106315780638dadd4571461065c57610225565b806332e0df80116101b15780636301ac8f116101755780636301ac8f146104de5780636352211e146105095780636617f2441461054657806367dec1dc1461058657806370a08231146105af57610225565b806332e0df80146103f45780633dbfd97c1461041f57806342842e0e1461045c578063450690aa146104855780634d1e0221146104c257610225565b80630ede26ec116101f85780630ede26ec146102f85780630fc89a77146103355780631540f78a1461037557806323b872dd146103a0578063248ff037146103c957610225565b806301ffc9a71461022a57806306fdde0314610267578063081812fc14610292578063095ea7b3146102cf575b600080fd5b34801561023657600080fd5b50610251600480360381019061024c9190614433565b6109a0565b60405161025e9190614e33565b60405180910390f35b34801561027357600080fd5b5061027c610a1a565b6040516102899190614e69565b60405180910390f35b34801561029e57600080fd5b506102b960048036038101906102b49190614544565b610aac565b6040516102c69190614d88565b60405180910390f35b3480156102db57600080fd5b506102f660048036038101906102f191906143f7565b610af2565b005b34801561030457600080fd5b5061031f600480360381019061031a91906143f7565b610c0a565b60405161032c91906150ed565b60405180910390f35b34801561034157600080fd5b5061035c60048036038101906103579190614544565b610c3b565b60405161036c949392919061522e565b60405180910390f35b34801561038157600080fd5b5061038a610c9b565b60405161039791906150ed565b60405180910390f35b3480156103ac57600080fd5b506103c760048036038101906103c291906142f1565b610ca1565b005b3480156103d557600080fd5b506103de610d01565b6040516103eb9190614e11565b60405180910390f35b34801561040057600080fd5b50610409610d96565b60405161041691906150ed565b60405180910390f35b34801561042b57600080fd5b5061044660048036038101906104419190614544565b610da0565b6040516104539190614e69565b60405180910390f35b34801561046857600080fd5b50610483600480360381019061047e91906142f1565b610f2e565b005b34801561049157600080fd5b506104ac60048036038101906104a79190614544565b610f4e565b6040516104b991906150cb565b60405180910390f35b6104dc60048036038101906104d79190614719565b61122e565b005b3480156104ea57600080fd5b506104f3611310565b60405161050091906150ed565b60405180910390f35b34801561051557600080fd5b50610530600480360381019061052b9190614544565b611316565b60405161053d9190614d88565b60405180910390f35b34801561055257600080fd5b5061056d600480360381019061056891906143f7565b6113c8565b60405161057d949392919061522e565b60405180910390f35b34801561059257600080fd5b506105ad60048036038101906105a891906146ca565b611435565b005b3480156105bb57600080fd5b506105d660048036038101906105d1919061428c565b611a5d565b6040516105e391906150ed565b60405180910390f35b3480156105f857600080fd5b50610613600480360381019061060e9190614485565b611b15565b005b61062f600480360381019061062a9190614544565b611d69565b005b34801561063d57600080fd5b50610646612147565b60405161065391906150ed565b60405180910390f35b34801561066857600080fd5b50610683600480360381019061067e9190614544565b61214d565b60405161069899989796959493929190615108565b60405180910390f35b3480156106ad57600080fd5b506106c860048036038101906106c39190614544565b612387565b6040516106d591906150ed565b60405180910390f35b3480156106ea57600080fd5b506106f36123c5565b6040516107009190614e69565b60405180910390f35b34801561071557600080fd5b50610730600480360381019061072b91906143bb565b612457565b005b34801561073e57600080fd5b5061075960048036038101906107549190614340565b61246d565b005b34801561076757600080fd5b50610782600480360381019061077d91906143f7565b6124cf565b60405161078f91906150ed565b60405180910390f35b3480156107a457600080fd5b506107bf60048036038101906107ba919061428c565b612500565b6040516107cc91906150ed565b60405180910390f35b3480156107e157600080fd5b506107fc60048036038101906107f79190614544565b612518565b60405161080f97969594939291906151aa565b60405180910390f35b34801561082457600080fd5b5061083f600480360381019061083a9190614544565b612726565b60405161084c9190614d88565b60405180910390f35b34801561086157600080fd5b5061087c60048036038101906108779190614544565b6127ab565b6040516108899190614e69565b60405180910390f35b34801561089e57600080fd5b506108a7612813565b6040516108b49190614def565b60405180910390f35b3480156108c957600080fd5b506108e460048036038101906108df9190614719565b612923565b005b3480156108f257600080fd5b5061090d6004803603810190610908919061456d565b612d44565b005b34801561091b57600080fd5b50610936600480360381019061093191906142b5565b612e67565b6040516109439190614e33565b60405180910390f35b34801561095857600080fd5b50610973600480360381019061096e91906145bc565b612efb565b005b34801561098157600080fd5b5061098a6131ca565b60405161099791906150ed565b60405180910390f35b60007fad092b5c000000000000000000000000000000000000000000000000000000007bffffffffffffffffffffffffffffffffffffffffffffffffffffffff1916827bffffffffffffffffffffffffffffffffffffffffffffffffffffffff19161480610a135750610a12826131d0565b5b9050919050565b606060008054610a29906155de565b80601f0160208091040260200160405190810160405280929190818152602001828054610a55906155de565b8015610aa25780601f10610a7757610100808354040283529160200191610aa2565b820191906000526020600020905b815481529060010190602001808311610a8557829003601f168201915b5050505050905090565b6000610ab7826132b2565b6004600083815260200190815260200160002060009054906101000a900473ffffffffffffffffffffffffffffffffffffffff169050919050565b6000610afd82611316565b90508073ffffffffffffffffffffffffffffffffffffffff168373ffffffffffffffffffffffffffffffffffffffff161415610b6e576040517f08c379a0000000000000000000000000000000000000000000000000000000008152600401610b659061500b565b60405180910390fd5b8073ffffffffffffffffffffffffffffffffffffffff16610b8d6132fd565b73ffffffffffffffffffffffffffffffffffffffff161480610bbc5750610bbb81610bb66132fd565b612e67565b5b610bfb576040517f08c379a0000000000000000000000000000000000000000000000000000000008152600401610bf290614f8b565b60405180910390fd5b610c058383613305565b505050565b60106020528160005260406000208181548110610c2657600080fd5b90600052602060002001600091509150505481565b60128181548110610c4b57600080fd5b90600052602060002090600402016000915090508060000154908060010154908060020154908060030160009054906101000a900473ffffffffffffffffffffffffffffffffffffffff16905084565b60095481565b610cb2610cac6132fd565b826133be565b610cf1576040517f08c379a0000000000000000000000000000000000000000000000000000000008152600401610ce89061508b565b60405180910390fd5b610cfc838383613453565b505050565b6060601060003373ffffffffffffffffffffffffffffffffffffffff1673ffffffffffffffffffffffffffffffffffffffff168152602001908152602001600020805480602002602001604051908101604052809291908181526020018280548015610d8c57602002820191906000526020600020905b815481526020019060010190808311610d78575b5050505050905090565b6000601354905090565b60606002600c60003373ffffffffffffffffffffffffffffffffffffffff1673ffffffffffffffffffffffffffffffffffffffff168152602001908152602001600020541415610e27576040518060400160405280601081526020017f534552564943452050524f5649444552000000000000000000000000000000008152509050610f29565b6001600c60003373ffffffffffffffffffffffffffffffffffffffff1673ffffffffffffffffffffffffffffffffffffffff168152602001908152602001600020541415610eac576040518060400160405280600481526020017f55534552000000000000000000000000000000000000000000000000000000008152509050610f29565b81600c60003373ffffffffffffffffffffffffffffffffffffffff1673ffffffffffffffffffffffffffffffffffffffff168152602001908152602001600020819055506040518060400160405280600f81526020017f4163636f756e742043726561746564000000000000000000000000000000000081525090505b919050565b610f498383836040518060200160405280600081525061246d565b505050565b610f56614019565b600d60008381526020019081526020016000206040518061012001604052908160008201548152602001600182018054610f8f906155de565b80601f0160208091040260200160405190810160405280929190818152602001828054610fbb906155de565b80156110085780601f10610fdd57610100808354040283529160200191611008565b820191906000526020600020905b815481529060010190602001808311610feb57829003601f168201915b50505050508152602001600282018054611021906155de565b80601f016020809104026020016040519081016040528092919081815260200182805461104d906155de565b801561109a5780601f1061106f5761010080835404028352916020019161109a565b820191906000526020600020905b81548152906001019060200180831161107d57829003601f168201915b505050505081526020016003820180546110b3906155de565b80601f01602080910402602001604051908101604052809291908181526020018280546110df906155de565b801561112c5780601f106111015761010080835404028352916020019161112c565b820191906000526020600020905b81548152906001019060200180831161110f57829003601f168201915b50505050508152602001600482015481526020016005820160009054906101000a900467ffffffffffffffff1667ffffffffffffffff1667ffffffffffffffff168152602001600682015481526020016007820160009054906101000a900473ffffffffffffffffffffffffffffffffffffffff1673ffffffffffffffffffffffffffffffffffffffff1673ffffffffffffffffffffffffffffffffffffffff1681526020016008820160009054906101000a900473ffffffffffffffffffffffffffffffffffffffff1673ffffffffffffffffffffffffffffffffffffffff1673ffffffffffffffffffffffffffffffffffffffff16815250509050919050565b611239833384612d44565b600d600084815260200190815260200160002060070160009054906101000a900473ffffffffffffffffffffffffffffffffffffffff1673ffffffffffffffffffffffffffffffffffffffff166108fc829081150290604051600060405180830381858888f193505050501580156112b5573d6000803e3d6000fd5b5033600d600085815260200190815260200160002060070160006101000a81548173ffffffffffffffffffffffffffffffffffffffff021916908373ffffffffffffffffffffffffffffffffffffffff160217905550505050565b60135481565b6000806002600084815260200190815260200160002060009054906101000a900473ffffffffffffffffffffffffffffffffffffffff169050600073ffffffffffffffffffffffffffffffffffffffff168173ffffffffffffffffffffffffffffffffffffffff1614156113bf576040517f08c379a00000000000000000000000000000000000000000000000000000000081526004016113b690614feb565b60405180910390fd5b80915050919050565b601160205281600052604060002081815481106113e457600080fd5b9060005260206000209060040201600091509150508060000154908060010154908060020154908060030160009054906101000a900473ffffffffffffffffffffffffffffffffffffffff16905084565b6001600c60003373ffffffffffffffffffffffffffffffffffffffff1673ffffffffffffffffffffffffffffffffffffffff16815260200190815260200160002054146114b7576040517f08c379a00000000000000000000000000000000000000000000000000000000081526004016114ae90614eeb565b60405180910390fd5b3373ffffffffffffffffffffffffffffffffffffffff16600d600085815260200190815260200160002060070160009054906101000a900473ffffffffffffffffffffffffffffffffffffffff1673ffffffffffffffffffffffffffffffffffffffff161461155b576040517f08c379a00000000000000000000000000000000000000000000000000000000081526004016115529061506b565b60405180910390fd5b600060126001816001815401808255809150500390600052602060002090600402019050838160000181905550818160010181905550603c806018856115a19190615462565b6115ab9190615462565b6115b59190615462565b426115c091906153db565b816002018190555060008160030160006101000a81548173ffffffffffffffffffffffffffffffffffffffff021916908373ffffffffffffffffffffffffffffffffffffffff160217905550601160003373ffffffffffffffffffffffffffffffffffffffff1673ffffffffffffffffffffffffffffffffffffffff1681526020019081526020016000208190806001815401808255809150506001900390600052602060002090600402016000909190919091506000820154816000015560018201548160010155600282015481600201556003820160009054906101000a900473ffffffffffffffffffffffffffffffffffffffff168160030160006101000a81548173ffffffffffffffffffffffffffffffffffffffff021916908373ffffffffffffffffffffffffffffffffffffffff1602179055505050600160145461170b91906153db565b6014819055506000805b601060003373ffffffffffffffffffffffffffffffffffffffff1673ffffffffffffffffffffffffffffffffffffffff168152602001908152602001600020805490508110156117ff57601060003373ffffffffffffffffffffffffffffffffffffffff1673ffffffffffffffffffffffffffffffffffffffff16815260200190815260200160002081815481106117d6577f4e487b7100000000000000000000000000000000000000000000000000000000600052603260045260246000fd5b90600052602060002001548614156117ec578091505b80806117f790615641565b915050611715565b5060008190505b6001601060003373ffffffffffffffffffffffffffffffffffffffff1673ffffffffffffffffffffffffffffffffffffffff1681526020019081526020016000208054905061185591906154bc565b81101561198257601060003373ffffffffffffffffffffffffffffffffffffffff1673ffffffffffffffffffffffffffffffffffffffff1681526020019081526020016000206001826118a891906153db565b815481106118df577f4e487b7100000000000000000000000000000000000000000000000000000000600052603260045260246000fd5b9060005260206000200154601060003373ffffffffffffffffffffffffffffffffffffffff1673ffffffffffffffffffffffffffffffffffffffff1681526020019081526020016000208281548110611961577f4e487b7100000000000000000000000000000000000000000000000000000000600052603260045260246000fd5b9060005260206000200181905550808061197a90615641565b915050611806565b50601060003373ffffffffffffffffffffffffffffffffffffffff1673ffffffffffffffffffffffffffffffffffffffff1681526020019081526020016000206001601060003373ffffffffffffffffffffffffffffffffffffffff1673ffffffffffffffffffffffffffffffffffffffff16815260200190815260200160002080549050611a1191906154bc565b81548110611a48577f4e487b7100000000000000000000000000000000000000000000000000000000600052603260045260246000fd5b90600052602060002001600090555050505050565b60008073ffffffffffffffffffffffffffffffffffffffff168273ffffffffffffffffffffffffffffffffffffffff161415611ace576040517f08c379a0000000000000000000000000000000000000000000000000000000008152600401611ac590614f6b565b60405180910390fd5b600360008373ffffffffffffffffffffffffffffffffffffffff1673ffffffffffffffffffffffffffffffffffffffff168152602001908152602001600020549050919050565b6002600c60003373ffffffffffffffffffffffffffffffffffffffff1673ffffffffffffffffffffffffffffffffffffffff1681526020019081526020016000205414611b97576040517f08c379a0000000000000000000000000000000000000000000000000000000008152600401611b8e90614f4b565b60405180910390fd5b6040518060e0016040528060135481526020018681526020018581526020018481526020018367ffffffffffffffff1681526020018281526020013373ffffffffffffffffffffffffffffffffffffffff16815250600e60006013548152602001908152602001600020600082015181600001556020820151816001019080519060200190611c2792919061409b565b506040820151816002019080519060200190611c4492919061409b565b506060820151816003019080519060200190611c6192919061409b565b5060808201518160040160006101000a81548167ffffffffffffffff021916908367ffffffffffffffff16021790555060a0820151816005015560c08201518160060160006101000a81548173ffffffffffffffffffffffffffffffffffffffff021916908373ffffffffffffffffffffffffffffffffffffffff160217905550905050600f60003373ffffffffffffffffffffffffffffffffffffffff1673ffffffffffffffffffffffffffffffffffffffff16815260200190815260200160002060135490806001815401808255809150506001900390600052602060002001600090919091909150556001601354611d5c91906153db565b6013819055505050505050565b6001600c60003373ffffffffffffffffffffffffffffffffffffffff1673ffffffffffffffffffffffffffffffffffffffff1681526020019081526020016000205414611deb576040517f08c379a0000000000000000000000000000000000000000000000000000000008152600401611de290614eeb565b60405180910390fd5b6000600e6000838152602001908152602001600020905060008160040160009054906101000a900467ffffffffffffffff1667ffffffffffffffff1642611e3291906153db565b9050600082600501549050348114611e7f576040517f08c379a0000000000000000000000000000000000000000000000000000000008152600401611e7690614fcb565b60405180910390fd5b8260060160009054906101000a900473ffffffffffffffffffffffffffffffffffffffff1673ffffffffffffffffffffffffffffffffffffffff166108fc349081150290604051600060405180830381858888f19350505050158015611ee9573d6000803e3d6000fd5b506120db84846001018054611efd906155de565b80601f0160208091040260200160405190810160405280929190818152602001828054611f29906155de565b8015611f765780601f10611f4b57610100808354040283529160200191611f76565b820191906000526020600020905b815481529060010190602001808311611f5957829003601f168201915b5050505050856002018054611f8a906155de565b80601f0160208091040260200160405190810160405280929190818152602001828054611fb6906155de565b80156120035780601f10611fd857610100808354040283529160200191612003565b820191906000526020600020905b815481529060010190602001808311611fe657829003601f168201915b5050505050866003018054612017906155de565b80601f0160208091040260200160405190810160405280929190818152602001828054612043906155de565b80156120905780601f1061206557610100808354040283529160200191612090565b820191906000526020600020905b81548152906001019060200180831161207357829003601f168201915b50505050508760040160009054906101000a900467ffffffffffffffff168787338b60060160009054906101000a900473ffffffffffffffffffffffffffffffffffffffff16612efb565b601060003373ffffffffffffffffffffffffffffffffffffffff1673ffffffffffffffffffffffffffffffffffffffff16815260200190815260200160002084908060018154018082558091505060019003906000526020600020016000909190919091505550505050565b600a5481565b600d602052806000526040600020600091509050806000015490806001018054612176906155de565b80601f01602080910402602001604051908101604052809291908181526020018280546121a2906155de565b80156121ef5780601f106121c4576101008083540402835291602001916121ef565b820191906000526020600020905b8154815290600101906020018083116121d257829003601f168201915b505050505090806002018054612204906155de565b80601f0160208091040260200160405190810160405280929190818152602001828054612230906155de565b801561227d5780601f106122525761010080835404028352916020019161227d565b820191906000526020600020905b81548152906001019060200180831161226057829003601f168201915b505050505090806003018054612292906155de565b80601f01602080910402602001604051908101604052809291908181526020018280546122be906155de565b801561230b5780601f106122e05761010080835404028352916020019161230b565b820191906000526020600020905b8154815290600101906020018083116122ee57829003601f168201915b5050505050908060040154908060050160009054906101000a900467ffffffffffffffff16908060060154908060070160009054906101000a900473ffffffffffffffffffffffffffffffffffffffff16908060080160009054906101000a900473ffffffffffffffffffffffffffffffffffffffff16905089565b60006006600083815260200190815260200160002060000160149054906101000a900467ffffffffffffffff1667ffffffffffffffff169050919050565b6060600180546123d4906155de565b80601f0160208091040260200160405190810160405280929190818152602001828054612400906155de565b801561244d5780601f106124225761010080835404028352916020019161244d565b820191906000526020600020905b81548152906001019060200180831161243057829003601f168201915b5050505050905090565b6124696124626132fd565b83836136ba565b5050565b61247e6124786132fd565b836133be565b6124bd576040517f08c379a00000000000000000000000000000000000000000000000000000000081526004016124b49061508b565b60405180910390fd5b6124c984848484613827565b50505050565b600f60205281600052604060002081815481106124eb57600080fd5b90600052602060002001600091509150505481565b600c6020528060005260406000206000915090505481565b600e602052806000526040600020600091509050806000015490806001018054612541906155de565b80601f016020809104026020016040519081016040528092919081815260200182805461256d906155de565b80156125ba5780601f1061258f576101008083540402835291602001916125ba565b820191906000526020600020905b81548152906001019060200180831161259d57829003601f168201915b5050505050908060020180546125cf906155de565b80601f01602080910402602001604051908101604052809291908181526020018280546125fb906155de565b80156126485780601f1061261d57610100808354040283529160200191612648565b820191906000526020600020905b81548152906001019060200180831161262b57829003601f168201915b50505050509080600301805461265d906155de565b80601f0160208091040260200160405190810160405280929190818152602001828054612689906155de565b80156126d65780601f106126ab576101008083540402835291602001916126d6565b820191906000526020600020905b8154815290600101906020018083116126b957829003601f168201915b5050505050908060040160009054906101000a900467ffffffffffffffff16908060050154908060060160009054906101000a900473ffffffffffffffffffffffffffffffffffffffff16905087565b6000426006600084815260200190815260200160002060000160149054906101000a900467ffffffffffffffff1667ffffffffffffffff16106127a1576006600083815260200190815260200160002060000160009054906101000a900473ffffffffffffffffffffffffffffffffffffffff1690506127a6565b600090505b919050565b60606127b6826132b2565b60006127c0613883565b905060008151116127e0576040518060200160405280600081525061280b565b806127ea8461389a565b6040516020016127fb929190614d64565b6040516020818303038152906040525b915050919050565b6060601160003373ffffffffffffffffffffffffffffffffffffffff1673ffffffffffffffffffffffffffffffffffffffff168152602001908152602001600020805480602002602001604051908101604052809291908181526020016000905b8282101561291a57838290600052602060002090600402016040518060800160405290816000820154815260200160018201548152602001600282015481526020016003820160009054906101000a900473ffffffffffffffffffffffffffffffffffffffff1673ffffffffffffffffffffffffffffffffffffffff1673ffffffffffffffffffffffffffffffffffffffff168152505081526020019060010190612874565b50505050905090565b3373ffffffffffffffffffffffffffffffffffffffff16600d600085815260200190815260200160002060070160009054906101000a900473ffffffffffffffffffffffffffffffffffffffff1673ffffffffffffffffffffffffffffffffffffffff1614156129c8576040517f08c379a00000000000000000000000000000000000000000000000000000000081526004016129bf9061502b565b60405180910390fd5b600080600090505b601454811015612a44578460128281548110612a15577f4e487b7100000000000000000000000000000000000000000000000000000000600052603260045260246000fd5b9060005260206000209060040201600001541415612a31578091505b8080612a3c90615641565b9150506129d0565b503360128281548110612a80577f4e487b7100000000000000000000000000000000000000000000000000000000600052603260045260246000fd5b906000526020600020906004020160030160006101000a81548173ffffffffffffffffffffffffffffffffffffffff021916908373ffffffffffffffffffffffffffffffffffffffff16021790555060005b601454811015612b46578460128281548110612b17577f4e487b7100000000000000000000000000000000000000000000000000000000600052603260045260246000fd5b9060005260206000209060040201600001541415612b33578091505b8080612b3e90615641565b915050612ad2565b5060008190505b6001601454612b5c91906154bc565b811015612c9a576012600182612b7291906153db565b81548110612ba9577f4e487b7100000000000000000000000000000000000000000000000000000000600052603260045260246000fd5b906000526020600020906004020160128281548110612bf1577f4e487b7100000000000000000000000000000000000000000000000000000000600052603260045260246000fd5b90600052602060002090600402016000820154816000015560018201548160010155600282015481600201556003820160009054906101000a900473ffffffffffffffffffffffffffffffffffffffff168160030160006101000a81548173ffffffffffffffffffffffffffffffffffffffff021916908373ffffffffffffffffffffffffffffffffffffffff1602179055509050508080612c9290615641565b915050612b4d565b5060126001601454612cac91906154bc565b81548110612ce3577f4e487b7100000000000000000000000000000000000000000000000000000000600052603260045260246000fd5b9060005260206000209060040201600080820160009055600182016000905560028201600090556003820160006101000a81549073ffffffffffffffffffffffffffffffffffffffff02191690555050612d3e84848461122e565b50505050565b612d4e33846133be565b612d8d576040517f08c379a0000000000000000000000000000000000000000000000000000000008152600401612d849061504b565b60405180910390fd5b6000600660008581526020019081526020016000209050828160000160006101000a81548173ffffffffffffffffffffffffffffffffffffffff021916908373ffffffffffffffffffffffffffffffffffffffff160217905550818160000160146101000a81548167ffffffffffffffff021916908367ffffffffffffffff1602179055508273ffffffffffffffffffffffffffffffffffffffff16847f4e06b4e7000e659094299b3533b47b6aa8ad048e95e872d23d1f4ee55af89cfe84604051612e599190615273565b60405180910390a350505050565b6000600560008473ffffffffffffffffffffffffffffffffffffffff1673ffffffffffffffffffffffffffffffffffffffff16815260200190815260200160002060008373ffffffffffffffffffffffffffffffffffffffff1673ffffffffffffffffffffffffffffffffffffffff16815260200190815260200160002060009054906101000a900460ff16905092915050565b60008311612f3e576040517f08c379a0000000000000000000000000000000000000000000000000000000008152600401612f35906150ab565b60405180910390fd5b600060095490506001600954612f5491906153db565b6009819055506001600a54612f6991906153db565b600a81905550612f793382613a47565b612f84306001612457565b612f8f813387612d44565b6040518061012001604052808b81526020018a81526020018981526020018881526020018767ffffffffffffffff1681526020018667ffffffffffffffff1681526020018581526020018473ffffffffffffffffffffffffffffffffffffffff1681526020018373ffffffffffffffffffffffffffffffffffffffff16815250600d600083815260200190815260200160002060008201518160000155602082015181600101908051906020019061304892919061409b565b50604082015181600201908051906020019061306592919061409b565b50606082015181600301908051906020019061308292919061409b565b506080820151816004015560a08201518160050160006101000a81548167ffffffffffffffff021916908367ffffffffffffffff16021790555060c0820151816006015560e08201518160070160006101000a81548173ffffffffffffffffffffffffffffffffffffffff021916908373ffffffffffffffffffffffffffffffffffffffff1602179055506101008201518160080160006101000a81548173ffffffffffffffffffffffffffffffffffffffff021916908373ffffffffffffffffffffffffffffffffffffffff160217905550905050601060003373ffffffffffffffffffffffffffffffffffffffff1673ffffffffffffffffffffffffffffffffffffffff16815260200190815260200160002081908060018154018082558091505060019003906000526020600020016000909190919091505550505050505050505050565b60145481565b60007f80ac58cd000000000000000000000000000000000000000000000000000000007bffffffffffffffffffffffffffffffffffffffffffffffffffffffff1916827bffffffffffffffffffffffffffffffffffffffffffffffffffffffff1916148061329b57507f5b5e139f000000000000000000000000000000000000000000000000000000007bffffffffffffffffffffffffffffffffffffffffffffffffffffffff1916827bffffffffffffffffffffffffffffffffffffffffffffffffffffffff1916145b806132ab57506132aa82613c21565b5b9050919050565b6132bb81613c8b565b6132fa576040517f08c379a00000000000000000000000000000000000000000000000000000000081526004016132f190614feb565b60405180910390fd5b50565b600033905090565b816004600083815260200190815260200160002060006101000a81548173ffffffffffffffffffffffffffffffffffffffff021916908373ffffffffffffffffffffffffffffffffffffffff160217905550808273ffffffffffffffffffffffffffffffffffffffff1661337883611316565b73ffffffffffffffffffffffffffffffffffffffff167f8c5be1e5ebec7d5bd14f71427d1e84f3dd0314c0f7b2291e5b200ac8c7c3b92560405160405180910390a45050565b6000806133ca83611316565b90508073ffffffffffffffffffffffffffffffffffffffff168473ffffffffffffffffffffffffffffffffffffffff16148061340c575061340b8185612e67565b5b8061344a57508373ffffffffffffffffffffffffffffffffffffffff1661343284610aac565b73ffffffffffffffffffffffffffffffffffffffff16145b91505092915050565b8273ffffffffffffffffffffffffffffffffffffffff1661347382611316565b73ffffffffffffffffffffffffffffffffffffffff16146134c9576040517f08c379a00000000000000000000000000000000000000000000000000000000081526004016134c090614eab565b60405180910390fd5b600073ffffffffffffffffffffffffffffffffffffffff168273ffffffffffffffffffffffffffffffffffffffff161415613539576040517f08c379a000000000000000000000000000000000000000000000000000000000815260040161353090614f0b565b60405180910390fd5b613544838383613cf7565b61354f600082613305565b6001600360008573ffffffffffffffffffffffffffffffffffffffff1673ffffffffffffffffffffffffffffffffffffffff168152602001908152602001600020600082825461359f91906154bc565b925050819055506001600360008473ffffffffffffffffffffffffffffffffffffffff1673ffffffffffffffffffffffffffffffffffffffff16815260200190815260200160002060008282546135f691906153db565b92505081905550816002600083815260200190815260200160002060006101000a81548173ffffffffffffffffffffffffffffffffffffffff021916908373ffffffffffffffffffffffffffffffffffffffff160217905550808273ffffffffffffffffffffffffffffffffffffffff168473ffffffffffffffffffffffffffffffffffffffff167fddf252ad1be2c89b69c2b068fc378daa952ba7f163c4a11628f55a4df523b3ef60405160405180910390a46136b5838383613e55565b505050565b8173ffffffffffffffffffffffffffffffffffffffff168373ffffffffffffffffffffffffffffffffffffffff161415613729576040517f08c379a000000000000000000000000000000000000000000000000000000000815260040161372090614f2b565b60405180910390fd5b80600560008573ffffffffffffffffffffffffffffffffffffffff1673ffffffffffffffffffffffffffffffffffffffff16815260200190815260200160002060008473ffffffffffffffffffffffffffffffffffffffff1673ffffffffffffffffffffffffffffffffffffffff16815260200190815260200160002060006101000a81548160ff0219169083151502179055508173ffffffffffffffffffffffffffffffffffffffff168373ffffffffffffffffffffffffffffffffffffffff167f17307eab39ab6107e8899845ad3d59bd9653f200f220920489ca2b5937696c318360405161381a9190614e33565b60405180910390a3505050565b613832848484613453565b61383e84848484613e5a565b61387d576040517f08c379a000000000000000000000000000000000000000000000000000000000815260040161387490614e8b565b60405180910390fd5b50505050565b606060405180602001604052806000815250905090565b606060008214156138e2576040518060400160405280600181526020017f30000000000000000000000000000000000000000000000000000000000000008152509050613a42565b600082905060005b600082146139145780806138fd90615641565b915050600a8261390d9190615431565b91506138ea565b60008167ffffffffffffffff811115613956577f4e487b7100000000000000000000000000000000000000000000000000000000600052604160045260246000fd5b6040519080825280601f01601f1916602001820160405280156139885781602001600182028036833780820191505090505b5090505b60008514613a3b576001826139a191906154bc565b9150600a856139b0919061568a565b60306139bc91906153db565b60f81b8183815181106139f8577f4e487b7100000000000000000000000000000000000000000000000000000000600052603260045260246000fd5b60200101907effffffffffffffffffffffffffffffffffffffffffffffffffffffffffffff1916908160001a905350600a85613a349190615431565b945061398c565b8093505050505b919050565b600073ffffffffffffffffffffffffffffffffffffffff168273ffffffffffffffffffffffffffffffffffffffff161415613ab7576040517f08c379a0000000000000000000000000000000000000000000000000000000008152600401613aae90614fab565b60405180910390fd5b613ac081613c8b565b15613b00576040517f08c379a0000000000000000000000000000000000000000000000000000000008152600401613af790614ecb565b60405180910390fd5b613b0c60008383613cf7565b6001600360008473ffffffffffffffffffffffffffffffffffffffff1673ffffffffffffffffffffffffffffffffffffffff1681526020019081526020016000206000828254613b5c91906153db565b92505081905550816002600083815260200190815260200160002060006101000a81548173ffffffffffffffffffffffffffffffffffffffff021916908373ffffffffffffffffffffffffffffffffffffffff160217905550808273ffffffffffffffffffffffffffffffffffffffff16600073ffffffffffffffffffffffffffffffffffffffff167fddf252ad1be2c89b69c2b068fc378daa952ba7f163c4a11628f55a4df523b3ef60405160405180910390a4613c1d60008383613e55565b5050565b60007f01ffc9a7000000000000000000000000000000000000000000000000000000007bffffffffffffffffffffffffffffffffffffffffffffffffffffffff1916827bffffffffffffffffffffffffffffffffffffffffffffffffffffffff1916149050919050565b60008073ffffffffffffffffffffffffffffffffffffffff166002600084815260200190815260200160002060009054906101000a900473ffffffffffffffffffffffffffffffffffffffff1673ffffffffffffffffffffffffffffffffffffffff1614159050919050565b613d02838383613ff1565b8173ffffffffffffffffffffffffffffffffffffffff168373ffffffffffffffffffffffffffffffffffffffff1614158015613da15750600073ffffffffffffffffffffffffffffffffffffffff166006600083815260200190815260200160002060000160009054906101000a900473ffffffffffffffffffffffffffffffffffffffff1673ffffffffffffffffffffffffffffffffffffffff1614155b15613e505760066000828152602001908152602001600020600080820160006101000a81549073ffffffffffffffffffffffffffffffffffffffff02191690556000820160146101000a81549067ffffffffffffffff02191690555050600073ffffffffffffffffffffffffffffffffffffffff16817f4e06b4e7000e659094299b3533b47b6aa8ad048e95e872d23d1f4ee55af89cfe6000604051613e479190614e4e565b60405180910390a35b505050565b505050565b6000613e7b8473ffffffffffffffffffffffffffffffffffffffff16613ff6565b15613fe4578373ffffffffffffffffffffffffffffffffffffffff1663150b7a02613ea46132fd565b8786866040518563ffffffff1660e01b8152600401613ec69493929190614da3565b602060405180830381600087803b158015613ee057600080fd5b505af1925050508015613f1157506040513d601f19601f82011682018060405250810190613f0e919061445c565b60015b613f94573d8060008114613f41576040519150601f19603f3d011682016040523d82523d6000602084013e613f46565b606091505b50600081511415613f8c576040517f08c379a0000000000000000000000000000000000000000000000000000000008152600401613f8390614e8b565b60405180910390fd5b805181602001fd5b63150b7a0260e01b7bffffffffffffffffffffffffffffffffffffffffffffffffffffffff1916817bffffffffffffffffffffffffffffffffffffffffffffffffffffffff191614915050613fe9565b600190505b949350505050565b505050565b6000808273ffffffffffffffffffffffffffffffffffffffff163b119050919050565b6040518061012001604052806000815260200160608152602001606081526020016060815260200160008152602001600067ffffffffffffffff16815260200160008152602001600073ffffffffffffffffffffffffffffffffffffffff168152602001600073ffffffffffffffffffffffffffffffffffffffff1681525090565b8280546140a7906155de565b90600052602060002090601f0160209004810192826140c95760008555614110565b82601f106140e257805160ff1916838001178555614110565b82800160010185558215614110579182015b8281111561410f5782518255916020019190600101906140f4565b5b50905061411d9190614121565b5090565b5b8082111561413a576000816000905550600101614122565b5090565b600061415161414c846152b3565b61528e565b90508281526020810184848401111561416957600080fd5b61417484828561559c565b509392505050565b600061418f61418a846152e4565b61528e565b9050828152602081018484840111156141a757600080fd5b6141b284828561559c565b509392505050565b6000813590506141c981615c0c565b92915050565b6000813590506141de81615c23565b92915050565b6000813590506141f381615c3a565b92915050565b60008151905061420881615c3a565b92915050565b600082601f83011261421f57600080fd5b813561422f84826020860161413e565b91505092915050565b600082601f83011261424957600080fd5b813561425984826020860161417c565b91505092915050565b60008135905061427181615c51565b92915050565b60008135905061428681615c68565b92915050565b60006020828403121561429e57600080fd5b60006142ac848285016141ba565b91505092915050565b600080604083850312156142c857600080fd5b60006142d6858286016141ba565b92505060206142e7858286016141ba565b9150509250929050565b60008060006060848603121561430657600080fd5b6000614314868287016141ba565b9350506020614325868287016141ba565b925050604061433686828701614262565b9150509250925092565b6000806000806080858703121561435657600080fd5b6000614364878288016141ba565b9450506020614375878288016141ba565b935050604061438687828801614262565b925050606085013567ffffffffffffffff8111156143a357600080fd5b6143af8782880161420e565b91505092959194509250565b600080604083850312156143ce57600080fd5b60006143dc858286016141ba565b92505060206143ed858286016141cf565b9150509250929050565b6000806040838503121561440a57600080fd5b6000614418858286016141ba565b925050602061442985828601614262565b9150509250929050565b60006020828403121561444557600080fd5b6000614453848285016141e4565b91505092915050565b60006020828403121561446e57600080fd5b600061447c848285016141f9565b91505092915050565b600080600080600060a0868803121561449d57600080fd5b600086013567ffffffffffffffff8111156144b757600080fd5b6144c388828901614238565b955050602086013567ffffffffffffffff8111156144e057600080fd5b6144ec88828901614238565b945050604086013567ffffffffffffffff81111561450957600080fd5b61451588828901614238565b935050606061452688828901614277565b925050608061453788828901614262565b9150509295509295909350565b60006020828403121561455657600080fd5b600061456484828501614262565b91505092915050565b60008060006060848603121561458257600080fd5b600061459086828701614262565b93505060206145a1868287016141ba565b92505060406145b286828701614277565b9150509250925092565b60008060008060008060008060006101208a8c0312156145db57600080fd5b60006145e98c828d01614262565b99505060208a013567ffffffffffffffff81111561460657600080fd5b6146128c828d01614238565b98505060408a013567ffffffffffffffff81111561462f57600080fd5b61463b8c828d01614238565b97505060608a013567ffffffffffffffff81111561465857600080fd5b6146648c828d01614238565b96505060806146758c828d01614277565b95505060a06146868c828d01614277565b94505060c06146978c828d01614262565b93505060e06146a88c828d016141ba565b9250506101006146ba8c828d016141ba565b9150509295985092959850929598565b6000806000606084860312156146df57600080fd5b60006146ed86828701614262565b93505060206146fe86828701614262565b925050604061470f86828701614262565b9150509250925092565b60008060006060848603121561472e57600080fd5b600061473c86828701614262565b935050602061474d86828701614277565b925050604061475e86828701614262565b9150509250925092565b60006147748383614c00565b60808301905092915050565b600061478c8383614d28565b60208301905092915050565b6147a181615502565b82525050565b6147b081615502565b82525050565b6147bf816154f0565b82525050565b6147ce816154f0565b82525050565b60006147df82615335565b6147e9818561537b565b93506147f483615315565b8060005b8381101561482557815161480c8882614768565b975061481783615361565b9250506001810190506147f8565b5085935050505092915050565b600061483d82615340565b614847818561538c565b935061485283615325565b8060005b8381101561488357815161486a8882614780565b97506148758361536e565b925050600181019050614856565b5085935050505092915050565b61489981615514565b82525050565b60006148aa8261534b565b6148b4818561539d565b93506148c48185602086016155ab565b6148cd81615777565b840191505092915050565b6148e18161558a565b82525050565b60006148f282615356565b6148fc81856153ae565b935061490c8185602086016155ab565b61491581615777565b840191505092915050565b600061492b82615356565b61493581856153bf565b93506149458185602086016155ab565b61494e81615777565b840191505092915050565b600061496482615356565b61496e81856153d0565b935061497e8185602086016155ab565b80840191505092915050565b60006149976032836153bf565b91506149a282615788565b604082019050919050565b60006149ba6025836153bf565b91506149c5826157d7565b604082019050919050565b60006149dd601c836153bf565b91506149e882615826565b602082019050919050565b6000614a00600a836153bf565b9150614a0b8261584f565b602082019050919050565b6000614a236024836153bf565b9150614a2e82615878565b604082019050919050565b6000614a466019836153bf565b9150614a51826158c7565b602082019050919050565b6000614a696016836153bf565b9150614a74826158f0565b602082019050919050565b6000614a8c6029836153bf565b9150614a9782615919565b604082019050919050565b6000614aaf603e836153bf565b9150614aba82615968565b604082019050919050565b6000614ad26020836153bf565b9150614add826159b7565b602082019050919050565b6000614af56021836153bf565b9150614b00826159e0565b604082019050919050565b6000614b186018836153bf565b9150614b2382615a2f565b602082019050919050565b6000614b3b6021836153bf565b9150614b4682615a58565b604082019050919050565b6000614b5e6027836153bf565b9150614b6982615aa7565b604082019050919050565b6000614b816031836153bf565b9150614b8c82615af6565b604082019050919050565b6000614ba46023836153bf565b9150614baf82615b45565b604082019050919050565b6000614bc7602e836153bf565b9150614bd282615b94565b604082019050919050565b6000614bea601c836153bf565b9150614bf582615be3565b602082019050919050565b608082016000820151614c166000850182614d28565b506020820151614c296020850182614d28565b506040820151614c3c6040850182614d28565b506060820151614c4f60608501826147b6565b50505050565b600061012083016000830151614c6e6000860182614d28565b5060208301518482036020860152614c8682826148e7565b91505060408301518482036040860152614ca082826148e7565b91505060608301518482036060860152614cba82826148e7565b9150506080830151614ccf6080860182614d28565b5060a0830151614ce260a0860182614d46565b5060c0830151614cf560c0860182614d28565b5060e0830151614d0860e0860182614798565b50610100830151614d1d610100860182614798565b508091505092915050565b614d318161556c565b82525050565b614d408161556c565b82525050565b614d4f81615576565b82525050565b614d5e81615576565b82525050565b6000614d708285614959565b9150614d7c8284614959565b91508190509392505050565b6000602082019050614d9d60008301846147c5565b92915050565b6000608082019050614db860008301876147c5565b614dc560208301866147c5565b614dd26040830185614d37565b8181036060830152614de4818461489f565b905095945050505050565b60006020820190508181036000830152614e0981846147d4565b905092915050565b60006020820190508181036000830152614e2b8184614832565b905092915050565b6000602082019050614e486000830184614890565b92915050565b6000602082019050614e6360008301846148d8565b92915050565b60006020820190508181036000830152614e838184614920565b905092915050565b60006020820190508181036000830152614ea48161498a565b9050919050565b60006020820190508181036000830152614ec4816149ad565b9050919050565b60006020820190508181036000830152614ee4816149d0565b9050919050565b60006020820190508181036000830152614f04816149f3565b9050919050565b60006020820190508181036000830152614f2481614a16565b9050919050565b60006020820190508181036000830152614f4481614a39565b9050919050565b60006020820190508181036000830152614f6481614a5c565b9050919050565b60006020820190508181036000830152614f8481614a7f565b9050919050565b60006020820190508181036000830152614fa481614aa2565b9050919050565b60006020820190508181036000830152614fc481614ac5565b9050919050565b60006020820190508181036000830152614fe481614ae8565b9050919050565b6000602082019050818103600083015261500481614b0b565b9050919050565b6000602082019050818103600083015261502481614b2e565b9050919050565b6000602082019050818103600083015261504481614b51565b9050919050565b6000602082019050818103600083015261506481614b74565b9050919050565b6000602082019050818103600083015261508481614b97565b9050919050565b600060208201905081810360008301526150a481614bba565b9050919050565b600060208201905081810360008301526150c481614bdd565b9050919050565b600060208201905081810360008301526150e58184614c55565b905092915050565b60006020820190506151026000830184614d37565b92915050565b60006101208201905061511e600083018c614d37565b8181036020830152615130818b614920565b90508181036040830152615144818a614920565b905081810360608301526151588189614920565b90506151676080830188614d37565b61517460a0830187614d55565b61518160c0830186614d37565b61518e60e08301856147a7565b61519c6101008301846147a7565b9a9950505050505050505050565b600060e0820190506151bf600083018a614d37565b81810360208301526151d18189614920565b905081810360408301526151e58188614920565b905081810360608301526151f98187614920565b90506152086080830186614d55565b61521560a0830185614d37565b61522260c08301846147a7565b98975050505050505050565b60006080820190506152436000830187614d37565b6152506020830186614d37565b61525d6040830185614d37565b61526a60608301846147c5565b95945050505050565b60006020820190506152886000830184614d55565b92915050565b60006152986152a9565b90506152a48282615610565b919050565b6000604051905090565b600067ffffffffffffffff8211156152ce576152cd615748565b5b6152d782615777565b9050602081019050919050565b600067ffffffffffffffff8211156152ff576152fe615748565b5b61530882615777565b9050602081019050919050565b6000819050602082019050919050565b6000819050602082019050919050565b600081519050919050565b600081519050919050565b600081519050919050565b600081519050919050565b6000602082019050919050565b6000602082019050919050565b600082825260208201905092915050565b600082825260208201905092915050565b600082825260208201905092915050565b600082825260208201905092915050565b600082825260208201905092915050565b600081905092915050565b60006153e68261556c565b91506153f18361556c565b9250827fffffffffffffffffffffffffffffffffffffffffffffffffffffffffffffffff03821115615426576154256156bb565b5b828201905092915050565b600061543c8261556c565b91506154478361556c565b925082615457576154566156ea565b5b828204905092915050565b600061546d8261556c565b91506154788361556c565b9250817fffffffffffffffffffffffffffffffffffffffffffffffffffffffffffffffff04831182151516156154b1576154b06156bb565b5b828202905092915050565b60006154c78261556c565b91506154d28361556c565b9250828210156154e5576154e46156bb565b5b828203905092915050565b60006154fb8261554c565b9050919050565b600061550d8261554c565b9050919050565b60008115159050919050565b60007fffffffff0000000000000000000000000000000000000000000000000000000082169050919050565b600073ffffffffffffffffffffffffffffffffffffffff82169050919050565b6000819050919050565b600067ffffffffffffffff82169050919050565b600061559582615576565b9050919050565b82818337600083830152505050565b60005b838110156155c95780820151818401526020810190506155ae565b838111156155d8576000848401525b50505050565b600060028204905060018216806155f657607f821691505b6020821081141561560a57615609615719565b5b50919050565b61561982615777565b810181811067ffffffffffffffff8211171561563857615637615748565b5b80604052505050565b600061564c8261556c565b91507fffffffffffffffffffffffffffffffffffffffffffffffffffffffffffffffff82141561567f5761567e6156bb565b5b600182019050919050565b60006156958261556c565b91506156a08361556c565b9250826156b0576156af6156ea565b5b828206905092915050565b7f4e487b7100000000000000000000000000000000000000000000000000000000600052601160045260246000fd5b7f4e487b7100000000000000000000000000000000000000000000000000000000600052601260045260246000fd5b7f4e487b7100000000000000000000000000000000000000000000000000000000600052602260045260246000fd5b7f4e487b7100000000000000000000000000000000000000000000000000000000600052604160045260246000fd5b6000601f19601f8301169050919050565b7f4552433732313a207472616e7366657220746f206e6f6e20455243373231526560008201527f63656976657220696d706c656d656e7465720000000000000000000000000000602082015250565b7f4552433732313a207472616e736665722066726f6d20696e636f72726563742060008201527f6f776e6572000000000000000000000000000000000000000000000000000000602082015250565b7f4552433732313a20746f6b656e20616c7265616479206d696e74656400000000600082015250565b7f4e6f742061207573657200000000000000000000000000000000000000000000600082015250565b7f4552433732313a207472616e7366657220746f20746865207a65726f2061646460008201527f7265737300000000000000000000000000000000000000000000000000000000602082015250565b7f4552433732313a20617070726f766520746f2063616c6c657200000000000000600082015250565b7f4e6f74206120736572766963652050726f766964657200000000000000000000600082015250565b7f4552433732313a2061646472657373207a65726f206973206e6f74206120766160008201527f6c6964206f776e65720000000000000000000000000000000000000000000000602082015250565b7f4552433732313a20617070726f76652063616c6c6572206973206e6f7420746f60008201527f6b656e206f776e6572206e6f7220617070726f76656420666f7220616c6c0000602082015250565b7f4552433732313a206d696e7420746f20746865207a65726f2061646472657373600082015250565b7f506c656173652073656e6420746865206571756976616c656e7420616d6f756e60008201527f7400000000000000000000000000000000000000000000000000000000000000602082015250565b7f4552433732313a20696e76616c696420746f6b656e2049440000000000000000600082015250565b7f4552433732313a20617070726f76616c20746f2063757272656e74206f776e6560008201527f7200000000000000000000000000000000000000000000000000000000000000602082015250565b7f596f752061726520616c726561647920746865206f776e6572206f662074686960008201527f7320746f6b656e00000000000000000000000000000000000000000000000000602082015250565b7f4552433732313a207472616e736665722063616c6c6572206973206e6f74206f60008201527f776e6572206e6f7220617070726f766564000000000000000000000000000000602082015250565b7f596f7520617265206e6f7420746865206f776e6572206f66207468697320746f60008201527f6b656e0000000000000000000000000000000000000000000000000000000000602082015250565b7f4552433732313a2063616c6c6572206973206e6f7420746f6b656e206f776e6560008201527f72206e6f7220617070726f766564000000000000000000000000000000000000602082015250565b7f5072696365206d757374206265206174206c6561737420312077656900000000600082015250565b615c15816154f0565b8114615c2057600080fd5b50565b615c2c81615514565b8114615c3757600080fd5b50565b615c4381615520565b8114615c4e57600080fd5b50565b615c5a8161556c565b8114615c6557600080fd5b50565b615c7181615576565b8114615c7c57600080fd5b5056fea2646970667358221220b3ccade59cae0bd9922599a59dc07ab7cf4f8f94faac685875668419bb02e32664736f6c63430008040033",
  "immutableReferences": {},
  "source": "// SPDX-License-Identifier: MIT\npragma solidity ^0.8.1;\nimport \"./ERC4907.sol\";\n\ncontract eazyVideoNFTContract is ERC4907 {\n    address payable owner;\n\n    mapping(uint256 => address payable) nftOwner;\n\n    uint256 public tID;\n\n    uint256 public totalTokensMinted;\n\n    address private ERC4907ContractAddress;\n\n    constructor() {\n        owner = payable(msg.sender);\n    }\n\n    // For only service providers\n    struct Service {\n        uint256 serviceid;\n        string name;\n        string ImageUri;\n        string description;\n        uint64 planDuration;\n        uint256 price;\n        address payable serviceProvider;\n    }\n\n    // For every NFT Subscription Plan\n    struct NFTItem {\n        uint256 serviceid;\n        string serviceName;\n        string ImageUri;\n        string description;\n        uint256 duration;\n        uint64 endTime;\n        uint256 price;\n        address payable owner;\n        address payable serviceProvider;\n    }\n\n    // For Lending the NFT Subscription Plan\n    struct Lend {\n        uint256 tokenId;\n        uint256 price;\n        uint256 duration;\n        address renter;\n    }\n\n    // 2 - For Service provider, 1 - For a User\n    mapping(address => uint256) public accountType;\n\n    mapping(uint256 => NFTItem) public idToNftItem;\n\n    mapping(uint256 => Service) public services;\n    mapping(address => uint256[]) public serviceProviderToIds;\n    mapping(address => uint256[]) public userAvailablePlans;\n    mapping(address => Lend[]) public userForLendPlans;\n\n    Lend[] public forLendServices;\n    uint256 public totalServices;\n    uint256 public totalLendServices;\n\n    /**\n     * @notice modifier to check if user is valid\n     */\n    modifier onlyUser() {\n        require(accountType[msg.sender] == 1, \"Not a user\");\n        _;\n    }\n\n    /**\n     * @notice modifier to check if service provider is valid\n     */\n    modifier onlyServiceProvider() {\n        require(accountType[msg.sender] == 2, \"Not a service Provider\");\n        _;\n    }\n\n    function memcmp(bytes memory a, bytes memory b)\n        internal\n        pure\n        returns (bool)\n    {\n        return (a.length == b.length) && (keccak256(a) == keccak256(b));\n    }\n\n    function strcmp(string memory a, string memory b)\n        internal\n        pure\n        returns (bool)\n    {\n        return memcmp(bytes(a), bytes(b));\n    }\n\n    function login(uint256 _accountType) public returns (string memory) {\n        // SERVICE PROVIDER\n        if (accountType[msg.sender] == 2) {\n            return \"SERVICE PROVIDER\";\n        }\n        // USER\n        else if (accountType[msg.sender] == 1) {\n            return \"USER\";\n        }\n\n        accountType[msg.sender] = _accountType;\n        return \"Account Created\";\n    }\n\n    function AddServiceToPlatform(\n        string memory _name,\n        string memory _ImageUri,\n        string memory _description,\n        uint64 _planDuration,\n        uint256 _planPrice\n    ) public onlyServiceProvider {\n        services[totalServices] = Service({\n            serviceid: totalServices,\n            name: _name,\n            ImageUri: _ImageUri,\n            description: _description,\n            planDuration: _planDuration,\n            price: _planPrice,\n            serviceProvider: payable(msg.sender)\n        });\n\n        serviceProviderToIds[msg.sender].push(totalServices);\n\n        totalServices = totalServices + 1;\n    }\n\n    function BuyServiceFromServiceProvider(uint256 _serviceid)\n        public\n        payable\n        onlyUser\n    {\n        Service storage service = services[_serviceid];\n\n        uint64 _time = uint64(block.timestamp + service.planDuration);\n        uint256 _price = service.price;\n\n        require(_price == msg.value, \"Please send the equivalent amount\");\n        service.serviceProvider.transfer(msg.value);\n\n        // Mint a expirable NFT by setting approval for the contract address first\n        mintNFT(\n            _serviceid,\n            service.name,\n            service.ImageUri,\n            service.description,\n            service.planDuration,\n            _time,\n            _price,\n            msg.sender,\n            service.serviceProvider\n        );\n\n        userAvailablePlans[msg.sender].push(_serviceid);\n    }\n\n    function LendUserNFTPlan(\n        uint256 _tokenId,\n        uint256 _days,\n        uint256 _amount\n    ) public onlyUser {\n        require(\n            idToNftItem[_tokenId].owner == msg.sender,\n            \"You are not the owner of this token\"\n        );\n\n        Lend storage newLendPlan = forLendServices.push();\n        newLendPlan.tokenId = _tokenId;\n        newLendPlan.price = _amount;\n        newLendPlan.duration = block.timestamp + (_days * 24 * 60 * 60);\n        newLendPlan.renter = address(0);\n\n        userForLendPlans[msg.sender].push(newLendPlan);\n        totalLendServices = totalLendServices + 1;\n\n        // remove token from user availble plans\n\n        uint256 removeIndex = 0;\n        for (uint256 i = 0; i < userAvailablePlans[msg.sender].length; i++) {\n            if (_tokenId == userAvailablePlans[msg.sender][i]) removeIndex = i;\n        }\n\n        for (\n            uint256 i = removeIndex;\n            i < userAvailablePlans[msg.sender].length - 1;\n            i++\n        ) {\n            userAvailablePlans[msg.sender][i] = userAvailablePlans[msg.sender][\n                i + 1\n            ];\n        }\n        delete userAvailablePlans[msg.sender][\n            userAvailablePlans[msg.sender].length - 1\n        ];\n    }\n\n    function RentPlan(\n        uint256 _tokenId,\n        uint64 _days,\n        uint256 _amount\n    ) public {\n        require(\n            idToNftItem[_tokenId].owner != msg.sender,\n            \"You are already the owner of this token\"\n        );\n        uint256 index;\n        for (uint256 i = 0; i < totalLendServices; i++) {\n            if (forLendServices[i].tokenId == _tokenId) index = i;\n        }\n\n        forLendServices[index].renter = msg.sender;\n\n        // Now remove from user available services\n\n        for (uint256 i = 0; i < totalLendServices; i++) {\n            if (forLendServices[i].tokenId == _tokenId) index = i;\n        }\n        for (uint256 i = index; i < totalLendServices - 1; i++) {\n            forLendServices[i] = forLendServices[i + 1];\n        }\n        delete forLendServices[totalLendServices - 1];\n\n        rentNFT(_tokenId, _days, _amount);\n    }\n\n    function mintNFT(\n        uint256 _serviceid,\n        string memory _serviceName,\n        string memory _imageUri,\n        string memory _description,\n        uint64 _duration,\n        uint64 _endTime,\n        uint256 _price,\n        address _owner,\n        address _serviceProvider\n    ) public {\n        require(_price > 0, \"Price must be at least 1 wei\");\n        uint256 tokenID = tID;\n        tID = tID + 1;\n        totalTokensMinted = totalTokensMinted + 1;\n\n        // Service provider approveforAll allow msg.sender\n\n        _mint(msg.sender, tokenID);\n        setApprovalForAll(address(this), true);\n        setUser(tokenID, msg.sender, _endTime);\n\n        idToNftItem[tokenID] = NFTItem({\n            serviceid: _serviceid,\n            serviceName: _serviceName,\n            ImageUri: _imageUri,\n            description: _description,\n            duration: _duration,\n            endTime: _endTime,\n            price: _price,\n            owner: payable(_owner),\n            serviceProvider: payable(_serviceProvider)\n        });\n\n        userAvailablePlans[msg.sender].push(tokenID);\n    }\n\n    function rentNFT(\n        uint256 tokenID,\n        uint64 _days,\n        uint256 _amount\n    ) public payable {\n        setUser(tokenID, msg.sender, _days);\n        payable(idToNftItem[tokenID].owner).transfer(_amount);\n        idToNftItem[tokenID].owner = payable(msg.sender);\n    }\n\n    // get functions for web3\n\n    function getTotalServices() public view returns (uint256) {\n        return totalServices;\n    }\n\n    function getNFTDetailsFromId(uint256 _tokenID)\n        public\n        view\n        returns (NFTItem memory)\n    {\n        return idToNftItem[_tokenID];\n    }\n\n    function fetchAllUserAvailableNFTPlans()\n        public\n        view\n        returns (uint256[] memory)\n    {\n        return userAvailablePlans[msg.sender];\n    }\n\n    function fetchAllUserLendNFTPlans() public view returns (Lend[] memory) {\n        return userForLendPlans[msg.sender];\n    }\n}\n",
  "sourcePath": "C:\\Users\\hardi\\Desktop\\EazyVideo\\truffle\\contracts\\SubsNFT.sol",
  "compiler": {
    "name": "solc",
    "version": "0.8.4+commit.c7e474f2.Emscripten.clang"
  },
  "schemaVersion": "3.4.0",
  "updatedAt": "2022-07-31T18:00:28.699Z",
  "devdoc": {
    "kind": "dev",
    "methods": {
      "approve(address,uint256)": {
        "details": "See {IERC721-approve}."
      },
      "balanceOf(address)": {
        "details": "See {IERC721-balanceOf}."
      },
      "getApproved(uint256)": {
        "details": "See {IERC721-getApproved}."
      },
      "isApprovedForAll(address,address)": {
        "details": "See {IERC721-isApprovedForAll}."
      },
      "name()": {
        "details": "See {IERC721Metadata-name}."
      },
      "ownerOf(uint256)": {
        "details": "See {IERC721-ownerOf}."
      },
      "safeTransferFrom(address,address,uint256)": {
        "details": "See {IERC721-safeTransferFrom}."
      },
      "safeTransferFrom(address,address,uint256,bytes)": {
        "details": "See {IERC721-safeTransferFrom}."
      },
      "setApprovalForAll(address,bool)": {
        "details": "See {IERC721-setApprovalForAll}."
      },
      "setUser(uint256,address,uint64)": {
        "details": "The zero address indicates there is no user Throws if `tokenId` is not valid NFT",
        "params": {
          "expires": "UNIX timestamp, The new user could use the NFT before expires",
          "user": "The new user of the NFT"
        }
      },
      "supportsInterface(bytes4)": {
        "details": "See {IERC165-supportsInterface}."
      },
      "symbol()": {
        "details": "See {IERC721Metadata-symbol}."
      },
      "tokenURI(uint256)": {
        "details": "See {IERC721Metadata-tokenURI}."
      },
      "transferFrom(address,address,uint256)": {
        "details": "See {IERC721-transferFrom}."
      },
      "userExpires(uint256)": {
        "details": "The zero value indicates that there is no user",
        "params": {
          "tokenId": "The NFT to get the user expires for"
        },
        "returns": {
          "_0": "The user expires for this NFT"
        }
      },
      "userOf(uint256)": {
        "details": "The zero address indicates that there is no user or the user is expired",
        "params": {
          "tokenId": "The NFT to get the user address for"
        },
        "returns": {
          "_0": "The user address for this NFT"
        }
      }
    },
    "version": 1
  },
  "userdoc": {
    "events": {
      "UpdateUser(uint256,address,uint64)": {
        "notice": "Emitted when the `user` of an NFT or the `expires` of the `user` is changed The zero address for user indicates that there is no user address"
      }
    },
    "kind": "user",
    "methods": {
      "setUser(uint256,address,uint64)": {
        "notice": "set the user and expires of a NFT"
      },
      "userExpires(uint256)": {
        "notice": "Get the user expires of an NFT"
      },
      "userOf(uint256)": {
        "notice": "Get the user address of an NFT"
      }
    },
    "version": 1
  }
}