{
  "contractName": "eazyVideoNFTContract",
  "abi": [
    {
      "inputs": [],
      "stateMutability": "nonpayable",
      "type": "constructor"
    },
    {
      "anonymous": false,
      "inputs": [
        {
          "indexed": true,
          "internalType": "address",
          "name": "owner",
          "type": "address"
        },
        {
          "indexed": true,
          "internalType": "address",
          "name": "approved",
          "type": "address"
        },
        {
          "indexed": true,
          "internalType": "uint256",
          "name": "tokenId",
          "type": "uint256"
        }
      ],
      "name": "Approval",
      "type": "event"
    },
    {
      "anonymous": false,
      "inputs": [
        {
          "indexed": true,
          "internalType": "address",
          "name": "owner",
          "type": "address"
        },
        {
          "indexed": true,
          "internalType": "address",
          "name": "operator",
          "type": "address"
        },
        {
          "indexed": false,
          "internalType": "bool",
          "name": "approved",
          "type": "bool"
        }
      ],
      "name": "ApprovalForAll",
      "type": "event"
    },
    {
      "anonymous": false,
      "inputs": [
        {
          "indexed": true,
          "internalType": "address",
          "name": "from",
          "type": "address"
        },
        {
          "indexed": true,
          "internalType": "address",
          "name": "to",
          "type": "address"
        },
        {
          "indexed": true,
          "internalType": "uint256",
          "name": "tokenId",
          "type": "uint256"
        }
      ],
      "name": "Transfer",
      "type": "event"
    },
    {
      "anonymous": false,
      "inputs": [
        {
          "indexed": true,
          "internalType": "uint256",
          "name": "tokenId",
          "type": "uint256"
        },
        {
          "indexed": true,
          "internalType": "address",
          "name": "user",
          "type": "address"
        },
        {
          "indexed": false,
          "internalType": "uint64",
          "name": "expires",
          "type": "uint64"
        }
      ],
      "name": "UpdateUser",
      "type": "event"
    },
    {
      "inputs": [
        {
          "internalType": "address",
          "name": "to",
          "type": "address"
        },
        {
          "internalType": "uint256",
          "name": "tokenId",
          "type": "uint256"
        }
      ],
      "name": "approve",
      "outputs": [],
      "stateMutability": "nonpayable",
      "type": "function"
    },
    {
      "inputs": [
        {
          "internalType": "address",
          "name": "owner",
          "type": "address"
        }
      ],
      "name": "balanceOf",
      "outputs": [
        {
          "internalType": "uint256",
          "name": "",
          "type": "uint256"
        }
      ],
      "stateMutability": "view",
      "type": "function"
    },
    {
      "inputs": [
        {
          "internalType": "uint256",
          "name": "tokenId",
          "type": "uint256"
        }
      ],
      "name": "getApproved",
      "outputs": [
        {
          "internalType": "address",
          "name": "",
          "type": "address"
        }
      ],
      "stateMutability": "view",
      "type": "function"
    },
    {
      "inputs": [
        {
          "internalType": "uint256",
          "name": "",
          "type": "uint256"
        }
      ],
      "name": "idToNftItem",
      "outputs": [
        {
          "internalType": "string",
          "name": "serviceName",
          "type": "string"
        },
        {
          "internalType": "string",
          "name": "ImageUri",
          "type": "string"
        },
        {
          "internalType": "string",
          "name": "description",
          "type": "string"
        },
        {
          "internalType": "uint256",
          "name": "duration",
          "type": "uint256"
        },
        {
          "internalType": "uint64",
          "name": "endTime",
          "type": "uint64"
        },
        {
          "internalType": "uint256",
          "name": "price",
          "type": "uint256"
        },
        {
          "internalType": "address payable",
          "name": "owner",
          "type": "address"
        },
        {
          "internalType": "address payable",
          "name": "serviceProvider",
          "type": "address"
        }
      ],
      "stateMutability": "view",
      "type": "function"
    },
    {
      "inputs": [
        {
          "internalType": "address",
          "name": "owner",
          "type": "address"
        },
        {
          "internalType": "address",
          "name": "operator",
          "type": "address"
        }
      ],
      "name": "isApprovedForAll",
      "outputs": [
        {
          "internalType": "bool",
          "name": "",
          "type": "bool"
        }
      ],
      "stateMutability": "view",
      "type": "function"
    },
    {
      "inputs": [],
      "name": "name",
      "outputs": [
        {
          "internalType": "string",
          "name": "",
          "type": "string"
        }
      ],
      "stateMutability": "view",
      "type": "function"
    },
    {
      "inputs": [
        {
          "internalType": "uint256",
          "name": "tokenId",
          "type": "uint256"
        }
      ],
      "name": "ownerOf",
      "outputs": [
        {
          "internalType": "address",
          "name": "",
          "type": "address"
        }
      ],
      "stateMutability": "view",
      "type": "function"
    },
    {
      "inputs": [
        {
          "internalType": "address",
          "name": "from",
          "type": "address"
        },
        {
          "internalType": "address",
          "name": "to",
          "type": "address"
        },
        {
          "internalType": "uint256",
          "name": "tokenId",
          "type": "uint256"
        }
      ],
      "name": "safeTransferFrom",
      "outputs": [],
      "stateMutability": "nonpayable",
      "type": "function"
    },
    {
      "inputs": [
        {
          "internalType": "address",
          "name": "from",
          "type": "address"
        },
        {
          "internalType": "address",
          "name": "to",
          "type": "address"
        },
        {
          "internalType": "uint256",
          "name": "tokenId",
          "type": "uint256"
        },
        {
          "internalType": "bytes",
          "name": "data",
          "type": "bytes"
        }
      ],
      "name": "safeTransferFrom",
      "outputs": [],
      "stateMutability": "nonpayable",
      "type": "function"
    },
    {
      "inputs": [
        {
          "internalType": "address",
          "name": "operator",
          "type": "address"
        },
        {
          "internalType": "bool",
          "name": "approved",
          "type": "bool"
        }
      ],
      "name": "setApprovalForAll",
      "outputs": [],
      "stateMutability": "nonpayable",
      "type": "function"
    },
    {
      "inputs": [
        {
          "internalType": "uint256",
          "name": "tokenId",
          "type": "uint256"
        },
        {
          "internalType": "address",
          "name": "user",
          "type": "address"
        },
        {
          "internalType": "uint64",
          "name": "expires",
          "type": "uint64"
        }
      ],
      "name": "setUser",
      "outputs": [],
      "stateMutability": "nonpayable",
      "type": "function"
    },
    {
      "inputs": [
        {
          "internalType": "bytes4",
          "name": "interfaceId",
          "type": "bytes4"
        }
      ],
      "name": "supportsInterface",
      "outputs": [
        {
          "internalType": "bool",
          "name": "",
          "type": "bool"
        }
      ],
      "stateMutability": "view",
      "type": "function"
    },
    {
      "inputs": [],
      "name": "symbol",
      "outputs": [
        {
          "internalType": "string",
          "name": "",
          "type": "string"
        }
      ],
      "stateMutability": "view",
      "type": "function"
    },
    {
      "inputs": [
        {
          "internalType": "uint256",
          "name": "tokenId",
          "type": "uint256"
        }
      ],
      "name": "tokenURI",
      "outputs": [
        {
          "internalType": "string",
          "name": "",
          "type": "string"
        }
      ],
      "stateMutability": "view",
      "type": "function"
    },
    {
      "inputs": [],
      "name": "totalTokensMinted",
      "outputs": [
        {
          "internalType": "uint256",
          "name": "_value",
          "type": "uint256"
        }
      ],
      "stateMutability": "view",
      "type": "function"
    },
    {
      "inputs": [
        {
          "internalType": "address",
          "name": "from",
          "type": "address"
        },
        {
          "internalType": "address",
          "name": "to",
          "type": "address"
        },
        {
          "internalType": "uint256",
          "name": "tokenId",
          "type": "uint256"
        }
      ],
      "name": "transferFrom",
      "outputs": [],
      "stateMutability": "nonpayable",
      "type": "function"
    },
    {
      "inputs": [
        {
          "internalType": "uint256",
          "name": "tokenId",
          "type": "uint256"
        }
      ],
      "name": "userExpires",
      "outputs": [
        {
          "internalType": "uint256",
          "name": "",
          "type": "uint256"
        }
      ],
      "stateMutability": "view",
      "type": "function"
    },
    {
      "inputs": [
        {
          "internalType": "address",
          "name": "",
          "type": "address"
        },
        {
          "internalType": "uint256",
          "name": "",
          "type": "uint256"
        }
      ],
      "name": "userNFTItem",
      "outputs": [
        {
          "internalType": "string",
          "name": "serviceName",
          "type": "string"
        },
        {
          "internalType": "string",
          "name": "ImageUri",
          "type": "string"
        },
        {
          "internalType": "string",
          "name": "description",
          "type": "string"
        },
        {
          "internalType": "uint256",
          "name": "duration",
          "type": "uint256"
        },
        {
          "internalType": "uint64",
          "name": "endTime",
          "type": "uint64"
        },
        {
          "internalType": "uint256",
          "name": "price",
          "type": "uint256"
        },
        {
          "internalType": "address payable",
          "name": "owner",
          "type": "address"
        },
        {
          "internalType": "address payable",
          "name": "serviceProvider",
          "type": "address"
        }
      ],
      "stateMutability": "view",
      "type": "function"
    },
    {
      "inputs": [
        {
          "internalType": "uint256",
          "name": "tokenId",
          "type": "uint256"
        }
      ],
      "name": "userOf",
      "outputs": [
        {
          "internalType": "address",
          "name": "",
          "type": "address"
        }
      ],
      "stateMutability": "view",
      "type": "function"
    },
    {
      "inputs": [
        {
          "internalType": "string",
          "name": "_serviceName",
          "type": "string"
        },
        {
          "internalType": "string",
          "name": "_imageUri",
          "type": "string"
        },
        {
          "internalType": "string",
          "name": "_description",
          "type": "string"
        },
        {
          "internalType": "uint64",
          "name": "_duration",
          "type": "uint64"
        },
        {
          "internalType": "uint64",
          "name": "_endTime",
          "type": "uint64"
        },
        {
          "internalType": "uint256",
          "name": "_price",
          "type": "uint256"
        },
        {
          "internalType": "address",
          "name": "_owner",
          "type": "address"
        },
        {
          "internalType": "address",
          "name": "_serviceProvider",
          "type": "address"
        }
      ],
      "name": "mintNFT",
      "outputs": [],
      "stateMutability": "nonpayable",
      "type": "function"
    },
    {
      "inputs": [
        {
          "internalType": "uint256",
          "name": "tokenID",
          "type": "uint256"
        },
        {
          "internalType": "uint64",
          "name": "_days",
          "type": "uint64"
        },
        {
          "internalType": "uint256",
          "name": "_amount",
          "type": "uint256"
        }
      ],
      "name": "rentNFT",
      "outputs": [],
      "stateMutability": "payable",
      "type": "function"
    },
    {
      "inputs": [],
      "name": "fetchAllUserNFTItems",
      "outputs": [
        {
          "components": [
            {
              "internalType": "string",
              "name": "serviceName",
              "type": "string"
            },
            {
              "internalType": "string",
              "name": "ImageUri",
              "type": "string"
            },
            {
              "internalType": "string",
              "name": "description",
              "type": "string"
            },
            {
              "internalType": "uint256",
              "name": "duration",
              "type": "uint256"
            },
            {
              "internalType": "uint64",
              "name": "endTime",
              "type": "uint64"
            },
            {
              "internalType": "uint256",
              "name": "price",
              "type": "uint256"
            },
            {
              "internalType": "address payable",
              "name": "owner",
              "type": "address"
            },
            {
              "internalType": "address payable",
              "name": "serviceProvider",
              "type": "address"
            }
          ],
          "internalType": "struct eazyVideoNFTContract.NFTItem[]",
          "name": "",
          "type": "tuple[]"
        }
      ],
      "stateMutability": "view",
      "type": "function"
    }
  ],
  "bytecode": "0x60806040523480156200001157600080fd5b506040518060400160405280600981526020017f65617a79566964656f00000000000000000000000000000000000000000000008152506040518060400160405280600481526020017f65617a790000000000000000000000000000000000000000000000000000000081525081600090805190602001906200009692919062000101565b508060019080519060200190620000af92919062000101565b505050600160078190555033600860006101000a81548173ffffffffffffffffffffffffffffffffffffffff021916908373ffffffffffffffffffffffffffffffffffffffff16021790555062000216565b8280546200010f90620001b1565b90600052602060002090601f0160209004810192826200013357600085556200017f565b82601f106200014e57805160ff19168380011785556200017f565b828001600101855582156200017f579182015b828111156200017e57825182559160200191906001019062000161565b5b5090506200018e919062000192565b5090565b5b80821115620001ad57600081600090555060010162000193565b5090565b60006002820490506001821680620001ca57607f821691505b60208210811415620001e157620001e0620001e7565b5b50919050565b7f4e487b7100000000000000000000000000000000000000000000000000000000600052602260045260246000fd5b61407b80620002266000396000f3fe6080604052600436106101355760003560e01c80638dadd457116100ab578063a22cb4651161006f578063a22cb4651461045f578063b88d4fde14610488578063c2f1f14a146104b1578063c87b56dd146104ee578063e030565e1461052b578063e985e9c51461055457610135565b80638dadd4571461035f5780638fc88c48146103a357806395d89b41146103e0578063974026511461040b5780639bb4e2731461043657610135565b806342842e0e116100fd57806342842e0e146102315780634d1e02211461025a5780636352211e1461027657806370a08231146102b35780637a7e252c146102f05780637d549e991461033457610135565b806301ffc9a71461013a57806306fdde0314610177578063081812fc146101a2578063095ea7b3146101df57806323b872dd14610208575b600080fd5b34801561014657600080fd5b50610161600480360381019061015c9190612dc8565b610591565b60405161016e919061351c565b60405180910390f35b34801561018357600080fd5b5061018c61060b565b6040516101999190613552565b60405180910390f35b3480156101ae57600080fd5b506101c960048036038101906101c49190612f14565b61069d565b6040516101d69190613493565b60405180910390f35b3480156101eb57600080fd5b5061020660048036038101906102019190612d8c565b6106e3565b005b34801561021457600080fd5b5061022f600480360381019061022a9190612c86565b6107fb565b005b34801561023d57600080fd5b5061025860048036038101906102539190612c86565b61085b565b005b610274600480360381019061026f9190612f8c565b61087b565b005b34801561028257600080fd5b5061029d60048036038101906102989190612f14565b61095d565b6040516102aa9190613493565b60405180910390f35b3480156102bf57600080fd5b506102da60048036038101906102d59190612c21565b610a0f565b6040516102e791906137c7565b60405180910390f35b3480156102fc57600080fd5b5061031760048036038101906103129190612d8c565b610ac7565b60405161032b989796959493929190613574565b60405180910390f35b34801561034057600080fd5b50610349610d18565b60405161035691906137c7565b60405180910390f35b34801561036b57600080fd5b5061038660048036038101906103819190612f14565b610d24565b60405161039a989796959493929190613574565b60405180910390f35b3480156103af57600080fd5b506103ca60048036038101906103c59190612f14565b610f58565b6040516103d791906137c7565b60405180910390f35b3480156103ec57600080fd5b506103f5610f96565b6040516104029190613552565b60405180910390f35b34801561041757600080fd5b50610420611028565b60405161042d91906134fa565b60405180910390f35b34801561044257600080fd5b5061045d60048036038101906104589190612e1a565b61136d565b005b34801561046b57600080fd5b5061048660048036038101906104819190612d50565b61181a565b005b34801561049457600080fd5b506104af60048036038101906104aa9190612cd5565b611830565b005b3480156104bd57600080fd5b506104d860048036038101906104d39190612f14565b611892565b6040516104e59190613493565b60405180910390f35b3480156104fa57600080fd5b5061051560048036038101906105109190612f14565b611917565b6040516105229190613552565b60405180910390f35b34801561053757600080fd5b50610552600480360381019061054d9190612f3d565b61197f565b005b34801561056057600080fd5b5061057b60048036038101906105769190612c4a565b611aa2565b604051610588919061351c565b60405180910390f35b60007fad092b5c000000000000000000000000000000000000000000000000000000007bffffffffffffffffffffffffffffffffffffffffffffffffffffffff1916827bffffffffffffffffffffffffffffffffffffffffffffffffffffffff19161480610604575061060382611b36565b5b9050919050565b60606000805461061a90613aba565b80601f016020809104026020016040519081016040528092919081815260200182805461064690613aba565b80156106935780601f1061066857610100808354040283529160200191610693565b820191906000526020600020905b81548152906001019060200180831161067657829003601f168201915b5050505050905090565b60006106a882611c18565b6004600083815260200190815260200160002060009054906101000a900473ffffffffffffffffffffffffffffffffffffffff169050919050565b60006106ee8261095d565b90508073ffffffffffffffffffffffffffffffffffffffff168373ffffffffffffffffffffffffffffffffffffffff16141561075f576040517f08c379a000000000000000000000000000000000000000000000000000000000815260040161075690613727565b60405180910390fd5b8073ffffffffffffffffffffffffffffffffffffffff1661077e611c63565b73ffffffffffffffffffffffffffffffffffffffff1614806107ad57506107ac816107a7611c63565b611aa2565b5b6107ec576040517f08c379a00000000000000000000000000000000000000000000000000000000081526004016107e3906136c7565b60405180910390fd5b6107f68383611c6b565b505050565b61080c610806611c63565b82611d24565b61084b576040517f08c379a000000000000000000000000000000000000000000000000000000000815260040161084290613767565b60405180910390fd5b610856838383611db9565b505050565b61087683838360405180602001604052806000815250611830565b505050565b61088683338461197f565b600d600084815260200190815260200160002060060160009054906101000a900473ffffffffffffffffffffffffffffffffffffffff1673ffffffffffffffffffffffffffffffffffffffff166108fc829081150290604051600060405180830381858888f19350505050158015610902573d6000803e3d6000fd5b5033600d600085815260200190815260200160002060060160006101000a81548173ffffffffffffffffffffffffffffffffffffffff021916908373ffffffffffffffffffffffffffffffffffffffff160217905550505050565b6000806002600084815260200190815260200160002060009054906101000a900473ffffffffffffffffffffffffffffffffffffffff169050600073ffffffffffffffffffffffffffffffffffffffff168173ffffffffffffffffffffffffffffffffffffffff161415610a06576040517f08c379a00000000000000000000000000000000000000000000000000000000081526004016109fd90613707565b60405180910390fd5b80915050919050565b60008073ffffffffffffffffffffffffffffffffffffffff168273ffffffffffffffffffffffffffffffffffffffff161415610a80576040517f08c379a0000000000000000000000000000000000000000000000000000000008152600401610a77906136a7565b60405180910390fd5b600360008373ffffffffffffffffffffffffffffffffffffffff1673ffffffffffffffffffffffffffffffffffffffff168152602001908152602001600020549050919050565b600e6020528160005260406000208181548110610ae357600080fd5b906000526020600020906008020160009150915050806000018054610b0790613aba565b80601f0160208091040260200160405190810160405280929190818152602001828054610b3390613aba565b8015610b805780601f10610b5557610100808354040283529160200191610b80565b820191906000526020600020905b815481529060010190602001808311610b6357829003601f168201915b505050505090806001018054610b9590613aba565b80601f0160208091040260200160405190810160405280929190818152602001828054610bc190613aba565b8015610c0e5780601f10610be357610100808354040283529160200191610c0e565b820191906000526020600020905b815481529060010190602001808311610bf157829003601f168201915b505050505090806002018054610c2390613aba565b80601f0160208091040260200160405190810160405280929190818152602001828054610c4f90613aba565b8015610c9c5780601f10610c7157610100808354040283529160200191610c9c565b820191906000526020600020905b815481529060010190602001808311610c7f57829003601f168201915b5050505050908060030154908060040160009054906101000a900467ffffffffffffffff16908060050154908060060160009054906101000a900473ffffffffffffffffffffffffffffffffffffffff16908060070160009054906101000a900473ffffffffffffffffffffffffffffffffffffffff16905088565b600b8060000154905081565b600d602052806000526040600020600091509050806000018054610d4790613aba565b80601f0160208091040260200160405190810160405280929190818152602001828054610d7390613aba565b8015610dc05780601f10610d9557610100808354040283529160200191610dc0565b820191906000526020600020905b815481529060010190602001808311610da357829003601f168201915b505050505090806001018054610dd590613aba565b80601f0160208091040260200160405190810160405280929190818152602001828054610e0190613aba565b8015610e4e5780601f10610e2357610100808354040283529160200191610e4e565b820191906000526020600020905b815481529060010190602001808311610e3157829003601f168201915b505050505090806002018054610e6390613aba565b80601f0160208091040260200160405190810160405280929190818152602001828054610e8f90613aba565b8015610edc5780601f10610eb157610100808354040283529160200191610edc565b820191906000526020600020905b815481529060010190602001808311610ebf57829003601f168201915b5050505050908060030154908060040160009054906101000a900467ffffffffffffffff16908060050154908060060160009054906101000a900473ffffffffffffffffffffffffffffffffffffffff16908060070160009054906101000a900473ffffffffffffffffffffffffffffffffffffffff16905088565b60006006600083815260200190815260200160002060000160149054906101000a900467ffffffffffffffff1667ffffffffffffffff169050919050565b606060018054610fa590613aba565b80601f0160208091040260200160405190810160405280929190818152602001828054610fd190613aba565b801561101e5780601f10610ff35761010080835404028352916020019161101e565b820191906000526020600020905b81548152906001019060200180831161100157829003601f168201915b5050505050905090565b6060600e60003373ffffffffffffffffffffffffffffffffffffffff1673ffffffffffffffffffffffffffffffffffffffff168152602001908152602001600020805480602002602001604051908101604052809291908181526020016000905b828210156113645783829060005260206000209060080201604051806101000160405290816000820180546110bd90613aba565b80601f01602080910402602001604051908101604052809291908181526020018280546110e990613aba565b80156111365780601f1061110b57610100808354040283529160200191611136565b820191906000526020600020905b81548152906001019060200180831161111957829003601f168201915b5050505050815260200160018201805461114f90613aba565b80601f016020809104026020016040519081016040528092919081815260200182805461117b90613aba565b80156111c85780601f1061119d576101008083540402835291602001916111c8565b820191906000526020600020905b8154815290600101906020018083116111ab57829003601f168201915b505050505081526020016002820180546111e190613aba565b80601f016020809104026020016040519081016040528092919081815260200182805461120d90613aba565b801561125a5780601f1061122f5761010080835404028352916020019161125a565b820191906000526020600020905b81548152906001019060200180831161123d57829003601f168201915b50505050508152602001600382015481526020016004820160009054906101000a900467ffffffffffffffff1667ffffffffffffffff1667ffffffffffffffff168152602001600582015481526020016006820160009054906101000a900473ffffffffffffffffffffffffffffffffffffffff1673ffffffffffffffffffffffffffffffffffffffff1673ffffffffffffffffffffffffffffffffffffffff1681526020016007820160009054906101000a900473ffffffffffffffffffffffffffffffffffffffff1673ffffffffffffffffffffffffffffffffffffffff1673ffffffffffffffffffffffffffffffffffffffff168152505081526020019060010190611089565b50505050905090565b600260075414156113b3576040517f08c379a00000000000000000000000000000000000000000000000000000000081526004016113aa90613787565b60405180910390fd5b6002600781905550600083116113fe576040517f08c379a00000000000000000000000000000000000000000000000000000000081526004016113f5906137a7565b60405180910390fd5b611408600a612020565b6000611414600a612036565b9050611442600860009054906101000a900473ffffffffffffffffffffffffffffffffffffffff1682612044565b61144d81338761197f565b6040518061010001604052808a81526020018981526020018881526020018767ffffffffffffffff1681526020018667ffffffffffffffff1681526020018581526020018473ffffffffffffffffffffffffffffffffffffffff1681526020018373ffffffffffffffffffffffffffffffffffffffff16815250600d600083815260200190815260200160002060008201518160000190805190602001906114f69291906129a3565b5060208201518160010190805190602001906115139291906129a3565b5060408201518160020190805190602001906115309291906129a3565b506060820151816003015560808201518160040160006101000a81548167ffffffffffffffff021916908367ffffffffffffffff16021790555060a0820151816005015560c08201518160060160006101000a81548173ffffffffffffffffffffffffffffffffffffffff021916908373ffffffffffffffffffffffffffffffffffffffff16021790555060e08201518160070160006101000a81548173ffffffffffffffffffffffffffffffffffffffff021916908373ffffffffffffffffffffffffffffffffffffffff160217905550905050600e60003373ffffffffffffffffffffffffffffffffffffffff1673ffffffffffffffffffffffffffffffffffffffff168152602001908152602001600020600d60008381526020019081526020016000209080600181540180825580915050600190039060005260206000209060080201600090919091909150600082018160000190805461169490613aba565b61169f929190612a29565b5060018201816001019080546116b490613aba565b6116bf929190612a29565b5060028201816002019080546116d490613aba565b6116df929190612a29565b50600382015481600301556004820160009054906101000a900467ffffffffffffffff168160040160006101000a81548167ffffffffffffffff021916908367ffffffffffffffff160217905550600582015481600501556006820160009054906101000a900473ffffffffffffffffffffffffffffffffffffffff168160060160006101000a81548173ffffffffffffffffffffffffffffffffffffffff021916908373ffffffffffffffffffffffffffffffffffffffff1602179055506007820160009054906101000a900473ffffffffffffffffffffffffffffffffffffffff168160070160006101000a81548173ffffffffffffffffffffffffffffffffffffffff021916908373ffffffffffffffffffffffffffffffffffffffff16021790555050505060016007819055505050505050505050565b61182c611825611c63565b838361221e565b5050565b61184161183b611c63565b83611d24565b611880576040517f08c379a000000000000000000000000000000000000000000000000000000000815260040161187790613767565b60405180910390fd5b61188c8484848461238b565b50505050565b6000426006600084815260200190815260200160002060000160149054906101000a900467ffffffffffffffff1667ffffffffffffffff161061190d576006600083815260200190815260200160002060000160009054906101000a900473ffffffffffffffffffffffffffffffffffffffff169050611912565b600090505b919050565b606061192282611c18565b600061192c6123e7565b9050600081511161194c5760405180602001604052806000815250611977565b80611956846123fe565b60405160200161196792919061346f565b6040516020818303038152906040525b915050919050565b6119893384611d24565b6119c8576040517f08c379a00000000000000000000000000000000000000000000000000000000081526004016119bf90613747565b60405180910390fd5b6000600660008581526020019081526020016000209050828160000160006101000a81548173ffffffffffffffffffffffffffffffffffffffff021916908373ffffffffffffffffffffffffffffffffffffffff160217905550818160000160146101000a81548167ffffffffffffffff021916908367ffffffffffffffff1602179055508273ffffffffffffffffffffffffffffffffffffffff16847f4e06b4e7000e659094299b3533b47b6aa8ad048e95e872d23d1f4ee55af89cfe84604051611a9491906137e2565b60405180910390a350505050565b6000600560008473ffffffffffffffffffffffffffffffffffffffff1673ffffffffffffffffffffffffffffffffffffffff16815260200190815260200160002060008373ffffffffffffffffffffffffffffffffffffffff1673ffffffffffffffffffffffffffffffffffffffff16815260200190815260200160002060009054906101000a900460ff16905092915050565b60007f80ac58cd000000000000000000000000000000000000000000000000000000007bffffffffffffffffffffffffffffffffffffffffffffffffffffffff1916827bffffffffffffffffffffffffffffffffffffffffffffffffffffffff19161480611c0157507f5b5e139f000000000000000000000000000000000000000000000000000000007bffffffffffffffffffffffffffffffffffffffffffffffffffffffff1916827bffffffffffffffffffffffffffffffffffffffffffffffffffffffff1916145b80611c115750611c10826125ab565b5b9050919050565b611c2181612615565b611c60576040517f08c379a0000000000000000000000000000000000000000000000000000000008152600401611c5790613707565b60405180910390fd5b50565b600033905090565b816004600083815260200190815260200160002060006101000a81548173ffffffffffffffffffffffffffffffffffffffff021916908373ffffffffffffffffffffffffffffffffffffffff160217905550808273ffffffffffffffffffffffffffffffffffffffff16611cde8361095d565b73ffffffffffffffffffffffffffffffffffffffff167f8c5be1e5ebec7d5bd14f71427d1e84f3dd0314c0f7b2291e5b200ac8c7c3b92560405160405180910390a45050565b600080611d308361095d565b90508073ffffffffffffffffffffffffffffffffffffffff168473ffffffffffffffffffffffffffffffffffffffff161480611d725750611d718185611aa2565b5b80611db057508373ffffffffffffffffffffffffffffffffffffffff16611d988461069d565b73ffffffffffffffffffffffffffffffffffffffff16145b91505092915050565b8273ffffffffffffffffffffffffffffffffffffffff16611dd98261095d565b73ffffffffffffffffffffffffffffffffffffffff1614611e2f576040517f08c379a0000000000000000000000000000000000000000000000000000000008152600401611e2690613627565b60405180910390fd5b600073ffffffffffffffffffffffffffffffffffffffff168273ffffffffffffffffffffffffffffffffffffffff161415611e9f576040517f08c379a0000000000000000000000000000000000000000000000000000000008152600401611e9690613667565b60405180910390fd5b611eaa838383612681565b611eb5600082611c6b565b6001600360008573ffffffffffffffffffffffffffffffffffffffff1673ffffffffffffffffffffffffffffffffffffffff1681526020019081526020016000206000828254611f059190613998565b925050819055506001600360008473ffffffffffffffffffffffffffffffffffffffff1673ffffffffffffffffffffffffffffffffffffffff1681526020019081526020016000206000828254611f5c9190613911565b92505081905550816002600083815260200190815260200160002060006101000a81548173ffffffffffffffffffffffffffffffffffffffff021916908373ffffffffffffffffffffffffffffffffffffffff160217905550808273ffffffffffffffffffffffffffffffffffffffff168473ffffffffffffffffffffffffffffffffffffffff167fddf252ad1be2c89b69c2b068fc378daa952ba7f163c4a11628f55a4df523b3ef60405160405180910390a461201b8383836127df565b505050565b6001816000016000828254019250508190555050565b600081600001549050919050565b600073ffffffffffffffffffffffffffffffffffffffff168273ffffffffffffffffffffffffffffffffffffffff1614156120b4576040517f08c379a00000000000000000000000000000000000000000000000000000000081526004016120ab906136e7565b60405180910390fd5b6120bd81612615565b156120fd576040517f08c379a00000000000000000000000000000000000000000000000000000000081526004016120f490613647565b60405180910390fd5b61210960008383612681565b6001600360008473ffffffffffffffffffffffffffffffffffffffff1673ffffffffffffffffffffffffffffffffffffffff16815260200190815260200160002060008282546121599190613911565b92505081905550816002600083815260200190815260200160002060006101000a81548173ffffffffffffffffffffffffffffffffffffffff021916908373ffffffffffffffffffffffffffffffffffffffff160217905550808273ffffffffffffffffffffffffffffffffffffffff16600073ffffffffffffffffffffffffffffffffffffffff167fddf252ad1be2c89b69c2b068fc378daa952ba7f163c4a11628f55a4df523b3ef60405160405180910390a461221a600083836127df565b5050565b8173ffffffffffffffffffffffffffffffffffffffff168373ffffffffffffffffffffffffffffffffffffffff16141561228d576040517f08c379a000000000000000000000000000000000000000000000000000000000815260040161228490613687565b60405180910390fd5b80600560008573ffffffffffffffffffffffffffffffffffffffff1673ffffffffffffffffffffffffffffffffffffffff16815260200190815260200160002060008473ffffffffffffffffffffffffffffffffffffffff1673ffffffffffffffffffffffffffffffffffffffff16815260200190815260200160002060006101000a81548160ff0219169083151502179055508173ffffffffffffffffffffffffffffffffffffffff168373ffffffffffffffffffffffffffffffffffffffff167f17307eab39ab6107e8899845ad3d59bd9653f200f220920489ca2b5937696c318360405161237e919061351c565b60405180910390a3505050565b612396848484611db9565b6123a2848484846127e4565b6123e1576040517f08c379a00000000000000000000000000000000000000000000000000000000081526004016123d890613607565b60405180910390fd5b50505050565b606060405180602001604052806000815250905090565b60606000821415612446576040518060400160405280600181526020017f300000000000000000000000000000000000000000000000000000000000000081525090506125a6565b600082905060005b6000821461247857808061246190613b1d565b915050600a826124719190613967565b915061244e565b60008167ffffffffffffffff8111156124ba577f4e487b7100000000000000000000000000000000000000000000000000000000600052604160045260246000fd5b6040519080825280601f01601f1916602001820160405280156124ec5781602001600182028036833780820191505090505b5090505b6000851461259f576001826125059190613998565b9150600a856125149190613b66565b60306125209190613911565b60f81b81838151811061255c577f4e487b7100000000000000000000000000000000000000000000000000000000600052603260045260246000fd5b60200101907effffffffffffffffffffffffffffffffffffffffffffffffffffffffffffff1916908160001a905350600a856125989190613967565b94506124f0565b8093505050505b919050565b60007f01ffc9a7000000000000000000000000000000000000000000000000000000007bffffffffffffffffffffffffffffffffffffffffffffffffffffffff1916827bffffffffffffffffffffffffffffffffffffffffffffffffffffffff1916149050919050565b60008073ffffffffffffffffffffffffffffffffffffffff166002600084815260200190815260200160002060009054906101000a900473ffffffffffffffffffffffffffffffffffffffff1673ffffffffffffffffffffffffffffffffffffffff1614159050919050565b61268c83838361297b565b8173ffffffffffffffffffffffffffffffffffffffff168373ffffffffffffffffffffffffffffffffffffffff161415801561272b5750600073ffffffffffffffffffffffffffffffffffffffff166006600083815260200190815260200160002060000160009054906101000a900473ffffffffffffffffffffffffffffffffffffffff1673ffffffffffffffffffffffffffffffffffffffff1614155b156127da5760066000828152602001908152602001600020600080820160006101000a81549073ffffffffffffffffffffffffffffffffffffffff02191690556000820160146101000a81549067ffffffffffffffff02191690555050600073ffffffffffffffffffffffffffffffffffffffff16817f4e06b4e7000e659094299b3533b47b6aa8ad048e95e872d23d1f4ee55af89cfe60006040516127d19190613537565b60405180910390a35b505050565b505050565b60006128058473ffffffffffffffffffffffffffffffffffffffff16612980565b1561296e578373ffffffffffffffffffffffffffffffffffffffff1663150b7a0261282e611c63565b8786866040518563ffffffff1660e01b815260040161285094939291906134ae565b602060405180830381600087803b15801561286a57600080fd5b505af192505050801561289b57506040513d601f19601f820116820180604052508101906128989190612df1565b60015b61291e573d80600081146128cb576040519150601f19603f3d011682016040523d82523d6000602084013e6128d0565b606091505b50600081511415612916576040517f08c379a000000000000000000000000000000000000000000000000000000000815260040161290d90613607565b60405180910390fd5b805181602001fd5b63150b7a0260e01b7bffffffffffffffffffffffffffffffffffffffffffffffffffffffff1916817bffffffffffffffffffffffffffffffffffffffffffffffffffffffff191614915050612973565b600190505b949350505050565b505050565b6000808273ffffffffffffffffffffffffffffffffffffffff163b119050919050565b8280546129af90613aba565b90600052602060002090601f0160209004810192826129d15760008555612a18565b82601f106129ea57805160ff1916838001178555612a18565b82800160010185558215612a18579182015b82811115612a175782518255916020019190600101906129fc565b5b509050612a259190612ab6565b5090565b828054612a3590613aba565b90600052602060002090601f016020900481019282612a575760008555612aa5565b82601f10612a685780548555612aa5565b82800160010185558215612aa557600052602060002091601f016020900482015b82811115612aa4578254825591600101919060010190612a89565b5b509050612ab29190612ab6565b5090565b5b80821115612acf576000816000905550600101612ab7565b5090565b6000612ae6612ae184613822565b6137fd565b905082815260208101848484011115612afe57600080fd5b612b09848285613a78565b509392505050565b6000612b24612b1f84613853565b6137fd565b905082815260208101848484011115612b3c57600080fd5b612b47848285613a78565b509392505050565b600081359050612b5e81613fd2565b92915050565b600081359050612b7381613fe9565b92915050565b600081359050612b8881614000565b92915050565b600081519050612b9d81614000565b92915050565b600082601f830112612bb457600080fd5b8135612bc4848260208601612ad3565b91505092915050565b600082601f830112612bde57600080fd5b8135612bee848260208601612b11565b91505092915050565b600081359050612c0681614017565b92915050565b600081359050612c1b8161402e565b92915050565b600060208284031215612c3357600080fd5b6000612c4184828501612b4f565b91505092915050565b60008060408385031215612c5d57600080fd5b6000612c6b85828601612b4f565b9250506020612c7c85828601612b4f565b9150509250929050565b600080600060608486031215612c9b57600080fd5b6000612ca986828701612b4f565b9350506020612cba86828701612b4f565b9250506040612ccb86828701612bf7565b9150509250925092565b60008060008060808587031215612ceb57600080fd5b6000612cf987828801612b4f565b9450506020612d0a87828801612b4f565b9350506040612d1b87828801612bf7565b925050606085013567ffffffffffffffff811115612d3857600080fd5b612d4487828801612ba3565b91505092959194509250565b60008060408385031215612d6357600080fd5b6000612d7185828601612b4f565b9250506020612d8285828601612b64565b9150509250929050565b60008060408385031215612d9f57600080fd5b6000612dad85828601612b4f565b9250506020612dbe85828601612bf7565b9150509250929050565b600060208284031215612dda57600080fd5b6000612de884828501612b79565b91505092915050565b600060208284031215612e0357600080fd5b6000612e1184828501612b8e565b91505092915050565b600080600080600080600080610100898b031215612e3757600080fd5b600089013567ffffffffffffffff811115612e5157600080fd5b612e5d8b828c01612bcd565b985050602089013567ffffffffffffffff811115612e7a57600080fd5b612e868b828c01612bcd565b975050604089013567ffffffffffffffff811115612ea357600080fd5b612eaf8b828c01612bcd565b9650506060612ec08b828c01612c0c565b9550506080612ed18b828c01612c0c565b94505060a0612ee28b828c01612bf7565b93505060c0612ef38b828c01612b4f565b92505060e0612f048b828c01612b4f565b9150509295985092959890939650565b600060208284031215612f2657600080fd5b6000612f3484828501612bf7565b91505092915050565b600080600060608486031215612f5257600080fd5b6000612f6086828701612bf7565b9350506020612f7186828701612b4f565b9250506040612f8286828701612c0c565b9150509250925092565b600080600060608486031215612fa157600080fd5b6000612faf86828701612bf7565b9350506020612fc086828701612c0c565b9250506040612fd186828701612bf7565b9150509250925092565b6000612fe78383613375565b905092915050565b612ff8816139de565b82525050565b613007816139de565b82525050565b613016816139cc565b82525050565b600061302782613894565b61303181856138c2565b93508360208202850161304385613884565b8060005b8581101561307f57848403895281516130608582612fdb565b945061306b836138b5565b925060208a01995050600181019050613047565b50829750879550505050505092915050565b61309a816139f0565b82525050565b60006130ab8261389f565b6130b581856138d3565b93506130c5818560208601613a87565b6130ce81613c53565b840191505092915050565b6130e281613a66565b82525050565b60006130f3826138aa565b6130fd81856138e4565b935061310d818560208601613a87565b61311681613c53565b840191505092915050565b600061312c826138aa565b61313681856138f5565b9350613146818560208601613a87565b61314f81613c53565b840191505092915050565b6000613165826138aa565b61316f8185613906565b935061317f818560208601613a87565b80840191505092915050565b60006131986032836138f5565b91506131a382613c64565b604082019050919050565b60006131bb6025836138f5565b91506131c682613cb3565b604082019050919050565b60006131de601c836138f5565b91506131e982613d02565b602082019050919050565b60006132016024836138f5565b915061320c82613d2b565b604082019050919050565b60006132246019836138f5565b915061322f82613d7a565b602082019050919050565b60006132476029836138f5565b915061325282613da3565b604082019050919050565b600061326a603e836138f5565b915061327582613df2565b604082019050919050565b600061328d6020836138f5565b915061329882613e41565b602082019050919050565b60006132b06018836138f5565b91506132bb82613e6a565b602082019050919050565b60006132d36021836138f5565b91506132de82613e93565b604082019050919050565b60006132f66031836138f5565b915061330182613ee2565b604082019050919050565b6000613319602e836138f5565b915061332482613f31565b604082019050919050565b600061333c601f836138f5565b915061334782613f80565b602082019050919050565b600061335f601c836138f5565b915061336a82613fa9565b602082019050919050565b600061010083016000830151848203600086015261339382826130e8565b915050602083015184820360208601526133ad82826130e8565b915050604083015184820360408601526133c782826130e8565b91505060608301516133dc6060860182613433565b5060808301516133ef6080860182613451565b5060a083015161340260a0860182613433565b5060c083015161341560c0860182612fef565b5060e083015161342860e0860182612fef565b508091505092915050565b61343c81613a48565b82525050565b61344b81613a48565b82525050565b61345a81613a52565b82525050565b61346981613a52565b82525050565b600061347b828561315a565b9150613487828461315a565b91508190509392505050565b60006020820190506134a8600083018461300d565b92915050565b60006080820190506134c3600083018761300d565b6134d0602083018661300d565b6134dd6040830185613442565b81810360608301526134ef81846130a0565b905095945050505050565b60006020820190508181036000830152613514818461301c565b905092915050565b60006020820190506135316000830184613091565b92915050565b600060208201905061354c60008301846130d9565b92915050565b6000602082019050818103600083015261356c8184613121565b905092915050565b600061010082019050818103600083015261358f818b613121565b905081810360208301526135a3818a613121565b905081810360408301526135b78189613121565b90506135c66060830188613442565b6135d36080830187613460565b6135e060a0830186613442565b6135ed60c0830185612ffe565b6135fa60e0830184612ffe565b9998505050505050505050565b600060208201905081810360008301526136208161318b565b9050919050565b60006020820190508181036000830152613640816131ae565b9050919050565b60006020820190508181036000830152613660816131d1565b9050919050565b60006020820190508181036000830152613680816131f4565b9050919050565b600060208201905081810360008301526136a081613217565b9050919050565b600060208201905081810360008301526136c08161323a565b9050919050565b600060208201905081810360008301526136e08161325d565b9050919050565b6000602082019050818103600083015261370081613280565b9050919050565b60006020820190508181036000830152613720816132a3565b9050919050565b60006020820190508181036000830152613740816132c6565b9050919050565b60006020820190508181036000830152613760816132e9565b9050919050565b600060208201905081810360008301526137808161330c565b9050919050565b600060208201905081810360008301526137a08161332f565b9050919050565b600060208201905081810360008301526137c081613352565b9050919050565b60006020820190506137dc6000830184613442565b92915050565b60006020820190506137f76000830184613460565b92915050565b6000613807613818565b90506138138282613aec565b919050565b6000604051905090565b600067ffffffffffffffff82111561383d5761383c613c24565b5b61384682613c53565b9050602081019050919050565b600067ffffffffffffffff82111561386e5761386d613c24565b5b61387782613c53565b9050602081019050919050565b6000819050602082019050919050565b600081519050919050565b600081519050919050565b600081519050919050565b6000602082019050919050565b600082825260208201905092915050565b600082825260208201905092915050565b600082825260208201905092915050565b600082825260208201905092915050565b600081905092915050565b600061391c82613a48565b915061392783613a48565b9250827fffffffffffffffffffffffffffffffffffffffffffffffffffffffffffffffff0382111561395c5761395b613b97565b5b828201905092915050565b600061397282613a48565b915061397d83613a48565b92508261398d5761398c613bc6565b5b828204905092915050565b60006139a382613a48565b91506139ae83613a48565b9250828210156139c1576139c0613b97565b5b828203905092915050565b60006139d782613a28565b9050919050565b60006139e982613a28565b9050919050565b60008115159050919050565b60007fffffffff0000000000000000000000000000000000000000000000000000000082169050919050565b600073ffffffffffffffffffffffffffffffffffffffff82169050919050565b6000819050919050565b600067ffffffffffffffff82169050919050565b6000613a7182613a52565b9050919050565b82818337600083830152505050565b60005b83811015613aa5578082015181840152602081019050613a8a565b83811115613ab4576000848401525b50505050565b60006002820490506001821680613ad257607f821691505b60208210811415613ae657613ae5613bf5565b5b50919050565b613af582613c53565b810181811067ffffffffffffffff82111715613b1457613b13613c24565b5b80604052505050565b6000613b2882613a48565b91507fffffffffffffffffffffffffffffffffffffffffffffffffffffffffffffffff821415613b5b57613b5a613b97565b5b600182019050919050565b6000613b7182613a48565b9150613b7c83613a48565b925082613b8c57613b8b613bc6565b5b828206905092915050565b7f4e487b7100000000000000000000000000000000000000000000000000000000600052601160045260246000fd5b7f4e487b7100000000000000000000000000000000000000000000000000000000600052601260045260246000fd5b7f4e487b7100000000000000000000000000000000000000000000000000000000600052602260045260246000fd5b7f4e487b7100000000000000000000000000000000000000000000000000000000600052604160045260246000fd5b6000601f19601f8301169050919050565b7f4552433732313a207472616e7366657220746f206e6f6e20455243373231526560008201527f63656976657220696d706c656d656e7465720000000000000000000000000000602082015250565b7f4552433732313a207472616e736665722066726f6d20696e636f72726563742060008201527f6f776e6572000000000000000000000000000000000000000000000000000000602082015250565b7f4552433732313a20746f6b656e20616c7265616479206d696e74656400000000600082015250565b7f4552433732313a207472616e7366657220746f20746865207a65726f2061646460008201527f7265737300000000000000000000000000000000000000000000000000000000602082015250565b7f4552433732313a20617070726f766520746f2063616c6c657200000000000000600082015250565b7f4552433732313a2061646472657373207a65726f206973206e6f74206120766160008201527f6c6964206f776e65720000000000000000000000000000000000000000000000602082015250565b7f4552433732313a20617070726f76652063616c6c6572206973206e6f7420746f60008201527f6b656e206f776e6572206e6f7220617070726f76656420666f7220616c6c0000602082015250565b7f4552433732313a206d696e7420746f20746865207a65726f2061646472657373600082015250565b7f4552433732313a20696e76616c696420746f6b656e2049440000000000000000600082015250565b7f4552433732313a20617070726f76616c20746f2063757272656e74206f776e6560008201527f7200000000000000000000000000000000000000000000000000000000000000602082015250565b7f4552433732313a207472616e736665722063616c6c6572206973206e6f74206f60008201527f776e6572206e6f7220617070726f766564000000000000000000000000000000602082015250565b7f4552433732313a2063616c6c6572206973206e6f7420746f6b656e206f776e6560008201527f72206e6f7220617070726f766564000000000000000000000000000000000000602082015250565b7f5265656e7472616e637947756172643a207265656e7472616e742063616c6c00600082015250565b7f5072696365206d757374206265206174206c6561737420312077656900000000600082015250565b613fdb816139cc565b8114613fe657600080fd5b50565b613ff2816139f0565b8114613ffd57600080fd5b50565b614009816139fc565b811461401457600080fd5b50565b61402081613a48565b811461402b57600080fd5b50565b61403781613a52565b811461404257600080fd5b5056fea2646970667358221220acc9fd2896abc2de3c342ec9e0a9a3d05c16498da98c3ea57646960241978af164736f6c63430008040033",
  "immutableReferences": {},
  "source": "// SPDX-License-Identifier: MIT\npragma solidity ^0.8.1;\n\nimport \"@openzeppelin/contracts/security/ReentrancyGuard.sol\";\nimport \"@openzeppelin/contracts/utils/Counters.sol\";\nimport \"./ERC4907.sol\";\n\ncontract eazyVideoNFTContract is ERC4907, ReentrancyGuard {\n    using Counters for Counters.Counter;\n\n    address payable owner;\n\n    mapping(uint256 => address payable) nftOwner;\n\n    Counters.Counter tID;\n\n    Counters.Counter public totalTokensMinted;\n\n    address private ERC4907ContractAddress;\n\n    constructor() ERC4907() {\n        owner = payable(msg.sender);\n    }\n\n    struct NFTItem {\n        string serviceName;\n        string ImageUri;\n        string description;\n        uint256 duration;\n        uint64 endTime;\n        uint256 price;\n        address payable owner;\n        address payable serviceProvider;\n    }\n\n    mapping(uint256 => NFTItem) public idToNftItem;\n    mapping(address => NFTItem[]) public userNFTItem;\n\n    function mintNFT(\n        string memory _serviceName,\n        string memory _imageUri,\n        string memory _description,\n        uint64 _duration,\n        uint64 _endTime,\n        uint256 _price,\n        address _owner,\n        address _serviceProvider\n    ) public nonReentrant {\n        require(_price > 0, \"Price must be at least 1 wei\");\n        tID.increment();\n        uint256 tokenID = tID.current();\n\n        // Service provider approveforAll allow msg.sender \n\n        _mint(owner, tokenID);\n        setUser(tokenID, msg.sender, _endTime);\n\n        idToNftItem[tokenID] = NFTItem(\n            _serviceName,\n            _imageUri,\n            _description,\n            _duration,\n            _endTime,\n            _price,\n            payable(_owner),\n            payable(_serviceProvider)\n        );\n\n        userNFTItem[msg.sender].push(idToNftItem[tokenID]);\n    }\n\n    function rentNFT(\n        uint256 tokenID,\n        uint64 _days,\n        uint256 _amount\n    ) public payable {\n        setUser(tokenID, msg.sender, _days);\n        payable(idToNftItem[tokenID].owner).transfer(_amount);\n        idToNftItem[tokenID].owner = payable(msg.sender);\n    }\n\n    function fetchAllUserNFTItems() public view returns (NFTItem[] memory) {\n        return userNFTItem[msg.sender];\n    }\n}\n",
  "sourcePath": "C:\\Users\\hardi\\Desktop\\EazyVideo\\truffle\\contracts\\SubsNFT.sol",
  "compiler": {
    "name": "solc",
    "version": "0.8.4+commit.c7e474f2.Emscripten.clang"
  },
  "schemaVersion": "3.4.0",
  "updatedAt": "2022-07-30T21:41:57.237Z",
  "devdoc": {
    "kind": "dev",
    "methods": {
      "approve(address,uint256)": {
        "details": "See {IERC721-approve}."
      },
      "balanceOf(address)": {
        "details": "See {IERC721-balanceOf}."
      },
      "getApproved(uint256)": {
        "details": "See {IERC721-getApproved}."
      },
      "isApprovedForAll(address,address)": {
        "details": "See {IERC721-isApprovedForAll}."
      },
      "name()": {
        "details": "See {IERC721Metadata-name}."
      },
      "ownerOf(uint256)": {
        "details": "See {IERC721-ownerOf}."
      },
      "safeTransferFrom(address,address,uint256)": {
        "details": "See {IERC721-safeTransferFrom}."
      },
      "safeTransferFrom(address,address,uint256,bytes)": {
        "details": "See {IERC721-safeTransferFrom}."
      },
      "setApprovalForAll(address,bool)": {
        "details": "See {IERC721-setApprovalForAll}."
      },
      "setUser(uint256,address,uint64)": {
        "details": "The zero address indicates there is no user Throws if `tokenId` is not valid NFT",
        "params": {
          "expires": "UNIX timestamp, The new user could use the NFT before expires",
          "user": "The new user of the NFT"
        }
      },
      "supportsInterface(bytes4)": {
        "details": "See {IERC165-supportsInterface}."
      },
      "symbol()": {
        "details": "See {IERC721Metadata-symbol}."
      },
      "tokenURI(uint256)": {
        "details": "See {IERC721Metadata-tokenURI}."
      },
      "transferFrom(address,address,uint256)": {
        "details": "See {IERC721-transferFrom}."
      },
      "userExpires(uint256)": {
        "details": "The zero value indicates that there is no user",
        "params": {
          "tokenId": "The NFT to get the user expires for"
        },
        "returns": {
          "_0": "The user expires for this NFT"
        }
      },
      "userOf(uint256)": {
        "details": "The zero address indicates that there is no user or the user is expired",
        "params": {
          "tokenId": "The NFT to get the user address for"
        },
        "returns": {
          "_0": "The user address for this NFT"
        }
      }
    },
    "version": 1
  },
  "userdoc": {
    "events": {
      "UpdateUser(uint256,address,uint64)": {
        "notice": "Emitted when the `user` of an NFT or the `expires` of the `user` is changed The zero address for user indicates that there is no user address"
      }
    },
    "kind": "user",
    "methods": {
      "setUser(uint256,address,uint64)": {
        "notice": "set the user and expires of a NFT"
      },
      "userExpires(uint256)": {
        "notice": "Get the user expires of an NFT"
      },
      "userOf(uint256)": {
        "notice": "Get the user address of an NFT"
      }
    },
    "version": 1
  }
}