{
  "contractName": "EazyVideo",
  "abi": [
    {
      "anonymous": false,
      "inputs": [
        {
          "indexed": true,
          "internalType": "address",
          "name": "owner",
          "type": "address"
        },
        {
          "indexed": true,
          "internalType": "address",
          "name": "approved",
          "type": "address"
        },
        {
          "indexed": true,
          "internalType": "uint256",
          "name": "tokenId",
          "type": "uint256"
        }
      ],
      "name": "Approval",
      "type": "event"
    },
    {
      "anonymous": false,
      "inputs": [
        {
          "indexed": true,
          "internalType": "address",
          "name": "owner",
          "type": "address"
        },
        {
          "indexed": true,
          "internalType": "address",
          "name": "operator",
          "type": "address"
        },
        {
          "indexed": false,
          "internalType": "bool",
          "name": "approved",
          "type": "bool"
        }
      ],
      "name": "ApprovalForAll",
      "type": "event"
    },
    {
      "anonymous": false,
      "inputs": [
        {
          "indexed": true,
          "internalType": "address",
          "name": "from",
          "type": "address"
        },
        {
          "indexed": true,
          "internalType": "address",
          "name": "to",
          "type": "address"
        },
        {
          "indexed": true,
          "internalType": "uint256",
          "name": "tokenId",
          "type": "uint256"
        }
      ],
      "name": "Transfer",
      "type": "event"
    },
    {
      "anonymous": false,
      "inputs": [
        {
          "indexed": true,
          "internalType": "uint256",
          "name": "tokenId",
          "type": "uint256"
        },
        {
          "indexed": true,
          "internalType": "address",
          "name": "user",
          "type": "address"
        },
        {
          "indexed": false,
          "internalType": "uint64",
          "name": "expires",
          "type": "uint64"
        }
      ],
      "name": "UpdateUser",
      "type": "event"
    },
    {
      "inputs": [
        {
          "internalType": "address",
          "name": "",
          "type": "address"
        }
      ],
      "name": "accountType",
      "outputs": [
        {
          "internalType": "uint256",
          "name": "",
          "type": "uint256"
        }
      ],
      "stateMutability": "view",
      "type": "function"
    },
    {
      "inputs": [
        {
          "internalType": "address",
          "name": "to",
          "type": "address"
        },
        {
          "internalType": "uint256",
          "name": "tokenId",
          "type": "uint256"
        }
      ],
      "name": "approve",
      "outputs": [],
      "stateMutability": "nonpayable",
      "type": "function"
    },
    {
      "inputs": [
        {
          "internalType": "address",
          "name": "owner",
          "type": "address"
        }
      ],
      "name": "balanceOf",
      "outputs": [
        {
          "internalType": "uint256",
          "name": "",
          "type": "uint256"
        }
      ],
      "stateMutability": "view",
      "type": "function"
    },
    {
      "inputs": [],
      "name": "fetchAllUserNFTItems",
      "outputs": [
        {
          "components": [
            {
              "internalType": "string",
              "name": "serviceName",
              "type": "string"
            },
            {
              "internalType": "string",
              "name": "ImageUri",
              "type": "string"
            },
            {
              "internalType": "string",
              "name": "description",
              "type": "string"
            },
            {
              "internalType": "uint256",
              "name": "duration",
              "type": "uint256"
            },
            {
              "internalType": "uint64",
              "name": "endTime",
              "type": "uint64"
            },
            {
              "internalType": "uint256",
              "name": "price",
              "type": "uint256"
            },
            {
              "internalType": "address payable",
              "name": "owner",
              "type": "address"
            },
            {
              "internalType": "address payable",
              "name": "serviceProvider",
              "type": "address"
            }
          ],
          "internalType": "struct eazyVideoNFTContract.NFTItem[]",
          "name": "",
          "type": "tuple[]"
        }
      ],
      "stateMutability": "view",
      "type": "function"
    },
    {
      "inputs": [
        {
          "internalType": "uint256",
          "name": "tokenId",
          "type": "uint256"
        }
      ],
      "name": "getApproved",
      "outputs": [
        {
          "internalType": "address",
          "name": "",
          "type": "address"
        }
      ],
      "stateMutability": "view",
      "type": "function"
    },
    {
      "inputs": [
        {
          "internalType": "uint256",
          "name": "",
          "type": "uint256"
        }
      ],
      "name": "idToNftItem",
      "outputs": [
        {
          "internalType": "string",
          "name": "serviceName",
          "type": "string"
        },
        {
          "internalType": "string",
          "name": "ImageUri",
          "type": "string"
        },
        {
          "internalType": "string",
          "name": "description",
          "type": "string"
        },
        {
          "internalType": "uint256",
          "name": "duration",
          "type": "uint256"
        },
        {
          "internalType": "uint64",
          "name": "endTime",
          "type": "uint64"
        },
        {
          "internalType": "uint256",
          "name": "price",
          "type": "uint256"
        },
        {
          "internalType": "address payable",
          "name": "owner",
          "type": "address"
        },
        {
          "internalType": "address payable",
          "name": "serviceProvider",
          "type": "address"
        }
      ],
      "stateMutability": "view",
      "type": "function"
    },
    {
      "inputs": [
        {
          "internalType": "address",
          "name": "owner",
          "type": "address"
        },
        {
          "internalType": "address",
          "name": "operator",
          "type": "address"
        }
      ],
      "name": "isApprovedForAll",
      "outputs": [
        {
          "internalType": "bool",
          "name": "",
          "type": "bool"
        }
      ],
      "stateMutability": "view",
      "type": "function"
    },
    {
      "inputs": [
        {
          "internalType": "string",
          "name": "_serviceName",
          "type": "string"
        },
        {
          "internalType": "string",
          "name": "_imageUri",
          "type": "string"
        },
        {
          "internalType": "string",
          "name": "_description",
          "type": "string"
        },
        {
          "internalType": "uint64",
          "name": "_duration",
          "type": "uint64"
        },
        {
          "internalType": "uint64",
          "name": "_endTime",
          "type": "uint64"
        },
        {
          "internalType": "uint256",
          "name": "_price",
          "type": "uint256"
        },
        {
          "internalType": "address",
          "name": "_owner",
          "type": "address"
        },
        {
          "internalType": "address",
          "name": "_serviceProvider",
          "type": "address"
        }
      ],
      "name": "mintNFT",
      "outputs": [],
      "stateMutability": "nonpayable",
      "type": "function"
    },
    {
      "inputs": [],
      "name": "name",
      "outputs": [
        {
          "internalType": "string",
          "name": "",
          "type": "string"
        }
      ],
      "stateMutability": "view",
      "type": "function"
    },
    {
      "inputs": [
        {
          "internalType": "uint256",
          "name": "tokenId",
          "type": "uint256"
        }
      ],
      "name": "ownerOf",
      "outputs": [
        {
          "internalType": "address",
          "name": "",
          "type": "address"
        }
      ],
      "stateMutability": "view",
      "type": "function"
    },
    {
      "inputs": [
        {
          "internalType": "uint256",
          "name": "tokenID",
          "type": "uint256"
        },
        {
          "internalType": "uint64",
          "name": "_days",
          "type": "uint64"
        },
        {
          "internalType": "uint256",
          "name": "_amount",
          "type": "uint256"
        }
      ],
      "name": "rentNFT",
      "outputs": [],
      "stateMutability": "payable",
      "type": "function"
    },
    {
      "inputs": [
        {
          "internalType": "address",
          "name": "from",
          "type": "address"
        },
        {
          "internalType": "address",
          "name": "to",
          "type": "address"
        },
        {
          "internalType": "uint256",
          "name": "tokenId",
          "type": "uint256"
        }
      ],
      "name": "safeTransferFrom",
      "outputs": [],
      "stateMutability": "nonpayable",
      "type": "function"
    },
    {
      "inputs": [
        {
          "internalType": "address",
          "name": "from",
          "type": "address"
        },
        {
          "internalType": "address",
          "name": "to",
          "type": "address"
        },
        {
          "internalType": "uint256",
          "name": "tokenId",
          "type": "uint256"
        },
        {
          "internalType": "bytes",
          "name": "data",
          "type": "bytes"
        }
      ],
      "name": "safeTransferFrom",
      "outputs": [],
      "stateMutability": "nonpayable",
      "type": "function"
    },
    {
      "inputs": [
        {
          "internalType": "address",
          "name": "",
          "type": "address"
        }
      ],
      "name": "services",
      "outputs": [
        {
          "internalType": "string",
          "name": "name",
          "type": "string"
        },
        {
          "internalType": "string",
          "name": "ImageUri",
          "type": "string"
        },
        {
          "internalType": "string",
          "name": "description",
          "type": "string"
        },
        {
          "internalType": "uint64",
          "name": "planDuration",
          "type": "uint64"
        },
        {
          "internalType": "uint256",
          "name": "price",
          "type": "uint256"
        }
      ],
      "stateMutability": "view",
      "type": "function"
    },
    {
      "inputs": [
        {
          "internalType": "address",
          "name": "operator",
          "type": "address"
        },
        {
          "internalType": "bool",
          "name": "approved",
          "type": "bool"
        }
      ],
      "name": "setApprovalForAll",
      "outputs": [],
      "stateMutability": "nonpayable",
      "type": "function"
    },
    {
      "inputs": [
        {
          "internalType": "uint256",
          "name": "tokenId",
          "type": "uint256"
        },
        {
          "internalType": "address",
          "name": "user",
          "type": "address"
        },
        {
          "internalType": "uint64",
          "name": "expires",
          "type": "uint64"
        }
      ],
      "name": "setUser",
      "outputs": [],
      "stateMutability": "nonpayable",
      "type": "function"
    },
    {
      "inputs": [
        {
          "internalType": "bytes4",
          "name": "interfaceId",
          "type": "bytes4"
        }
      ],
      "name": "supportsInterface",
      "outputs": [
        {
          "internalType": "bool",
          "name": "",
          "type": "bool"
        }
      ],
      "stateMutability": "view",
      "type": "function"
    },
    {
      "inputs": [],
      "name": "symbol",
      "outputs": [
        {
          "internalType": "string",
          "name": "",
          "type": "string"
        }
      ],
      "stateMutability": "view",
      "type": "function"
    },
    {
      "inputs": [
        {
          "internalType": "uint256",
          "name": "tokenId",
          "type": "uint256"
        }
      ],
      "name": "tokenURI",
      "outputs": [
        {
          "internalType": "string",
          "name": "",
          "type": "string"
        }
      ],
      "stateMutability": "view",
      "type": "function"
    },
    {
      "inputs": [],
      "name": "totalTokensMinted",
      "outputs": [
        {
          "internalType": "uint256",
          "name": "_value",
          "type": "uint256"
        }
      ],
      "stateMutability": "view",
      "type": "function"
    },
    {
      "inputs": [
        {
          "internalType": "address",
          "name": "from",
          "type": "address"
        },
        {
          "internalType": "address",
          "name": "to",
          "type": "address"
        },
        {
          "internalType": "uint256",
          "name": "tokenId",
          "type": "uint256"
        }
      ],
      "name": "transferFrom",
      "outputs": [],
      "stateMutability": "nonpayable",
      "type": "function"
    },
    {
      "inputs": [
        {
          "internalType": "address",
          "name": "",
          "type": "address"
        },
        {
          "internalType": "uint256",
          "name": "",
          "type": "uint256"
        }
      ],
      "name": "userAvailablePlans",
      "outputs": [
        {
          "internalType": "string",
          "name": "name",
          "type": "string"
        },
        {
          "internalType": "string",
          "name": "ImageUri",
          "type": "string"
        },
        {
          "internalType": "string",
          "name": "description",
          "type": "string"
        },
        {
          "internalType": "uint64",
          "name": "planDuration",
          "type": "uint64"
        },
        {
          "internalType": "uint256",
          "name": "price",
          "type": "uint256"
        }
      ],
      "stateMutability": "view",
      "type": "function"
    },
    {
      "inputs": [
        {
          "internalType": "uint256",
          "name": "tokenId",
          "type": "uint256"
        }
      ],
      "name": "userExpires",
      "outputs": [
        {
          "internalType": "uint256",
          "name": "",
          "type": "uint256"
        }
      ],
      "stateMutability": "view",
      "type": "function"
    },
    {
      "inputs": [
        {
          "internalType": "address",
          "name": "",
          "type": "address"
        },
        {
          "internalType": "uint256",
          "name": "",
          "type": "uint256"
        }
      ],
      "name": "userForLendPlans",
      "outputs": [
        {
          "internalType": "string",
          "name": "name",
          "type": "string"
        },
        {
          "internalType": "string",
          "name": "ImageUri",
          "type": "string"
        },
        {
          "internalType": "string",
          "name": "description",
          "type": "string"
        },
        {
          "internalType": "uint64",
          "name": "planDuration",
          "type": "uint64"
        },
        {
          "internalType": "uint256",
          "name": "price",
          "type": "uint256"
        }
      ],
      "stateMutability": "view",
      "type": "function"
    },
    {
      "inputs": [
        {
          "internalType": "address",
          "name": "",
          "type": "address"
        },
        {
          "internalType": "uint256",
          "name": "",
          "type": "uint256"
        }
      ],
      "name": "userNFTItem",
      "outputs": [
        {
          "internalType": "string",
          "name": "serviceName",
          "type": "string"
        },
        {
          "internalType": "string",
          "name": "ImageUri",
          "type": "string"
        },
        {
          "internalType": "string",
          "name": "description",
          "type": "string"
        },
        {
          "internalType": "uint256",
          "name": "duration",
          "type": "uint256"
        },
        {
          "internalType": "uint64",
          "name": "endTime",
          "type": "uint64"
        },
        {
          "internalType": "uint256",
          "name": "price",
          "type": "uint256"
        },
        {
          "internalType": "address payable",
          "name": "owner",
          "type": "address"
        },
        {
          "internalType": "address payable",
          "name": "serviceProvider",
          "type": "address"
        }
      ],
      "stateMutability": "view",
      "type": "function"
    },
    {
      "inputs": [
        {
          "internalType": "uint256",
          "name": "tokenId",
          "type": "uint256"
        }
      ],
      "name": "userOf",
      "outputs": [
        {
          "internalType": "address",
          "name": "",
          "type": "address"
        }
      ],
      "stateMutability": "view",
      "type": "function"
    },
    {
      "inputs": [
        {
          "internalType": "uint256",
          "name": "_accountType",
          "type": "uint256"
        }
      ],
      "name": "login",
      "outputs": [
        {
          "internalType": "string",
          "name": "",
          "type": "string"
        }
      ],
      "stateMutability": "nonpayable",
      "type": "function"
    },
    {
      "inputs": [
        {
          "internalType": "string",
          "name": "_name",
          "type": "string"
        },
        {
          "internalType": "string",
          "name": "_ImageUri",
          "type": "string"
        },
        {
          "internalType": "string",
          "name": "_description",
          "type": "string"
        },
        {
          "internalType": "uint64",
          "name": "_planDuration",
          "type": "uint64"
        },
        {
          "internalType": "uint256",
          "name": "_planPrice",
          "type": "uint256"
        }
      ],
      "name": "updateService",
      "outputs": [],
      "stateMutability": "nonpayable",
      "type": "function"
    },
    {
      "inputs": [
        {
          "internalType": "address",
          "name": "_serviceProviderWallet",
          "type": "address"
        }
      ],
      "name": "BuyServiceFromServiceProvider",
      "outputs": [],
      "stateMutability": "payable",
      "type": "function"
    },
    {
      "inputs": [
        {
          "internalType": "uint256",
          "name": "_price",
          "type": "uint256"
        },
        {
          "internalType": "uint256",
          "name": "_days",
          "type": "uint256"
        },
        {
          "internalType": "string",
          "name": "_name",
          "type": "string"
        }
      ],
      "name": "LendPlan",
      "outputs": [],
      "stateMutability": "nonpayable",
      "type": "function"
    },
    {
      "inputs": [
        {
          "internalType": "uint256",
          "name": "tokenID",
          "type": "uint256"
        },
        {
          "internalType": "uint256",
          "name": "_amount",
          "type": "uint256"
        },
        {
          "internalType": "uint64",
          "name": "_days",
          "type": "uint64"
        }
      ],
      "name": "RentPlan",
      "outputs": [],
      "stateMutability": "payable",
      "type": "function"
    },
    {
      "inputs": [],
      "name": "getServiceByAddress",
      "outputs": [
        {
          "components": [
            {
              "internalType": "string",
              "name": "name",
              "type": "string"
            },
            {
              "internalType": "string",
              "name": "ImageUri",
              "type": "string"
            },
            {
              "internalType": "string",
              "name": "description",
              "type": "string"
            },
            {
              "internalType": "uint64",
              "name": "planDuration",
              "type": "uint64"
            },
            {
              "internalType": "uint256",
              "name": "price",
              "type": "uint256"
            }
          ],
          "internalType": "struct EazyVideo.Service",
          "name": "",
          "type": "tuple"
        }
      ],
      "stateMutability": "view",
      "type": "function"
    }
  ],
  "bytecode": "0x60806040523480156200001157600080fd5b506040518060400160405280600981526020017f65617a79566964656f00000000000000000000000000000000000000000000008152506040518060400160405280600481526020017f65617a790000000000000000000000000000000000000000000000000000000081525081600090805190602001906200009692919062000101565b508060019080519060200190620000af92919062000101565b505050600160078190555033600860006101000a81548173ffffffffffffffffffffffffffffffffffffffff021916908373ffffffffffffffffffffffffffffffffffffffff16021790555062000216565b8280546200010f90620001b1565b90600052602060002090601f0160209004810192826200013357600085556200017f565b82601f106200014e57805160ff19168380011785556200017f565b828001600101855582156200017f579182015b828111156200017e57825182559160200191906001019062000161565b5b5090506200018e919062000192565b5090565b5b80821115620001ad57600081600090555060010162000193565b5090565b60006002820490506001821680620001ca57607f821691505b60208210811415620001e157620001e0620001e7565b5b50919050565b7f4e487b7100000000000000000000000000000000000000000000000000000000600052602260045260246000fd5b615da180620002266000396000f3fe6080604052600436106101e35760003560e01c80638201a1aa11610102578063a3177b1511610095578063c2f1f14a11610064578063c2f1f14a14610751578063c87b56dd1461078e578063e030565e146107cb578063e985e9c5146107f4576101e3565b8063a3177b15146106a6578063b85908ba146106cf578063b88d4fde146106eb578063ba99af7014610714576101e3565b806397402651116100d157806397402651146105fe578063998fec98146106295780639bb4e27314610654578063a22cb4651461067d576101e3565b80638201a1aa146105295780638dadd457146105525780638fc88c481461059657806395d89b41146105d3576101e3565b806342842e0e1161017a5780636d966d01116101495780636d966d011461043c57806370a082311461047d5780637a7e252c146104ba5780637d549e99146104fe576101e3565b806342842e0e146103795780634d1e0221146103a25780636352211e146103be5780636617f244146103fb576101e3565b80630ede26ec116101b65780630ede26ec146102b657806323b872dd146102f757806328ef2e91146103205780633dbfd97c1461033c576101e3565b806301ffc9a7146101e857806306fdde0314610225578063081812fc14610250578063095ea7b31461028d575b600080fd5b3480156101f457600080fd5b5061020f600480360381019061020a9190614755565b610831565b60405161021c91906150e8565b60405180910390f35b34801561023157600080fd5b5061023a6108ab565b604051610247919061511e565b60405180910390f35b34801561025c57600080fd5b5061027760048036038101906102729190614960565b61093d565b604051610284919061505f565b60405180910390f35b34801561029957600080fd5b506102b460048036038101906102af9190614719565b610983565b005b3480156102c257600080fd5b506102dd60048036038101906102d89190614719565b610a9b565b6040516102ee9594939291906151d3565b60405180910390f35b34801561030357600080fd5b5061031e60048036038101906103199190614613565b610c9a565b005b61033a600480360381019061033591906145ae565b610cfa565b005b34801561034857600080fd5b50610363600480360381019061035e9190614960565b61101b565b604051610370919061511e565b60405180910390f35b34801561038557600080fd5b506103a0600480360381019061039b9190614613565b61116e565b005b6103bc60048036038101906103b79190614a8e565b61118e565b005b3480156103ca57600080fd5b506103e560048036038101906103e09190614960565b611270565b6040516103f2919061505f565b60405180910390f35b34801561040757600080fd5b50610422600480360381019061041d9190614719565b611322565b6040516104339594939291906151d3565b60405180910390f35b34801561044857600080fd5b50610463600480360381019061045e91906145ae565b611521565b6040516104749594939291906151d3565b60405180910390f35b34801561048957600080fd5b506104a4600480360381019061049f91906145ae565b611703565b6040516104b1919061545d565b60405180910390f35b3480156104c657600080fd5b506104e160048036038101906104dc9190614719565b6117bb565b6040516104f5989796959493929190615140565b60405180910390f35b34801561050a57600080fd5b50610513611a0c565b604051610520919061545d565b60405180910390f35b34801561053557600080fd5b50610550600480360381019061054b91906147a7565b611a18565b005b34801561055e57600080fd5b5061057960048036038101906105749190614960565b611ba4565b60405161058d989796959493929190615140565b60405180910390f35b3480156105a257600080fd5b506105bd60048036038101906105b89190614960565b611dd8565b6040516105ca919061545d565b60405180910390f35b3480156105df57600080fd5b506105e8611e16565b6040516105f5919061511e565b60405180910390f35b34801561060a57600080fd5b50610613611ea8565b60405161062091906150c6565b60405180910390f35b34801561063557600080fd5b5061063e6121ed565b60405161064b919061543b565b60405180910390f35b34801561066057600080fd5b5061067b60048036038101906106769190614866565b612436565b005b34801561068957600080fd5b506106a4600480360381019061069f91906146dd565b6128e3565b005b3480156106b257600080fd5b506106cd60048036038101906106c891906149d8565b6128f9565b005b6106e960048036038101906106e49190614a3f565b612e4e565b005b3480156106f757600080fd5b50610712600480360381019061070d9190614662565b612ee0565b005b34801561072057600080fd5b5061073b600480360381019061073691906145ae565b612f42565b604051610748919061545d565b60405180910390f35b34801561075d57600080fd5b5061077860048036038101906107739190614960565b612f5a565b604051610785919061505f565b60405180910390f35b34801561079a57600080fd5b506107b560048036038101906107b09190614960565b612fdf565b6040516107c2919061511e565b60405180910390f35b3480156107d757600080fd5b506107f260048036038101906107ed9190614989565b613047565b005b34801561080057600080fd5b5061081b600480360381019061081691906145d7565b61316a565b60405161082891906150e8565b60405180910390f35b60007fad092b5c000000000000000000000000000000000000000000000000000000007bffffffffffffffffffffffffffffffffffffffffffffffffffffffff1916827bffffffffffffffffffffffffffffffffffffffffffffffffffffffff191614806108a457506108a3826131fe565b5b9050919050565b6060600080546108ba9061578e565b80601f01602080910402602001604051908101604052809291908181526020018280546108e69061578e565b80156109335780601f1061090857610100808354040283529160200191610933565b820191906000526020600020905b81548152906001019060200180831161091657829003601f168201915b5050505050905090565b6000610948826132e0565b6004600083815260200190815260200160002060009054906101000a900473ffffffffffffffffffffffffffffffffffffffff169050919050565b600061098e82611270565b90508073ffffffffffffffffffffffffffffffffffffffff168373ffffffffffffffffffffffffffffffffffffffff1614156109ff576040517f08c379a00000000000000000000000000000000000000000000000000000000081526004016109f69061539b565b60405180910390fd5b8073ffffffffffffffffffffffffffffffffffffffff16610a1e61332b565b73ffffffffffffffffffffffffffffffffffffffff161480610a4d5750610a4c81610a4761332b565b61316a565b5b610a8c576040517f08c379a0000000000000000000000000000000000000000000000000000000008152600401610a839061533b565b60405180910390fd5b610a968383613333565b505050565b60116020528160005260406000208181548110610ab757600080fd5b906000526020600020906005020160009150915050806000018054610adb9061578e565b80601f0160208091040260200160405190810160405280929190818152602001828054610b079061578e565b8015610b545780601f10610b2957610100808354040283529160200191610b54565b820191906000526020600020905b815481529060010190602001808311610b3757829003601f168201915b505050505090806001018054610b699061578e565b80601f0160208091040260200160405190810160405280929190818152602001828054610b959061578e565b8015610be25780601f10610bb757610100808354040283529160200191610be2565b820191906000526020600020905b815481529060010190602001808311610bc557829003601f168201915b505050505090806002018054610bf79061578e565b80601f0160208091040260200160405190810160405280929190818152602001828054610c239061578e565b8015610c705780601f10610c4557610100808354040283529160200191610c70565b820191906000526020600020905b815481529060010190602001808311610c5357829003601f168201915b5050505050908060030160009054906101000a900467ffffffffffffffff16908060040154905085565b610cab610ca561332b565b826133ec565b610cea576040517f08c379a0000000000000000000000000000000000000000000000000000000008152600401610ce1906153db565b60405180910390fd5b610cf5838383613481565b505050565b6001600f60003373ffffffffffffffffffffffffffffffffffffffff1673ffffffffffffffffffffffffffffffffffffffff1681526020019081526020016000205414610d7c576040517f08c379a0000000000000000000000000000000000000000000000000000000008152600401610d739061529b565b60405180910390fd5b6000601060008373ffffffffffffffffffffffffffffffffffffffff1673ffffffffffffffffffffffffffffffffffffffff16815260200190815260200160002090506000816000018054610dd09061578e565b80601f0160208091040260200160405190810160405280929190818152602001828054610dfc9061578e565b8015610e495780601f10610e1e57610100808354040283529160200191610e49565b820191906000526020600020905b815481529060010190602001808311610e2c57829003601f168201915b505050505090506000826001018054610e619061578e565b80601f0160208091040260200160405190810160405280929190818152602001828054610e8d9061578e565b8015610eda5780601f10610eaf57610100808354040283529160200191610eda565b820191906000526020600020905b815481529060010190602001808311610ebd57829003601f168201915b5050505050905060008360030160009054906101000a900467ffffffffffffffff1642610f0791906155fd565b90506000846004015490506000856002018054610f239061578e565b80601f0160208091040260200160405190810160405280929190818152602001828054610f4f9061578e565b8015610f9c5780601f10610f7157610100808354040283529160200191610f9c565b820191906000526020600020905b815481529060010190602001808311610f7f57829003601f168201915b505050505090508673ffffffffffffffffffffffffffffffffffffffff166108fc839081150290604051600060405180830381858888f19350505050158015610fe9573d6000803e3d6000fd5b506110128585838960030160009054906101000a900467ffffffffffffffff168787338e612436565b50505050505050565b60606002600f60003373ffffffffffffffffffffffffffffffffffffffff1673ffffffffffffffffffffffffffffffffffffffff1681526020019081526020016000205414156110a2576040518060400160405280601081526020017f534552564943452050524f5649444552000000000000000000000000000000008152509050611169565b6001600f60003373ffffffffffffffffffffffffffffffffffffffff1673ffffffffffffffffffffffffffffffffffffffff168152602001908152602001600020541415611127576040518060400160405280600481526020017f55534552000000000000000000000000000000000000000000000000000000008152509050611169565b611130826136e8565b6040518060400160405280600f81526020017f4163636f756e742043726561746564000000000000000000000000000000000081525090505b919050565b61118983838360405180602001604052806000815250612ee0565b505050565b611199833384613047565b600d600084815260200190815260200160002060060160009054906101000a900473ffffffffffffffffffffffffffffffffffffffff1673ffffffffffffffffffffffffffffffffffffffff166108fc829081150290604051600060405180830381858888f19350505050158015611215573d6000803e3d6000fd5b5033600d600085815260200190815260200160002060060160006101000a81548173ffffffffffffffffffffffffffffffffffffffff021916908373ffffffffffffffffffffffffffffffffffffffff160217905550505050565b6000806002600084815260200190815260200160002060009054906101000a900473ffffffffffffffffffffffffffffffffffffffff169050600073ffffffffffffffffffffffffffffffffffffffff168173ffffffffffffffffffffffffffffffffffffffff161415611319576040517f08c379a00000000000000000000000000000000000000000000000000000000081526004016113109061537b565b60405180910390fd5b80915050919050565b6012602052816000526040600020818154811061133e57600080fd5b9060005260206000209060050201600091509150508060000180546113629061578e565b80601f016020809104026020016040519081016040528092919081815260200182805461138e9061578e565b80156113db5780601f106113b0576101008083540402835291602001916113db565b820191906000526020600020905b8154815290600101906020018083116113be57829003601f168201915b5050505050908060010180546113f09061578e565b80601f016020809104026020016040519081016040528092919081815260200182805461141c9061578e565b80156114695780601f1061143e57610100808354040283529160200191611469565b820191906000526020600020905b81548152906001019060200180831161144c57829003601f168201915b50505050509080600201805461147e9061578e565b80601f01602080910402602001604051908101604052809291908181526020018280546114aa9061578e565b80156114f75780601f106114cc576101008083540402835291602001916114f7565b820191906000526020600020905b8154815290600101906020018083116114da57829003601f168201915b5050505050908060030160009054906101000a900467ffffffffffffffff16908060040154905085565b60106020528060005260406000206000915090508060000180546115449061578e565b80601f01602080910402602001604051908101604052809291908181526020018280546115709061578e565b80156115bd5780601f10611592576101008083540402835291602001916115bd565b820191906000526020600020905b8154815290600101906020018083116115a057829003601f168201915b5050505050908060010180546115d29061578e565b80601f01602080910402602001604051908101604052809291908181526020018280546115fe9061578e565b801561164b5780601f106116205761010080835404028352916020019161164b565b820191906000526020600020905b81548152906001019060200180831161162e57829003601f168201915b5050505050908060020180546116609061578e565b80601f016020809104026020016040519081016040528092919081815260200182805461168c9061578e565b80156116d95780601f106116ae576101008083540402835291602001916116d9565b820191906000526020600020905b8154815290600101906020018083116116bc57829003601f168201915b5050505050908060030160009054906101000a900467ffffffffffffffff16908060040154905085565b60008073ffffffffffffffffffffffffffffffffffffffff168273ffffffffffffffffffffffffffffffffffffffff161415611774576040517f08c379a000000000000000000000000000000000000000000000000000000000815260040161176b9061531b565b60405180910390fd5b600360008373ffffffffffffffffffffffffffffffffffffffff1673ffffffffffffffffffffffffffffffffffffffff168152602001908152602001600020549050919050565b600e60205281600052604060002081815481106117d757600080fd5b9060005260206000209060080201600091509150508060000180546117fb9061578e565b80601f01602080910402602001604051908101604052809291908181526020018280546118279061578e565b80156118745780601f1061184957610100808354040283529160200191611874565b820191906000526020600020905b81548152906001019060200180831161185757829003601f168201915b5050505050908060010180546118899061578e565b80601f01602080910402602001604051908101604052809291908181526020018280546118b59061578e565b80156119025780601f106118d757610100808354040283529160200191611902565b820191906000526020600020905b8154815290600101906020018083116118e557829003601f168201915b5050505050908060020180546119179061578e565b80601f01602080910402602001604051908101604052809291908181526020018280546119439061578e565b80156119905780601f1061196557610100808354040283529160200191611990565b820191906000526020600020905b81548152906001019060200180831161197357829003601f168201915b5050505050908060030154908060040160009054906101000a900467ffffffffffffffff16908060050154908060060160009054906101000a900473ffffffffffffffffffffffffffffffffffffffff16908060070160009054906101000a900473ffffffffffffffffffffffffffffffffffffffff16905088565b600b8060000154905081565b6002600f60003373ffffffffffffffffffffffffffffffffffffffff1673ffffffffffffffffffffffffffffffffffffffff1681526020019081526020016000205414611a9a576040517f08c379a0000000000000000000000000000000000000000000000000000000008152600401611a91906152fb565b60405180910390fd5b6040518060a001604052808681526020018581526020018481526020018367ffffffffffffffff16815260200182815250601060003373ffffffffffffffffffffffffffffffffffffffff1673ffffffffffffffffffffffffffffffffffffffff1681526020019081526020016000206000820151816000019080519060200190611b2692919061422a565b506020820151816001019080519060200190611b4392919061422a565b506040820151816002019080519060200190611b6092919061422a565b5060608201518160030160006101000a81548167ffffffffffffffff021916908367ffffffffffffffff160217905550608082015181600401559050505050505050565b600d602052806000526040600020600091509050806000018054611bc79061578e565b80601f0160208091040260200160405190810160405280929190818152602001828054611bf39061578e565b8015611c405780601f10611c1557610100808354040283529160200191611c40565b820191906000526020600020905b815481529060010190602001808311611c2357829003601f168201915b505050505090806001018054611c559061578e565b80601f0160208091040260200160405190810160405280929190818152602001828054611c819061578e565b8015611cce5780601f10611ca357610100808354040283529160200191611cce565b820191906000526020600020905b815481529060010190602001808311611cb157829003601f168201915b505050505090806002018054611ce39061578e565b80601f0160208091040260200160405190810160405280929190818152602001828054611d0f9061578e565b8015611d5c5780601f10611d3157610100808354040283529160200191611d5c565b820191906000526020600020905b815481529060010190602001808311611d3f57829003601f168201915b5050505050908060030154908060040160009054906101000a900467ffffffffffffffff16908060050154908060060160009054906101000a900473ffffffffffffffffffffffffffffffffffffffff16908060070160009054906101000a900473ffffffffffffffffffffffffffffffffffffffff16905088565b60006006600083815260200190815260200160002060000160149054906101000a900467ffffffffffffffff1667ffffffffffffffff169050919050565b606060018054611e259061578e565b80601f0160208091040260200160405190810160405280929190818152602001828054611e519061578e565b8015611e9e5780601f10611e7357610100808354040283529160200191611e9e565b820191906000526020600020905b815481529060010190602001808311611e8157829003601f168201915b5050505050905090565b6060600e60003373ffffffffffffffffffffffffffffffffffffffff1673ffffffffffffffffffffffffffffffffffffffff168152602001908152602001600020805480602002602001604051908101604052809291908181526020016000905b828210156121e4578382906000526020600020906008020160405180610100016040529081600082018054611f3d9061578e565b80601f0160208091040260200160405190810160405280929190818152602001828054611f699061578e565b8015611fb65780601f10611f8b57610100808354040283529160200191611fb6565b820191906000526020600020905b815481529060010190602001808311611f9957829003601f168201915b50505050508152602001600182018054611fcf9061578e565b80601f0160208091040260200160405190810160405280929190818152602001828054611ffb9061578e565b80156120485780601f1061201d57610100808354040283529160200191612048565b820191906000526020600020905b81548152906001019060200180831161202b57829003601f168201915b505050505081526020016002820180546120619061578e565b80601f016020809104026020016040519081016040528092919081815260200182805461208d9061578e565b80156120da5780601f106120af576101008083540402835291602001916120da565b820191906000526020600020905b8154815290600101906020018083116120bd57829003601f168201915b50505050508152602001600382015481526020016004820160009054906101000a900467ffffffffffffffff1667ffffffffffffffff1667ffffffffffffffff168152602001600582015481526020016006820160009054906101000a900473ffffffffffffffffffffffffffffffffffffffff1673ffffffffffffffffffffffffffffffffffffffff1673ffffffffffffffffffffffffffffffffffffffff1681526020016007820160009054906101000a900473ffffffffffffffffffffffffffffffffffffffff1673ffffffffffffffffffffffffffffffffffffffff1673ffffffffffffffffffffffffffffffffffffffff168152505081526020019060010190611f09565b50505050905090565b6121f56142b0565b601060003373ffffffffffffffffffffffffffffffffffffffff1673ffffffffffffffffffffffffffffffffffffffff1681526020019081526020016000206040518060a001604052908160008201805461224f9061578e565b80601f016020809104026020016040519081016040528092919081815260200182805461227b9061578e565b80156122c85780601f1061229d576101008083540402835291602001916122c8565b820191906000526020600020905b8154815290600101906020018083116122ab57829003601f168201915b505050505081526020016001820180546122e19061578e565b80601f016020809104026020016040519081016040528092919081815260200182805461230d9061578e565b801561235a5780601f1061232f5761010080835404028352916020019161235a565b820191906000526020600020905b81548152906001019060200180831161233d57829003601f168201915b505050505081526020016002820180546123739061578e565b80601f016020809104026020016040519081016040528092919081815260200182805461239f9061578e565b80156123ec5780601f106123c1576101008083540402835291602001916123ec565b820191906000526020600020905b8154815290600101906020018083116123cf57829003601f168201915b505050505081526020016003820160009054906101000a900467ffffffffffffffff1667ffffffffffffffff1667ffffffffffffffff168152602001600482015481525050905090565b6002600754141561247c576040517f08c379a0000000000000000000000000000000000000000000000000000000008152600401612473906153fb565b60405180910390fd5b6002600781905550600083116124c7576040517f08c379a00000000000000000000000000000000000000000000000000000000081526004016124be9061541b565b60405180910390fd5b6124d1600a61386b565b60006124dd600a613881565b905061250b600860009054906101000a900473ffffffffffffffffffffffffffffffffffffffff168261388f565b612516813387613047565b6040518061010001604052808a81526020018981526020018881526020018767ffffffffffffffff1681526020018667ffffffffffffffff1681526020018581526020018473ffffffffffffffffffffffffffffffffffffffff1681526020018373ffffffffffffffffffffffffffffffffffffffff16815250600d600083815260200190815260200160002060008201518160000190805190602001906125bf92919061422a565b5060208201518160010190805190602001906125dc92919061422a565b5060408201518160020190805190602001906125f992919061422a565b506060820151816003015560808201518160040160006101000a81548167ffffffffffffffff021916908367ffffffffffffffff16021790555060a0820151816005015560c08201518160060160006101000a81548173ffffffffffffffffffffffffffffffffffffffff021916908373ffffffffffffffffffffffffffffffffffffffff16021790555060e08201518160070160006101000a81548173ffffffffffffffffffffffffffffffffffffffff021916908373ffffffffffffffffffffffffffffffffffffffff160217905550905050600e60003373ffffffffffffffffffffffffffffffffffffffff1673ffffffffffffffffffffffffffffffffffffffff168152602001908152602001600020600d60008381526020019081526020016000209080600181540180825580915050600190039060005260206000209060080201600090919091909150600082018160000190805461275d9061578e565b6127689291906142e9565b50600182018160010190805461277d9061578e565b6127889291906142e9565b50600282018160020190805461279d9061578e565b6127a89291906142e9565b50600382015481600301556004820160009054906101000a900467ffffffffffffffff168160040160006101000a81548167ffffffffffffffff021916908367ffffffffffffffff160217905550600582015481600501556006820160009054906101000a900473ffffffffffffffffffffffffffffffffffffffff168160060160006101000a81548173ffffffffffffffffffffffffffffffffffffffff021916908373ffffffffffffffffffffffffffffffffffffffff1602179055506007820160009054906101000a900473ffffffffffffffffffffffffffffffffffffffff168160070160006101000a81548173ffffffffffffffffffffffffffffffffffffffff021916908373ffffffffffffffffffffffffffffffffffffffff16021790555050505060016007819055505050505050505050565b6128f56128ee61332b565b8383613a69565b5050565b6001600f60003373ffffffffffffffffffffffffffffffffffffffff1673ffffffffffffffffffffffffffffffffffffffff168152602001908152602001600020541461297b576040517f08c379a00000000000000000000000000000000000000000000000000000000081526004016129729061529b565b60405180910390fd5b6000601160003373ffffffffffffffffffffffffffffffffffffffff1673ffffffffffffffffffffffffffffffffffffffff16815260200190815260200160002090506000601260003373ffffffffffffffffffffffffffffffffffffffff1673ffffffffffffffffffffffffffffffffffffffff168152602001908152602001600020600181600181540180825580915050039060005260206000209060050201905060005b60018380549050612a33919061566c565b811015612e4657612b16838281548110612a76577f4e487b7100000000000000000000000000000000000000000000000000000000600052603260045260246000fd5b90600052602060002090600502016000018054612a929061578e565b80601f0160208091040260200160405190810160405280929190818152602001828054612abe9061578e565b8015612b0b5780601f10612ae057610100808354040283529160200191612b0b565b820191906000526020600020905b815481529060010190602001808311612aee57829003601f168201915b505050505085613bd6565b15612e335785826004018190555083826000019080519060200190612b3c92919061422a565b50828181548110612b76577f4e487b7100000000000000000000000000000000000000000000000000000000600052603260045260246000fd5b906000526020600020906005020160010182600101908054612b979061578e565b612ba2929190614376565b50828181548110612bdc577f4e487b7100000000000000000000000000000000000000000000000000000000600052603260045260246000fd5b906000526020600020906005020160020182600201908054612bfd9061578e565b612c08929190614376565b50848260030160006101000a81548167ffffffffffffffff021916908367ffffffffffffffff160217905550600283805490501015612ce357828181548110612c7a577f4e487b7100000000000000000000000000000000000000000000000000000000600052603260045260246000fd5b906000526020600020906005020160008082016000612c999190614403565b600182016000612ca99190614403565b600282016000612cb99190614403565b6003820160006101000a81549067ffffffffffffffff021916905560048201600090555050612e32565b8260018480549050612cf5919061566c565b81548110612d2c577f4e487b7100000000000000000000000000000000000000000000000000000000600052603260045260246000fd5b9060005260206000209060050201838281548110612d73577f4e487b7100000000000000000000000000000000000000000000000000000000600052603260045260246000fd5b90600052602060002090600502016000820181600001908054612d959061578e565b612da09291906142e9565b506001820181600101908054612db59061578e565b612dc09291906142e9565b506002820181600201908054612dd59061578e565b612de09291906142e9565b506003820160009054906101000a900467ffffffffffffffff168160030160006101000a81548167ffffffffffffffff021916908367ffffffffffffffff160217905550600482015481600401559050505b5b8080612e3e906157f1565b915050612a22565b505050505050565b6001600f60003373ffffffffffffffffffffffffffffffffffffffff1673ffffffffffffffffffffffffffffffffffffffff1681526020019081526020016000205414612ed0576040517f08c379a0000000000000000000000000000000000000000000000000000000008152600401612ec79061529b565b60405180910390fd5b612edb83828461118e565b505050565b612ef1612eeb61332b565b836133ec565b612f30576040517f08c379a0000000000000000000000000000000000000000000000000000000008152600401612f27906153db565b60405180910390fd5b612f3c84848484613bea565b50505050565b600f6020528060005260406000206000915090505481565b6000426006600084815260200190815260200160002060000160149054906101000a900467ffffffffffffffff1667ffffffffffffffff1610612fd5576006600083815260200190815260200160002060000160009054906101000a900473ffffffffffffffffffffffffffffffffffffffff169050612fda565b600090505b919050565b6060612fea826132e0565b6000612ff4613c46565b90506000815111613014576040518060200160405280600081525061303f565b8061301e84613c5d565b60405160200161302f92919061503b565b6040516020818303038152906040525b915050919050565b61305133846133ec565b613090576040517f08c379a0000000000000000000000000000000000000000000000000000000008152600401613087906153bb565b60405180910390fd5b6000600660008581526020019081526020016000209050828160000160006101000a81548173ffffffffffffffffffffffffffffffffffffffff021916908373ffffffffffffffffffffffffffffffffffffffff160217905550818160000160146101000a81548167ffffffffffffffff021916908367ffffffffffffffff1602179055508273ffffffffffffffffffffffffffffffffffffffff16847f4e06b4e7000e659094299b3533b47b6aa8ad048e95e872d23d1f4ee55af89cfe8460405161315c9190615478565b60405180910390a350505050565b6000600560008473ffffffffffffffffffffffffffffffffffffffff1673ffffffffffffffffffffffffffffffffffffffff16815260200190815260200160002060008373ffffffffffffffffffffffffffffffffffffffff1673ffffffffffffffffffffffffffffffffffffffff16815260200190815260200160002060009054906101000a900460ff16905092915050565b60007f80ac58cd000000000000000000000000000000000000000000000000000000007bffffffffffffffffffffffffffffffffffffffffffffffffffffffff1916827bffffffffffffffffffffffffffffffffffffffffffffffffffffffff191614806132c957507f5b5e139f000000000000000000000000000000000000000000000000000000007bffffffffffffffffffffffffffffffffffffffffffffffffffffffff1916827bffffffffffffffffffffffffffffffffffffffffffffffffffffffff1916145b806132d957506132d882613e0a565b5b9050919050565b6132e981613e74565b613328576040517f08c379a000000000000000000000000000000000000000000000000000000000815260040161331f9061537b565b60405180910390fd5b50565b600033905090565b816004600083815260200190815260200160002060006101000a81548173ffffffffffffffffffffffffffffffffffffffff021916908373ffffffffffffffffffffffffffffffffffffffff160217905550808273ffffffffffffffffffffffffffffffffffffffff166133a683611270565b73ffffffffffffffffffffffffffffffffffffffff167f8c5be1e5ebec7d5bd14f71427d1e84f3dd0314c0f7b2291e5b200ac8c7c3b92560405160405180910390a45050565b6000806133f883611270565b90508073ffffffffffffffffffffffffffffffffffffffff168473ffffffffffffffffffffffffffffffffffffffff16148061343a5750613439818561316a565b5b8061347857508373ffffffffffffffffffffffffffffffffffffffff166134608461093d565b73ffffffffffffffffffffffffffffffffffffffff16145b91505092915050565b8273ffffffffffffffffffffffffffffffffffffffff166134a182611270565b73ffffffffffffffffffffffffffffffffffffffff16146134f7576040517f08c379a00000000000000000000000000000000000000000000000000000000081526004016134ee9061525b565b60405180910390fd5b600073ffffffffffffffffffffffffffffffffffffffff168273ffffffffffffffffffffffffffffffffffffffff161415613567576040517f08c379a000000000000000000000000000000000000000000000000000000000815260040161355e906152bb565b60405180910390fd5b613572838383613ee0565b61357d600082613333565b6001600360008573ffffffffffffffffffffffffffffffffffffffff1673ffffffffffffffffffffffffffffffffffffffff16815260200190815260200160002060008282546135cd919061566c565b925050819055506001600360008473ffffffffffffffffffffffffffffffffffffffff1673ffffffffffffffffffffffffffffffffffffffff168152602001908152602001600020600082825461362491906155a7565b92505081905550816002600083815260200190815260200160002060006101000a81548173ffffffffffffffffffffffffffffffffffffffff021916908373ffffffffffffffffffffffffffffffffffffffff160217905550808273ffffffffffffffffffffffffffffffffffffffff168473ffffffffffffffffffffffffffffffffffffffff167fddf252ad1be2c89b69c2b068fc378daa952ba7f163c4a11628f55a4df523b3ef60405160405180910390a46136e383838361403e565b505050565b80600f60003373ffffffffffffffffffffffffffffffffffffffff1673ffffffffffffffffffffffffffffffffffffffff168152602001908152602001600020819055506002811415613868576040518060a00160405280604051806020016040528060008152508152602001604051806020016040528060008152508152602001604051806020016040528060008152508152602001600067ffffffffffffffff1681526020016000815250601060003373ffffffffffffffffffffffffffffffffffffffff1673ffffffffffffffffffffffffffffffffffffffff16815260200190815260200160002060008201518160000190805190602001906137f092919061422a565b50602082015181600101908051906020019061380d92919061422a565b50604082015181600201908051906020019061382a92919061422a565b5060608201518160030160006101000a81548167ffffffffffffffff021916908367ffffffffffffffff160217905550608082015181600401559050505b50565b6001816000016000828254019250508190555050565b600081600001549050919050565b600073ffffffffffffffffffffffffffffffffffffffff168273ffffffffffffffffffffffffffffffffffffffff1614156138ff576040517f08c379a00000000000000000000000000000000000000000000000000000000081526004016138f69061535b565b60405180910390fd5b61390881613e74565b15613948576040517f08c379a000000000000000000000000000000000000000000000000000000000815260040161393f9061527b565b60405180910390fd5b61395460008383613ee0565b6001600360008473ffffffffffffffffffffffffffffffffffffffff1673ffffffffffffffffffffffffffffffffffffffff16815260200190815260200160002060008282546139a491906155a7565b92505081905550816002600083815260200190815260200160002060006101000a81548173ffffffffffffffffffffffffffffffffffffffff021916908373ffffffffffffffffffffffffffffffffffffffff160217905550808273ffffffffffffffffffffffffffffffffffffffff16600073ffffffffffffffffffffffffffffffffffffffff167fddf252ad1be2c89b69c2b068fc378daa952ba7f163c4a11628f55a4df523b3ef60405160405180910390a4613a656000838361403e565b5050565b8173ffffffffffffffffffffffffffffffffffffffff168373ffffffffffffffffffffffffffffffffffffffff161415613ad8576040517f08c379a0000000000000000000000000000000000000000000000000000000008152600401613acf906152db565b60405180910390fd5b80600560008573ffffffffffffffffffffffffffffffffffffffff1673ffffffffffffffffffffffffffffffffffffffff16815260200190815260200160002060008473ffffffffffffffffffffffffffffffffffffffff1673ffffffffffffffffffffffffffffffffffffffff16815260200190815260200160002060006101000a81548160ff0219169083151502179055508173ffffffffffffffffffffffffffffffffffffffff168373ffffffffffffffffffffffffffffffffffffffff167f17307eab39ab6107e8899845ad3d59bd9653f200f220920489ca2b5937696c3183604051613bc991906150e8565b60405180910390a3505050565b6000613be28383614043565b905092915050565b613bf5848484613481565b613c018484848461406b565b613c40576040517f08c379a0000000000000000000000000000000000000000000000000000000008152600401613c379061523b565b60405180910390fd5b50505050565b606060405180602001604052806000815250905090565b60606000821415613ca5576040518060400160405280600181526020017f30000000000000000000000000000000000000000000000000000000000000008152509050613e05565b600082905060005b60008214613cd7578080613cc0906157f1565b915050600a82613cd0919061563b565b9150613cad565b60008167ffffffffffffffff811115613d19577f4e487b7100000000000000000000000000000000000000000000000000000000600052604160045260246000fd5b6040519080825280601f01601f191660200182016040528015613d4b5781602001600182028036833780820191505090505b5090505b60008514613dfe57600182613d64919061566c565b9150600a85613d73919061583a565b6030613d7f91906155a7565b60f81b818381518110613dbb577f4e487b7100000000000000000000000000000000000000000000000000000000600052603260045260246000fd5b60200101907effffffffffffffffffffffffffffffffffffffffffffffffffffffffffffff1916908160001a905350600a85613df7919061563b565b9450613d4f565b8093505050505b919050565b60007f01ffc9a7000000000000000000000000000000000000000000000000000000007bffffffffffffffffffffffffffffffffffffffffffffffffffffffff1916827bffffffffffffffffffffffffffffffffffffffffffffffffffffffff1916149050919050565b60008073ffffffffffffffffffffffffffffffffffffffff166002600084815260200190815260200160002060009054906101000a900473ffffffffffffffffffffffffffffffffffffffff1673ffffffffffffffffffffffffffffffffffffffff1614159050919050565b613eeb838383614202565b8173ffffffffffffffffffffffffffffffffffffffff168373ffffffffffffffffffffffffffffffffffffffff1614158015613f8a5750600073ffffffffffffffffffffffffffffffffffffffff166006600083815260200190815260200160002060000160009054906101000a900473ffffffffffffffffffffffffffffffffffffffff1673ffffffffffffffffffffffffffffffffffffffff1614155b156140395760066000828152602001908152602001600020600080820160006101000a81549073ffffffffffffffffffffffffffffffffffffffff02191690556000820160146101000a81549067ffffffffffffffff02191690555050600073ffffffffffffffffffffffffffffffffffffffff16817f4e06b4e7000e659094299b3533b47b6aa8ad048e95e872d23d1f4ee55af89cfe60006040516140309190615103565b60405180910390a35b505050565b505050565b600081518351148015614063575081805190602001208380519060200120145b905092915050565b600061408c8473ffffffffffffffffffffffffffffffffffffffff16614207565b156141f5578373ffffffffffffffffffffffffffffffffffffffff1663150b7a026140b561332b565b8786866040518563ffffffff1660e01b81526004016140d7949392919061507a565b602060405180830381600087803b1580156140f157600080fd5b505af192505050801561412257506040513d601f19601f8201168201806040525081019061411f919061477e565b60015b6141a5573d8060008114614152576040519150601f19603f3d011682016040523d82523d6000602084013e614157565b606091505b5060008151141561419d576040517f08c379a00000000000000000000000000000000000000000000000000000000081526004016141949061523b565b60405180910390fd5b805181602001fd5b63150b7a0260e01b7bffffffffffffffffffffffffffffffffffffffffffffffffffffffff1916817bffffffffffffffffffffffffffffffffffffffffffffffffffffffff1916149150506141fa565b600190505b949350505050565b505050565b6000808273ffffffffffffffffffffffffffffffffffffffff163b119050919050565b8280546142369061578e565b90600052602060002090601f016020900481019282614258576000855561429f565b82601f1061427157805160ff191683800117855561429f565b8280016001018555821561429f579182015b8281111561429e578251825591602001919060010190614283565b5b5090506142ac9190614443565b5090565b6040518060a00160405280606081526020016060815260200160608152602001600067ffffffffffffffff168152602001600081525090565b8280546142f59061578e565b90600052602060002090601f0160209004810192826143175760008555614365565b82601f106143285780548555614365565b8280016001018555821561436557600052602060002091601f016020900482015b82811115614364578254825591600101919060010190614349565b5b5090506143729190614443565b5090565b8280546143829061578e565b90600052602060002090601f0160209004810192826143a457600085556143f2565b82601f106143b557805485556143f2565b828001600101855582156143f257600052602060002091601f016020900482015b828111156143f15782548255916001019190600101906143d6565b5b5090506143ff9190614443565b5090565b50805461440f9061578e565b6000825580601f106144215750614440565b601f01602090049060005260206000209081019061443f9190614443565b5b50565b5b8082111561445c576000816000905550600101614444565b5090565b600061447361446e846154b8565b615493565b90508281526020810184848401111561448b57600080fd5b61449684828561574c565b509392505050565b60006144b16144ac846154e9565b615493565b9050828152602081018484840111156144c957600080fd5b6144d484828561574c565b509392505050565b6000813590506144eb81615cf8565b92915050565b60008135905061450081615d0f565b92915050565b60008135905061451581615d26565b92915050565b60008151905061452a81615d26565b92915050565b600082601f83011261454157600080fd5b8135614551848260208601614460565b91505092915050565b600082601f83011261456b57600080fd5b813561457b84826020860161449e565b91505092915050565b60008135905061459381615d3d565b92915050565b6000813590506145a881615d54565b92915050565b6000602082840312156145c057600080fd5b60006145ce848285016144dc565b91505092915050565b600080604083850312156145ea57600080fd5b60006145f8858286016144dc565b9250506020614609858286016144dc565b9150509250929050565b60008060006060848603121561462857600080fd5b6000614636868287016144dc565b9350506020614647868287016144dc565b925050604061465886828701614584565b9150509250925092565b6000806000806080858703121561467857600080fd5b6000614686878288016144dc565b9450506020614697878288016144dc565b93505060406146a887828801614584565b925050606085013567ffffffffffffffff8111156146c557600080fd5b6146d187828801614530565b91505092959194509250565b600080604083850312156146f057600080fd5b60006146fe858286016144dc565b925050602061470f858286016144f1565b9150509250929050565b6000806040838503121561472c57600080fd5b600061473a858286016144dc565b925050602061474b85828601614584565b9150509250929050565b60006020828403121561476757600080fd5b600061477584828501614506565b91505092915050565b60006020828403121561479057600080fd5b600061479e8482850161451b565b91505092915050565b600080600080600060a086880312156147bf57600080fd5b600086013567ffffffffffffffff8111156147d957600080fd5b6147e58882890161455a565b955050602086013567ffffffffffffffff81111561480257600080fd5b61480e8882890161455a565b945050604086013567ffffffffffffffff81111561482b57600080fd5b6148378882890161455a565b935050606061484888828901614599565b925050608061485988828901614584565b9150509295509295909350565b600080600080600080600080610100898b03121561488357600080fd5b600089013567ffffffffffffffff81111561489d57600080fd5b6148a98b828c0161455a565b985050602089013567ffffffffffffffff8111156148c657600080fd5b6148d28b828c0161455a565b975050604089013567ffffffffffffffff8111156148ef57600080fd5b6148fb8b828c0161455a565b965050606061490c8b828c01614599565b955050608061491d8b828c01614599565b94505060a061492e8b828c01614584565b93505060c061493f8b828c016144dc565b92505060e06149508b828c016144dc565b9150509295985092959890939650565b60006020828403121561497257600080fd5b600061498084828501614584565b91505092915050565b60008060006060848603121561499e57600080fd5b60006149ac86828701614584565b93505060206149bd868287016144dc565b92505060406149ce86828701614599565b9150509250925092565b6000806000606084860312156149ed57600080fd5b60006149fb86828701614584565b9350506020614a0c86828701614584565b925050604084013567ffffffffffffffff811115614a2957600080fd5b614a358682870161455a565b9150509250925092565b600080600060608486031215614a5457600080fd5b6000614a6286828701614584565b9350506020614a7386828701614584565b9250506040614a8486828701614599565b9150509250925092565b600080600060608486031215614aa357600080fd5b6000614ab186828701614584565b9350506020614ac286828701614599565b9250506040614ad386828701614584565b9150509250925092565b6000614ae98383614ebd565b905092915050565b614afa816156b2565b82525050565b614b09816156b2565b82525050565b614b18816156a0565b82525050565b6000614b298261552a565b614b338185615558565b935083602082028501614b458561551a565b8060005b85811015614b815784840389528151614b628582614add565b9450614b6d8361554b565b925060208a01995050600181019050614b49565b50829750879550505050505092915050565b614b9c816156c4565b82525050565b6000614bad82615535565b614bb78185615569565b9350614bc781856020860161575b565b614bd081615927565b840191505092915050565b614be48161573a565b82525050565b6000614bf582615540565b614bff818561557a565b9350614c0f81856020860161575b565b614c1881615927565b840191505092915050565b6000614c2e82615540565b614c38818561558b565b9350614c4881856020860161575b565b614c5181615927565b840191505092915050565b6000614c6782615540565b614c71818561559c565b9350614c8181856020860161575b565b80840191505092915050565b6000614c9a60328361558b565b9150614ca582615938565b604082019050919050565b6000614cbd60258361558b565b9150614cc882615987565b604082019050919050565b6000614ce0601c8361558b565b9150614ceb826159d6565b602082019050919050565b6000614d03600a8361558b565b9150614d0e826159ff565b602082019050919050565b6000614d2660248361558b565b9150614d3182615a28565b604082019050919050565b6000614d4960198361558b565b9150614d5482615a77565b602082019050919050565b6000614d6c60168361558b565b9150614d7782615aa0565b602082019050919050565b6000614d8f60298361558b565b9150614d9a82615ac9565b604082019050919050565b6000614db2603e8361558b565b9150614dbd82615b18565b604082019050919050565b6000614dd560208361558b565b9150614de082615b67565b602082019050919050565b6000614df860188361558b565b9150614e0382615b90565b602082019050919050565b6000614e1b60218361558b565b9150614e2682615bb9565b604082019050919050565b6000614e3e60318361558b565b9150614e4982615c08565b604082019050919050565b6000614e61602e8361558b565b9150614e6c82615c57565b604082019050919050565b6000614e84601f8361558b565b9150614e8f82615ca6565b602082019050919050565b6000614ea7601c8361558b565b9150614eb282615ccf565b602082019050919050565b6000610100830160008301518482036000860152614edb8282614bea565b91505060208301518482036020860152614ef58282614bea565b91505060408301518482036040860152614f0f8282614bea565b9150506060830151614f246060860182614fff565b506080830151614f37608086018261501d565b5060a0830151614f4a60a0860182614fff565b5060c0830151614f5d60c0860182614af1565b5060e0830151614f7060e0860182614af1565b508091505092915050565b600060a0830160008301518482036000860152614f988282614bea565b91505060208301518482036020860152614fb28282614bea565b91505060408301518482036040860152614fcc8282614bea565b9150506060830151614fe1606086018261501d565b506080830151614ff46080860182614fff565b508091505092915050565b6150088161571c565b82525050565b6150178161571c565b82525050565b61502681615726565b82525050565b61503581615726565b82525050565b60006150478285614c5c565b91506150538284614c5c565b91508190509392505050565b60006020820190506150746000830184614b0f565b92915050565b600060808201905061508f6000830187614b0f565b61509c6020830186614b0f565b6150a9604083018561500e565b81810360608301526150bb8184614ba2565b905095945050505050565b600060208201905081810360008301526150e08184614b1e565b905092915050565b60006020820190506150fd6000830184614b93565b92915050565b60006020820190506151186000830184614bdb565b92915050565b600060208201905081810360008301526151388184614c23565b905092915050565b600061010082019050818103600083015261515b818b614c23565b9050818103602083015261516f818a614c23565b905081810360408301526151838189614c23565b9050615192606083018861500e565b61519f608083018761502c565b6151ac60a083018661500e565b6151b960c0830185614b00565b6151c660e0830184614b00565b9998505050505050505050565b600060a08201905081810360008301526151ed8188614c23565b905081810360208301526152018187614c23565b905081810360408301526152158186614c23565b9050615224606083018561502c565b615231608083018461500e565b9695505050505050565b6000602082019050818103600083015261525481614c8d565b9050919050565b6000602082019050818103600083015261527481614cb0565b9050919050565b6000602082019050818103600083015261529481614cd3565b9050919050565b600060208201905081810360008301526152b481614cf6565b9050919050565b600060208201905081810360008301526152d481614d19565b9050919050565b600060208201905081810360008301526152f481614d3c565b9050919050565b6000602082019050818103600083015261531481614d5f565b9050919050565b6000602082019050818103600083015261533481614d82565b9050919050565b6000602082019050818103600083015261535481614da5565b9050919050565b6000602082019050818103600083015261537481614dc8565b9050919050565b6000602082019050818103600083015261539481614deb565b9050919050565b600060208201905081810360008301526153b481614e0e565b9050919050565b600060208201905081810360008301526153d481614e31565b9050919050565b600060208201905081810360008301526153f481614e54565b9050919050565b6000602082019050818103600083015261541481614e77565b9050919050565b6000602082019050818103600083015261543481614e9a565b9050919050565b600060208201905081810360008301526154558184614f7b565b905092915050565b6000602082019050615472600083018461500e565b92915050565b600060208201905061548d600083018461502c565b92915050565b600061549d6154ae565b90506154a982826157c0565b919050565b6000604051905090565b600067ffffffffffffffff8211156154d3576154d26158f8565b5b6154dc82615927565b9050602081019050919050565b600067ffffffffffffffff821115615504576155036158f8565b5b61550d82615927565b9050602081019050919050565b6000819050602082019050919050565b600081519050919050565b600081519050919050565b600081519050919050565b6000602082019050919050565b600082825260208201905092915050565b600082825260208201905092915050565b600082825260208201905092915050565b600082825260208201905092915050565b600081905092915050565b60006155b28261571c565b91506155bd8361571c565b9250827fffffffffffffffffffffffffffffffffffffffffffffffffffffffffffffffff038211156155f2576155f161586b565b5b828201905092915050565b600061560882615726565b915061561383615726565b92508267ffffffffffffffff038211156156305761562f61586b565b5b828201905092915050565b60006156468261571c565b91506156518361571c565b9250826156615761566061589a565b5b828204905092915050565b60006156778261571c565b91506156828361571c565b9250828210156156955761569461586b565b5b828203905092915050565b60006156ab826156fc565b9050919050565b60006156bd826156fc565b9050919050565b60008115159050919050565b60007fffffffff0000000000000000000000000000000000000000000000000000000082169050919050565b600073ffffffffffffffffffffffffffffffffffffffff82169050919050565b6000819050919050565b600067ffffffffffffffff82169050919050565b600061574582615726565b9050919050565b82818337600083830152505050565b60005b8381101561577957808201518184015260208101905061575e565b83811115615788576000848401525b50505050565b600060028204905060018216806157a657607f821691505b602082108114156157ba576157b96158c9565b5b50919050565b6157c982615927565b810181811067ffffffffffffffff821117156157e8576157e76158f8565b5b80604052505050565b60006157fc8261571c565b91507fffffffffffffffffffffffffffffffffffffffffffffffffffffffffffffffff82141561582f5761582e61586b565b5b600182019050919050565b60006158458261571c565b91506158508361571c565b9250826158605761585f61589a565b5b828206905092915050565b7f4e487b7100000000000000000000000000000000000000000000000000000000600052601160045260246000fd5b7f4e487b7100000000000000000000000000000000000000000000000000000000600052601260045260246000fd5b7f4e487b7100000000000000000000000000000000000000000000000000000000600052602260045260246000fd5b7f4e487b7100000000000000000000000000000000000000000000000000000000600052604160045260246000fd5b6000601f19601f8301169050919050565b7f4552433732313a207472616e7366657220746f206e6f6e20455243373231526560008201527f63656976657220696d706c656d656e7465720000000000000000000000000000602082015250565b7f4552433732313a207472616e736665722066726f6d20696e636f72726563742060008201527f6f776e6572000000000000000000000000000000000000000000000000000000602082015250565b7f4552433732313a20746f6b656e20616c7265616479206d696e74656400000000600082015250565b7f4e6f742061207573657200000000000000000000000000000000000000000000600082015250565b7f4552433732313a207472616e7366657220746f20746865207a65726f2061646460008201527f7265737300000000000000000000000000000000000000000000000000000000602082015250565b7f4552433732313a20617070726f766520746f2063616c6c657200000000000000600082015250565b7f4e6f74206120736572766963652050726f766964657200000000000000000000600082015250565b7f4552433732313a2061646472657373207a65726f206973206e6f74206120766160008201527f6c6964206f776e65720000000000000000000000000000000000000000000000602082015250565b7f4552433732313a20617070726f76652063616c6c6572206973206e6f7420746f60008201527f6b656e206f776e6572206e6f7220617070726f76656420666f7220616c6c0000602082015250565b7f4552433732313a206d696e7420746f20746865207a65726f2061646472657373600082015250565b7f4552433732313a20696e76616c696420746f6b656e2049440000000000000000600082015250565b7f4552433732313a20617070726f76616c20746f2063757272656e74206f776e6560008201527f7200000000000000000000000000000000000000000000000000000000000000602082015250565b7f4552433732313a207472616e736665722063616c6c6572206973206e6f74206f60008201527f776e6572206e6f7220617070726f766564000000000000000000000000000000602082015250565b7f4552433732313a2063616c6c6572206973206e6f7420746f6b656e206f776e6560008201527f72206e6f7220617070726f766564000000000000000000000000000000000000602082015250565b7f5265656e7472616e637947756172643a207265656e7472616e742063616c6c00600082015250565b7f5072696365206d757374206265206174206c6561737420312077656900000000600082015250565b615d01816156a0565b8114615d0c57600080fd5b50565b615d18816156c4565b8114615d2357600080fd5b50565b615d2f816156d0565b8114615d3a57600080fd5b50565b615d468161571c565b8114615d5157600080fd5b50565b615d5d81615726565b8114615d6857600080fd5b5056fea26469706673582212209f7e5f54d2e31a296e4cf9981008dcbf3ea160ddfa9e539248171498024d634d64736f6c63430008040033",
  "immutableReferences": {},
  "source": "// SPDX-License-Identifier: MIT\npragma solidity ^0.8.1;\n\nimport \"./SubsNFT.sol\";\n\n/** @title eazyVideo\n * @notice It is a contract for managing eazyVideo platform\n */\n\ncontract EazyVideo is eazyVideoNFTContract {\n    \n    // For only service providers\n    struct Service {\n        string name;\n        string ImageUri;\n        string description;\n        uint64 planDuration;\n        uint256 price;\n    }\n    \n    // 2 - For Service provider, 1 - For a User\n    mapping(address => uint256) public accountType;\n\n    \n    mapping(address => Service) public services;\n    mapping(address => Service[]) public userAvailablePlans;\n    mapping(address => Service[]) public userForLendPlans;\n\n    /**\n     * @notice modifier to check if user is valid\n     */\n    modifier onlyUser() {\n        require(accountType[msg.sender] == 1, \"Not a user\");\n        _;\n    }\n\n    /**\n     * @notice modifier to check if service provider is valid\n     */\n    modifier onlyServiceProvider() {\n        require(accountType[msg.sender] == 2, \"Not a service Provider\");\n        _;\n    }\n\n    function memcmp(bytes memory a, bytes memory b)\n        internal\n        pure\n        returns (bool)\n    {\n        return (a.length == b.length) && (keccak256(a) == keccak256(b));\n    }\n\n    function strcmp(string memory a, string memory b)\n        internal\n        pure\n        returns (bool)\n    {\n        return memcmp(bytes(a), bytes(b));\n    }\n\n    function login(uint256 _accountType) public returns (string memory) {\n        // SERVICE PROVIDER\n        if (accountType[msg.sender] == 2) {\n            return \"SERVICE PROVIDER\";\n        }\n        // USER\n        else if (accountType[msg.sender] == 1) {\n            return \"USER\";\n        }\n        addToPlatform(_accountType);\n        return \"Account Created\";\n    }\n\n    function addToPlatform(uint256 _accountType) internal {\n        accountType[msg.sender] = _accountType;\n        \n        // serviceProvider\n        if (_accountType == 2) {\n            services[msg.sender] = Service({\n                    name: \"\",\n                    ImageUri: \"\",\n                    description: \"\",\n                    planDuration: 0,\n                    price: 0\n                });\n        }\n    }\n\n    function updateService(\n        string memory _name,\n        string memory _ImageUri,\n        string memory _description,\n        uint64 _planDuration,\n        uint256 _planPrice\n    ) public onlyServiceProvider {\n        services[msg.sender] = Service({\n            name: _name,\n            ImageUri: _ImageUri,\n            description: _description,\n            planDuration: _planDuration,\n            price: _planPrice\n        });\n    }\n\n    /**\n     * @notice method to buy service from service providers\n     */\n    function BuyServiceFromServiceProvider(\n        address _serviceProviderWallet\n    ) public payable onlyUser {\n        Service storage service = services[\n            _serviceProviderWallet\n        ];\n\n        string memory _name = service.name;\n        string memory _ImageUri = service.ImageUri;\n        uint64 _time = uint64(block.timestamp) + service.planDuration;\n        uint256 _price = service.price;\n        string memory _description = service.description;\n\n        payable(_serviceProviderWallet).transfer(_price);\n\n        // Mint a expirable NFT\n        mintNFT(\n            _name,\n            _ImageUri,\n            _description,\n            service.planDuration,\n            _time,\n            _price,\n            msg.sender,\n            _serviceProviderWallet\n        );\n    }\n\n    /**\n     * @notice method to lend the nfts for rents in thier profile by giving the time lending for\n     * User cant rent a nft for time more than he owns it - This requires a check from a nft metadata\n     */\n    function LendPlan(\n        uint256 _price,\n        uint256 _days,\n        string memory _name\n    ) public onlyUser {\n        Service[] storage user = userAvailablePlans[msg.sender];\n        Service storage ForLendPlan = userForLendPlans[msg.sender].push();\n        for (uint256 i = 0; i < user.length - 1; i++) {\n            if (strcmp(user[i].name, _name)) {\n                ForLendPlan.price = _price;\n                ForLendPlan.name = _name;\n                ForLendPlan.ImageUri = user[i].ImageUri;\n                ForLendPlan.description = user[i].description;\n                ForLendPlan.planDuration = uint64(_days);\n\n                if (user.length < 2) {\n                    delete user[i];\n                } else {\n                    user[i] = user[\n                        user.length - 1\n                    ];\n                }\n            }\n        }\n    }\n\n    /**\n     * @notice This method can be called by only a user wallet address to rent the\n     * available nfts by giving the days user is renting it for and giving the amount to\n     * the nft owner\n     */\n    function RentPlan(\n        uint256 tokenID,\n        uint256 _amount,\n        uint64 _days // _days multiplied by per day amount is total amount\n    ) public payable onlyUser {\n        // check owner\n        //check lend details fulfillment\n        // tranfer the amount to the owner\n        rentNFT(tokenID, _days, _amount);\n    }\n\n\n    function getServiceByAddress() public view returns (Service memory){\n        return services[msg.sender];\n    }\n\n}",
  "sourcePath": "C:/Users/hardi/Desktop/EazyVideo/truffle/contracts/eazyVideo.sol",
  "compiler": {
    "name": "solc",
    "version": "0.8.4+commit.c7e474f2.Emscripten.clang"
  },
  "schemaVersion": "3.4.0",
  "updatedAt": "2022-07-30T21:41:57.446Z",
  "devdoc": {
    "kind": "dev",
    "methods": {
      "approve(address,uint256)": {
        "details": "See {IERC721-approve}."
      },
      "balanceOf(address)": {
        "details": "See {IERC721-balanceOf}."
      },
      "getApproved(uint256)": {
        "details": "See {IERC721-getApproved}."
      },
      "isApprovedForAll(address,address)": {
        "details": "See {IERC721-isApprovedForAll}."
      },
      "name()": {
        "details": "See {IERC721Metadata-name}."
      },
      "ownerOf(uint256)": {
        "details": "See {IERC721-ownerOf}."
      },
      "safeTransferFrom(address,address,uint256)": {
        "details": "See {IERC721-safeTransferFrom}."
      },
      "safeTransferFrom(address,address,uint256,bytes)": {
        "details": "See {IERC721-safeTransferFrom}."
      },
      "setApprovalForAll(address,bool)": {
        "details": "See {IERC721-setApprovalForAll}."
      },
      "setUser(uint256,address,uint64)": {
        "details": "The zero address indicates there is no user Throws if `tokenId` is not valid NFT",
        "params": {
          "expires": "UNIX timestamp, The new user could use the NFT before expires",
          "user": "The new user of the NFT"
        }
      },
      "supportsInterface(bytes4)": {
        "details": "See {IERC165-supportsInterface}."
      },
      "symbol()": {
        "details": "See {IERC721Metadata-symbol}."
      },
      "tokenURI(uint256)": {
        "details": "See {IERC721Metadata-tokenURI}."
      },
      "transferFrom(address,address,uint256)": {
        "details": "See {IERC721-transferFrom}."
      },
      "userExpires(uint256)": {
        "details": "The zero value indicates that there is no user",
        "params": {
          "tokenId": "The NFT to get the user expires for"
        },
        "returns": {
          "_0": "The user expires for this NFT"
        }
      },
      "userOf(uint256)": {
        "details": "The zero address indicates that there is no user or the user is expired",
        "params": {
          "tokenId": "The NFT to get the user address for"
        },
        "returns": {
          "_0": "The user address for this NFT"
        }
      }
    },
    "title": "eazyVideo",
    "version": 1
  },
  "userdoc": {
    "events": {
      "UpdateUser(uint256,address,uint64)": {
        "notice": "Emitted when the `user` of an NFT or the `expires` of the `user` is changed The zero address for user indicates that there is no user address"
      }
    },
    "kind": "user",
    "methods": {
      "BuyServiceFromServiceProvider(address)": {
        "notice": "method to buy service from service providers"
      },
      "LendPlan(uint256,uint256,string)": {
        "notice": "method to lend the nfts for rents in thier profile by giving the time lending for User cant rent a nft for time more than he owns it - This requires a check from a nft metadata"
      },
      "RentPlan(uint256,uint256,uint64)": {
        "notice": "This method can be called by only a user wallet address to rent the available nfts by giving the days user is renting it for and giving the amount to the nft owner"
      },
      "setUser(uint256,address,uint64)": {
        "notice": "set the user and expires of a NFT"
      },
      "userExpires(uint256)": {
        "notice": "Get the user expires of an NFT"
      },
      "userOf(uint256)": {
        "notice": "Get the user address of an NFT"
      }
    },
    "notice": "It is a contract for managing eazyVideo platform",
    "version": 1
  }
}