{
  "contractName": "eazyVideoNFTContract",
  "abi": [
    {
      "inputs": [],
      "stateMutability": "nonpayable",
      "type": "constructor"
    },
    {
      "anonymous": false,
      "inputs": [
        {
          "indexed": true,
          "internalType": "address",
          "name": "owner",
          "type": "address"
        },
        {
          "indexed": true,
          "internalType": "address",
          "name": "approved",
          "type": "address"
        },
        {
          "indexed": true,
          "internalType": "uint256",
          "name": "tokenId",
          "type": "uint256"
        }
      ],
      "name": "Approval",
      "type": "event"
    },
    {
      "anonymous": false,
      "inputs": [
        {
          "indexed": true,
          "internalType": "address",
          "name": "owner",
          "type": "address"
        },
        {
          "indexed": true,
          "internalType": "address",
          "name": "operator",
          "type": "address"
        },
        {
          "indexed": false,
          "internalType": "bool",
          "name": "approved",
          "type": "bool"
        }
      ],
      "name": "ApprovalForAll",
      "type": "event"
    },
    {
      "anonymous": false,
      "inputs": [
        {
          "indexed": true,
          "internalType": "address",
          "name": "from",
          "type": "address"
        },
        {
          "indexed": true,
          "internalType": "address",
          "name": "to",
          "type": "address"
        },
        {
          "indexed": true,
          "internalType": "uint256",
          "name": "tokenId",
          "type": "uint256"
        }
      ],
      "name": "Transfer",
      "type": "event"
    },
    {
      "anonymous": false,
      "inputs": [
        {
          "indexed": true,
          "internalType": "uint256",
          "name": "tokenId",
          "type": "uint256"
        },
        {
          "indexed": true,
          "internalType": "address",
          "name": "user",
          "type": "address"
        },
        {
          "indexed": false,
          "internalType": "uint64",
          "name": "expires",
          "type": "uint64"
        }
      ],
      "name": "UpdateUser",
      "type": "event"
    },
    {
      "inputs": [
        {
          "internalType": "address",
          "name": "",
          "type": "address"
        }
      ],
      "name": "accountType",
      "outputs": [
        {
          "internalType": "uint256",
          "name": "",
          "type": "uint256"
        }
      ],
      "stateMutability": "view",
      "type": "function",
      "constant": true
    },
    {
      "inputs": [
        {
          "internalType": "address",
          "name": "to",
          "type": "address"
        },
        {
          "internalType": "uint256",
          "name": "tokenId",
          "type": "uint256"
        }
      ],
      "name": "approve",
      "outputs": [],
      "stateMutability": "nonpayable",
      "type": "function"
    },
    {
      "inputs": [
        {
          "internalType": "address",
          "name": "owner",
          "type": "address"
        }
      ],
      "name": "balanceOf",
      "outputs": [
        {
          "internalType": "uint256",
          "name": "",
          "type": "uint256"
        }
      ],
      "stateMutability": "view",
      "type": "function",
      "constant": true
    },
    {
      "inputs": [
        {
          "internalType": "uint256",
          "name": "",
          "type": "uint256"
        }
      ],
      "name": "forLendServices",
      "outputs": [
        {
          "internalType": "uint256",
          "name": "tokenId",
          "type": "uint256"
        },
        {
          "internalType": "uint256",
          "name": "price",
          "type": "uint256"
        },
        {
          "internalType": "uint256",
          "name": "duration",
          "type": "uint256"
        },
        {
          "internalType": "address",
          "name": "renter",
          "type": "address"
        }
      ],
      "stateMutability": "view",
      "type": "function",
      "constant": true
    },
    {
      "inputs": [
        {
          "internalType": "uint256",
          "name": "tokenId",
          "type": "uint256"
        }
      ],
      "name": "getApproved",
      "outputs": [
        {
          "internalType": "address",
          "name": "",
          "type": "address"
        }
      ],
      "stateMutability": "view",
      "type": "function",
      "constant": true
    },
    {
      "inputs": [
        {
          "internalType": "uint256",
          "name": "",
          "type": "uint256"
        }
      ],
      "name": "idToNftItem",
      "outputs": [
        {
          "internalType": "uint256",
          "name": "serviceid",
          "type": "uint256"
        },
        {
          "internalType": "string",
          "name": "serviceName",
          "type": "string"
        },
        {
          "internalType": "string",
          "name": "ImageUri",
          "type": "string"
        },
        {
          "internalType": "string",
          "name": "description",
          "type": "string"
        },
        {
          "internalType": "uint256",
          "name": "duration",
          "type": "uint256"
        },
        {
          "internalType": "uint64",
          "name": "endTime",
          "type": "uint64"
        },
        {
          "internalType": "uint256",
          "name": "price",
          "type": "uint256"
        },
        {
          "internalType": "address payable",
          "name": "owner",
          "type": "address"
        },
        {
          "internalType": "address payable",
          "name": "serviceProvider",
          "type": "address"
        }
      ],
      "stateMutability": "view",
      "type": "function",
      "constant": true
    },
    {
      "inputs": [
        {
          "internalType": "address",
          "name": "owner",
          "type": "address"
        },
        {
          "internalType": "address",
          "name": "operator",
          "type": "address"
        }
      ],
      "name": "isApprovedForAll",
      "outputs": [
        {
          "internalType": "bool",
          "name": "",
          "type": "bool"
        }
      ],
      "stateMutability": "view",
      "type": "function",
      "constant": true
    },
    {
      "inputs": [],
      "name": "name",
      "outputs": [
        {
          "internalType": "string",
          "name": "",
          "type": "string"
        }
      ],
      "stateMutability": "view",
      "type": "function",
      "constant": true
    },
    {
      "inputs": [
        {
          "internalType": "uint256",
          "name": "tokenId",
          "type": "uint256"
        }
      ],
      "name": "ownerOf",
      "outputs": [
        {
          "internalType": "address",
          "name": "",
          "type": "address"
        }
      ],
      "stateMutability": "view",
      "type": "function",
      "constant": true
    },
    {
      "inputs": [
        {
          "internalType": "address",
          "name": "from",
          "type": "address"
        },
        {
          "internalType": "address",
          "name": "to",
          "type": "address"
        },
        {
          "internalType": "uint256",
          "name": "tokenId",
          "type": "uint256"
        }
      ],
      "name": "safeTransferFrom",
      "outputs": [],
      "stateMutability": "nonpayable",
      "type": "function"
    },
    {
      "inputs": [
        {
          "internalType": "address",
          "name": "from",
          "type": "address"
        },
        {
          "internalType": "address",
          "name": "to",
          "type": "address"
        },
        {
          "internalType": "uint256",
          "name": "tokenId",
          "type": "uint256"
        },
        {
          "internalType": "bytes",
          "name": "data",
          "type": "bytes"
        }
      ],
      "name": "safeTransferFrom",
      "outputs": [],
      "stateMutability": "nonpayable",
      "type": "function"
    },
    {
      "inputs": [
        {
          "internalType": "address",
          "name": "",
          "type": "address"
        },
        {
          "internalType": "uint256",
          "name": "",
          "type": "uint256"
        }
      ],
      "name": "serviceProviderToIds",
      "outputs": [
        {
          "internalType": "uint256",
          "name": "",
          "type": "uint256"
        }
      ],
      "stateMutability": "view",
      "type": "function",
      "constant": true
    },
    {
      "inputs": [
        {
          "internalType": "uint256",
          "name": "",
          "type": "uint256"
        }
      ],
      "name": "services",
      "outputs": [
        {
          "internalType": "uint256",
          "name": "serviceid",
          "type": "uint256"
        },
        {
          "internalType": "string",
          "name": "name",
          "type": "string"
        },
        {
          "internalType": "string",
          "name": "ImageUri",
          "type": "string"
        },
        {
          "internalType": "string",
          "name": "description",
          "type": "string"
        },
        {
          "internalType": "uint64",
          "name": "planDuration",
          "type": "uint64"
        },
        {
          "internalType": "uint256",
          "name": "price",
          "type": "uint256"
        },
        {
          "internalType": "address payable",
          "name": "serviceProvider",
          "type": "address"
        }
      ],
      "stateMutability": "view",
      "type": "function",
      "constant": true
    },
    {
      "inputs": [
        {
          "internalType": "address",
          "name": "operator",
          "type": "address"
        },
        {
          "internalType": "bool",
          "name": "approved",
          "type": "bool"
        }
      ],
      "name": "setApprovalForAll",
      "outputs": [],
      "stateMutability": "nonpayable",
      "type": "function"
    },
    {
      "inputs": [
        {
          "internalType": "uint256",
          "name": "tokenId",
          "type": "uint256"
        },
        {
          "internalType": "address",
          "name": "user",
          "type": "address"
        },
        {
          "internalType": "uint64",
          "name": "expires",
          "type": "uint64"
        }
      ],
      "name": "setUser",
      "outputs": [],
      "stateMutability": "nonpayable",
      "type": "function"
    },
    {
      "inputs": [
        {
          "internalType": "bytes4",
          "name": "interfaceId",
          "type": "bytes4"
        }
      ],
      "name": "supportsInterface",
      "outputs": [
        {
          "internalType": "bool",
          "name": "",
          "type": "bool"
        }
      ],
      "stateMutability": "view",
      "type": "function",
      "constant": true
    },
    {
      "inputs": [],
      "name": "symbol",
      "outputs": [
        {
          "internalType": "string",
          "name": "",
          "type": "string"
        }
      ],
      "stateMutability": "view",
      "type": "function",
      "constant": true
    },
    {
      "inputs": [],
      "name": "tID",
      "outputs": [
        {
          "internalType": "uint256",
          "name": "",
          "type": "uint256"
        }
      ],
      "stateMutability": "view",
      "type": "function",
      "constant": true
    },
    {
      "inputs": [
        {
          "internalType": "uint256",
          "name": "tokenId",
          "type": "uint256"
        }
      ],
      "name": "tokenURI",
      "outputs": [
        {
          "internalType": "string",
          "name": "",
          "type": "string"
        }
      ],
      "stateMutability": "view",
      "type": "function",
      "constant": true
    },
    {
      "inputs": [],
      "name": "totalLendServices",
      "outputs": [
        {
          "internalType": "uint256",
          "name": "",
          "type": "uint256"
        }
      ],
      "stateMutability": "view",
      "type": "function",
      "constant": true
    },
    {
      "inputs": [],
      "name": "totalServices",
      "outputs": [
        {
          "internalType": "uint256",
          "name": "",
          "type": "uint256"
        }
      ],
      "stateMutability": "view",
      "type": "function",
      "constant": true
    },
    {
      "inputs": [],
      "name": "totalTokensMinted",
      "outputs": [
        {
          "internalType": "uint256",
          "name": "",
          "type": "uint256"
        }
      ],
      "stateMutability": "view",
      "type": "function",
      "constant": true
    },
    {
      "inputs": [
        {
          "internalType": "address",
          "name": "from",
          "type": "address"
        },
        {
          "internalType": "address",
          "name": "to",
          "type": "address"
        },
        {
          "internalType": "uint256",
          "name": "tokenId",
          "type": "uint256"
        }
      ],
      "name": "transferFrom",
      "outputs": [],
      "stateMutability": "nonpayable",
      "type": "function"
    },
    {
      "inputs": [
        {
          "internalType": "address",
          "name": "",
          "type": "address"
        },
        {
          "internalType": "uint256",
          "name": "",
          "type": "uint256"
        }
      ],
      "name": "userAvailablePlans",
      "outputs": [
        {
          "internalType": "uint256",
          "name": "",
          "type": "uint256"
        }
      ],
      "stateMutability": "view",
      "type": "function",
      "constant": true
    },
    {
      "inputs": [
        {
          "internalType": "uint256",
          "name": "tokenId",
          "type": "uint256"
        }
      ],
      "name": "userExpires",
      "outputs": [
        {
          "internalType": "uint256",
          "name": "",
          "type": "uint256"
        }
      ],
      "stateMutability": "view",
      "type": "function",
      "constant": true
    },
    {
      "inputs": [
        {
          "internalType": "address",
          "name": "",
          "type": "address"
        },
        {
          "internalType": "uint256",
          "name": "",
          "type": "uint256"
        }
      ],
      "name": "userForLendPlans",
      "outputs": [
        {
          "internalType": "uint256",
          "name": "",
          "type": "uint256"
        }
      ],
      "stateMutability": "view",
      "type": "function",
      "constant": true
    },
    {
      "inputs": [
        {
          "internalType": "uint256",
          "name": "tokenId",
          "type": "uint256"
        }
      ],
      "name": "userOf",
      "outputs": [
        {
          "internalType": "address",
          "name": "",
          "type": "address"
        }
      ],
      "stateMutability": "view",
      "type": "function",
      "constant": true
    },
    {
      "inputs": [
        {
          "internalType": "uint256",
          "name": "_accountType",
          "type": "uint256"
        }
      ],
      "name": "login",
      "outputs": [
        {
          "internalType": "string",
          "name": "",
          "type": "string"
        }
      ],
      "stateMutability": "nonpayable",
      "type": "function"
    },
    {
      "inputs": [
        {
          "internalType": "string",
          "name": "_name",
          "type": "string"
        },
        {
          "internalType": "string",
          "name": "_ImageUri",
          "type": "string"
        },
        {
          "internalType": "string",
          "name": "_description",
          "type": "string"
        },
        {
          "internalType": "uint64",
          "name": "_planDuration",
          "type": "uint64"
        },
        {
          "internalType": "uint256",
          "name": "_planPrice",
          "type": "uint256"
        }
      ],
      "name": "AddServiceToPlatform",
      "outputs": [],
      "stateMutability": "nonpayable",
      "type": "function"
    },
    {
      "inputs": [
        {
          "internalType": "uint256",
          "name": "_serviceid",
          "type": "uint256"
        }
      ],
      "name": "BuyServiceFromServiceProvider",
      "outputs": [],
      "stateMutability": "payable",
      "type": "function",
      "payable": true
    },
    {
      "inputs": [
        {
          "internalType": "uint256",
          "name": "_tokenId",
          "type": "uint256"
        },
        {
          "internalType": "uint256",
          "name": "_days",
          "type": "uint256"
        },
        {
          "internalType": "uint256",
          "name": "_amount",
          "type": "uint256"
        }
      ],
      "name": "LendUserNFTPlan",
      "outputs": [],
      "stateMutability": "nonpayable",
      "type": "function"
    },
    {
      "inputs": [
        {
          "internalType": "uint256",
          "name": "_tokenId",
          "type": "uint256"
        },
        {
          "internalType": "uint64",
          "name": "_days",
          "type": "uint64"
        },
        {
          "internalType": "uint256",
          "name": "_amount",
          "type": "uint256"
        }
      ],
      "name": "RentPlan",
      "outputs": [],
      "stateMutability": "nonpayable",
      "type": "function"
    },
    {
      "inputs": [
        {
          "internalType": "uint256",
          "name": "_serviceid",
          "type": "uint256"
        },
        {
          "internalType": "string",
          "name": "_serviceName",
          "type": "string"
        },
        {
          "internalType": "string",
          "name": "_imageUri",
          "type": "string"
        },
        {
          "internalType": "string",
          "name": "_description",
          "type": "string"
        },
        {
          "internalType": "uint64",
          "name": "_duration",
          "type": "uint64"
        },
        {
          "internalType": "uint64",
          "name": "_endTime",
          "type": "uint64"
        },
        {
          "internalType": "uint256",
          "name": "_price",
          "type": "uint256"
        },
        {
          "internalType": "address",
          "name": "_owner",
          "type": "address"
        },
        {
          "internalType": "address",
          "name": "_serviceProvider",
          "type": "address"
        }
      ],
      "name": "mintNFT",
      "outputs": [],
      "stateMutability": "nonpayable",
      "type": "function"
    },
    {
      "inputs": [
        {
          "internalType": "uint256",
          "name": "tokenID",
          "type": "uint256"
        },
        {
          "internalType": "uint64",
          "name": "_days",
          "type": "uint64"
        },
        {
          "internalType": "uint256",
          "name": "_amount",
          "type": "uint256"
        }
      ],
      "name": "rentNFT",
      "outputs": [],
      "stateMutability": "payable",
      "type": "function",
      "payable": true
    },
    {
      "inputs": [],
      "name": "getTotalServices",
      "outputs": [
        {
          "internalType": "uint256",
          "name": "",
          "type": "uint256"
        }
      ],
      "stateMutability": "view",
      "type": "function",
      "constant": true
    },
    {
      "inputs": [
        {
          "internalType": "uint256",
          "name": "_tokenID",
          "type": "uint256"
        }
      ],
      "name": "getNFTDetailsFromId",
      "outputs": [
        {
          "components": [
            {
              "internalType": "uint256",
              "name": "serviceid",
              "type": "uint256"
            },
            {
              "internalType": "string",
              "name": "serviceName",
              "type": "string"
            },
            {
              "internalType": "string",
              "name": "ImageUri",
              "type": "string"
            },
            {
              "internalType": "string",
              "name": "description",
              "type": "string"
            },
            {
              "internalType": "uint256",
              "name": "duration",
              "type": "uint256"
            },
            {
              "internalType": "uint64",
              "name": "endTime",
              "type": "uint64"
            },
            {
              "internalType": "uint256",
              "name": "price",
              "type": "uint256"
            },
            {
              "internalType": "address payable",
              "name": "owner",
              "type": "address"
            },
            {
              "internalType": "address payable",
              "name": "serviceProvider",
              "type": "address"
            }
          ],
          "internalType": "struct eazyVideoNFTContract.NFTItem",
          "name": "",
          "type": "tuple"
        }
      ],
      "stateMutability": "view",
      "type": "function",
      "constant": true
    },
    {
      "inputs": [],
      "name": "fetchAllUserAvailableNFTPlans",
      "outputs": [
        {
          "internalType": "uint256[]",
          "name": "",
          "type": "uint256[]"
        }
      ],
      "stateMutability": "view",
      "type": "function",
      "constant": true
    },
    {
      "inputs": [],
      "name": "fetchAllUserLendNFTPlans",
      "outputs": [
        {
          "internalType": "uint256[]",
          "name": "",
          "type": "uint256[]"
        }
      ],
      "stateMutability": "view",
      "type": "function",
      "constant": true
    },
    {
      "inputs": [
        {
          "internalType": "uint256",
          "name": "index",
          "type": "uint256"
        }
      ],
      "name": "allLendServicesByIndex",
      "outputs": [
        {
          "components": [
            {
              "internalType": "uint256",
              "name": "tokenId",
              "type": "uint256"
            },
            {
              "internalType": "uint256",
              "name": "price",
              "type": "uint256"
            },
            {
              "internalType": "uint256",
              "name": "duration",
              "type": "uint256"
            },
            {
              "internalType": "address",
              "name": "renter",
              "type": "address"
            }
          ],
          "internalType": "struct eazyVideoNFTContract.Lend",
          "name": "",
          "type": "tuple"
        }
      ],
      "stateMutability": "view",
      "type": "function",
      "constant": true
    }
  ],
  "bytecode": "0x60806040523480156200001157600080fd5b506040518060400160405280600981526020017f65617a79566964656f00000000000000000000000000000000000000000000008152506040518060400160405280600481526020017f65617a7900000000000000000000000000000000000000000000000000000000815250816000908051906020019062000096929190620000f9565b508060019080519060200190620000af929190620000f9565b50505033600760006101000a81548173ffffffffffffffffffffffffffffffffffffffff021916908373ffffffffffffffffffffffffffffffffffffffff1602179055506200020e565b8280546200010790620001a9565b90600052602060002090601f0160209004810192826200012b576000855562000177565b82601f106200014657805160ff191683800117855562000177565b8280016001018555821562000177579182015b828111156200017657825182559160200191906001019062000159565b5b5090506200018691906200018a565b5090565b5b80821115620001a55760008160009055506001016200018b565b5090565b60006002820490506001821680620001c257607f821691505b60208210811415620001d957620001d8620001df565b5b50919050565b7f4e487b7100000000000000000000000000000000000000000000000000000000600052602260045260246000fd5b615aa0806200021e6000396000f3fe6080604052600436106102305760003560e01c8063784bc6141161012e578063c1403769116100ab578063dd82309d1161006f578063dd82309d14610902578063e030565e1461092b578063e985e9c514610954578063eacc500314610991578063fccbbf2f146109ba57610230565b8063c1403769146107dd578063c22c4f431461081a578063c2f1f14a1461085d578063c87b56dd1461089a578063dd5ddfa4146108d757610230565b806395d89b41116100f257806395d89b41146106e6578063a22cb46514610711578063b88d4fde1461073a578063b9314b5414610763578063ba99af70146107a057610230565b8063784bc614146105f45780637c7071291461061d5780637d549e99146106395780638dadd457146106645780638fc88c48146106a957610230565b806332e0df80116101bc5780636301ac8f116101805780636301ac8f146104e95780636352211e146105145780636617f2441461055157806367dec1dc1461058e57806370a08231146105b757610230565b806332e0df80146103ff5780633dbfd97c1461042a57806342842e0e14610467578063450690aa146104905780634d1e0221146104cd57610230565b80630ede26ec116102035780630ede26ec146103035780630fc89a77146103405780631540f78a1461038057806323b872dd146103ab578063248ff037146103d457610230565b806301ffc9a71461023557806306fdde0314610272578063081812fc1461029d578063095ea7b3146102da575b600080fd5b34801561024157600080fd5b5061025c600480360381019061025791906142d4565b6109e5565b6040516102699190614c3c565b60405180910390f35b34801561027e57600080fd5b50610287610a5f565b6040516102949190614c72565b60405180910390f35b3480156102a957600080fd5b506102c460048036038101906102bf91906143e5565b610af1565b6040516102d19190614bb3565b60405180910390f35b3480156102e657600080fd5b5061030160048036038101906102fc9190614298565b610b37565b005b34801561030f57600080fd5b5061032a60048036038101906103259190614298565b610c4f565b6040516103379190614f11565b60405180910390f35b34801561034c57600080fd5b50610367600480360381019061036291906143e5565b610c80565b6040516103779493929190615052565b60405180910390f35b34801561038c57600080fd5b50610395610ce0565b6040516103a29190614f11565b60405180910390f35b3480156103b757600080fd5b506103d260048036038101906103cd9190614192565b610ce6565b005b3480156103e057600080fd5b506103e9610d46565b6040516103f69190614c1a565b60405180910390f35b34801561040b57600080fd5b50610414610ddb565b6040516104219190614f11565b60405180910390f35b34801561043657600080fd5b50610451600480360381019061044c91906143e5565b610de5565b60405161045e9190614c72565b60405180910390f35b34801561047357600080fd5b5061048e60048036038101906104899190614192565b610f73565b005b34801561049c57600080fd5b506104b760048036038101906104b291906143e5565b610f93565b6040516104c49190614eef565b60405180910390f35b6104e760048036038101906104e291906145ba565b611273565b005b3480156104f557600080fd5b506104fe611355565b60405161050b9190614f11565b60405180910390f35b34801561052057600080fd5b5061053b600480360381019061053691906143e5565b61135b565b6040516105489190614bb3565b60405180910390f35b34801561055d57600080fd5b5061057860048036038101906105739190614298565b61140d565b6040516105859190614f11565b60405180910390f35b34801561059a57600080fd5b506105b560048036038101906105b0919061456b565b61143e565b005b3480156105c357600080fd5b506105de60048036038101906105d9919061412d565b611a91565b6040516105eb9190614f11565b60405180910390f35b34801561060057600080fd5b5061061b60048036038101906106169190614326565b611b49565b005b610637600480360381019061063291906143e5565b611d9d565b005b34801561064557600080fd5b5061064e61217b565b60405161065b9190614f11565b60405180910390f35b34801561067057600080fd5b5061068b600480360381019061068691906143e5565b612181565b6040516106a099989796959493929190614f2c565b60405180910390f35b3480156106b557600080fd5b506106d060048036038101906106cb91906143e5565b6123bb565b6040516106dd9190614f11565b60405180910390f35b3480156106f257600080fd5b506106fb6123f9565b6040516107089190614c72565b60405180910390f35b34801561071d57600080fd5b506107386004803603810190610733919061425c565b61248b565b005b34801561074657600080fd5b50610761600480360381019061075c91906141e1565b6124a1565b005b34801561076f57600080fd5b5061078a60048036038101906107859190614298565b612503565b6040516107979190614f11565b60405180910390f35b3480156107ac57600080fd5b506107c760048036038101906107c2919061412d565b612534565b6040516107d49190614f11565b60405180910390f35b3480156107e957600080fd5b5061080460048036038101906107ff91906143e5565b61254c565b6040516108119190614ed4565b60405180910390f35b34801561082657600080fd5b50610841600480360381019061083c91906143e5565b612622565b6040516108549796959493929190614fce565b60405180910390f35b34801561086957600080fd5b50610884600480360381019061087f91906143e5565b612830565b6040516108919190614bb3565b60405180910390f35b3480156108a657600080fd5b506108c160048036038101906108bc91906143e5565b6128b5565b6040516108ce9190614c72565b60405180910390f35b3480156108e357600080fd5b506108ec61291d565b6040516108f99190614c1a565b60405180910390f35b34801561090e57600080fd5b50610929600480360381019061092491906145ba565b6129b2565b005b34801561093757600080fd5b50610952600480360381019061094d919061440e565b612ba7565b005b34801561096057600080fd5b5061097b60048036038101906109769190614156565b612cca565b6040516109889190614c3c565b60405180910390f35b34801561099d57600080fd5b506109b860048036038101906109b3919061445d565b612d5e565b005b3480156109c657600080fd5b506109cf61302d565b6040516109dc9190614f11565b60405180910390f35b60007fad092b5c000000000000000000000000000000000000000000000000000000007bffffffffffffffffffffffffffffffffffffffffffffffffffffffff1916827bffffffffffffffffffffffffffffffffffffffffffffffffffffffff19161480610a585750610a5782613033565b5b9050919050565b606060008054610a6e906153c9565b80601f0160208091040260200160405190810160405280929190818152602001828054610a9a906153c9565b8015610ae75780601f10610abc57610100808354040283529160200191610ae7565b820191906000526020600020905b815481529060010190602001808311610aca57829003601f168201915b5050505050905090565b6000610afc82613115565b6004600083815260200190815260200160002060009054906101000a900473ffffffffffffffffffffffffffffffffffffffff169050919050565b6000610b428261135b565b90508073ffffffffffffffffffffffffffffffffffffffff168373ffffffffffffffffffffffffffffffffffffffff161415610bb3576040517f08c379a0000000000000000000000000000000000000000000000000000000008152600401610baa90614e14565b60405180910390fd5b8073ffffffffffffffffffffffffffffffffffffffff16610bd2613160565b73ffffffffffffffffffffffffffffffffffffffff161480610c015750610c0081610bfb613160565b612cca565b5b610c40576040517f08c379a0000000000000000000000000000000000000000000000000000000008152600401610c3790614d94565b60405180910390fd5b610c4a8383613168565b505050565b60106020528160005260406000208181548110610c6b57600080fd5b90600052602060002001600091509150505481565b60128181548110610c9057600080fd5b90600052602060002090600402016000915090508060000154908060010154908060020154908060030160009054906101000a900473ffffffffffffffffffffffffffffffffffffffff16905084565b60095481565b610cf7610cf1613160565b82613221565b610d36576040517f08c379a0000000000000000000000000000000000000000000000000000000008152600401610d2d90614e94565b60405180910390fd5b610d418383836132b6565b505050565b6060601060003373ffffffffffffffffffffffffffffffffffffffff1673ffffffffffffffffffffffffffffffffffffffff168152602001908152602001600020805480602002602001604051908101604052809291908181526020018280548015610dd157602002820191906000526020600020905b815481526020019060010190808311610dbd575b5050505050905090565b6000601354905090565b60606002600c60003373ffffffffffffffffffffffffffffffffffffffff1673ffffffffffffffffffffffffffffffffffffffff168152602001908152602001600020541415610e6c576040518060400160405280601081526020017f534552564943452050524f5649444552000000000000000000000000000000008152509050610f6e565b6001600c60003373ffffffffffffffffffffffffffffffffffffffff1673ffffffffffffffffffffffffffffffffffffffff168152602001908152602001600020541415610ef1576040518060400160405280600481526020017f55534552000000000000000000000000000000000000000000000000000000008152509050610f6e565b81600c60003373ffffffffffffffffffffffffffffffffffffffff1673ffffffffffffffffffffffffffffffffffffffff168152602001908152602001600020819055506040518060400160405280600f81526020017f4163636f756e742043726561746564000000000000000000000000000000000081525090505b919050565b610f8e838383604051806020016040528060008152506124a1565b505050565b610f9b613e7c565b600d60008381526020019081526020016000206040518061012001604052908160008201548152602001600182018054610fd4906153c9565b80601f0160208091040260200160405190810160405280929190818152602001828054611000906153c9565b801561104d5780601f106110225761010080835404028352916020019161104d565b820191906000526020600020905b81548152906001019060200180831161103057829003601f168201915b50505050508152602001600282018054611066906153c9565b80601f0160208091040260200160405190810160405280929190818152602001828054611092906153c9565b80156110df5780601f106110b4576101008083540402835291602001916110df565b820191906000526020600020905b8154815290600101906020018083116110c257829003601f168201915b505050505081526020016003820180546110f8906153c9565b80601f0160208091040260200160405190810160405280929190818152602001828054611124906153c9565b80156111715780601f1061114657610100808354040283529160200191611171565b820191906000526020600020905b81548152906001019060200180831161115457829003601f168201915b50505050508152602001600482015481526020016005820160009054906101000a900467ffffffffffffffff1667ffffffffffffffff1667ffffffffffffffff168152602001600682015481526020016007820160009054906101000a900473ffffffffffffffffffffffffffffffffffffffff1673ffffffffffffffffffffffffffffffffffffffff1673ffffffffffffffffffffffffffffffffffffffff1681526020016008820160009054906101000a900473ffffffffffffffffffffffffffffffffffffffff1673ffffffffffffffffffffffffffffffffffffffff1673ffffffffffffffffffffffffffffffffffffffff16815250509050919050565b61127e833384612ba7565b600d600084815260200190815260200160002060070160009054906101000a900473ffffffffffffffffffffffffffffffffffffffff1673ffffffffffffffffffffffffffffffffffffffff166108fc829081150290604051600060405180830381858888f193505050501580156112fa573d6000803e3d6000fd5b5033600d600085815260200190815260200160002060070160006101000a81548173ffffffffffffffffffffffffffffffffffffffff021916908373ffffffffffffffffffffffffffffffffffffffff160217905550505050565b60135481565b6000806002600084815260200190815260200160002060009054906101000a900473ffffffffffffffffffffffffffffffffffffffff169050600073ffffffffffffffffffffffffffffffffffffffff168173ffffffffffffffffffffffffffffffffffffffff161415611404576040517f08c379a00000000000000000000000000000000000000000000000000000000081526004016113fb90614df4565b60405180910390fd5b80915050919050565b6011602052816000526040600020818154811061142957600080fd5b90600052602060002001600091509150505481565b6001600c60003373ffffffffffffffffffffffffffffffffffffffff1673ffffffffffffffffffffffffffffffffffffffff16815260200190815260200160002054146114c0576040517f08c379a00000000000000000000000000000000000000000000000000000000081526004016114b790614cf4565b60405180910390fd5b3373ffffffffffffffffffffffffffffffffffffffff16600d600085815260200190815260200160002060070160009054906101000a900473ffffffffffffffffffffffffffffffffffffffff1673ffffffffffffffffffffffffffffffffffffffff1614611564576040517f08c379a000000000000000000000000000000000000000000000000000000000815260040161155b90614e74565b60405180910390fd5b600060126001816001815401808255809150500390600052602060002090600402019050838160000181905550818160010181905550603c806018856115aa919061524d565b6115b4919061524d565b6115be919061524d565b426115c991906151c6565b816002018190555060008160030160006101000a81548173ffffffffffffffffffffffffffffffffffffffff021916908373ffffffffffffffffffffffffffffffffffffffff16021790555060128190806001815401808255809150506001900390600052602060002090600402016000909190919091506000820154816000015560018201548160010155600282015481600201556003820160009054906101000a900473ffffffffffffffffffffffffffffffffffffffff168160030160006101000a81548173ffffffffffffffffffffffffffffffffffffffff021916908373ffffffffffffffffffffffffffffffffffffffff1602179055505050601160003373ffffffffffffffffffffffffffffffffffffffff1673ffffffffffffffffffffffffffffffffffffffff1681526020019081526020016000206014549080600181540180825580915050600190039060005260206000200160009091909190915055600160145461173f91906151c6565b6014819055506000805b601060003373ffffffffffffffffffffffffffffffffffffffff1673ffffffffffffffffffffffffffffffffffffffff1681526020019081526020016000208054905081101561183357601060003373ffffffffffffffffffffffffffffffffffffffff1673ffffffffffffffffffffffffffffffffffffffff168152602001908152602001600020818154811061180a577f4e487b7100000000000000000000000000000000000000000000000000000000600052603260045260246000fd5b9060005260206000200154861415611820578091505b808061182b9061542c565b915050611749565b5060008190505b6001601060003373ffffffffffffffffffffffffffffffffffffffff1673ffffffffffffffffffffffffffffffffffffffff1681526020019081526020016000208054905061188991906152a7565b8110156119b657601060003373ffffffffffffffffffffffffffffffffffffffff1673ffffffffffffffffffffffffffffffffffffffff1681526020019081526020016000206001826118dc91906151c6565b81548110611913577f4e487b7100000000000000000000000000000000000000000000000000000000600052603260045260246000fd5b9060005260206000200154601060003373ffffffffffffffffffffffffffffffffffffffff1673ffffffffffffffffffffffffffffffffffffffff1681526020019081526020016000208281548110611995577f4e487b7100000000000000000000000000000000000000000000000000000000600052603260045260246000fd5b906000526020600020018190555080806119ae9061542c565b91505061183a565b50601060003373ffffffffffffffffffffffffffffffffffffffff1673ffffffffffffffffffffffffffffffffffffffff1681526020019081526020016000206001601060003373ffffffffffffffffffffffffffffffffffffffff1673ffffffffffffffffffffffffffffffffffffffff16815260200190815260200160002080549050611a4591906152a7565b81548110611a7c577f4e487b7100000000000000000000000000000000000000000000000000000000600052603260045260246000fd5b90600052602060002001600090555050505050565b60008073ffffffffffffffffffffffffffffffffffffffff168273ffffffffffffffffffffffffffffffffffffffff161415611b02576040517f08c379a0000000000000000000000000000000000000000000000000000000008152600401611af990614d74565b60405180910390fd5b600360008373ffffffffffffffffffffffffffffffffffffffff1673ffffffffffffffffffffffffffffffffffffffff168152602001908152602001600020549050919050565b6002600c60003373ffffffffffffffffffffffffffffffffffffffff1673ffffffffffffffffffffffffffffffffffffffff1681526020019081526020016000205414611bcb576040517f08c379a0000000000000000000000000000000000000000000000000000000008152600401611bc290614d54565b60405180910390fd5b6040518060e0016040528060135481526020018681526020018581526020018481526020018367ffffffffffffffff1681526020018281526020013373ffffffffffffffffffffffffffffffffffffffff16815250600e60006013548152602001908152602001600020600082015181600001556020820151816001019080519060200190611c5b929190613efe565b506040820151816002019080519060200190611c78929190613efe565b506060820151816003019080519060200190611c95929190613efe565b5060808201518160040160006101000a81548167ffffffffffffffff021916908367ffffffffffffffff16021790555060a0820151816005015560c08201518160060160006101000a81548173ffffffffffffffffffffffffffffffffffffffff021916908373ffffffffffffffffffffffffffffffffffffffff160217905550905050600f60003373ffffffffffffffffffffffffffffffffffffffff1673ffffffffffffffffffffffffffffffffffffffff16815260200190815260200160002060135490806001815401808255809150506001900390600052602060002001600090919091909150556001601354611d9091906151c6565b6013819055505050505050565b6001600c60003373ffffffffffffffffffffffffffffffffffffffff1673ffffffffffffffffffffffffffffffffffffffff1681526020019081526020016000205414611e1f576040517f08c379a0000000000000000000000000000000000000000000000000000000008152600401611e1690614cf4565b60405180910390fd5b6000600e6000838152602001908152602001600020905060008160040160009054906101000a900467ffffffffffffffff1667ffffffffffffffff1642611e6691906151c6565b9050600082600501549050348114611eb3576040517f08c379a0000000000000000000000000000000000000000000000000000000008152600401611eaa90614dd4565b60405180910390fd5b8260060160009054906101000a900473ffffffffffffffffffffffffffffffffffffffff1673ffffffffffffffffffffffffffffffffffffffff166108fc349081150290604051600060405180830381858888f19350505050158015611f1d573d6000803e3d6000fd5b5061210f84846001018054611f31906153c9565b80601f0160208091040260200160405190810160405280929190818152602001828054611f5d906153c9565b8015611faa5780601f10611f7f57610100808354040283529160200191611faa565b820191906000526020600020905b815481529060010190602001808311611f8d57829003601f168201915b5050505050856002018054611fbe906153c9565b80601f0160208091040260200160405190810160405280929190818152602001828054611fea906153c9565b80156120375780601f1061200c57610100808354040283529160200191612037565b820191906000526020600020905b81548152906001019060200180831161201a57829003601f168201915b505050505086600301805461204b906153c9565b80601f0160208091040260200160405190810160405280929190818152602001828054612077906153c9565b80156120c45780601f10612099576101008083540402835291602001916120c4565b820191906000526020600020905b8154815290600101906020018083116120a757829003601f168201915b50505050508760040160009054906101000a900467ffffffffffffffff168787338b60060160009054906101000a900473ffffffffffffffffffffffffffffffffffffffff16612d5e565b601060003373ffffffffffffffffffffffffffffffffffffffff1673ffffffffffffffffffffffffffffffffffffffff16815260200190815260200160002084908060018154018082558091505060019003906000526020600020016000909190919091505550505050565b600a5481565b600d6020528060005260406000206000915090508060000154908060010180546121aa906153c9565b80601f01602080910402602001604051908101604052809291908181526020018280546121d6906153c9565b80156122235780601f106121f857610100808354040283529160200191612223565b820191906000526020600020905b81548152906001019060200180831161220657829003601f168201915b505050505090806002018054612238906153c9565b80601f0160208091040260200160405190810160405280929190818152602001828054612264906153c9565b80156122b15780601f10612286576101008083540402835291602001916122b1565b820191906000526020600020905b81548152906001019060200180831161229457829003601f168201915b5050505050908060030180546122c6906153c9565b80601f01602080910402602001604051908101604052809291908181526020018280546122f2906153c9565b801561233f5780601f106123145761010080835404028352916020019161233f565b820191906000526020600020905b81548152906001019060200180831161232257829003601f168201915b5050505050908060040154908060050160009054906101000a900467ffffffffffffffff16908060060154908060070160009054906101000a900473ffffffffffffffffffffffffffffffffffffffff16908060080160009054906101000a900473ffffffffffffffffffffffffffffffffffffffff16905089565b60006006600083815260200190815260200160002060000160149054906101000a900467ffffffffffffffff1667ffffffffffffffff169050919050565b606060018054612408906153c9565b80601f0160208091040260200160405190810160405280929190818152602001828054612434906153c9565b80156124815780601f1061245657610100808354040283529160200191612481565b820191906000526020600020905b81548152906001019060200180831161246457829003601f168201915b5050505050905090565b61249d612496613160565b838361351d565b5050565b6124b26124ac613160565b83613221565b6124f1576040517f08c379a00000000000000000000000000000000000000000000000000000000081526004016124e890614e94565b60405180910390fd5b6124fd8484848461368a565b50505050565b600f602052816000526040600020818154811061251f57600080fd5b90600052602060002001600091509150505481565b600c6020528060005260406000206000915090505481565b612554613f84565b6012828154811061258e577f4e487b7100000000000000000000000000000000000000000000000000000000600052603260045260246000fd5b90600052602060002090600402016040518060800160405290816000820154815260200160018201548152602001600282015481526020016003820160009054906101000a900473ffffffffffffffffffffffffffffffffffffffff1673ffffffffffffffffffffffffffffffffffffffff1673ffffffffffffffffffffffffffffffffffffffff16815250509050919050565b600e60205280600052604060002060009150905080600001549080600101805461264b906153c9565b80601f0160208091040260200160405190810160405280929190818152602001828054612677906153c9565b80156126c45780601f10612699576101008083540402835291602001916126c4565b820191906000526020600020905b8154815290600101906020018083116126a757829003601f168201915b5050505050908060020180546126d9906153c9565b80601f0160208091040260200160405190810160405280929190818152602001828054612705906153c9565b80156127525780601f1061272757610100808354040283529160200191612752565b820191906000526020600020905b81548152906001019060200180831161273557829003601f168201915b505050505090806003018054612767906153c9565b80601f0160208091040260200160405190810160405280929190818152602001828054612793906153c9565b80156127e05780601f106127b5576101008083540402835291602001916127e0565b820191906000526020600020905b8154815290600101906020018083116127c357829003601f168201915b5050505050908060040160009054906101000a900467ffffffffffffffff16908060050154908060060160009054906101000a900473ffffffffffffffffffffffffffffffffffffffff16905087565b6000426006600084815260200190815260200160002060000160149054906101000a900467ffffffffffffffff1667ffffffffffffffff16106128ab576006600083815260200190815260200160002060000160009054906101000a900473ffffffffffffffffffffffffffffffffffffffff1690506128b0565b600090505b919050565b60606128c082613115565b60006128ca6136e6565b905060008151116128ea5760405180602001604052806000815250612915565b806128f4846136fd565b604051602001612905929190614b8f565b6040516020818303038152906040525b915050919050565b6060601160003373ffffffffffffffffffffffffffffffffffffffff1673ffffffffffffffffffffffffffffffffffffffff1681526020019081526020016000208054806020026020016040519081016040528092919081815260200182805480156129a857602002820191906000526020600020905b815481526020019060010190808311612994575b5050505050905090565b3373ffffffffffffffffffffffffffffffffffffffff16600d600085815260200190815260200160002060070160009054906101000a900473ffffffffffffffffffffffffffffffffffffffff1673ffffffffffffffffffffffffffffffffffffffff161415612a57576040517f08c379a0000000000000000000000000000000000000000000000000000000008152600401612a4e90614e34565b60405180910390fd5b600080600d600086815260200190815260200160002060070160009054906101000a900473ffffffffffffffffffffffffffffffffffffffff16905060005b601454811015612b0a578560128281548110612adb577f4e487b7100000000000000000000000000000000000000000000000000000000600052603260045260246000fd5b9060005260206000209060040201600001541415612af7578092505b8080612b029061542c565b915050612a96565b503360128381548110612b46577f4e487b7100000000000000000000000000000000000000000000000000000000600052603260045260246000fd5b906000526020600020906004020160030160006101000a81548173ffffffffffffffffffffffffffffffffffffffff021916908373ffffffffffffffffffffffffffffffffffffffff160217905550612ba0858585611273565b5050505050565b612bb13384613221565b612bf0576040517f08c379a0000000000000000000000000000000000000000000000000000000008152600401612be790614e54565b60405180910390fd5b6000600660008581526020019081526020016000209050828160000160006101000a81548173ffffffffffffffffffffffffffffffffffffffff021916908373ffffffffffffffffffffffffffffffffffffffff160217905550818160000160146101000a81548167ffffffffffffffff021916908367ffffffffffffffff1602179055508273ffffffffffffffffffffffffffffffffffffffff16847f4e06b4e7000e659094299b3533b47b6aa8ad048e95e872d23d1f4ee55af89cfe84604051612cbc9190615097565b60405180910390a350505050565b6000600560008473ffffffffffffffffffffffffffffffffffffffff1673ffffffffffffffffffffffffffffffffffffffff16815260200190815260200160002060008373ffffffffffffffffffffffffffffffffffffffff1673ffffffffffffffffffffffffffffffffffffffff16815260200190815260200160002060009054906101000a900460ff16905092915050565b60008311612da1576040517f08c379a0000000000000000000000000000000000000000000000000000000008152600401612d9890614eb4565b60405180910390fd5b600060095490506001600954612db791906151c6565b6009819055506001600a54612dcc91906151c6565b600a81905550612ddc33826138aa565b612de730600161248b565b612df2813387612ba7565b6040518061012001604052808b81526020018a81526020018981526020018881526020018767ffffffffffffffff1681526020018667ffffffffffffffff1681526020018581526020018473ffffffffffffffffffffffffffffffffffffffff1681526020018373ffffffffffffffffffffffffffffffffffffffff16815250600d6000838152602001908152602001600020600082015181600001556020820151816001019080519060200190612eab929190613efe565b506040820151816002019080519060200190612ec8929190613efe565b506060820151816003019080519060200190612ee5929190613efe565b506080820151816004015560a08201518160050160006101000a81548167ffffffffffffffff021916908367ffffffffffffffff16021790555060c0820151816006015560e08201518160070160006101000a81548173ffffffffffffffffffffffffffffffffffffffff021916908373ffffffffffffffffffffffffffffffffffffffff1602179055506101008201518160080160006101000a81548173ffffffffffffffffffffffffffffffffffffffff021916908373ffffffffffffffffffffffffffffffffffffffff160217905550905050601060003373ffffffffffffffffffffffffffffffffffffffff1673ffffffffffffffffffffffffffffffffffffffff16815260200190815260200160002081908060018154018082558091505060019003906000526020600020016000909190919091505550505050505050505050565b60145481565b60007f80ac58cd000000000000000000000000000000000000000000000000000000007bffffffffffffffffffffffffffffffffffffffffffffffffffffffff1916827bffffffffffffffffffffffffffffffffffffffffffffffffffffffff191614806130fe57507f5b5e139f000000000000000000000000000000000000000000000000000000007bffffffffffffffffffffffffffffffffffffffffffffffffffffffff1916827bffffffffffffffffffffffffffffffffffffffffffffffffffffffff1916145b8061310e575061310d82613a84565b5b9050919050565b61311e81613aee565b61315d576040517f08c379a000000000000000000000000000000000000000000000000000000000815260040161315490614df4565b60405180910390fd5b50565b600033905090565b816004600083815260200190815260200160002060006101000a81548173ffffffffffffffffffffffffffffffffffffffff021916908373ffffffffffffffffffffffffffffffffffffffff160217905550808273ffffffffffffffffffffffffffffffffffffffff166131db8361135b565b73ffffffffffffffffffffffffffffffffffffffff167f8c5be1e5ebec7d5bd14f71427d1e84f3dd0314c0f7b2291e5b200ac8c7c3b92560405160405180910390a45050565b60008061322d8361135b565b90508073ffffffffffffffffffffffffffffffffffffffff168473ffffffffffffffffffffffffffffffffffffffff16148061326f575061326e8185612cca565b5b806132ad57508373ffffffffffffffffffffffffffffffffffffffff1661329584610af1565b73ffffffffffffffffffffffffffffffffffffffff16145b91505092915050565b8273ffffffffffffffffffffffffffffffffffffffff166132d68261135b565b73ffffffffffffffffffffffffffffffffffffffff161461332c576040517f08c379a000000000000000000000000000000000000000000000000000000000815260040161332390614cb4565b60405180910390fd5b600073ffffffffffffffffffffffffffffffffffffffff168273ffffffffffffffffffffffffffffffffffffffff16141561339c576040517f08c379a000000000000000000000000000000000000000000000000000000000815260040161339390614d14565b60405180910390fd5b6133a7838383613b5a565b6133b2600082613168565b6001600360008573ffffffffffffffffffffffffffffffffffffffff1673ffffffffffffffffffffffffffffffffffffffff168152602001908152602001600020600082825461340291906152a7565b925050819055506001600360008473ffffffffffffffffffffffffffffffffffffffff1673ffffffffffffffffffffffffffffffffffffffff168152602001908152602001600020600082825461345991906151c6565b92505081905550816002600083815260200190815260200160002060006101000a81548173ffffffffffffffffffffffffffffffffffffffff021916908373ffffffffffffffffffffffffffffffffffffffff160217905550808273ffffffffffffffffffffffffffffffffffffffff168473ffffffffffffffffffffffffffffffffffffffff167fddf252ad1be2c89b69c2b068fc378daa952ba7f163c4a11628f55a4df523b3ef60405160405180910390a4613518838383613cb8565b505050565b8173ffffffffffffffffffffffffffffffffffffffff168373ffffffffffffffffffffffffffffffffffffffff16141561358c576040517f08c379a000000000000000000000000000000000000000000000000000000000815260040161358390614d34565b60405180910390fd5b80600560008573ffffffffffffffffffffffffffffffffffffffff1673ffffffffffffffffffffffffffffffffffffffff16815260200190815260200160002060008473ffffffffffffffffffffffffffffffffffffffff1673ffffffffffffffffffffffffffffffffffffffff16815260200190815260200160002060006101000a81548160ff0219169083151502179055508173ffffffffffffffffffffffffffffffffffffffff168373ffffffffffffffffffffffffffffffffffffffff167f17307eab39ab6107e8899845ad3d59bd9653f200f220920489ca2b5937696c318360405161367d9190614c3c565b60405180910390a3505050565b6136958484846132b6565b6136a184848484613cbd565b6136e0576040517f08c379a00000000000000000000000000000000000000000000000000000000081526004016136d790614c94565b60405180910390fd5b50505050565b606060405180602001604052806000815250905090565b60606000821415613745576040518060400160405280600181526020017f300000000000000000000000000000000000000000000000000000000000000081525090506138a5565b600082905060005b600082146137775780806137609061542c565b915050600a82613770919061521c565b915061374d565b60008167ffffffffffffffff8111156137b9577f4e487b7100000000000000000000000000000000000000000000000000000000600052604160045260246000fd5b6040519080825280601f01601f1916602001820160405280156137eb5781602001600182028036833780820191505090505b5090505b6000851461389e5760018261380491906152a7565b9150600a856138139190615475565b603061381f91906151c6565b60f81b81838151811061385b577f4e487b7100000000000000000000000000000000000000000000000000000000600052603260045260246000fd5b60200101907effffffffffffffffffffffffffffffffffffffffffffffffffffffffffffff1916908160001a905350600a85613897919061521c565b94506137ef565b8093505050505b919050565b600073ffffffffffffffffffffffffffffffffffffffff168273ffffffffffffffffffffffffffffffffffffffff16141561391a576040517f08c379a000000000000000000000000000000000000000000000000000000000815260040161391190614db4565b60405180910390fd5b61392381613aee565b15613963576040517f08c379a000000000000000000000000000000000000000000000000000000000815260040161395a90614cd4565b60405180910390fd5b61396f60008383613b5a565b6001600360008473ffffffffffffffffffffffffffffffffffffffff1673ffffffffffffffffffffffffffffffffffffffff16815260200190815260200160002060008282546139bf91906151c6565b92505081905550816002600083815260200190815260200160002060006101000a81548173ffffffffffffffffffffffffffffffffffffffff021916908373ffffffffffffffffffffffffffffffffffffffff160217905550808273ffffffffffffffffffffffffffffffffffffffff16600073ffffffffffffffffffffffffffffffffffffffff167fddf252ad1be2c89b69c2b068fc378daa952ba7f163c4a11628f55a4df523b3ef60405160405180910390a4613a8060008383613cb8565b5050565b60007f01ffc9a7000000000000000000000000000000000000000000000000000000007bffffffffffffffffffffffffffffffffffffffffffffffffffffffff1916827bffffffffffffffffffffffffffffffffffffffffffffffffffffffff1916149050919050565b60008073ffffffffffffffffffffffffffffffffffffffff166002600084815260200190815260200160002060009054906101000a900473ffffffffffffffffffffffffffffffffffffffff1673ffffffffffffffffffffffffffffffffffffffff1614159050919050565b613b65838383613e54565b8173ffffffffffffffffffffffffffffffffffffffff168373ffffffffffffffffffffffffffffffffffffffff1614158015613c045750600073ffffffffffffffffffffffffffffffffffffffff166006600083815260200190815260200160002060000160009054906101000a900473ffffffffffffffffffffffffffffffffffffffff1673ffffffffffffffffffffffffffffffffffffffff1614155b15613cb35760066000828152602001908152602001600020600080820160006101000a81549073ffffffffffffffffffffffffffffffffffffffff02191690556000820160146101000a81549067ffffffffffffffff02191690555050600073ffffffffffffffffffffffffffffffffffffffff16817f4e06b4e7000e659094299b3533b47b6aa8ad048e95e872d23d1f4ee55af89cfe6000604051613caa9190614c57565b60405180910390a35b505050565b505050565b6000613cde8473ffffffffffffffffffffffffffffffffffffffff16613e59565b15613e47578373ffffffffffffffffffffffffffffffffffffffff1663150b7a02613d07613160565b8786866040518563ffffffff1660e01b8152600401613d299493929190614bce565b602060405180830381600087803b158015613d4357600080fd5b505af1925050508015613d7457506040513d601f19601f82011682018060405250810190613d7191906142fd565b60015b613df7573d8060008114613da4576040519150601f19603f3d011682016040523d82523d6000602084013e613da9565b606091505b50600081511415613def576040517f08c379a0000000000000000000000000000000000000000000000000000000008152600401613de690614c94565b60405180910390fd5b805181602001fd5b63150b7a0260e01b7bffffffffffffffffffffffffffffffffffffffffffffffffffffffff1916817bffffffffffffffffffffffffffffffffffffffffffffffffffffffff191614915050613e4c565b600190505b949350505050565b505050565b6000808273ffffffffffffffffffffffffffffffffffffffff163b119050919050565b6040518061012001604052806000815260200160608152602001606081526020016060815260200160008152602001600067ffffffffffffffff16815260200160008152602001600073ffffffffffffffffffffffffffffffffffffffff168152602001600073ffffffffffffffffffffffffffffffffffffffff1681525090565b828054613f0a906153c9565b90600052602060002090601f016020900481019282613f2c5760008555613f73565b82601f10613f4557805160ff1916838001178555613f73565b82800160010185558215613f73579182015b82811115613f72578251825591602001919060010190613f57565b5b509050613f809190613fc2565b5090565b6040518060800160405280600081526020016000815260200160008152602001600073ffffffffffffffffffffffffffffffffffffffff1681525090565b5b80821115613fdb576000816000905550600101613fc3565b5090565b6000613ff2613fed846150d7565b6150b2565b90508281526020810184848401111561400a57600080fd5b614015848285615387565b509392505050565b600061403061402b84615108565b6150b2565b90508281526020810184848401111561404857600080fd5b614053848285615387565b509392505050565b60008135905061406a816159f7565b92915050565b60008135905061407f81615a0e565b92915050565b60008135905061409481615a25565b92915050565b6000815190506140a981615a25565b92915050565b600082601f8301126140c057600080fd5b81356140d0848260208601613fdf565b91505092915050565b600082601f8301126140ea57600080fd5b81356140fa84826020860161401d565b91505092915050565b60008135905061411281615a3c565b92915050565b60008135905061412781615a53565b92915050565b60006020828403121561413f57600080fd5b600061414d8482850161405b565b91505092915050565b6000806040838503121561416957600080fd5b60006141778582860161405b565b92505060206141888582860161405b565b9150509250929050565b6000806000606084860312156141a757600080fd5b60006141b58682870161405b565b93505060206141c68682870161405b565b92505060406141d786828701614103565b9150509250925092565b600080600080608085870312156141f757600080fd5b60006142058782880161405b565b94505060206142168782880161405b565b935050604061422787828801614103565b925050606085013567ffffffffffffffff81111561424457600080fd5b614250878288016140af565b91505092959194509250565b6000806040838503121561426f57600080fd5b600061427d8582860161405b565b925050602061428e85828601614070565b9150509250929050565b600080604083850312156142ab57600080fd5b60006142b98582860161405b565b92505060206142ca85828601614103565b9150509250929050565b6000602082840312156142e657600080fd5b60006142f484828501614085565b91505092915050565b60006020828403121561430f57600080fd5b600061431d8482850161409a565b91505092915050565b600080600080600060a0868803121561433e57600080fd5b600086013567ffffffffffffffff81111561435857600080fd5b614364888289016140d9565b955050602086013567ffffffffffffffff81111561438157600080fd5b61438d888289016140d9565b945050604086013567ffffffffffffffff8111156143aa57600080fd5b6143b6888289016140d9565b93505060606143c788828901614118565b92505060806143d888828901614103565b9150509295509295909350565b6000602082840312156143f757600080fd5b600061440584828501614103565b91505092915050565b60008060006060848603121561442357600080fd5b600061443186828701614103565b93505060206144428682870161405b565b925050604061445386828701614118565b9150509250925092565b60008060008060008060008060006101208a8c03121561447c57600080fd5b600061448a8c828d01614103565b99505060208a013567ffffffffffffffff8111156144a757600080fd5b6144b38c828d016140d9565b98505060408a013567ffffffffffffffff8111156144d057600080fd5b6144dc8c828d016140d9565b97505060608a013567ffffffffffffffff8111156144f957600080fd5b6145058c828d016140d9565b96505060806145168c828d01614118565b95505060a06145278c828d01614118565b94505060c06145388c828d01614103565b93505060e06145498c828d0161405b565b92505061010061455b8c828d0161405b565b9150509295985092959850929598565b60008060006060848603121561458057600080fd5b600061458e86828701614103565b935050602061459f86828701614103565b92505060406145b086828701614103565b9150509250925092565b6000806000606084860312156145cf57600080fd5b60006145dd86828701614103565b93505060206145ee86828701614118565b92505060406145ff86828701614103565b9150509250925092565b60006146158383614b53565b60208301905092915050565b61462a816152ed565b82525050565b614639816152ed565b82525050565b614648816152db565b82525050565b614657816152db565b82525050565b600061466882615149565b6146728185615177565b935061467d83615139565b8060005b838110156146ae5781516146958882614609565b97506146a08361516a565b925050600181019050614681565b5085935050505092915050565b6146c4816152ff565b82525050565b60006146d582615154565b6146df8185615188565b93506146ef818560208601615396565b6146f881615562565b840191505092915050565b61470c81615375565b82525050565b600061471d8261515f565b6147278185615199565b9350614737818560208601615396565b61474081615562565b840191505092915050565b60006147568261515f565b61476081856151aa565b9350614770818560208601615396565b61477981615562565b840191505092915050565b600061478f8261515f565b61479981856151bb565b93506147a9818560208601615396565b80840191505092915050565b60006147c26032836151aa565b91506147cd82615573565b604082019050919050565b60006147e56025836151aa565b91506147f0826155c2565b604082019050919050565b6000614808601c836151aa565b915061481382615611565b602082019050919050565b600061482b600a836151aa565b91506148368261563a565b602082019050919050565b600061484e6024836151aa565b915061485982615663565b604082019050919050565b60006148716019836151aa565b915061487c826156b2565b602082019050919050565b60006148946016836151aa565b915061489f826156db565b602082019050919050565b60006148b76029836151aa565b91506148c282615704565b604082019050919050565b60006148da603e836151aa565b91506148e582615753565b604082019050919050565b60006148fd6020836151aa565b9150614908826157a2565b602082019050919050565b60006149206021836151aa565b915061492b826157cb565b604082019050919050565b60006149436018836151aa565b915061494e8261581a565b602082019050919050565b60006149666021836151aa565b915061497182615843565b604082019050919050565b60006149896027836151aa565b915061499482615892565b604082019050919050565b60006149ac6031836151aa565b91506149b7826158e1565b604082019050919050565b60006149cf6023836151aa565b91506149da82615930565b604082019050919050565b60006149f2602e836151aa565b91506149fd8261597f565b604082019050919050565b6000614a15601c836151aa565b9150614a20826159ce565b602082019050919050565b608082016000820151614a416000850182614b53565b506020820151614a546020850182614b53565b506040820151614a676040850182614b53565b506060820151614a7a606085018261463f565b50505050565b600061012083016000830151614a996000860182614b53565b5060208301518482036020860152614ab18282614712565b91505060408301518482036040860152614acb8282614712565b91505060608301518482036060860152614ae58282614712565b9150506080830151614afa6080860182614b53565b5060a0830151614b0d60a0860182614b71565b5060c0830151614b2060c0860182614b53565b5060e0830151614b3360e0860182614621565b50610100830151614b48610100860182614621565b508091505092915050565b614b5c81615357565b82525050565b614b6b81615357565b82525050565b614b7a81615361565b82525050565b614b8981615361565b82525050565b6000614b9b8285614784565b9150614ba78284614784565b91508190509392505050565b6000602082019050614bc8600083018461464e565b92915050565b6000608082019050614be3600083018761464e565b614bf0602083018661464e565b614bfd6040830185614b62565b8181036060830152614c0f81846146ca565b905095945050505050565b60006020820190508181036000830152614c34818461465d565b905092915050565b6000602082019050614c5160008301846146bb565b92915050565b6000602082019050614c6c6000830184614703565b92915050565b60006020820190508181036000830152614c8c818461474b565b905092915050565b60006020820190508181036000830152614cad816147b5565b9050919050565b60006020820190508181036000830152614ccd816147d8565b9050919050565b60006020820190508181036000830152614ced816147fb565b9050919050565b60006020820190508181036000830152614d0d8161481e565b9050919050565b60006020820190508181036000830152614d2d81614841565b9050919050565b60006020820190508181036000830152614d4d81614864565b9050919050565b60006020820190508181036000830152614d6d81614887565b9050919050565b60006020820190508181036000830152614d8d816148aa565b9050919050565b60006020820190508181036000830152614dad816148cd565b9050919050565b60006020820190508181036000830152614dcd816148f0565b9050919050565b60006020820190508181036000830152614ded81614913565b9050919050565b60006020820190508181036000830152614e0d81614936565b9050919050565b60006020820190508181036000830152614e2d81614959565b9050919050565b60006020820190508181036000830152614e4d8161497c565b9050919050565b60006020820190508181036000830152614e6d8161499f565b9050919050565b60006020820190508181036000830152614e8d816149c2565b9050919050565b60006020820190508181036000830152614ead816149e5565b9050919050565b60006020820190508181036000830152614ecd81614a08565b9050919050565b6000608082019050614ee96000830184614a2b565b92915050565b60006020820190508181036000830152614f098184614a80565b905092915050565b6000602082019050614f266000830184614b62565b92915050565b600061012082019050614f42600083018c614b62565b8181036020830152614f54818b61474b565b90508181036040830152614f68818a61474b565b90508181036060830152614f7c818961474b565b9050614f8b6080830188614b62565b614f9860a0830187614b80565b614fa560c0830186614b62565b614fb260e0830185614630565b614fc0610100830184614630565b9a9950505050505050505050565b600060e082019050614fe3600083018a614b62565b8181036020830152614ff5818961474b565b90508181036040830152615009818861474b565b9050818103606083015261501d818761474b565b905061502c6080830186614b80565b61503960a0830185614b62565b61504660c0830184614630565b98975050505050505050565b60006080820190506150676000830187614b62565b6150746020830186614b62565b6150816040830185614b62565b61508e606083018461464e565b95945050505050565b60006020820190506150ac6000830184614b80565b92915050565b60006150bc6150cd565b90506150c882826153fb565b919050565b6000604051905090565b600067ffffffffffffffff8211156150f2576150f1615533565b5b6150fb82615562565b9050602081019050919050565b600067ffffffffffffffff82111561512357615122615533565b5b61512c82615562565b9050602081019050919050565b6000819050602082019050919050565b600081519050919050565b600081519050919050565b600081519050919050565b6000602082019050919050565b600082825260208201905092915050565b600082825260208201905092915050565b600082825260208201905092915050565b600082825260208201905092915050565b600081905092915050565b60006151d182615357565b91506151dc83615357565b9250827fffffffffffffffffffffffffffffffffffffffffffffffffffffffffffffffff03821115615211576152106154a6565b5b828201905092915050565b600061522782615357565b915061523283615357565b925082615242576152416154d5565b5b828204905092915050565b600061525882615357565b915061526383615357565b9250817fffffffffffffffffffffffffffffffffffffffffffffffffffffffffffffffff048311821515161561529c5761529b6154a6565b5b828202905092915050565b60006152b282615357565b91506152bd83615357565b9250828210156152d0576152cf6154a6565b5b828203905092915050565b60006152e682615337565b9050919050565b60006152f882615337565b9050919050565b60008115159050919050565b60007fffffffff0000000000000000000000000000000000000000000000000000000082169050919050565b600073ffffffffffffffffffffffffffffffffffffffff82169050919050565b6000819050919050565b600067ffffffffffffffff82169050919050565b600061538082615361565b9050919050565b82818337600083830152505050565b60005b838110156153b4578082015181840152602081019050615399565b838111156153c3576000848401525b50505050565b600060028204905060018216806153e157607f821691505b602082108114156153f5576153f4615504565b5b50919050565b61540482615562565b810181811067ffffffffffffffff8211171561542357615422615533565b5b80604052505050565b600061543782615357565b91507fffffffffffffffffffffffffffffffffffffffffffffffffffffffffffffffff82141561546a576154696154a6565b5b600182019050919050565b600061548082615357565b915061548b83615357565b92508261549b5761549a6154d5565b5b828206905092915050565b7f4e487b7100000000000000000000000000000000000000000000000000000000600052601160045260246000fd5b7f4e487b7100000000000000000000000000000000000000000000000000000000600052601260045260246000fd5b7f4e487b7100000000000000000000000000000000000000000000000000000000600052602260045260246000fd5b7f4e487b7100000000000000000000000000000000000000000000000000000000600052604160045260246000fd5b6000601f19601f8301169050919050565b7f4552433732313a207472616e7366657220746f206e6f6e20455243373231526560008201527f63656976657220696d706c656d656e7465720000000000000000000000000000602082015250565b7f4552433732313a207472616e736665722066726f6d20696e636f72726563742060008201527f6f776e6572000000000000000000000000000000000000000000000000000000602082015250565b7f4552433732313a20746f6b656e20616c7265616479206d696e74656400000000600082015250565b7f4e6f742061207573657200000000000000000000000000000000000000000000600082015250565b7f4552433732313a207472616e7366657220746f20746865207a65726f2061646460008201527f7265737300000000000000000000000000000000000000000000000000000000602082015250565b7f4552433732313a20617070726f766520746f2063616c6c657200000000000000600082015250565b7f4e6f74206120736572766963652050726f766964657200000000000000000000600082015250565b7f4552433732313a2061646472657373207a65726f206973206e6f74206120766160008201527f6c6964206f776e65720000000000000000000000000000000000000000000000602082015250565b7f4552433732313a20617070726f76652063616c6c6572206973206e6f7420746f60008201527f6b656e206f776e6572206e6f7220617070726f76656420666f7220616c6c0000602082015250565b7f4552433732313a206d696e7420746f20746865207a65726f2061646472657373600082015250565b7f506c656173652073656e6420746865206571756976616c656e7420616d6f756e60008201527f7400000000000000000000000000000000000000000000000000000000000000602082015250565b7f4552433732313a20696e76616c696420746f6b656e2049440000000000000000600082015250565b7f4552433732313a20617070726f76616c20746f2063757272656e74206f776e6560008201527f7200000000000000000000000000000000000000000000000000000000000000602082015250565b7f596f752061726520616c726561647920746865206f776e6572206f662074686960008201527f7320746f6b656e00000000000000000000000000000000000000000000000000602082015250565b7f4552433732313a207472616e736665722063616c6c6572206973206e6f74206f60008201527f776e6572206e6f7220617070726f766564000000000000000000000000000000602082015250565b7f596f7520617265206e6f7420746865206f776e6572206f66207468697320746f60008201527f6b656e0000000000000000000000000000000000000000000000000000000000602082015250565b7f4552433732313a2063616c6c6572206973206e6f7420746f6b656e206f776e6560008201527f72206e6f7220617070726f766564000000000000000000000000000000000000602082015250565b7f5072696365206d757374206265206174206c6561737420312077656900000000600082015250565b615a00816152db565b8114615a0b57600080fd5b50565b615a17816152ff565b8114615a2257600080fd5b50565b615a2e8161530b565b8114615a3957600080fd5b50565b615a4581615357565b8114615a5057600080fd5b50565b615a5c81615361565b8114615a6757600080fd5b5056fea2646970667358221220807c422248b403cd71be2106a4291a162d30b84dc6fbb12a7abba51d52483ecb64736f6c63430008040033",
  "immutableReferences": {},
  "source": "// SPDX-License-Identifier: MIT\r\npragma solidity ^0.8.1;\r\nimport \"./ERC4907.sol\";\r\n\r\ncontract eazyVideoNFTContract is ERC4907 {\r\n    address payable owner;\r\n\r\n    mapping(uint256 => address payable) nftOwner;\r\n\r\n    uint256 public tID;\r\n\r\n    uint256 public totalTokensMinted;\r\n\r\n    address private ERC4907ContractAddress;\r\n\r\n    constructor() {\r\n        owner = payable(msg.sender);\r\n    }\r\n\r\n    // For only service providers\r\n    struct Service {\r\n        uint256 serviceid;\r\n        string name;\r\n        string ImageUri;\r\n        string description;\r\n        uint64 planDuration;\r\n        uint256 price;\r\n        address payable serviceProvider;\r\n    }\r\n\r\n    // For every NFT Subscription Plan\r\n    struct NFTItem {\r\n        uint256 serviceid;\r\n        string serviceName;\r\n        string ImageUri;\r\n        string description;\r\n        uint256 duration;\r\n        uint64 endTime;\r\n        uint256 price;\r\n        address payable owner;\r\n        address payable serviceProvider;\r\n    }\r\n\r\n    // For Lending the NFT Subscription Plan\r\n    struct Lend {\r\n        uint256 tokenId;\r\n        uint256 price;\r\n        uint256 duration;\r\n        address renter;\r\n    }\r\n\r\n    // 2 - For Service provider, 1 - For a User\r\n    mapping(address => uint256) public accountType;\r\n\r\n    mapping(uint256 => NFTItem) public idToNftItem;\r\n\r\n    mapping(uint256 => Service) public services;\r\n    mapping(address => uint256[]) public serviceProviderToIds;\r\n    mapping(address => uint256[]) public userAvailablePlans;\r\n    // here uint256 is the index at the forLendServcies array\r\n    mapping(address => uint256[]) public userForLendPlans;\r\n\r\n    Lend[] public forLendServices;\r\n    uint256 public totalServices;\r\n    uint256 public totalLendServices;\r\n\r\n    /**\r\n     * @notice modifier to check if user is valid\r\n     */\r\n    modifier onlyUser() {\r\n        require(accountType[msg.sender] == 1, \"Not a user\");\r\n        _;\r\n    }\r\n\r\n    /**\r\n     * @notice modifier to check if service provider is valid\r\n     */\r\n    modifier onlyServiceProvider() {\r\n        require(accountType[msg.sender] == 2, \"Not a service Provider\");\r\n        _;\r\n    }\r\n\r\n    function memcmp(bytes memory a, bytes memory b)\r\n        internal\r\n        pure\r\n        returns (bool)\r\n    {\r\n        return (a.length == b.length) && (keccak256(a) == keccak256(b));\r\n    }\r\n\r\n    function strcmp(string memory a, string memory b)\r\n        internal\r\n        pure\r\n        returns (bool)\r\n    {\r\n        return memcmp(bytes(a), bytes(b));\r\n    }\r\n\r\n    function login(uint256 _accountType) public returns (string memory) {\r\n        // SERVICE PROVIDER\r\n        if (accountType[msg.sender] == 2) {\r\n            return \"SERVICE PROVIDER\";\r\n        }\r\n        // USER\r\n        else if (accountType[msg.sender] == 1) {\r\n            return \"USER\";\r\n        }\r\n\r\n        accountType[msg.sender] = _accountType;\r\n        return \"Account Created\";\r\n    }\r\n\r\n    function AddServiceToPlatform(\r\n        string memory _name,\r\n        string memory _ImageUri,\r\n        string memory _description,\r\n        uint64 _planDuration,\r\n        uint256 _planPrice\r\n    ) public onlyServiceProvider {\r\n        services[totalServices] = Service({\r\n            serviceid: totalServices,\r\n            name: _name,\r\n            ImageUri: _ImageUri,\r\n            description: _description,\r\n            planDuration: _planDuration,\r\n            price: _planPrice,\r\n            serviceProvider: payable(msg.sender)\r\n        });\r\n\r\n        serviceProviderToIds[msg.sender].push(totalServices);\r\n\r\n        totalServices = totalServices + 1;\r\n    }\r\n\r\n    function BuyServiceFromServiceProvider(uint256 _serviceid)\r\n        public\r\n        payable\r\n        onlyUser\r\n    {\r\n        Service storage service = services[_serviceid];\r\n\r\n        uint64 _time = uint64(block.timestamp + service.planDuration);\r\n        uint256 _price = service.price;\r\n\r\n        require(_price == msg.value, \"Please send the equivalent amount\");\r\n        service.serviceProvider.transfer(msg.value);\r\n\r\n        // Mint a expirable NFT by setting approval for the contract address first\r\n        mintNFT(\r\n            _serviceid,\r\n            service.name,\r\n            service.ImageUri,\r\n            service.description,\r\n            service.planDuration,\r\n            _time,\r\n            _price,\r\n            msg.sender,\r\n            service.serviceProvider\r\n        );\r\n\r\n        userAvailablePlans[msg.sender].push(_serviceid);\r\n    }\r\n\r\n    function LendUserNFTPlan(\r\n        uint256 _tokenId,\r\n        uint256 _days,\r\n        uint256 _amount\r\n    ) public onlyUser {\r\n        require(\r\n            idToNftItem[_tokenId].owner == msg.sender,\r\n            \"You are not the owner of this token\"\r\n        );\r\n\r\n        Lend storage newLendPlan = forLendServices.push();\r\n        newLendPlan.tokenId = _tokenId;\r\n        newLendPlan.price = _amount;\r\n        newLendPlan.duration = block.timestamp + (_days * 24 * 60 * 60);\r\n        newLendPlan.renter = address(0);\r\n\r\n        forLendServices.push(newLendPlan);\r\n        userForLendPlans[msg.sender].push(totalLendServices);\r\n        totalLendServices = totalLendServices + 1;\r\n\r\n        // remove token from user availble plans\r\n\r\n        uint256 removeIndex = 0;\r\n        for (uint256 i = 0; i < userAvailablePlans[msg.sender].length; i++) {\r\n            if (_tokenId == userAvailablePlans[msg.sender][i]) removeIndex = i;\r\n        }\r\n\r\n        for (\r\n            uint256 i = removeIndex;\r\n            i < userAvailablePlans[msg.sender].length - 1;\r\n            i++\r\n        ) {\r\n            userAvailablePlans[msg.sender][i] = userAvailablePlans[msg.sender][\r\n                i + 1\r\n            ];\r\n        }\r\n        delete userAvailablePlans[msg.sender][\r\n            userAvailablePlans[msg.sender].length - 1\r\n        ];\r\n    }\r\n\r\n    function RentPlan(\r\n        uint256 _tokenId,\r\n        uint64 _days,\r\n        uint256 _amount\r\n    ) public {\r\n        require(\r\n            idToNftItem[_tokenId].owner != msg.sender,\r\n            \"You are already the owner of this token\"\r\n        );\r\n\r\n        uint256 index;\r\n        address _serviceProvider = idToNftItem[_tokenId].owner;\r\n\r\n        for (uint256 i = 0; i < totalLendServices; i++) {\r\n            if (forLendServices[i].tokenId == _tokenId) index = i;\r\n        }\r\n\r\n        forLendServices[index].renter = msg.sender;\r\n        rentNFT(_tokenId, _days, _amount);\r\n    }\r\n\r\n    function mintNFT(\r\n        uint256 _serviceid,\r\n        string memory _serviceName,\r\n        string memory _imageUri,\r\n        string memory _description,\r\n        uint64 _duration,\r\n        uint64 _endTime,\r\n        uint256 _price,\r\n        address _owner,\r\n        address _serviceProvider\r\n    ) public {\r\n        require(_price > 0, \"Price must be at least 1 wei\");\r\n        uint256 tokenID = tID;\r\n        tID = tID + 1;\r\n        totalTokensMinted = totalTokensMinted + 1;\r\n\r\n        // Service provider approveforAll allow msg.sender\r\n\r\n        _mint(msg.sender, tokenID);\r\n        setApprovalForAll(address(this), true);\r\n        setUser(tokenID, msg.sender, _endTime);\r\n\r\n        idToNftItem[tokenID] = NFTItem({\r\n            serviceid: _serviceid,\r\n            serviceName: _serviceName,\r\n            ImageUri: _imageUri,\r\n            description: _description,\r\n            duration: _duration,\r\n            endTime: _endTime,\r\n            price: _price,\r\n            owner: payable(_owner),\r\n            serviceProvider: payable(_serviceProvider)\r\n        });\r\n\r\n        userAvailablePlans[msg.sender].push(tokenID);\r\n    }\r\n\r\n    function rentNFT(\r\n        uint256 tokenID,\r\n        uint64 _days,\r\n        uint256 _amount\r\n    ) public payable {\r\n        setUser(tokenID, msg.sender, _days);\r\n        payable(idToNftItem[tokenID].owner).transfer(_amount);\r\n        idToNftItem[tokenID].owner = payable(msg.sender);\r\n    }\r\n\r\n    // get functions for web3\r\n\r\n    function getTotalServices() public view returns (uint256) {\r\n        return totalServices;\r\n    }\r\n\r\n    function getNFTDetailsFromId(uint256 _tokenID)\r\n        public\r\n        view\r\n        returns (NFTItem memory)\r\n    {\r\n        return idToNftItem[_tokenID];\r\n    }\r\n\r\n    function fetchAllUserAvailableNFTPlans()\r\n        public\r\n        view\r\n        returns (uint256[] memory)\r\n    {\r\n        return userAvailablePlans[msg.sender];\r\n    }\r\n\r\n    function fetchAllUserLendNFTPlans() public view returns (uint256[] memory) {\r\n        return userForLendPlans[msg.sender];\r\n    }\r\n\r\n    function allLendServicesByIndex(uint256 index)\r\n        public\r\n        view\r\n        returns (Lend memory)\r\n    {\r\n        return forLendServices[index];\r\n    }\r\n}\r\n",
  "sourcePath": "C:/Users/hardi/Desktop/Projects/EazyVideo/truffle/contracts/SubsNFT.sol",
  "compiler": {
    "name": "solc",
    "version": "0.8.4+commit.c7e474f2.Emscripten.clang"
  },
  "schemaVersion": "3.4.0",
  "updatedAt": "2022-08-04T09:34:37.431Z",
  "networkType": "ethereum",
  "devdoc": {
    "kind": "dev",
    "methods": {
      "approve(address,uint256)": {
        "details": "See {IERC721-approve}."
      },
      "balanceOf(address)": {
        "details": "See {IERC721-balanceOf}."
      },
      "getApproved(uint256)": {
        "details": "See {IERC721-getApproved}."
      },
      "isApprovedForAll(address,address)": {
        "details": "See {IERC721-isApprovedForAll}."
      },
      "name()": {
        "details": "See {IERC721Metadata-name}."
      },
      "ownerOf(uint256)": {
        "details": "See {IERC721-ownerOf}."
      },
      "safeTransferFrom(address,address,uint256)": {
        "details": "See {IERC721-safeTransferFrom}."
      },
      "safeTransferFrom(address,address,uint256,bytes)": {
        "details": "See {IERC721-safeTransferFrom}."
      },
      "setApprovalForAll(address,bool)": {
        "details": "See {IERC721-setApprovalForAll}."
      },
      "setUser(uint256,address,uint64)": {
        "details": "The zero address indicates there is no user Throws if `tokenId` is not valid NFT",
        "params": {
          "expires": "UNIX timestamp, The new user could use the NFT before expires",
          "user": "The new user of the NFT"
        }
      },
      "supportsInterface(bytes4)": {
        "details": "See {IERC165-supportsInterface}."
      },
      "symbol()": {
        "details": "See {IERC721Metadata-symbol}."
      },
      "tokenURI(uint256)": {
        "details": "See {IERC721Metadata-tokenURI}."
      },
      "transferFrom(address,address,uint256)": {
        "details": "See {IERC721-transferFrom}."
      },
      "userExpires(uint256)": {
        "details": "The zero value indicates that there is no user",
        "params": {
          "tokenId": "The NFT to get the user expires for"
        },
        "returns": {
          "_0": "The user expires for this NFT"
        }
      },
      "userOf(uint256)": {
        "details": "The zero address indicates that there is no user or the user is expired",
        "params": {
          "tokenId": "The NFT to get the user address for"
        },
        "returns": {
          "_0": "The user address for this NFT"
        }
      }
    },
    "version": 1
  },
  "userdoc": {
    "events": {
      "UpdateUser(uint256,address,uint64)": {
        "notice": "Emitted when the `user` of an NFT or the `expires` of the `user` is changed The zero address for user indicates that there is no user address"
      }
    },
    "kind": "user",
    "methods": {
      "setUser(uint256,address,uint64)": {
        "notice": "set the user and expires of a NFT"
      },
      "userExpires(uint256)": {
        "notice": "Get the user expires of an NFT"
      },
      "userOf(uint256)": {
        "notice": "Get the user address of an NFT"
      }
    },
    "version": 1
  }
}