{
  "contractName": "EazyVideo",
  "abi": [
    {
      "anonymous": false,
      "inputs": [
        {
          "indexed": true,
          "internalType": "address",
          "name": "owner",
          "type": "address"
        },
        {
          "indexed": true,
          "internalType": "address",
          "name": "approved",
          "type": "address"
        },
        {
          "indexed": true,
          "internalType": "uint256",
          "name": "tokenId",
          "type": "uint256"
        }
      ],
      "name": "Approval",
      "type": "event"
    },
    {
      "anonymous": false,
      "inputs": [
        {
          "indexed": true,
          "internalType": "address",
          "name": "owner",
          "type": "address"
        },
        {
          "indexed": true,
          "internalType": "address",
          "name": "operator",
          "type": "address"
        },
        {
          "indexed": false,
          "internalType": "bool",
          "name": "approved",
          "type": "bool"
        }
      ],
      "name": "ApprovalForAll",
      "type": "event"
    },
    {
      "anonymous": false,
      "inputs": [
        {
          "indexed": true,
          "internalType": "address",
          "name": "from",
          "type": "address"
        },
        {
          "indexed": true,
          "internalType": "address",
          "name": "to",
          "type": "address"
        },
        {
          "indexed": true,
          "internalType": "uint256",
          "name": "tokenId",
          "type": "uint256"
        }
      ],
      "name": "Transfer",
      "type": "event"
    },
    {
      "anonymous": false,
      "inputs": [
        {
          "indexed": true,
          "internalType": "uint256",
          "name": "tokenId",
          "type": "uint256"
        },
        {
          "indexed": true,
          "internalType": "address",
          "name": "user",
          "type": "address"
        },
        {
          "indexed": false,
          "internalType": "uint64",
          "name": "expires",
          "type": "uint64"
        }
      ],
      "name": "UpdateUser",
      "type": "event"
    },
    {
      "inputs": [
        {
          "internalType": "address",
          "name": "",
          "type": "address"
        }
      ],
      "name": "accountType",
      "outputs": [
        {
          "internalType": "bool",
          "name": "",
          "type": "bool"
        }
      ],
      "stateMutability": "view",
      "type": "function"
    },
    {
      "inputs": [
        {
          "internalType": "address",
          "name": "to",
          "type": "address"
        },
        {
          "internalType": "uint256",
          "name": "tokenId",
          "type": "uint256"
        }
      ],
      "name": "approve",
      "outputs": [],
      "stateMutability": "nonpayable",
      "type": "function"
    },
    {
      "inputs": [
        {
          "internalType": "address",
          "name": "owner",
          "type": "address"
        }
      ],
      "name": "balanceOf",
      "outputs": [
        {
          "internalType": "uint256",
          "name": "",
          "type": "uint256"
        }
      ],
      "stateMutability": "view",
      "type": "function"
    },
    {
      "inputs": [],
      "name": "fetchAllUserNFTItems",
      "outputs": [
        {
          "components": [
            {
              "internalType": "string",
              "name": "serviceName",
              "type": "string"
            },
            {
              "internalType": "string",
              "name": "ImageUri",
              "type": "string"
            },
            {
              "internalType": "string",
              "name": "description",
              "type": "string"
            },
            {
              "internalType": "uint256",
              "name": "duration",
              "type": "uint256"
            },
            {
              "internalType": "uint64",
              "name": "endTime",
              "type": "uint64"
            },
            {
              "internalType": "uint256",
              "name": "price",
              "type": "uint256"
            },
            {
              "internalType": "address payable",
              "name": "owner",
              "type": "address"
            },
            {
              "internalType": "address payable",
              "name": "srviceProvider",
              "type": "address"
            }
          ],
          "internalType": "struct eazyVideoNFTContract.NFTItem[]",
          "name": "",
          "type": "tuple[]"
        }
      ],
      "stateMutability": "view",
      "type": "function"
    },
    {
      "inputs": [
        {
          "internalType": "uint256",
          "name": "tokenId",
          "type": "uint256"
        }
      ],
      "name": "getApproved",
      "outputs": [
        {
          "internalType": "address",
          "name": "",
          "type": "address"
        }
      ],
      "stateMutability": "view",
      "type": "function"
    },
    {
      "inputs": [
        {
          "internalType": "address",
          "name": "owner",
          "type": "address"
        },
        {
          "internalType": "address",
          "name": "operator",
          "type": "address"
        }
      ],
      "name": "isApprovedForAll",
      "outputs": [
        {
          "internalType": "bool",
          "name": "",
          "type": "bool"
        }
      ],
      "stateMutability": "view",
      "type": "function"
    },
    {
      "inputs": [
        {
          "internalType": "string",
          "name": "_serviceName",
          "type": "string"
        },
        {
          "internalType": "string",
          "name": "_imageUri",
          "type": "string"
        },
        {
          "internalType": "string",
          "name": "_description",
          "type": "string"
        },
        {
          "internalType": "uint64",
          "name": "_duration",
          "type": "uint64"
        },
        {
          "internalType": "uint64",
          "name": "_endTime",
          "type": "uint64"
        },
        {
          "internalType": "uint256",
          "name": "_price",
          "type": "uint256"
        },
        {
          "internalType": "address",
          "name": "_owner",
          "type": "address"
        },
        {
          "internalType": "address",
          "name": "_serviceProvider",
          "type": "address"
        }
      ],
      "name": "mintNFT",
      "outputs": [],
      "stateMutability": "payable",
      "type": "function"
    },
    {
      "inputs": [],
      "name": "name",
      "outputs": [
        {
          "internalType": "string",
          "name": "",
          "type": "string"
        }
      ],
      "stateMutability": "view",
      "type": "function"
    },
    {
      "inputs": [
        {
          "internalType": "uint256",
          "name": "tokenId",
          "type": "uint256"
        }
      ],
      "name": "ownerOf",
      "outputs": [
        {
          "internalType": "address",
          "name": "",
          "type": "address"
        }
      ],
      "stateMutability": "view",
      "type": "function"
    },
    {
      "inputs": [
        {
          "internalType": "uint256",
          "name": "tokenID",
          "type": "uint256"
        },
        {
          "internalType": "uint256",
          "name": "_amount",
          "type": "uint256"
        },
        {
          "internalType": "uint64",
          "name": "_days",
          "type": "uint64"
        }
      ],
      "name": "rentNFT",
      "outputs": [],
      "stateMutability": "payable",
      "type": "function"
    },
    {
      "inputs": [
        {
          "internalType": "address",
          "name": "from",
          "type": "address"
        },
        {
          "internalType": "address",
          "name": "to",
          "type": "address"
        },
        {
          "internalType": "uint256",
          "name": "tokenId",
          "type": "uint256"
        }
      ],
      "name": "safeTransferFrom",
      "outputs": [],
      "stateMutability": "nonpayable",
      "type": "function"
    },
    {
      "inputs": [
        {
          "internalType": "address",
          "name": "from",
          "type": "address"
        },
        {
          "internalType": "address",
          "name": "to",
          "type": "address"
        },
        {
          "internalType": "uint256",
          "name": "tokenId",
          "type": "uint256"
        },
        {
          "internalType": "bytes",
          "name": "data",
          "type": "bytes"
        }
      ],
      "name": "safeTransferFrom",
      "outputs": [],
      "stateMutability": "nonpayable",
      "type": "function"
    },
    {
      "inputs": [
        {
          "internalType": "uint256",
          "name": "",
          "type": "uint256"
        }
      ],
      "name": "services",
      "outputs": [
        {
          "internalType": "string",
          "name": "name",
          "type": "string"
        },
        {
          "internalType": "string",
          "name": "ImageUri",
          "type": "string"
        },
        {
          "internalType": "string",
          "name": "description",
          "type": "string"
        },
        {
          "internalType": "uint64",
          "name": "planDuration",
          "type": "uint64"
        },
        {
          "internalType": "uint256",
          "name": "price",
          "type": "uint256"
        }
      ],
      "stateMutability": "view",
      "type": "function"
    },
    {
      "inputs": [
        {
          "internalType": "address",
          "name": "operator",
          "type": "address"
        },
        {
          "internalType": "bool",
          "name": "approved",
          "type": "bool"
        }
      ],
      "name": "setApprovalForAll",
      "outputs": [],
      "stateMutability": "nonpayable",
      "type": "function"
    },
    {
      "inputs": [
        {
          "internalType": "uint256",
          "name": "tokenId",
          "type": "uint256"
        },
        {
          "internalType": "address",
          "name": "user",
          "type": "address"
        },
        {
          "internalType": "uint64",
          "name": "expires",
          "type": "uint64"
        }
      ],
      "name": "setUser",
      "outputs": [],
      "stateMutability": "nonpayable",
      "type": "function"
    },
    {
      "inputs": [
        {
          "internalType": "bytes4",
          "name": "interfaceId",
          "type": "bytes4"
        }
      ],
      "name": "supportsInterface",
      "outputs": [
        {
          "internalType": "bool",
          "name": "",
          "type": "bool"
        }
      ],
      "stateMutability": "view",
      "type": "function"
    },
    {
      "inputs": [],
      "name": "symbol",
      "outputs": [
        {
          "internalType": "string",
          "name": "",
          "type": "string"
        }
      ],
      "stateMutability": "view",
      "type": "function"
    },
    {
      "inputs": [
        {
          "internalType": "uint256",
          "name": "tokenId",
          "type": "uint256"
        }
      ],
      "name": "tokenURI",
      "outputs": [
        {
          "internalType": "string",
          "name": "",
          "type": "string"
        }
      ],
      "stateMutability": "view",
      "type": "function"
    },
    {
      "inputs": [],
      "name": "totalTokensMinted",
      "outputs": [
        {
          "internalType": "uint256",
          "name": "_value",
          "type": "uint256"
        }
      ],
      "stateMutability": "view",
      "type": "function"
    },
    {
      "inputs": [
        {
          "internalType": "address",
          "name": "from",
          "type": "address"
        },
        {
          "internalType": "address",
          "name": "to",
          "type": "address"
        },
        {
          "internalType": "uint256",
          "name": "tokenId",
          "type": "uint256"
        }
      ],
      "name": "transferFrom",
      "outputs": [],
      "stateMutability": "nonpayable",
      "type": "function"
    },
    {
      "inputs": [
        {
          "internalType": "uint256",
          "name": "tokenId",
          "type": "uint256"
        }
      ],
      "name": "userExpires",
      "outputs": [
        {
          "internalType": "uint256",
          "name": "",
          "type": "uint256"
        }
      ],
      "stateMutability": "view",
      "type": "function"
    },
    {
      "inputs": [
        {
          "internalType": "address",
          "name": "",
          "type": "address"
        },
        {
          "internalType": "uint256",
          "name": "",
          "type": "uint256"
        }
      ],
      "name": "userNFTItem",
      "outputs": [
        {
          "internalType": "string",
          "name": "serviceName",
          "type": "string"
        },
        {
          "internalType": "string",
          "name": "ImageUri",
          "type": "string"
        },
        {
          "internalType": "string",
          "name": "description",
          "type": "string"
        },
        {
          "internalType": "uint256",
          "name": "duration",
          "type": "uint256"
        },
        {
          "internalType": "uint64",
          "name": "endTime",
          "type": "uint64"
        },
        {
          "internalType": "uint256",
          "name": "price",
          "type": "uint256"
        },
        {
          "internalType": "address payable",
          "name": "owner",
          "type": "address"
        },
        {
          "internalType": "address payable",
          "name": "srviceProvider",
          "type": "address"
        }
      ],
      "stateMutability": "view",
      "type": "function"
    },
    {
      "inputs": [
        {
          "internalType": "uint256",
          "name": "tokenId",
          "type": "uint256"
        }
      ],
      "name": "userOf",
      "outputs": [
        {
          "internalType": "address",
          "name": "",
          "type": "address"
        }
      ],
      "stateMutability": "view",
      "type": "function"
    },
    {
      "inputs": [
        {
          "internalType": "bool",
          "name": "_accountType",
          "type": "bool"
        }
      ],
      "name": "login",
      "outputs": [
        {
          "internalType": "string",
          "name": "",
          "type": "string"
        }
      ],
      "stateMutability": "nonpayable",
      "type": "function"
    },
    {
      "inputs": [
        {
          "internalType": "string",
          "name": "_name",
          "type": "string"
        },
        {
          "internalType": "string",
          "name": "_ImageUri",
          "type": "string"
        },
        {
          "internalType": "string",
          "name": "_description",
          "type": "string"
        },
        {
          "internalType": "uint64",
          "name": "_planDuration",
          "type": "uint64"
        },
        {
          "internalType": "uint256",
          "name": "_planPrice",
          "type": "uint256"
        }
      ],
      "name": "updateService",
      "outputs": [],
      "stateMutability": "nonpayable",
      "type": "function"
    },
    {
      "inputs": [
        {
          "internalType": "address payable",
          "name": "_serviceProviderWallet",
          "type": "address"
        }
      ],
      "name": "BuyServiceFromServiceProvider",
      "outputs": [],
      "stateMutability": "payable",
      "type": "function"
    },
    {
      "inputs": [
        {
          "internalType": "uint256",
          "name": "_price",
          "type": "uint256"
        },
        {
          "internalType": "uint256",
          "name": "_days",
          "type": "uint256"
        },
        {
          "internalType": "string",
          "name": "_name",
          "type": "string"
        }
      ],
      "name": "LendPlan",
      "outputs": [],
      "stateMutability": "nonpayable",
      "type": "function"
    },
    {
      "inputs": [
        {
          "internalType": "uint256",
          "name": "tokenID",
          "type": "uint256"
        },
        {
          "internalType": "uint256",
          "name": "_amount",
          "type": "uint256"
        },
        {
          "internalType": "uint64",
          "name": "_days",
          "type": "uint64"
        }
      ],
      "name": "RentPlan",
      "outputs": [],
      "stateMutability": "nonpayable",
      "type": "function"
    }
  ],
  "bytecode": "0x60806040523480156200001157600080fd5b506040518060400160405280600981526020017f65617a79566964656f00000000000000000000000000000000000000000000008152506040518060400160405280600481526020017f65617a7900000000000000000000000000000000000000000000000000000000815250818181600090805190602001906200009892919062000105565b508060019080519060200190620000b192919062000105565b5050505050600160078190555033600860006101000a81548173ffffffffffffffffffffffffffffffffffffffff021916908373ffffffffffffffffffffffffffffffffffffffff1602179055506200021a565b8280546200011390620001b5565b90600052602060002090601f01602090048101928262000137576000855562000183565b82601f106200015257805160ff191683800117855562000183565b8280016001018555821562000183579182015b828111156200018257825182559160200191906001019062000165565b5b50905062000192919062000196565b5090565b5b80821115620001b157600081600090555060010162000197565b5090565b60006002820490506001821680620001ce57607f821691505b60208210811415620001e557620001e4620001eb565b5b50919050565b7f4e487b7100000000000000000000000000000000000000000000000000000000600052602260045260246000fd5b615338806200022a6000396000f3fe6080604052600436106101b75760003560e01c80638fc88c48116100ec578063b88d4fde1161008a578063c2f1f14a11610064578063c2f1f14a14610634578063c87b56dd14610671578063e030565e146106ae578063e985e9c5146106d7576101b7565b8063b88d4fde1461058d578063ba99af70146105b6578063c22c4f43146105f3576101b7565b80639bb4e273116100c65780639bb4e273146104f6578063a22cb46514610512578063a3177b151461053b578063b85908ba14610564576101b7565b80638fc88c481461046357806395d89b41146104a057806397402651146104cb576101b7565b8063590dc8881161015957806370a082311161013357806370a082311461038e5780637a7e252c146103cb5780637d549e991461040f5780638201a1aa1461043a576101b7565b8063590dc888146102f85780635efb6172146103355780636352211e14610351576101b7565b8063095ea7b311610195578063095ea7b31461026157806323b872dd1461028a57806328ef2e91146102b357806342842e0e146102cf576101b7565b806301ffc9a7146101bc57806306fdde03146101f9578063081812fc14610224575b600080fd5b3480156101c857600080fd5b506101e360048036038101906101de9190613da4565b610714565b6040516101f09190614664565b60405180910390f35b34801561020557600080fd5b5061020e61078e565b60405161021b919061469a565b60405180910390f35b34801561023057600080fd5b5061024b60048036038101906102469190613faf565b610820565b60405161025891906145db565b60405180910390f35b34801561026d57600080fd5b5061028860048036038101906102839190613d3f565b610866565b005b34801561029657600080fd5b506102b160048036038101906102ac9190613c39565b61097e565b005b6102cd60048036038101906102c89190613bd4565b6109de565b005b3480156102db57600080fd5b506102f660048036038101906102f19190613c39565b610d58565b005b34801561030457600080fd5b5061031f600480360381019061031a9190613d7b565b610d78565b60405161032c919061469a565b60405180910390f35b61034f600480360381019061034a919061408e565b610eed565b005b34801561035d57600080fd5b5061037860048036038101906103739190613faf565b611025565b60405161038591906145db565b60405180910390f35b34801561039a57600080fd5b506103b560048036038101906103b09190613bab565b6110d7565b6040516103c291906149b7565b60405180910390f35b3480156103d757600080fd5b506103f260048036038101906103ed9190613d3f565b61118f565b6040516104069897969594939291906146bc565b60405180910390f35b34801561041b57600080fd5b506104246113e0565b60405161043191906149b7565b60405180910390f35b34801561044657600080fd5b50610461600480360381019061045c9190613df6565b6113ec565b005b34801561046f57600080fd5b5061048a60048036038101906104859190613faf565b6115ca565b60405161049791906149b7565b60405180910390f35b3480156104ac57600080fd5b506104b5611608565b6040516104c2919061469a565b60405180910390f35b3480156104d757600080fd5b506104e061169a565b6040516104ed9190614642565b60405180910390f35b610510600480360381019061050b9190613eb5565b6119df565b005b34801561051e57600080fd5b5061053960048036038101906105349190613d03565b611e6a565b005b34801561054757600080fd5b50610562600480360381019061055d9190614027565b611e80565b005b34801561057057600080fd5b5061058b6004803603810190610586919061408e565b6122a0565b005b34801561059957600080fd5b506105b460048036038101906105af9190613c88565b612343565b005b3480156105c257600080fd5b506105dd60048036038101906105d89190613bab565b6123a5565b6040516105ea9190614664565b60405180910390f35b3480156105ff57600080fd5b5061061a60048036038101906106159190613faf565b6123c5565b60405161062b95949392919061474f565b60405180910390f35b34801561064057600080fd5b5061065b60048036038101906106569190613faf565b6125b7565b60405161066891906145db565b60405180910390f35b34801561067d57600080fd5b5061069860048036038101906106939190613faf565b61263c565b6040516106a5919061469a565b60405180910390f35b3480156106ba57600080fd5b506106d560048036038101906106d09190613fd8565b6126a4565b005b3480156106e357600080fd5b506106fe60048036038101906106f99190613bfd565b6127c7565b60405161070b9190614664565b60405180910390f35b60007fad092b5c000000000000000000000000000000000000000000000000000000007bffffffffffffffffffffffffffffffffffffffffffffffffffffffff1916827bffffffffffffffffffffffffffffffffffffffffffffffffffffffff1916148061078757506107868261285b565b5b9050919050565b60606000805461079d90614ce8565b80601f01602080910402602001604051908101604052809291908181526020018280546107c990614ce8565b80156108165780601f106107eb57610100808354040283529160200191610816565b820191906000526020600020905b8154815290600101906020018083116107f957829003601f168201915b5050505050905090565b600061082b8261293d565b6004600083815260200190815260200160002060009054906101000a900473ffffffffffffffffffffffffffffffffffffffff169050919050565b600061087182611025565b90508073ffffffffffffffffffffffffffffffffffffffff168373ffffffffffffffffffffffffffffffffffffffff1614156108e2576040517f08c379a00000000000000000000000000000000000000000000000000000000081526004016108d990614917565b60405180910390fd5b8073ffffffffffffffffffffffffffffffffffffffff16610901612988565b73ffffffffffffffffffffffffffffffffffffffff161480610930575061092f8161092a612988565b6127c7565b5b61096f576040517f08c379a000000000000000000000000000000000000000000000000000000000815260040161096690614897565b60405180910390fd5b6109798383612990565b505050565b61098f610989612988565b82612a49565b6109ce576040517f08c379a00000000000000000000000000000000000000000000000000000000081526004016109c590614957565b60405180910390fd5b6109d9838383612ade565b505050565b60001515601060003373ffffffffffffffffffffffffffffffffffffffff1673ffffffffffffffffffffffffffffffffffffffff16815260200190815260200160002060009054906101000a900460ff16151514610a71576040517f08c379a0000000000000000000000000000000000000000000000000000000008152600401610a6890614817565b60405180910390fd5b6000600e601260008473ffffffffffffffffffffffffffffffffffffffff1673ffffffffffffffffffffffffffffffffffffffff1681526020019081526020016000205481548110610aec577f4e487b7100000000000000000000000000000000000000000000000000000000600052603260045260246000fd5b906000526020600020906005020190506000816000018054610b0d90614ce8565b80601f0160208091040260200160405190810160405280929190818152602001828054610b3990614ce8565b8015610b865780601f10610b5b57610100808354040283529160200191610b86565b820191906000526020600020905b815481529060010190602001808311610b6957829003601f168201915b505050505090506000826001018054610b9e90614ce8565b80601f0160208091040260200160405190810160405280929190818152602001828054610bca90614ce8565b8015610c175780601f10610bec57610100808354040283529160200191610c17565b820191906000526020600020905b815481529060010190602001808311610bfa57829003601f168201915b5050505050905060008360030160009054906101000a900467ffffffffffffffff1642610c449190614b57565b90506000846004015490506000856002018054610c6090614ce8565b80601f0160208091040260200160405190810160405280929190818152602001828054610c8c90614ce8565b8015610cd95780601f10610cae57610100808354040283529160200191610cd9565b820191906000526020600020905b815481529060010190602001808311610cbc57829003601f168201915b505050505090508673ffffffffffffffffffffffffffffffffffffffff166108fc839081150290604051600060405180830381858888f19350505050158015610d26573d6000803e3d6000fd5b50610d4f8585838960030160009054906101000a900467ffffffffffffffff168787338e6119df565b50505050505050565b610d7383838360405180602001604052806000815250612343565b505050565b606060011515601060003373ffffffffffffffffffffffffffffffffffffffff1673ffffffffffffffffffffffffffffffffffffffff16815260200190815260200160002060009054906101000a900460ff1615151415610e10576040518060400160405280601081526020017f534552564943452050524f5649444552000000000000000000000000000000008152509050610ee8565b60001515601060003373ffffffffffffffffffffffffffffffffffffffff1673ffffffffffffffffffffffffffffffffffffffff16815260200190815260200160002060009054906101000a900460ff1615151415610ea6576040518060400160405280600481526020017f55534552000000000000000000000000000000000000000000000000000000008152509050610ee8565b610eaf82612d45565b6040518060400160405280600f81526020017f4163636f756e742043726561746564000000000000000000000000000000000081525090505b919050565b60026007541415610f33576040517f08c379a0000000000000000000000000000000000000000000000000000000008152600401610f2a90614977565b60405180910390fd5b6002600781905550610f468333836126a4565b600c600084815260200190815260200160002060060160009054906101000a900473ffffffffffffffffffffffffffffffffffffffff1673ffffffffffffffffffffffffffffffffffffffff166108fc839081150290604051600060405180830381858888f19350505050158015610fc2573d6000803e3d6000fd5b5033600c600085815260200190815260200160002060060160006101000a81548173ffffffffffffffffffffffffffffffffffffffff021916908373ffffffffffffffffffffffffffffffffffffffff1602179055506001600781905550505050565b6000806002600084815260200190815260200160002060009054906101000a900473ffffffffffffffffffffffffffffffffffffffff169050600073ffffffffffffffffffffffffffffffffffffffff168173ffffffffffffffffffffffffffffffffffffffff1614156110ce576040517f08c379a00000000000000000000000000000000000000000000000000000000081526004016110c5906148f7565b60405180910390fd5b80915050919050565b60008073ffffffffffffffffffffffffffffffffffffffff168273ffffffffffffffffffffffffffffffffffffffff161415611148576040517f08c379a000000000000000000000000000000000000000000000000000000000815260040161113f90614877565b60405180910390fd5b600360008373ffffffffffffffffffffffffffffffffffffffff1673ffffffffffffffffffffffffffffffffffffffff168152602001908152602001600020549050919050565b600d60205281600052604060002081815481106111ab57600080fd5b9060005260206000209060080201600091509150508060000180546111cf90614ce8565b80601f01602080910402602001604051908101604052809291908181526020018280546111fb90614ce8565b80156112485780601f1061121d57610100808354040283529160200191611248565b820191906000526020600020905b81548152906001019060200180831161122b57829003601f168201915b50505050509080600101805461125d90614ce8565b80601f016020809104026020016040519081016040528092919081815260200182805461128990614ce8565b80156112d65780601f106112ab576101008083540402835291602001916112d6565b820191906000526020600020905b8154815290600101906020018083116112b957829003601f168201915b5050505050908060020180546112eb90614ce8565b80601f016020809104026020016040519081016040528092919081815260200182805461131790614ce8565b80156113645780601f1061133957610100808354040283529160200191611364565b820191906000526020600020905b81548152906001019060200180831161134757829003601f168201915b5050505050908060030154908060040160009054906101000a900467ffffffffffffffff16908060050154908060060160009054906101000a900473ffffffffffffffffffffffffffffffffffffffff16908060070160009054906101000a900473ffffffffffffffffffffffffffffffffffffffff16905088565b600b8060000154905081565b601060003373ffffffffffffffffffffffffffffffffffffffff1673ffffffffffffffffffffffffffffffffffffffff16815260200190815260200160002060009054906101000a900460ff16611478576040517f08c379a000000000000000000000000000000000000000000000000000000000815260040161146f906148d7565b60405180910390fd5b6040518060a001604052808681526020018581526020018481526020018367ffffffffffffffff16815260200182815250600e601260003373ffffffffffffffffffffffffffffffffffffffff1673ffffffffffffffffffffffffffffffffffffffff1681526020019081526020016000205481548110611522577f4e487b7100000000000000000000000000000000000000000000000000000000600052603260045260246000fd5b9060005260206000209060050201600082015181600001908051906020019061154c929190613918565b506020820151816001019080519060200190611569929190613918565b506040820151816002019080519060200190611586929190613918565b5060608201518160030160006101000a81548167ffffffffffffffff021916908367ffffffffffffffff160217905550608082015181600401559050505050505050565b60006006600083815260200190815260200160002060000160149054906101000a900467ffffffffffffffff1667ffffffffffffffff169050919050565b60606001805461161790614ce8565b80601f016020809104026020016040519081016040528092919081815260200182805461164390614ce8565b80156116905780601f1061166557610100808354040283529160200191611690565b820191906000526020600020905b81548152906001019060200180831161167357829003601f168201915b5050505050905090565b6060600d60003373ffffffffffffffffffffffffffffffffffffffff1673ffffffffffffffffffffffffffffffffffffffff168152602001908152602001600020805480602002602001604051908101604052809291908181526020016000905b828210156119d657838290600052602060002090600802016040518061010001604052908160008201805461172f90614ce8565b80601f016020809104026020016040519081016040528092919081815260200182805461175b90614ce8565b80156117a85780601f1061177d576101008083540402835291602001916117a8565b820191906000526020600020905b81548152906001019060200180831161178b57829003601f168201915b505050505081526020016001820180546117c190614ce8565b80601f01602080910402602001604051908101604052809291908181526020018280546117ed90614ce8565b801561183a5780601f1061180f5761010080835404028352916020019161183a565b820191906000526020600020905b81548152906001019060200180831161181d57829003601f168201915b5050505050815260200160028201805461185390614ce8565b80601f016020809104026020016040519081016040528092919081815260200182805461187f90614ce8565b80156118cc5780601f106118a1576101008083540402835291602001916118cc565b820191906000526020600020905b8154815290600101906020018083116118af57829003601f168201915b50505050508152602001600382015481526020016004820160009054906101000a900467ffffffffffffffff1667ffffffffffffffff1667ffffffffffffffff168152602001600582015481526020016006820160009054906101000a900473ffffffffffffffffffffffffffffffffffffffff1673ffffffffffffffffffffffffffffffffffffffff1673ffffffffffffffffffffffffffffffffffffffff1681526020016007820160009054906101000a900473ffffffffffffffffffffffffffffffffffffffff1673ffffffffffffffffffffffffffffffffffffffff1673ffffffffffffffffffffffffffffffffffffffff1681525050815260200190600101906116fb565b50505050905090565b60026007541415611a25576040517f08c379a0000000000000000000000000000000000000000000000000000000008152600401611a1c90614977565b60405180910390fd5b600260078190555060008311611a70576040517f08c379a0000000000000000000000000000000000000000000000000000000008152600401611a6790614997565b60405180910390fd5b611a7a600a612f59565b6000611a86600a612f6f565b9050611a928282612f7d565b611a9d8133876126a4565b6040518061010001604052808a81526020018981526020018881526020018767ffffffffffffffff1681526020018667ffffffffffffffff1681526020018581526020018473ffffffffffffffffffffffffffffffffffffffff1681526020018373ffffffffffffffffffffffffffffffffffffffff16815250600c60008381526020019081526020016000206000820151816000019080519060200190611b46929190613918565b506020820151816001019080519060200190611b63929190613918565b506040820151816002019080519060200190611b80929190613918565b506060820151816003015560808201518160040160006101000a81548167ffffffffffffffff021916908367ffffffffffffffff16021790555060a0820151816005015560c08201518160060160006101000a81548173ffffffffffffffffffffffffffffffffffffffff021916908373ffffffffffffffffffffffffffffffffffffffff16021790555060e08201518160070160006101000a81548173ffffffffffffffffffffffffffffffffffffffff021916908373ffffffffffffffffffffffffffffffffffffffff160217905550905050600d60003373ffffffffffffffffffffffffffffffffffffffff1673ffffffffffffffffffffffffffffffffffffffff168152602001908152602001600020600c600083815260200190815260200160002090806001815401808255809150506001900390600052602060002090600802016000909190919091506000820181600001908054611ce490614ce8565b611cef92919061399e565b506001820181600101908054611d0490614ce8565b611d0f92919061399e565b506002820181600201908054611d2490614ce8565b611d2f92919061399e565b50600382015481600301556004820160009054906101000a900467ffffffffffffffff168160040160006101000a81548167ffffffffffffffff021916908367ffffffffffffffff160217905550600582015481600501556006820160009054906101000a900473ffffffffffffffffffffffffffffffffffffffff168160060160006101000a81548173ffffffffffffffffffffffffffffffffffffffff021916908373ffffffffffffffffffffffffffffffffffffffff1602179055506007820160009054906101000a900473ffffffffffffffffffffffffffffffffffffffff168160070160006101000a81548173ffffffffffffffffffffffffffffffffffffffff021916908373ffffffffffffffffffffffffffffffffffffffff16021790555050505060016007819055505050505050505050565b611e7c611e75612988565b8383613157565b5050565b60001515601060003373ffffffffffffffffffffffffffffffffffffffff1673ffffffffffffffffffffffffffffffffffffffff16815260200190815260200160002060009054906101000a900460ff16151514611f13576040517f08c379a0000000000000000000000000000000000000000000000000000000008152600401611f0a90614817565b60405180910390fd5b6000600f601160003373ffffffffffffffffffffffffffffffffffffffff1673ffffffffffffffffffffffffffffffffffffffff1681526020019081526020016000205481548110611f8e577f4e487b7100000000000000000000000000000000000000000000000000000000600052603260045260246000fd5b9060005260206000209060040201905060005b60018260010154611fb29190614bc6565b811015612299576120638260000160008381526020019081526020016000206000018054611fdf90614ce8565b80601f016020809104026020016040519081016040528092919081815260200182805461200b90614ce8565b80156120585780601f1061202d57610100808354040283529160200191612058565b820191906000526020600020905b81548152906001019060200180831161203b57829003601f168201915b5050505050846132c4565b15612286576040518060a00160405280848152602001836000016000848152602001908152602001600020600101805461209c90614ce8565b80601f01602080910402602001604051908101604052809291908181526020018280546120c890614ce8565b80156121155780601f106120ea57610100808354040283529160200191612115565b820191906000526020600020905b8154815290600101906020018083116120f857829003601f168201915b50505050508152602001836000016000848152602001908152602001600020600201805461214290614ce8565b80601f016020809104026020016040519081016040528092919081815260200182805461216e90614ce8565b80156121bb5780601f10612190576101008083540402835291602001916121bb565b820191906000526020600020905b81548152906001019060200180831161219e57829003601f168201915b505050505081526020018567ffffffffffffffff1681526020018681525082600201600084600301548152602001908152602001600020600082015181600001908051906020019061220e929190613918565b50602082015181600101908051906020019061222b929190613918565b506040820151816002019080519060200190612248929190613918565b5060608201518160030160006101000a81548167ffffffffffffffff021916908367ffffffffffffffff160217905550608082015181600401559050505b808061229190614d4b565b915050611fa1565b5050505050565b60001515601060003373ffffffffffffffffffffffffffffffffffffffff1673ffffffffffffffffffffffffffffffffffffffff16815260200190815260200160002060009054906101000a900460ff16151514612333576040517f08c379a000000000000000000000000000000000000000000000000000000000815260040161232a90614817565b60405180910390fd5b61233e838383610eed565b505050565b61235461234e612988565b83612a49565b612393576040517f08c379a000000000000000000000000000000000000000000000000000000000815260040161238a90614957565b60405180910390fd5b61239f848484846132d8565b50505050565b60106020528060005260406000206000915054906101000a900460ff1681565b600e81815481106123d557600080fd5b90600052602060002090600502016000915090508060000180546123f890614ce8565b80601f016020809104026020016040519081016040528092919081815260200182805461242490614ce8565b80156124715780601f1061244657610100808354040283529160200191612471565b820191906000526020600020905b81548152906001019060200180831161245457829003601f168201915b50505050509080600101805461248690614ce8565b80601f01602080910402602001604051908101604052809291908181526020018280546124b290614ce8565b80156124ff5780601f106124d4576101008083540402835291602001916124ff565b820191906000526020600020905b8154815290600101906020018083116124e257829003601f168201915b50505050509080600201805461251490614ce8565b80601f016020809104026020016040519081016040528092919081815260200182805461254090614ce8565b801561258d5780601f106125625761010080835404028352916020019161258d565b820191906000526020600020905b81548152906001019060200180831161257057829003601f168201915b5050505050908060030160009054906101000a900467ffffffffffffffff16908060040154905085565b6000426006600084815260200190815260200160002060000160149054906101000a900467ffffffffffffffff1667ffffffffffffffff1610612632576006600083815260200190815260200160002060000160009054906101000a900473ffffffffffffffffffffffffffffffffffffffff169050612637565b600090505b919050565b60606126478261293d565b6000612651613334565b90506000815111612671576040518060200160405280600081525061269c565b8061267b8461334b565b60405160200161268c9291906145b7565b6040516020818303038152906040525b915050919050565b6126ae3384612a49565b6126ed576040517f08c379a00000000000000000000000000000000000000000000000000000000081526004016126e490614937565b60405180910390fd5b6000600660008581526020019081526020016000209050828160000160006101000a81548173ffffffffffffffffffffffffffffffffffffffff021916908373ffffffffffffffffffffffffffffffffffffffff160217905550818160000160146101000a81548167ffffffffffffffff021916908367ffffffffffffffff1602179055508273ffffffffffffffffffffffffffffffffffffffff16847f4e06b4e7000e659094299b3533b47b6aa8ad048e95e872d23d1f4ee55af89cfe846040516127b991906149d2565b60405180910390a350505050565b6000600560008473ffffffffffffffffffffffffffffffffffffffff1673ffffffffffffffffffffffffffffffffffffffff16815260200190815260200160002060008373ffffffffffffffffffffffffffffffffffffffff1673ffffffffffffffffffffffffffffffffffffffff16815260200190815260200160002060009054906101000a900460ff16905092915050565b60007f80ac58cd000000000000000000000000000000000000000000000000000000007bffffffffffffffffffffffffffffffffffffffffffffffffffffffff1916827bffffffffffffffffffffffffffffffffffffffffffffffffffffffff1916148061292657507f5b5e139f000000000000000000000000000000000000000000000000000000007bffffffffffffffffffffffffffffffffffffffffffffffffffffffff1916827bffffffffffffffffffffffffffffffffffffffffffffffffffffffff1916145b806129365750612935826134f8565b5b9050919050565b61294681613562565b612985576040517f08c379a000000000000000000000000000000000000000000000000000000000815260040161297c906148f7565b60405180910390fd5b50565b600033905090565b816004600083815260200190815260200160002060006101000a81548173ffffffffffffffffffffffffffffffffffffffff021916908373ffffffffffffffffffffffffffffffffffffffff160217905550808273ffffffffffffffffffffffffffffffffffffffff16612a0383611025565b73ffffffffffffffffffffffffffffffffffffffff167f8c5be1e5ebec7d5bd14f71427d1e84f3dd0314c0f7b2291e5b200ac8c7c3b92560405160405180910390a45050565b600080612a5583611025565b90508073ffffffffffffffffffffffffffffffffffffffff168473ffffffffffffffffffffffffffffffffffffffff161480612a975750612a9681856127c7565b5b80612ad557508373ffffffffffffffffffffffffffffffffffffffff16612abd84610820565b73ffffffffffffffffffffffffffffffffffffffff16145b91505092915050565b8273ffffffffffffffffffffffffffffffffffffffff16612afe82611025565b73ffffffffffffffffffffffffffffffffffffffff1614612b54576040517f08c379a0000000000000000000000000000000000000000000000000000000008152600401612b4b906147d7565b60405180910390fd5b600073ffffffffffffffffffffffffffffffffffffffff168273ffffffffffffffffffffffffffffffffffffffff161415612bc4576040517f08c379a0000000000000000000000000000000000000000000000000000000008152600401612bbb90614837565b60405180910390fd5b612bcf8383836135ce565b612bda600082612990565b6001600360008573ffffffffffffffffffffffffffffffffffffffff1673ffffffffffffffffffffffffffffffffffffffff1681526020019081526020016000206000828254612c2a9190614bc6565b925050819055506001600360008473ffffffffffffffffffffffffffffffffffffffff1673ffffffffffffffffffffffffffffffffffffffff1681526020019081526020016000206000828254612c819190614b01565b92505081905550816002600083815260200190815260200160002060006101000a81548173ffffffffffffffffffffffffffffffffffffffff021916908373ffffffffffffffffffffffffffffffffffffffff160217905550808273ffffffffffffffffffffffffffffffffffffffff168473ffffffffffffffffffffffffffffffffffffffff167fddf252ad1be2c89b69c2b068fc378daa952ba7f163c4a11628f55a4df523b3ef60405160405180910390a4612d4083838361372c565b505050565b80601060003373ffffffffffffffffffffffffffffffffffffffff1673ffffffffffffffffffffffffffffffffffffffff16815260200190815260200160002060006101000a81548160ff021916908315150217905550600015158115151415612e2c576000600f60018160018154018082558091505003906000526020600020906004020190506000816001018190555060008160030181905550600f80549050601160003373ffffffffffffffffffffffffffffffffffffffff1673ffffffffffffffffffffffffffffffffffffffff16815260200190815260200160002081905550505b600115158115151415612f56576000600e600181600181540180825580915050039060005260206000209060050201905060405180602001604052806000815250816000019080519060200190612e84929190613918565b5060405180602001604052806000815250816001019080519060200190612eac929190613918565b5060405180602001604052806000815250816002019080519060200190612ed4929190613918565b5060008160030160006101000a81548167ffffffffffffffff021916908367ffffffffffffffff16021790555060008160040181905550600e80549050601260003373ffffffffffffffffffffffffffffffffffffffff1673ffffffffffffffffffffffffffffffffffffffff16815260200190815260200160002081905550505b50565b6001816000016000828254019250508190555050565b600081600001549050919050565b600073ffffffffffffffffffffffffffffffffffffffff168273ffffffffffffffffffffffffffffffffffffffff161415612fed576040517f08c379a0000000000000000000000000000000000000000000000000000000008152600401612fe4906148b7565b60405180910390fd5b612ff681613562565b15613036576040517f08c379a000000000000000000000000000000000000000000000000000000000815260040161302d906147f7565b60405180910390fd5b613042600083836135ce565b6001600360008473ffffffffffffffffffffffffffffffffffffffff1673ffffffffffffffffffffffffffffffffffffffff16815260200190815260200160002060008282546130929190614b01565b92505081905550816002600083815260200190815260200160002060006101000a81548173ffffffffffffffffffffffffffffffffffffffff021916908373ffffffffffffffffffffffffffffffffffffffff160217905550808273ffffffffffffffffffffffffffffffffffffffff16600073ffffffffffffffffffffffffffffffffffffffff167fddf252ad1be2c89b69c2b068fc378daa952ba7f163c4a11628f55a4df523b3ef60405160405180910390a46131536000838361372c565b5050565b8173ffffffffffffffffffffffffffffffffffffffff168373ffffffffffffffffffffffffffffffffffffffff1614156131c6576040517f08c379a00000000000000000000000000000000000000000000000000000000081526004016131bd90614857565b60405180910390fd5b80600560008573ffffffffffffffffffffffffffffffffffffffff1673ffffffffffffffffffffffffffffffffffffffff16815260200190815260200160002060008473ffffffffffffffffffffffffffffffffffffffff1673ffffffffffffffffffffffffffffffffffffffff16815260200190815260200160002060006101000a81548160ff0219169083151502179055508173ffffffffffffffffffffffffffffffffffffffff168373ffffffffffffffffffffffffffffffffffffffff167f17307eab39ab6107e8899845ad3d59bd9653f200f220920489ca2b5937696c31836040516132b79190614664565b60405180910390a3505050565b60006132d08383613731565b905092915050565b6132e3848484612ade565b6132ef84848484613759565b61332e576040517f08c379a0000000000000000000000000000000000000000000000000000000008152600401613325906147b7565b60405180910390fd5b50505050565b606060405180602001604052806000815250905090565b60606000821415613393576040518060400160405280600181526020017f300000000000000000000000000000000000000000000000000000000000000081525090506134f3565b600082905060005b600082146133c55780806133ae90614d4b565b915050600a826133be9190614b95565b915061339b565b60008167ffffffffffffffff811115613407577f4e487b7100000000000000000000000000000000000000000000000000000000600052604160045260246000fd5b6040519080825280601f01601f1916602001820160405280156134395781602001600182028036833780820191505090505b5090505b600085146134ec576001826134529190614bc6565b9150600a856134619190614d94565b603061346d9190614b01565b60f81b8183815181106134a9577f4e487b7100000000000000000000000000000000000000000000000000000000600052603260045260246000fd5b60200101907effffffffffffffffffffffffffffffffffffffffffffffffffffffffffffff1916908160001a905350600a856134e59190614b95565b945061343d565b8093505050505b919050565b60007f01ffc9a7000000000000000000000000000000000000000000000000000000007bffffffffffffffffffffffffffffffffffffffffffffffffffffffff1916827bffffffffffffffffffffffffffffffffffffffffffffffffffffffff1916149050919050565b60008073ffffffffffffffffffffffffffffffffffffffff166002600084815260200190815260200160002060009054906101000a900473ffffffffffffffffffffffffffffffffffffffff1673ffffffffffffffffffffffffffffffffffffffff1614159050919050565b6135d98383836138f0565b8173ffffffffffffffffffffffffffffffffffffffff168373ffffffffffffffffffffffffffffffffffffffff16141580156136785750600073ffffffffffffffffffffffffffffffffffffffff166006600083815260200190815260200160002060000160009054906101000a900473ffffffffffffffffffffffffffffffffffffffff1673ffffffffffffffffffffffffffffffffffffffff1614155b156137275760066000828152602001908152602001600020600080820160006101000a81549073ffffffffffffffffffffffffffffffffffffffff02191690556000820160146101000a81549067ffffffffffffffff02191690555050600073ffffffffffffffffffffffffffffffffffffffff16817f4e06b4e7000e659094299b3533b47b6aa8ad048e95e872d23d1f4ee55af89cfe600060405161371e919061467f565b60405180910390a35b505050565b505050565b600081518351148015613751575081805190602001208380519060200120145b905092915050565b600061377a8473ffffffffffffffffffffffffffffffffffffffff166138f5565b156138e3578373ffffffffffffffffffffffffffffffffffffffff1663150b7a026137a3612988565b8786866040518563ffffffff1660e01b81526004016137c594939291906145f6565b602060405180830381600087803b1580156137df57600080fd5b505af192505050801561381057506040513d601f19601f8201168201806040525081019061380d9190613dcd565b60015b613893573d8060008114613840576040519150601f19603f3d011682016040523d82523d6000602084013e613845565b606091505b5060008151141561388b576040517f08c379a0000000000000000000000000000000000000000000000000000000008152600401613882906147b7565b60405180910390fd5b805181602001fd5b63150b7a0260e01b7bffffffffffffffffffffffffffffffffffffffffffffffffffffffff1916817bffffffffffffffffffffffffffffffffffffffffffffffffffffffff1916149150506138e8565b600190505b949350505050565b505050565b6000808273ffffffffffffffffffffffffffffffffffffffff163b119050919050565b82805461392490614ce8565b90600052602060002090601f016020900481019282613946576000855561398d565b82601f1061395f57805160ff191683800117855561398d565b8280016001018555821561398d579182015b8281111561398c578251825591602001919060010190613971565b5b50905061399a9190613a2b565b5090565b8280546139aa90614ce8565b90600052602060002090601f0160209004810192826139cc5760008555613a1a565b82601f106139dd5780548555613a1a565b82800160010185558215613a1a57600052602060002091601f016020900482015b82811115613a195782548255916001019190600101906139fe565b5b509050613a279190613a2b565b5090565b5b80821115613a44576000816000905550600101613a2c565b5090565b6000613a5b613a5684614a12565b6149ed565b905082815260208101848484011115613a7357600080fd5b613a7e848285614ca6565b509392505050565b6000613a99613a9484614a43565b6149ed565b905082815260208101848484011115613ab157600080fd5b613abc848285614ca6565b509392505050565b600081359050613ad381615278565b92915050565b600081359050613ae88161528f565b92915050565b600081359050613afd816152a6565b92915050565b600081359050613b12816152bd565b92915050565b600081519050613b27816152bd565b92915050565b600082601f830112613b3e57600080fd5b8135613b4e848260208601613a48565b91505092915050565b600082601f830112613b6857600080fd5b8135613b78848260208601613a86565b91505092915050565b600081359050613b90816152d4565b92915050565b600081359050613ba5816152eb565b92915050565b600060208284031215613bbd57600080fd5b6000613bcb84828501613ac4565b91505092915050565b600060208284031215613be657600080fd5b6000613bf484828501613ad9565b91505092915050565b60008060408385031215613c1057600080fd5b6000613c1e85828601613ac4565b9250506020613c2f85828601613ac4565b9150509250929050565b600080600060608486031215613c4e57600080fd5b6000613c5c86828701613ac4565b9350506020613c6d86828701613ac4565b9250506040613c7e86828701613b81565b9150509250925092565b60008060008060808587031215613c9e57600080fd5b6000613cac87828801613ac4565b9450506020613cbd87828801613ac4565b9350506040613cce87828801613b81565b925050606085013567ffffffffffffffff811115613ceb57600080fd5b613cf787828801613b2d565b91505092959194509250565b60008060408385031215613d1657600080fd5b6000613d2485828601613ac4565b9250506020613d3585828601613aee565b9150509250929050565b60008060408385031215613d5257600080fd5b6000613d6085828601613ac4565b9250506020613d7185828601613b81565b9150509250929050565b600060208284031215613d8d57600080fd5b6000613d9b84828501613aee565b91505092915050565b600060208284031215613db657600080fd5b6000613dc484828501613b03565b91505092915050565b600060208284031215613ddf57600080fd5b6000613ded84828501613b18565b91505092915050565b600080600080600060a08688031215613e0e57600080fd5b600086013567ffffffffffffffff811115613e2857600080fd5b613e3488828901613b57565b955050602086013567ffffffffffffffff811115613e5157600080fd5b613e5d88828901613b57565b945050604086013567ffffffffffffffff811115613e7a57600080fd5b613e8688828901613b57565b9350506060613e9788828901613b96565b9250506080613ea888828901613b81565b9150509295509295909350565b600080600080600080600080610100898b031215613ed257600080fd5b600089013567ffffffffffffffff811115613eec57600080fd5b613ef88b828c01613b57565b985050602089013567ffffffffffffffff811115613f1557600080fd5b613f218b828c01613b57565b975050604089013567ffffffffffffffff811115613f3e57600080fd5b613f4a8b828c01613b57565b9650506060613f5b8b828c01613b96565b9550506080613f6c8b828c01613b96565b94505060a0613f7d8b828c01613b81565b93505060c0613f8e8b828c01613ac4565b92505060e0613f9f8b828c01613ac4565b9150509295985092959890939650565b600060208284031215613fc157600080fd5b6000613fcf84828501613b81565b91505092915050565b600080600060608486031215613fed57600080fd5b6000613ffb86828701613b81565b935050602061400c86828701613ac4565b925050604061401d86828701613b96565b9150509250925092565b60008060006060848603121561403c57600080fd5b600061404a86828701613b81565b935050602061405b86828701613b81565b925050604084013567ffffffffffffffff81111561407857600080fd5b61408486828701613b57565b9150509250925092565b6000806000606084860312156140a357600080fd5b60006140b186828701613b81565b93505060206140c286828701613b81565b92505060406140d386828701613b96565b9150509250925092565b60006140e983836144bd565b905092915050565b6140fa81614c0c565b82525050565b61410981614c0c565b82525050565b61411881614bfa565b82525050565b600061412982614a84565b6141338185614ab2565b93508360208202850161414585614a74565b8060005b85811015614181578484038952815161416285826140dd565b945061416d83614aa5565b925060208a01995050600181019050614149565b50829750879550505050505092915050565b61419c81614c1e565b82525050565b60006141ad82614a8f565b6141b78185614ac3565b93506141c7818560208601614cb5565b6141d081614e81565b840191505092915050565b6141e481614c94565b82525050565b60006141f582614a9a565b6141ff8185614ad4565b935061420f818560208601614cb5565b61421881614e81565b840191505092915050565b600061422e82614a9a565b6142388185614ae5565b9350614248818560208601614cb5565b61425181614e81565b840191505092915050565b600061426782614a9a565b6142718185614af6565b9350614281818560208601614cb5565b80840191505092915050565b600061429a603283614ae5565b91506142a582614e92565b604082019050919050565b60006142bd602583614ae5565b91506142c882614ee1565b604082019050919050565b60006142e0601c83614ae5565b91506142eb82614f30565b602082019050919050565b6000614303600a83614ae5565b915061430e82614f59565b602082019050919050565b6000614326602483614ae5565b915061433182614f82565b604082019050919050565b6000614349601983614ae5565b915061435482614fd1565b602082019050919050565b600061436c602983614ae5565b915061437782614ffa565b604082019050919050565b600061438f603e83614ae5565b915061439a82615049565b604082019050919050565b60006143b2602083614ae5565b91506143bd82615098565b602082019050919050565b60006143d5602983614ae5565b91506143e0826150c1565b604082019050919050565b60006143f8601883614ae5565b915061440382615110565b602082019050919050565b600061441b602183614ae5565b915061442682615139565b604082019050919050565b600061443e603183614ae5565b915061444982615188565b604082019050919050565b6000614461602e83614ae5565b915061446c826151d7565b604082019050919050565b6000614484601f83614ae5565b915061448f82615226565b602082019050919050565b60006144a7601c83614ae5565b91506144b28261524f565b602082019050919050565b60006101008301600083015184820360008601526144db82826141ea565b915050602083015184820360208601526144f582826141ea565b9150506040830151848203604086015261450f82826141ea565b9150506060830151614524606086018261457b565b5060808301516145376080860182614599565b5060a083015161454a60a086018261457b565b5060c083015161455d60c08601826140f1565b5060e083015161457060e08601826140f1565b508091505092915050565b61458481614c76565b82525050565b61459381614c76565b82525050565b6145a281614c80565b82525050565b6145b181614c80565b82525050565b60006145c3828561425c565b91506145cf828461425c565b91508190509392505050565b60006020820190506145f0600083018461410f565b92915050565b600060808201905061460b600083018761410f565b614618602083018661410f565b614625604083018561458a565b818103606083015261463781846141a2565b905095945050505050565b6000602082019050818103600083015261465c818461411e565b905092915050565b60006020820190506146796000830184614193565b92915050565b600060208201905061469460008301846141db565b92915050565b600060208201905081810360008301526146b48184614223565b905092915050565b60006101008201905081810360008301526146d7818b614223565b905081810360208301526146eb818a614223565b905081810360408301526146ff8189614223565b905061470e606083018861458a565b61471b60808301876145a8565b61472860a083018661458a565b61473560c0830185614100565b61474260e0830184614100565b9998505050505050505050565b600060a08201905081810360008301526147698188614223565b9050818103602083015261477d8187614223565b905081810360408301526147918186614223565b90506147a060608301856145a8565b6147ad608083018461458a565b9695505050505050565b600060208201905081810360008301526147d08161428d565b9050919050565b600060208201905081810360008301526147f0816142b0565b9050919050565b60006020820190508181036000830152614810816142d3565b9050919050565b60006020820190508181036000830152614830816142f6565b9050919050565b6000602082019050818103600083015261485081614319565b9050919050565b600060208201905081810360008301526148708161433c565b9050919050565b600060208201905081810360008301526148908161435f565b9050919050565b600060208201905081810360008301526148b081614382565b9050919050565b600060208201905081810360008301526148d0816143a5565b9050919050565b600060208201905081810360008301526148f0816143c8565b9050919050565b60006020820190508181036000830152614910816143eb565b9050919050565b600060208201905081810360008301526149308161440e565b9050919050565b6000602082019050818103600083015261495081614431565b9050919050565b6000602082019050818103600083015261497081614454565b9050919050565b6000602082019050818103600083015261499081614477565b9050919050565b600060208201905081810360008301526149b08161449a565b9050919050565b60006020820190506149cc600083018461458a565b92915050565b60006020820190506149e760008301846145a8565b92915050565b60006149f7614a08565b9050614a038282614d1a565b919050565b6000604051905090565b600067ffffffffffffffff821115614a2d57614a2c614e52565b5b614a3682614e81565b9050602081019050919050565b600067ffffffffffffffff821115614a5e57614a5d614e52565b5b614a6782614e81565b9050602081019050919050565b6000819050602082019050919050565b600081519050919050565b600081519050919050565b600081519050919050565b6000602082019050919050565b600082825260208201905092915050565b600082825260208201905092915050565b600082825260208201905092915050565b600082825260208201905092915050565b600081905092915050565b6000614b0c82614c76565b9150614b1783614c76565b9250827fffffffffffffffffffffffffffffffffffffffffffffffffffffffffffffffff03821115614b4c57614b4b614dc5565b5b828201905092915050565b6000614b6282614c80565b9150614b6d83614c80565b92508267ffffffffffffffff03821115614b8a57614b89614dc5565b5b828201905092915050565b6000614ba082614c76565b9150614bab83614c76565b925082614bbb57614bba614df4565b5b828204905092915050565b6000614bd182614c76565b9150614bdc83614c76565b925082821015614bef57614bee614dc5565b5b828203905092915050565b6000614c0582614c56565b9050919050565b6000614c1782614c56565b9050919050565b60008115159050919050565b60007fffffffff0000000000000000000000000000000000000000000000000000000082169050919050565b600073ffffffffffffffffffffffffffffffffffffffff82169050919050565b6000819050919050565b600067ffffffffffffffff82169050919050565b6000614c9f82614c80565b9050919050565b82818337600083830152505050565b60005b83811015614cd3578082015181840152602081019050614cb8565b83811115614ce2576000848401525b50505050565b60006002820490506001821680614d0057607f821691505b60208210811415614d1457614d13614e23565b5b50919050565b614d2382614e81565b810181811067ffffffffffffffff82111715614d4257614d41614e52565b5b80604052505050565b6000614d5682614c76565b91507fffffffffffffffffffffffffffffffffffffffffffffffffffffffffffffffff821415614d8957614d88614dc5565b5b600182019050919050565b6000614d9f82614c76565b9150614daa83614c76565b925082614dba57614db9614df4565b5b828206905092915050565b7f4e487b7100000000000000000000000000000000000000000000000000000000600052601160045260246000fd5b7f4e487b7100000000000000000000000000000000000000000000000000000000600052601260045260246000fd5b7f4e487b7100000000000000000000000000000000000000000000000000000000600052602260045260246000fd5b7f4e487b7100000000000000000000000000000000000000000000000000000000600052604160045260246000fd5b6000601f19601f8301169050919050565b7f4552433732313a207472616e7366657220746f206e6f6e20455243373231526560008201527f63656976657220696d706c656d656e7465720000000000000000000000000000602082015250565b7f4552433732313a207472616e736665722066726f6d20696e636f72726563742060008201527f6f776e6572000000000000000000000000000000000000000000000000000000602082015250565b7f4552433732313a20746f6b656e20616c7265616479206d696e74656400000000600082015250565b7f4e6f742061207573657200000000000000000000000000000000000000000000600082015250565b7f4552433732313a207472616e7366657220746f20746865207a65726f2061646460008201527f7265737300000000000000000000000000000000000000000000000000000000602082015250565b7f4552433732313a20617070726f766520746f2063616c6c657200000000000000600082015250565b7f4552433732313a2061646472657373207a65726f206973206e6f74206120766160008201527f6c6964206f776e65720000000000000000000000000000000000000000000000602082015250565b7f4552433732313a20617070726f76652063616c6c6572206973206e6f7420746f60008201527f6b656e206f776e6572206e6f7220617070726f76656420666f7220616c6c0000602082015250565b7f4552433732313a206d696e7420746f20746865207a65726f2061646472657373600082015250565b7f596f7520617265206e6f7420612072656769737465726564207365727669636560008201527f2070726f76696465720000000000000000000000000000000000000000000000602082015250565b7f4552433732313a20696e76616c696420746f6b656e2049440000000000000000600082015250565b7f4552433732313a20617070726f76616c20746f2063757272656e74206f776e6560008201527f7200000000000000000000000000000000000000000000000000000000000000602082015250565b7f4552433732313a207472616e736665722063616c6c6572206973206e6f74206f60008201527f776e6572206e6f7220617070726f766564000000000000000000000000000000602082015250565b7f4552433732313a2063616c6c6572206973206e6f7420746f6b656e206f776e6560008201527f72206e6f7220617070726f766564000000000000000000000000000000000000602082015250565b7f5265656e7472616e637947756172643a207265656e7472616e742063616c6c00600082015250565b7f5072696365206d757374206265206174206c6561737420312077656900000000600082015250565b61528181614bfa565b811461528c57600080fd5b50565b61529881614c0c565b81146152a357600080fd5b50565b6152af81614c1e565b81146152ba57600080fd5b50565b6152c681614c2a565b81146152d157600080fd5b50565b6152dd81614c76565b81146152e857600080fd5b50565b6152f481614c80565b81146152ff57600080fd5b5056fea2646970667358221220afa527b09c7066116eb6d5aa17f62b20b008fbaecfe38241c2c195d809c0579264736f6c63430008040033",
  "immutableReferences": {},
  "source": "// SPDX-License-Identifier: MIT\r\npragma solidity ^0.8.1;\r\n\r\nimport \"./nft.sol\";\r\n\r\n/** @title eazyVideo\r\n * @notice It is a contract for managing eazyVideo platform\r\n */\r\n\r\ncontract EazyVideo is eazyVideoNFTContract {\r\n    // For only service providers\r\n\r\n    struct Service {\r\n        string name;\r\n        string ImageUri;\r\n        string description;\r\n        uint64 planDuration;\r\n        uint256 price;\r\n    }\r\n\r\n    // For user type\r\n    struct User {\r\n        // Plan nfts of users\r\n        mapping(uint256 => Service) availablePlans;\r\n        uint256 availablePlansSize;\r\n        // For Lend nfts of users that are available for rent for a specific time.\r\n        mapping(uint256 => Service) forLendPlans;\r\n        uint256 forLendPlansSize;\r\n    }\r\n\r\n    Service[] public services;\r\n    User[] users;\r\n\r\n    // True for Service provider, False for a User\r\n    mapping(address => bool) public accountType;\r\n    // user wallet address to user array index\r\n    mapping(address => uint256) internal userToId;\r\n    //service provider wallet address to index in services array\r\n    mapping(address => uint256) internal serviceProviderToId;\r\n\r\n    /**\r\n     * @notice modifier to check if user is valid\r\n     */\r\n    modifier onlyUser() {\r\n        require(accountType[msg.sender] == false, \"Not a user\");\r\n        _;\r\n    }\r\n\r\n    /**\r\n     * @notice modifier to check if service provider is valid\r\n     */\r\n    modifier onlyServiceProvider() {\r\n        require(accountType[msg.sender] == true, \"Not a service Provider\");\r\n        _;\r\n    }\r\n\r\n    function memcmp(bytes memory a, bytes memory b)\r\n        internal\r\n        pure\r\n        returns (bool)\r\n    {\r\n        return (a.length == b.length) && (keccak256(a) == keccak256(b));\r\n    }\r\n\r\n    function strcmp(string memory a, string memory b)\r\n        internal\r\n        pure\r\n        returns (bool)\r\n    {\r\n        return memcmp(bytes(a), bytes(b));\r\n    }\r\n\r\n    function login(bool _accountType) public returns (string memory) {\r\n        // SERVICE PROVIDER\r\n        if (accountType[msg.sender] == true) {\r\n            return \"SERVICE PROVIDER\";\r\n        }\r\n        // USER\r\n        else if (accountType[msg.sender] == false) {\r\n            return \"USER\";\r\n        }\r\n        addToPlatform(_accountType);\r\n        return \"Account Created\";\r\n    }\r\n\r\n    function addToPlatform(bool _accountType) internal {\r\n        accountType[msg.sender] = _accountType;\r\n        //user\r\n        if (_accountType == false) {\r\n            User storage newUser = users.push();\r\n\r\n            newUser.availablePlansSize = 0;\r\n            newUser.forLendPlansSize = 0;\r\n\r\n            userToId[msg.sender] = users.length;\r\n        }\r\n        // serviceProvider\r\n        if (_accountType == true) {\r\n            Service storage newService = services.push();\r\n\r\n            newService.name = \"\";\r\n            newService.ImageUri = \"\";\r\n            newService.description = \"\";\r\n            newService.planDuration = 0;\r\n            newService.price = 0;\r\n\r\n            serviceProviderToId[msg.sender] = services.length;\r\n        }\r\n    }\r\n\r\n    function updateService(\r\n        string memory _name,\r\n        string memory _ImageUri,\r\n        string memory _description,\r\n        uint64 _planDuration,\r\n        uint256 _planPrice\r\n    ) public {\r\n        require(\r\n            accountType[msg.sender],\r\n            \"You are not a registered service provider\"\r\n        );\r\n        services[serviceProviderToId[msg.sender]] = Service({\r\n            name: _name,\r\n            ImageUri: _ImageUri,\r\n            description: _description,\r\n            planDuration: _planDuration,\r\n            price: _planPrice\r\n        });\r\n    }\r\n\r\n    /**\r\n     * @notice method to buy service from service providers\r\n     */\r\n    function BuyServiceFromServiceProvider(\r\n        address payable _serviceProviderWallet\r\n    ) public payable onlyUser {\r\n        Service storage service = services[\r\n            serviceProviderToId[_serviceProviderWallet]\r\n        ];\r\n\r\n        string memory _name = service.name;\r\n        string memory _ImageUri = service.ImageUri;\r\n        uint64 _time = uint64(block.timestamp) + service.planDuration;\r\n        uint256 _price = service.price;\r\n        string memory _description = service.description;\r\n\r\n        payable(_serviceProviderWallet).transfer(_price);\r\n\r\n        // Mint a expirable NFT\r\n        mintNFT(\r\n            _name,\r\n            _ImageUri,\r\n            _description,\r\n            service.planDuration,\r\n            _time,\r\n            _price,\r\n            msg.sender,\r\n            _serviceProviderWallet\r\n        );\r\n    }\r\n\r\n    /**\r\n     * @notice method to lend the nfts for rents in thier profile by giving the time lending for\r\n     * User cant rent a nft for time more than he owns it - This requires a check from a nft metadata\r\n     */\r\n    function LendPlan(\r\n        uint256 _price,\r\n        uint256 _days,\r\n        string memory _name\r\n    ) public onlyUser {\r\n        User storage user = users[userToId[msg.sender]];\r\n\r\n        for (uint256 i = 0; i < user.availablePlansSize - 1; i++) {\r\n            if (strcmp(user.availablePlans[i].name, _name)) {\r\n                user.forLendPlans[user.forLendPlansSize] = Service({\r\n                    price: _price,\r\n                    name: _name,\r\n                    ImageUri: user.availablePlans[i].ImageUri,\r\n                    description: user.availablePlans[i].description,\r\n                    planDuration: uint64(_days)\r\n                });\r\n\r\n                // delete from available plans\r\n            }\r\n        }\r\n    }\r\n\r\n    /**\r\n     * @notice This method can be called by only a user wallet address to rent the\r\n     * available nfts by giving the days user is renting it for and giving the amount to\r\n     * the nft owner\r\n     */\r\n    function RentPlan(\r\n        uint256 tokenID,\r\n        uint256 _amount,\r\n        uint64 _days // _days multiplied by per day amount is total amount\r\n    ) public onlyUser {\r\n        rentNFT(tokenID, _amount, _days);\r\n    }\r\n}\r\n",
  "sourcePath": "C:/Users/hardi/Desktop/EazyVideo/truffle/contracts/eazyVideo.sol",
  "compiler": {
    "name": "solc",
    "version": "0.8.4+commit.c7e474f2.Emscripten.clang"
  },
  "schemaVersion": "3.4.0",
  "updatedAt": "2022-07-24T10:05:06.974Z",
  "devdoc": {
    "kind": "dev",
    "methods": {
      "approve(address,uint256)": {
        "details": "See {IERC721-approve}."
      },
      "balanceOf(address)": {
        "details": "See {IERC721-balanceOf}."
      },
      "getApproved(uint256)": {
        "details": "See {IERC721-getApproved}."
      },
      "isApprovedForAll(address,address)": {
        "details": "See {IERC721-isApprovedForAll}."
      },
      "name()": {
        "details": "See {IERC721Metadata-name}."
      },
      "ownerOf(uint256)": {
        "details": "See {IERC721-ownerOf}."
      },
      "safeTransferFrom(address,address,uint256)": {
        "details": "See {IERC721-safeTransferFrom}."
      },
      "safeTransferFrom(address,address,uint256,bytes)": {
        "details": "See {IERC721-safeTransferFrom}."
      },
      "setApprovalForAll(address,bool)": {
        "details": "See {IERC721-setApprovalForAll}."
      },
      "setUser(uint256,address,uint64)": {
        "details": "The zero address indicates there is no user Throws if `tokenId` is not valid NFT",
        "params": {
          "expires": "UNIX timestamp, The new user could use the NFT before expires",
          "user": "The new user of the NFT"
        }
      },
      "supportsInterface(bytes4)": {
        "details": "See {IERC165-supportsInterface}."
      },
      "symbol()": {
        "details": "See {IERC721Metadata-symbol}."
      },
      "tokenURI(uint256)": {
        "details": "See {IERC721Metadata-tokenURI}."
      },
      "transferFrom(address,address,uint256)": {
        "details": "See {IERC721-transferFrom}."
      },
      "userExpires(uint256)": {
        "details": "The zero value indicates that there is no user",
        "params": {
          "tokenId": "The NFT to get the user expires for"
        },
        "returns": {
          "_0": "The user expires for this NFT"
        }
      },
      "userOf(uint256)": {
        "details": "The zero address indicates that there is no user or the user is expired",
        "params": {
          "tokenId": "The NFT to get the user address for"
        },
        "returns": {
          "_0": "The user address for this NFT"
        }
      }
    },
    "title": "eazyVideo",
    "version": 1
  },
  "userdoc": {
    "events": {
      "UpdateUser(uint256,address,uint64)": {
        "notice": "Emitted when the `user` of an NFT or the `expires` of the `user` is changed The zero address for user indicates that there is no user address"
      }
    },
    "kind": "user",
    "methods": {
      "BuyServiceFromServiceProvider(address)": {
        "notice": "method to buy service from service providers"
      },
      "LendPlan(uint256,uint256,string)": {
        "notice": "method to lend the nfts for rents in thier profile by giving the time lending for User cant rent a nft for time more than he owns it - This requires a check from a nft metadata"
      },
      "RentPlan(uint256,uint256,uint64)": {
        "notice": "This method can be called by only a user wallet address to rent the available nfts by giving the days user is renting it for and giving the amount to the nft owner"
      },
      "setUser(uint256,address,uint64)": {
        "notice": "set the user and expires of a NFT"
      },
      "userExpires(uint256)": {
        "notice": "Get the user expires of an NFT"
      },
      "userOf(uint256)": {
        "notice": "Get the user address of an NFT"
      }
    },
    "notice": "It is a contract for managing eazyVideo platform",
    "version": 1
  }
}