{
  "contractName": "eazyVideoNFTContract",
  "abi": [
    {
      "inputs": [],
      "stateMutability": "nonpayable",
      "type": "constructor"
    },
    {
      "anonymous": false,
      "inputs": [
        {
          "indexed": true,
          "internalType": "address",
          "name": "owner",
          "type": "address"
        },
        {
          "indexed": true,
          "internalType": "address",
          "name": "approved",
          "type": "address"
        },
        {
          "indexed": true,
          "internalType": "uint256",
          "name": "tokenId",
          "type": "uint256"
        }
      ],
      "name": "Approval",
      "type": "event"
    },
    {
      "anonymous": false,
      "inputs": [
        {
          "indexed": true,
          "internalType": "address",
          "name": "owner",
          "type": "address"
        },
        {
          "indexed": true,
          "internalType": "address",
          "name": "operator",
          "type": "address"
        },
        {
          "indexed": false,
          "internalType": "bool",
          "name": "approved",
          "type": "bool"
        }
      ],
      "name": "ApprovalForAll",
      "type": "event"
    },
    {
      "anonymous": false,
      "inputs": [
        {
          "indexed": true,
          "internalType": "address",
          "name": "from",
          "type": "address"
        },
        {
          "indexed": true,
          "internalType": "address",
          "name": "to",
          "type": "address"
        },
        {
          "indexed": true,
          "internalType": "uint256",
          "name": "tokenId",
          "type": "uint256"
        }
      ],
      "name": "Transfer",
      "type": "event"
    },
    {
      "anonymous": false,
      "inputs": [
        {
          "indexed": true,
          "internalType": "uint256",
          "name": "tokenId",
          "type": "uint256"
        },
        {
          "indexed": true,
          "internalType": "address",
          "name": "user",
          "type": "address"
        },
        {
          "indexed": false,
          "internalType": "uint64",
          "name": "expires",
          "type": "uint64"
        }
      ],
      "name": "UpdateUser",
      "type": "event"
    },
    {
      "inputs": [
        {
          "internalType": "address",
          "name": "to",
          "type": "address"
        },
        {
          "internalType": "uint256",
          "name": "tokenId",
          "type": "uint256"
        }
      ],
      "name": "approve",
      "outputs": [],
      "stateMutability": "nonpayable",
      "type": "function"
    },
    {
      "inputs": [
        {
          "internalType": "address",
          "name": "owner",
          "type": "address"
        }
      ],
      "name": "balanceOf",
      "outputs": [
        {
          "internalType": "uint256",
          "name": "",
          "type": "uint256"
        }
      ],
      "stateMutability": "view",
      "type": "function"
    },
    {
      "inputs": [
        {
          "internalType": "uint256",
          "name": "tokenId",
          "type": "uint256"
        }
      ],
      "name": "getApproved",
      "outputs": [
        {
          "internalType": "address",
          "name": "",
          "type": "address"
        }
      ],
      "stateMutability": "view",
      "type": "function"
    },
    {
      "inputs": [
        {
          "internalType": "address",
          "name": "owner",
          "type": "address"
        },
        {
          "internalType": "address",
          "name": "operator",
          "type": "address"
        }
      ],
      "name": "isApprovedForAll",
      "outputs": [
        {
          "internalType": "bool",
          "name": "",
          "type": "bool"
        }
      ],
      "stateMutability": "view",
      "type": "function"
    },
    {
      "inputs": [],
      "name": "name",
      "outputs": [
        {
          "internalType": "string",
          "name": "",
          "type": "string"
        }
      ],
      "stateMutability": "view",
      "type": "function"
    },
    {
      "inputs": [
        {
          "internalType": "uint256",
          "name": "tokenId",
          "type": "uint256"
        }
      ],
      "name": "ownerOf",
      "outputs": [
        {
          "internalType": "address",
          "name": "",
          "type": "address"
        }
      ],
      "stateMutability": "view",
      "type": "function"
    },
    {
      "inputs": [
        {
          "internalType": "address",
          "name": "from",
          "type": "address"
        },
        {
          "internalType": "address",
          "name": "to",
          "type": "address"
        },
        {
          "internalType": "uint256",
          "name": "tokenId",
          "type": "uint256"
        }
      ],
      "name": "safeTransferFrom",
      "outputs": [],
      "stateMutability": "nonpayable",
      "type": "function"
    },
    {
      "inputs": [
        {
          "internalType": "address",
          "name": "from",
          "type": "address"
        },
        {
          "internalType": "address",
          "name": "to",
          "type": "address"
        },
        {
          "internalType": "uint256",
          "name": "tokenId",
          "type": "uint256"
        },
        {
          "internalType": "bytes",
          "name": "data",
          "type": "bytes"
        }
      ],
      "name": "safeTransferFrom",
      "outputs": [],
      "stateMutability": "nonpayable",
      "type": "function"
    },
    {
      "inputs": [
        {
          "internalType": "address",
          "name": "operator",
          "type": "address"
        },
        {
          "internalType": "bool",
          "name": "approved",
          "type": "bool"
        }
      ],
      "name": "setApprovalForAll",
      "outputs": [],
      "stateMutability": "nonpayable",
      "type": "function"
    },
    {
      "inputs": [
        {
          "internalType": "uint256",
          "name": "tokenId",
          "type": "uint256"
        },
        {
          "internalType": "address",
          "name": "user",
          "type": "address"
        },
        {
          "internalType": "uint64",
          "name": "expires",
          "type": "uint64"
        }
      ],
      "name": "setUser",
      "outputs": [],
      "stateMutability": "nonpayable",
      "type": "function"
    },
    {
      "inputs": [
        {
          "internalType": "bytes4",
          "name": "interfaceId",
          "type": "bytes4"
        }
      ],
      "name": "supportsInterface",
      "outputs": [
        {
          "internalType": "bool",
          "name": "",
          "type": "bool"
        }
      ],
      "stateMutability": "view",
      "type": "function"
    },
    {
      "inputs": [],
      "name": "symbol",
      "outputs": [
        {
          "internalType": "string",
          "name": "",
          "type": "string"
        }
      ],
      "stateMutability": "view",
      "type": "function"
    },
    {
      "inputs": [
        {
          "internalType": "uint256",
          "name": "tokenId",
          "type": "uint256"
        }
      ],
      "name": "tokenURI",
      "outputs": [
        {
          "internalType": "string",
          "name": "",
          "type": "string"
        }
      ],
      "stateMutability": "view",
      "type": "function"
    },
    {
      "inputs": [],
      "name": "totalTokensMinted",
      "outputs": [
        {
          "internalType": "uint256",
          "name": "_value",
          "type": "uint256"
        }
      ],
      "stateMutability": "view",
      "type": "function"
    },
    {
      "inputs": [
        {
          "internalType": "address",
          "name": "from",
          "type": "address"
        },
        {
          "internalType": "address",
          "name": "to",
          "type": "address"
        },
        {
          "internalType": "uint256",
          "name": "tokenId",
          "type": "uint256"
        }
      ],
      "name": "transferFrom",
      "outputs": [],
      "stateMutability": "nonpayable",
      "type": "function"
    },
    {
      "inputs": [
        {
          "internalType": "uint256",
          "name": "tokenId",
          "type": "uint256"
        }
      ],
      "name": "userExpires",
      "outputs": [
        {
          "internalType": "uint256",
          "name": "",
          "type": "uint256"
        }
      ],
      "stateMutability": "view",
      "type": "function"
    },
    {
      "inputs": [
        {
          "internalType": "address",
          "name": "",
          "type": "address"
        },
        {
          "internalType": "uint256",
          "name": "",
          "type": "uint256"
        }
      ],
      "name": "userNFTItem",
      "outputs": [
        {
          "internalType": "string",
          "name": "serviceName",
          "type": "string"
        },
        {
          "internalType": "string",
          "name": "ImageUri",
          "type": "string"
        },
        {
          "internalType": "string",
          "name": "description",
          "type": "string"
        },
        {
          "internalType": "uint256",
          "name": "duration",
          "type": "uint256"
        },
        {
          "internalType": "uint64",
          "name": "endTime",
          "type": "uint64"
        },
        {
          "internalType": "uint256",
          "name": "price",
          "type": "uint256"
        },
        {
          "internalType": "address payable",
          "name": "owner",
          "type": "address"
        },
        {
          "internalType": "address payable",
          "name": "srviceProvider",
          "type": "address"
        }
      ],
      "stateMutability": "view",
      "type": "function"
    },
    {
      "inputs": [
        {
          "internalType": "uint256",
          "name": "tokenId",
          "type": "uint256"
        }
      ],
      "name": "userOf",
      "outputs": [
        {
          "internalType": "address",
          "name": "",
          "type": "address"
        }
      ],
      "stateMutability": "view",
      "type": "function"
    },
    {
      "inputs": [
        {
          "internalType": "string",
          "name": "_serviceName",
          "type": "string"
        },
        {
          "internalType": "string",
          "name": "_imageUri",
          "type": "string"
        },
        {
          "internalType": "string",
          "name": "_description",
          "type": "string"
        },
        {
          "internalType": "uint64",
          "name": "_duration",
          "type": "uint64"
        },
        {
          "internalType": "uint64",
          "name": "_endTime",
          "type": "uint64"
        },
        {
          "internalType": "uint256",
          "name": "_price",
          "type": "uint256"
        },
        {
          "internalType": "address",
          "name": "_owner",
          "type": "address"
        },
        {
          "internalType": "address",
          "name": "_serviceProvider",
          "type": "address"
        }
      ],
      "name": "mintNFT",
      "outputs": [],
      "stateMutability": "payable",
      "type": "function"
    },
    {
      "inputs": [
        {
          "internalType": "uint256",
          "name": "tokenID",
          "type": "uint256"
        },
        {
          "internalType": "uint256",
          "name": "_amount",
          "type": "uint256"
        },
        {
          "internalType": "uint64",
          "name": "_days",
          "type": "uint64"
        }
      ],
      "name": "rentNFT",
      "outputs": [],
      "stateMutability": "payable",
      "type": "function"
    },
    {
      "inputs": [],
      "name": "fetchAllUserNFTItems",
      "outputs": [
        {
          "components": [
            {
              "internalType": "string",
              "name": "serviceName",
              "type": "string"
            },
            {
              "internalType": "string",
              "name": "ImageUri",
              "type": "string"
            },
            {
              "internalType": "string",
              "name": "description",
              "type": "string"
            },
            {
              "internalType": "uint256",
              "name": "duration",
              "type": "uint256"
            },
            {
              "internalType": "uint64",
              "name": "endTime",
              "type": "uint64"
            },
            {
              "internalType": "uint256",
              "name": "price",
              "type": "uint256"
            },
            {
              "internalType": "address payable",
              "name": "owner",
              "type": "address"
            },
            {
              "internalType": "address payable",
              "name": "srviceProvider",
              "type": "address"
            }
          ],
          "internalType": "struct eazyVideoNFTContract.NFTItem[]",
          "name": "",
          "type": "tuple[]"
        }
      ],
      "stateMutability": "view",
      "type": "function"
    }
  ],
  "bytecode": "0x60806040523480156200001157600080fd5b506040518060400160405280600981526020017f65617a79566964656f00000000000000000000000000000000000000000000008152506040518060400160405280600481526020017f65617a7900000000000000000000000000000000000000000000000000000000815250818181600090805190602001906200009892919062000105565b508060019080519060200190620000b192919062000105565b5050505050600160078190555033600860006101000a81548173ffffffffffffffffffffffffffffffffffffffff021916908373ffffffffffffffffffffffffffffffffffffffff1602179055506200021a565b8280546200011390620001b5565b90600052602060002090601f01602090048101928262000137576000855562000183565b82601f106200015257805160ff191683800117855562000183565b8280016001018555821562000183579182015b828111156200018257825182559160200191906001019062000165565b5b50905062000192919062000196565b5090565b5b80821115620001b157600081600090555060010162000197565b5090565b60006002820490506001821680620001ce57607f821691505b60208210811415620001e557620001e4620001eb565b5b50919050565b7f4e487b7100000000000000000000000000000000000000000000000000000000600052602260045260246000fd5b613e1f806200022a6000396000f3fe60806040526004361061012a5760003560e01c80637d549e99116100ab578063a22cb4651161006f578063a22cb46514610403578063b88d4fde1461042c578063c2f1f14a14610455578063c87b56dd14610492578063e030565e146104cf578063e985e9c5146104f85761012a565b80637d549e99146103295780638fc88c481461035457806395d89b411461039157806397402651146103bc5780639bb4e273146103e75761012a565b806342842e0e116100f257806342842e0e146102265780635efb61721461024f5780636352211e1461026b57806370a08231146102a85780637a7e252c146102e55761012a565b806301ffc9a71461012f57806306fdde031461016c578063081812fc14610197578063095ea7b3146101d457806323b872dd146101fd575b600080fd5b34801561013b57600080fd5b5061015660048036038101906101519190612b6c565b610535565b60405161016391906132c0565b60405180910390f35b34801561017857600080fd5b506101816105af565b60405161018e91906132f6565b60405180910390f35b3480156101a357600080fd5b506101be60048036038101906101b99190612cb8565b610641565b6040516101cb9190613237565b60405180910390f35b3480156101e057600080fd5b506101fb60048036038101906101f69190612b30565b610687565b005b34801561020957600080fd5b50610224600480360381019061021f9190612a2a565b61079f565b005b34801561023257600080fd5b5061024d60048036038101906102489190612a2a565b6107ff565b005b61026960048036038101906102649190612d30565b61081f565b005b34801561027757600080fd5b50610292600480360381019061028d9190612cb8565b610957565b60405161029f9190613237565b60405180910390f35b3480156102b457600080fd5b506102cf60048036038101906102ca91906129c5565b610a09565b6040516102dc919061356b565b60405180910390f35b3480156102f157600080fd5b5061030c60048036038101906103079190612b30565b610ac1565b604051610320989796959493929190613318565b60405180910390f35b34801561033557600080fd5b5061033e610d12565b60405161034b919061356b565b60405180910390f35b34801561036057600080fd5b5061037b60048036038101906103769190612cb8565b610d1e565b604051610388919061356b565b60405180910390f35b34801561039d57600080fd5b506103a6610d5c565b6040516103b391906132f6565b60405180910390f35b3480156103c857600080fd5b506103d1610dee565b6040516103de919061329e565b60405180910390f35b61040160048036038101906103fc9190612bbe565b611133565b005b34801561040f57600080fd5b5061042a60048036038101906104259190612af4565b6115be565b005b34801561043857600080fd5b50610453600480360381019061044e9190612a79565b6115d4565b005b34801561046157600080fd5b5061047c60048036038101906104779190612cb8565b611636565b6040516104899190613237565b60405180910390f35b34801561049e57600080fd5b506104b960048036038101906104b49190612cb8565b6116bb565b6040516104c691906132f6565b60405180910390f35b3480156104db57600080fd5b506104f660048036038101906104f19190612ce1565b611723565b005b34801561050457600080fd5b5061051f600480360381019061051a91906129ee565b611846565b60405161052c91906132c0565b60405180910390f35b60007fad092b5c000000000000000000000000000000000000000000000000000000007bffffffffffffffffffffffffffffffffffffffffffffffffffffffff1916827bffffffffffffffffffffffffffffffffffffffffffffffffffffffff191614806105a857506105a7826118da565b5b9050919050565b6060600080546105be9061385e565b80601f01602080910402602001604051908101604052809291908181526020018280546105ea9061385e565b80156106375780601f1061060c57610100808354040283529160200191610637565b820191906000526020600020905b81548152906001019060200180831161061a57829003601f168201915b5050505050905090565b600061064c826119bc565b6004600083815260200190815260200160002060009054906101000a900473ffffffffffffffffffffffffffffffffffffffff169050919050565b600061069282610957565b90508073ffffffffffffffffffffffffffffffffffffffff168373ffffffffffffffffffffffffffffffffffffffff161415610703576040517f08c379a00000000000000000000000000000000000000000000000000000000081526004016106fa906134cb565b60405180910390fd5b8073ffffffffffffffffffffffffffffffffffffffff16610722611a07565b73ffffffffffffffffffffffffffffffffffffffff16148061075157506107508161074b611a07565b611846565b5b610790576040517f08c379a00000000000000000000000000000000000000000000000000000000081526004016107879061346b565b60405180910390fd5b61079a8383611a0f565b505050565b6107b06107aa611a07565b82611ac8565b6107ef576040517f08c379a00000000000000000000000000000000000000000000000000000000081526004016107e69061350b565b60405180910390fd5b6107fa838383611b5d565b505050565b61081a838383604051806020016040528060008152506115d4565b505050565b60026007541415610865576040517f08c379a000000000000000000000000000000000000000000000000000000000815260040161085c9061352b565b60405180910390fd5b6002600781905550610878833383611723565b600c600084815260200190815260200160002060060160009054906101000a900473ffffffffffffffffffffffffffffffffffffffff1673ffffffffffffffffffffffffffffffffffffffff166108fc839081150290604051600060405180830381858888f193505050501580156108f4573d6000803e3d6000fd5b5033600c600085815260200190815260200160002060060160006101000a81548173ffffffffffffffffffffffffffffffffffffffff021916908373ffffffffffffffffffffffffffffffffffffffff1602179055506001600781905550505050565b6000806002600084815260200190815260200160002060009054906101000a900473ffffffffffffffffffffffffffffffffffffffff169050600073ffffffffffffffffffffffffffffffffffffffff168173ffffffffffffffffffffffffffffffffffffffff161415610a00576040517f08c379a00000000000000000000000000000000000000000000000000000000081526004016109f7906134ab565b60405180910390fd5b80915050919050565b60008073ffffffffffffffffffffffffffffffffffffffff168273ffffffffffffffffffffffffffffffffffffffff161415610a7a576040517f08c379a0000000000000000000000000000000000000000000000000000000008152600401610a719061344b565b60405180910390fd5b600360008373ffffffffffffffffffffffffffffffffffffffff1673ffffffffffffffffffffffffffffffffffffffff168152602001908152602001600020549050919050565b600d6020528160005260406000208181548110610add57600080fd5b906000526020600020906008020160009150915050806000018054610b019061385e565b80601f0160208091040260200160405190810160405280929190818152602001828054610b2d9061385e565b8015610b7a5780601f10610b4f57610100808354040283529160200191610b7a565b820191906000526020600020905b815481529060010190602001808311610b5d57829003601f168201915b505050505090806001018054610b8f9061385e565b80601f0160208091040260200160405190810160405280929190818152602001828054610bbb9061385e565b8015610c085780601f10610bdd57610100808354040283529160200191610c08565b820191906000526020600020905b815481529060010190602001808311610beb57829003601f168201915b505050505090806002018054610c1d9061385e565b80601f0160208091040260200160405190810160405280929190818152602001828054610c499061385e565b8015610c965780601f10610c6b57610100808354040283529160200191610c96565b820191906000526020600020905b815481529060010190602001808311610c7957829003601f168201915b5050505050908060030154908060040160009054906101000a900467ffffffffffffffff16908060050154908060060160009054906101000a900473ffffffffffffffffffffffffffffffffffffffff16908060070160009054906101000a900473ffffffffffffffffffffffffffffffffffffffff16905088565b600b8060000154905081565b60006006600083815260200190815260200160002060000160149054906101000a900467ffffffffffffffff1667ffffffffffffffff169050919050565b606060018054610d6b9061385e565b80601f0160208091040260200160405190810160405280929190818152602001828054610d979061385e565b8015610de45780601f10610db957610100808354040283529160200191610de4565b820191906000526020600020905b815481529060010190602001808311610dc757829003601f168201915b5050505050905090565b6060600d60003373ffffffffffffffffffffffffffffffffffffffff1673ffffffffffffffffffffffffffffffffffffffff168152602001908152602001600020805480602002602001604051908101604052809291908181526020016000905b8282101561112a578382906000526020600020906008020160405180610100016040529081600082018054610e839061385e565b80601f0160208091040260200160405190810160405280929190818152602001828054610eaf9061385e565b8015610efc5780601f10610ed157610100808354040283529160200191610efc565b820191906000526020600020905b815481529060010190602001808311610edf57829003601f168201915b50505050508152602001600182018054610f159061385e565b80601f0160208091040260200160405190810160405280929190818152602001828054610f419061385e565b8015610f8e5780601f10610f6357610100808354040283529160200191610f8e565b820191906000526020600020905b815481529060010190602001808311610f7157829003601f168201915b50505050508152602001600282018054610fa79061385e565b80601f0160208091040260200160405190810160405280929190818152602001828054610fd39061385e565b80156110205780601f10610ff557610100808354040283529160200191611020565b820191906000526020600020905b81548152906001019060200180831161100357829003601f168201915b50505050508152602001600382015481526020016004820160009054906101000a900467ffffffffffffffff1667ffffffffffffffff1667ffffffffffffffff168152602001600582015481526020016006820160009054906101000a900473ffffffffffffffffffffffffffffffffffffffff1673ffffffffffffffffffffffffffffffffffffffff1673ffffffffffffffffffffffffffffffffffffffff1681526020016007820160009054906101000a900473ffffffffffffffffffffffffffffffffffffffff1673ffffffffffffffffffffffffffffffffffffffff1673ffffffffffffffffffffffffffffffffffffffff168152505081526020019060010190610e4f565b50505050905090565b60026007541415611179576040517f08c379a00000000000000000000000000000000000000000000000000000000081526004016111709061352b565b60405180910390fd5b6002600781905550600083116111c4576040517f08c379a00000000000000000000000000000000000000000000000000000000081526004016111bb9061354b565b60405180910390fd5b6111ce600a611dc4565b60006111da600a611dda565b90506111e68282611de8565b6111f1813387611723565b6040518061010001604052808a81526020018981526020018881526020018767ffffffffffffffff1681526020018667ffffffffffffffff1681526020018581526020018473ffffffffffffffffffffffffffffffffffffffff1681526020018373ffffffffffffffffffffffffffffffffffffffff16815250600c6000838152602001908152602001600020600082015181600001908051906020019061129a929190612747565b5060208201518160010190805190602001906112b7929190612747565b5060408201518160020190805190602001906112d4929190612747565b506060820151816003015560808201518160040160006101000a81548167ffffffffffffffff021916908367ffffffffffffffff16021790555060a0820151816005015560c08201518160060160006101000a81548173ffffffffffffffffffffffffffffffffffffffff021916908373ffffffffffffffffffffffffffffffffffffffff16021790555060e08201518160070160006101000a81548173ffffffffffffffffffffffffffffffffffffffff021916908373ffffffffffffffffffffffffffffffffffffffff160217905550905050600d60003373ffffffffffffffffffffffffffffffffffffffff1673ffffffffffffffffffffffffffffffffffffffff168152602001908152602001600020600c6000838152602001908152602001600020908060018154018082558091505060019003906000526020600020906008020160009091909190915060008201816000019080546114389061385e565b6114439291906127cd565b5060018201816001019080546114589061385e565b6114639291906127cd565b5060028201816002019080546114789061385e565b6114839291906127cd565b50600382015481600301556004820160009054906101000a900467ffffffffffffffff168160040160006101000a81548167ffffffffffffffff021916908367ffffffffffffffff160217905550600582015481600501556006820160009054906101000a900473ffffffffffffffffffffffffffffffffffffffff168160060160006101000a81548173ffffffffffffffffffffffffffffffffffffffff021916908373ffffffffffffffffffffffffffffffffffffffff1602179055506007820160009054906101000a900473ffffffffffffffffffffffffffffffffffffffff168160070160006101000a81548173ffffffffffffffffffffffffffffffffffffffff021916908373ffffffffffffffffffffffffffffffffffffffff16021790555050505060016007819055505050505050505050565b6115d06115c9611a07565b8383611fc2565b5050565b6115e56115df611a07565b83611ac8565b611624576040517f08c379a000000000000000000000000000000000000000000000000000000000815260040161161b9061350b565b60405180910390fd5b6116308484848461212f565b50505050565b6000426006600084815260200190815260200160002060000160149054906101000a900467ffffffffffffffff1667ffffffffffffffff16106116b1576006600083815260200190815260200160002060000160009054906101000a900473ffffffffffffffffffffffffffffffffffffffff1690506116b6565b600090505b919050565b60606116c6826119bc565b60006116d061218b565b905060008151116116f0576040518060200160405280600081525061171b565b806116fa846121a2565b60405160200161170b929190613213565b6040516020818303038152906040525b915050919050565b61172d3384611ac8565b61176c576040517f08c379a0000000000000000000000000000000000000000000000000000000008152600401611763906134eb565b60405180910390fd5b6000600660008581526020019081526020016000209050828160000160006101000a81548173ffffffffffffffffffffffffffffffffffffffff021916908373ffffffffffffffffffffffffffffffffffffffff160217905550818160000160146101000a81548167ffffffffffffffff021916908367ffffffffffffffff1602179055508273ffffffffffffffffffffffffffffffffffffffff16847f4e06b4e7000e659094299b3533b47b6aa8ad048e95e872d23d1f4ee55af89cfe846040516118389190613586565b60405180910390a350505050565b6000600560008473ffffffffffffffffffffffffffffffffffffffff1673ffffffffffffffffffffffffffffffffffffffff16815260200190815260200160002060008373ffffffffffffffffffffffffffffffffffffffff1673ffffffffffffffffffffffffffffffffffffffff16815260200190815260200160002060009054906101000a900460ff16905092915050565b60007f80ac58cd000000000000000000000000000000000000000000000000000000007bffffffffffffffffffffffffffffffffffffffffffffffffffffffff1916827bffffffffffffffffffffffffffffffffffffffffffffffffffffffff191614806119a557507f5b5e139f000000000000000000000000000000000000000000000000000000007bffffffffffffffffffffffffffffffffffffffffffffffffffffffff1916827bffffffffffffffffffffffffffffffffffffffffffffffffffffffff1916145b806119b557506119b48261234f565b5b9050919050565b6119c5816123b9565b611a04576040517f08c379a00000000000000000000000000000000000000000000000000000000081526004016119fb906134ab565b60405180910390fd5b50565b600033905090565b816004600083815260200190815260200160002060006101000a81548173ffffffffffffffffffffffffffffffffffffffff021916908373ffffffffffffffffffffffffffffffffffffffff160217905550808273ffffffffffffffffffffffffffffffffffffffff16611a8283610957565b73ffffffffffffffffffffffffffffffffffffffff167f8c5be1e5ebec7d5bd14f71427d1e84f3dd0314c0f7b2291e5b200ac8c7c3b92560405160405180910390a45050565b600080611ad483610957565b90508073ffffffffffffffffffffffffffffffffffffffff168473ffffffffffffffffffffffffffffffffffffffff161480611b165750611b158185611846565b5b80611b5457508373ffffffffffffffffffffffffffffffffffffffff16611b3c84610641565b73ffffffffffffffffffffffffffffffffffffffff16145b91505092915050565b8273ffffffffffffffffffffffffffffffffffffffff16611b7d82610957565b73ffffffffffffffffffffffffffffffffffffffff1614611bd3576040517f08c379a0000000000000000000000000000000000000000000000000000000008152600401611bca906133cb565b60405180910390fd5b600073ffffffffffffffffffffffffffffffffffffffff168273ffffffffffffffffffffffffffffffffffffffff161415611c43576040517f08c379a0000000000000000000000000000000000000000000000000000000008152600401611c3a9061340b565b60405180910390fd5b611c4e838383612425565b611c59600082611a0f565b6001600360008573ffffffffffffffffffffffffffffffffffffffff1673ffffffffffffffffffffffffffffffffffffffff1681526020019081526020016000206000828254611ca9919061373c565b925050819055506001600360008473ffffffffffffffffffffffffffffffffffffffff1673ffffffffffffffffffffffffffffffffffffffff1681526020019081526020016000206000828254611d0091906136b5565b92505081905550816002600083815260200190815260200160002060006101000a81548173ffffffffffffffffffffffffffffffffffffffff021916908373ffffffffffffffffffffffffffffffffffffffff160217905550808273ffffffffffffffffffffffffffffffffffffffff168473ffffffffffffffffffffffffffffffffffffffff167fddf252ad1be2c89b69c2b068fc378daa952ba7f163c4a11628f55a4df523b3ef60405160405180910390a4611dbf838383612583565b505050565b6001816000016000828254019250508190555050565b600081600001549050919050565b600073ffffffffffffffffffffffffffffffffffffffff168273ffffffffffffffffffffffffffffffffffffffff161415611e58576040517f08c379a0000000000000000000000000000000000000000000000000000000008152600401611e4f9061348b565b60405180910390fd5b611e61816123b9565b15611ea1576040517f08c379a0000000000000000000000000000000000000000000000000000000008152600401611e98906133eb565b60405180910390fd5b611ead60008383612425565b6001600360008473ffffffffffffffffffffffffffffffffffffffff1673ffffffffffffffffffffffffffffffffffffffff1681526020019081526020016000206000828254611efd91906136b5565b92505081905550816002600083815260200190815260200160002060006101000a81548173ffffffffffffffffffffffffffffffffffffffff021916908373ffffffffffffffffffffffffffffffffffffffff160217905550808273ffffffffffffffffffffffffffffffffffffffff16600073ffffffffffffffffffffffffffffffffffffffff167fddf252ad1be2c89b69c2b068fc378daa952ba7f163c4a11628f55a4df523b3ef60405160405180910390a4611fbe60008383612583565b5050565b8173ffffffffffffffffffffffffffffffffffffffff168373ffffffffffffffffffffffffffffffffffffffff161415612031576040517f08c379a00000000000000000000000000000000000000000000000000000000081526004016120289061342b565b60405180910390fd5b80600560008573ffffffffffffffffffffffffffffffffffffffff1673ffffffffffffffffffffffffffffffffffffffff16815260200190815260200160002060008473ffffffffffffffffffffffffffffffffffffffff1673ffffffffffffffffffffffffffffffffffffffff16815260200190815260200160002060006101000a81548160ff0219169083151502179055508173ffffffffffffffffffffffffffffffffffffffff168373ffffffffffffffffffffffffffffffffffffffff167f17307eab39ab6107e8899845ad3d59bd9653f200f220920489ca2b5937696c318360405161212291906132c0565b60405180910390a3505050565b61213a848484611b5d565b61214684848484612588565b612185576040517f08c379a000000000000000000000000000000000000000000000000000000000815260040161217c906133ab565b60405180910390fd5b50505050565b606060405180602001604052806000815250905090565b606060008214156121ea576040518060400160405280600181526020017f3000000000000000000000000000000000000000000000000000000000000000815250905061234a565b600082905060005b6000821461221c578080612205906138c1565b915050600a82612215919061370b565b91506121f2565b60008167ffffffffffffffff81111561225e577f4e487b7100000000000000000000000000000000000000000000000000000000600052604160045260246000fd5b6040519080825280601f01601f1916602001820160405280156122905781602001600182028036833780820191505090505b5090505b60008514612343576001826122a9919061373c565b9150600a856122b8919061390a565b60306122c491906136b5565b60f81b818381518110612300577f4e487b7100000000000000000000000000000000000000000000000000000000600052603260045260246000fd5b60200101907effffffffffffffffffffffffffffffffffffffffffffffffffffffffffffff1916908160001a905350600a8561233c919061370b565b9450612294565b8093505050505b919050565b60007f01ffc9a7000000000000000000000000000000000000000000000000000000007bffffffffffffffffffffffffffffffffffffffffffffffffffffffff1916827bffffffffffffffffffffffffffffffffffffffffffffffffffffffff1916149050919050565b60008073ffffffffffffffffffffffffffffffffffffffff166002600084815260200190815260200160002060009054906101000a900473ffffffffffffffffffffffffffffffffffffffff1673ffffffffffffffffffffffffffffffffffffffff1614159050919050565b61243083838361271f565b8173ffffffffffffffffffffffffffffffffffffffff168373ffffffffffffffffffffffffffffffffffffffff16141580156124cf5750600073ffffffffffffffffffffffffffffffffffffffff166006600083815260200190815260200160002060000160009054906101000a900473ffffffffffffffffffffffffffffffffffffffff1673ffffffffffffffffffffffffffffffffffffffff1614155b1561257e5760066000828152602001908152602001600020600080820160006101000a81549073ffffffffffffffffffffffffffffffffffffffff02191690556000820160146101000a81549067ffffffffffffffff02191690555050600073ffffffffffffffffffffffffffffffffffffffff16817f4e06b4e7000e659094299b3533b47b6aa8ad048e95e872d23d1f4ee55af89cfe600060405161257591906132db565b60405180910390a35b505050565b505050565b60006125a98473ffffffffffffffffffffffffffffffffffffffff16612724565b15612712578373ffffffffffffffffffffffffffffffffffffffff1663150b7a026125d2611a07565b8786866040518563ffffffff1660e01b81526004016125f49493929190613252565b602060405180830381600087803b15801561260e57600080fd5b505af192505050801561263f57506040513d601f19601f8201168201806040525081019061263c9190612b95565b60015b6126c2573d806000811461266f576040519150601f19603f3d011682016040523d82523d6000602084013e612674565b606091505b506000815114156126ba576040517f08c379a00000000000000000000000000000000000000000000000000000000081526004016126b1906133ab565b60405180910390fd5b805181602001fd5b63150b7a0260e01b7bffffffffffffffffffffffffffffffffffffffffffffffffffffffff1916817bffffffffffffffffffffffffffffffffffffffffffffffffffffffff191614915050612717565b600190505b949350505050565b505050565b6000808273ffffffffffffffffffffffffffffffffffffffff163b119050919050565b8280546127539061385e565b90600052602060002090601f01602090048101928261277557600085556127bc565b82601f1061278e57805160ff19168380011785556127bc565b828001600101855582156127bc579182015b828111156127bb5782518255916020019190600101906127a0565b5b5090506127c9919061285a565b5090565b8280546127d99061385e565b90600052602060002090601f0160209004810192826127fb5760008555612849565b82601f1061280c5780548555612849565b8280016001018555821561284957600052602060002091601f016020900482015b8281111561284857825482559160010191906001019061282d565b5b509050612856919061285a565b5090565b5b8082111561287357600081600090555060010161285b565b5090565b600061288a612885846135c6565b6135a1565b9050828152602081018484840111156128a257600080fd5b6128ad84828561381c565b509392505050565b60006128c86128c3846135f7565b6135a1565b9050828152602081018484840111156128e057600080fd5b6128eb84828561381c565b509392505050565b60008135905061290281613d76565b92915050565b60008135905061291781613d8d565b92915050565b60008135905061292c81613da4565b92915050565b60008151905061294181613da4565b92915050565b600082601f83011261295857600080fd5b8135612968848260208601612877565b91505092915050565b600082601f83011261298257600080fd5b81356129928482602086016128b5565b91505092915050565b6000813590506129aa81613dbb565b92915050565b6000813590506129bf81613dd2565b92915050565b6000602082840312156129d757600080fd5b60006129e5848285016128f3565b91505092915050565b60008060408385031215612a0157600080fd5b6000612a0f858286016128f3565b9250506020612a20858286016128f3565b9150509250929050565b600080600060608486031215612a3f57600080fd5b6000612a4d868287016128f3565b9350506020612a5e868287016128f3565b9250506040612a6f8682870161299b565b9150509250925092565b60008060008060808587031215612a8f57600080fd5b6000612a9d878288016128f3565b9450506020612aae878288016128f3565b9350506040612abf8782880161299b565b925050606085013567ffffffffffffffff811115612adc57600080fd5b612ae887828801612947565b91505092959194509250565b60008060408385031215612b0757600080fd5b6000612b15858286016128f3565b9250506020612b2685828601612908565b9150509250929050565b60008060408385031215612b4357600080fd5b6000612b51858286016128f3565b9250506020612b628582860161299b565b9150509250929050565b600060208284031215612b7e57600080fd5b6000612b8c8482850161291d565b91505092915050565b600060208284031215612ba757600080fd5b6000612bb584828501612932565b91505092915050565b600080600080600080600080610100898b031215612bdb57600080fd5b600089013567ffffffffffffffff811115612bf557600080fd5b612c018b828c01612971565b985050602089013567ffffffffffffffff811115612c1e57600080fd5b612c2a8b828c01612971565b975050604089013567ffffffffffffffff811115612c4757600080fd5b612c538b828c01612971565b9650506060612c648b828c016129b0565b9550506080612c758b828c016129b0565b94505060a0612c868b828c0161299b565b93505060c0612c978b828c016128f3565b92505060e0612ca88b828c016128f3565b9150509295985092959890939650565b600060208284031215612cca57600080fd5b6000612cd88482850161299b565b91505092915050565b600080600060608486031215612cf657600080fd5b6000612d048682870161299b565b9350506020612d15868287016128f3565b9250506040612d26868287016129b0565b9150509250925092565b600080600060608486031215612d4557600080fd5b6000612d538682870161299b565b9350506020612d648682870161299b565b9250506040612d75868287016129b0565b9150509250925092565b6000612d8b8383613119565b905092915050565b612d9c81613782565b82525050565b612dab81613782565b82525050565b612dba81613770565b82525050565b6000612dcb82613638565b612dd58185613666565b935083602082028501612de785613628565b8060005b85811015612e235784840389528151612e048582612d7f565b9450612e0f83613659565b925060208a01995050600181019050612deb565b50829750879550505050505092915050565b612e3e81613794565b82525050565b6000612e4f82613643565b612e598185613677565b9350612e6981856020860161382b565b612e72816139f7565b840191505092915050565b612e868161380a565b82525050565b6000612e978261364e565b612ea18185613688565b9350612eb181856020860161382b565b612eba816139f7565b840191505092915050565b6000612ed08261364e565b612eda8185613699565b9350612eea81856020860161382b565b612ef3816139f7565b840191505092915050565b6000612f098261364e565b612f1381856136aa565b9350612f2381856020860161382b565b80840191505092915050565b6000612f3c603283613699565b9150612f4782613a08565b604082019050919050565b6000612f5f602583613699565b9150612f6a82613a57565b604082019050919050565b6000612f82601c83613699565b9150612f8d82613aa6565b602082019050919050565b6000612fa5602483613699565b9150612fb082613acf565b604082019050919050565b6000612fc8601983613699565b9150612fd382613b1e565b602082019050919050565b6000612feb602983613699565b9150612ff682613b47565b604082019050919050565b600061300e603e83613699565b915061301982613b96565b604082019050919050565b6000613031602083613699565b915061303c82613be5565b602082019050919050565b6000613054601883613699565b915061305f82613c0e565b602082019050919050565b6000613077602183613699565b915061308282613c37565b604082019050919050565b600061309a603183613699565b91506130a582613c86565b604082019050919050565b60006130bd602e83613699565b91506130c882613cd5565b604082019050919050565b60006130e0601f83613699565b91506130eb82613d24565b602082019050919050565b6000613103601c83613699565b915061310e82613d4d565b602082019050919050565b60006101008301600083015184820360008601526131378282612e8c565b915050602083015184820360208601526131518282612e8c565b9150506040830151848203604086015261316b8282612e8c565b915050606083015161318060608601826131d7565b50608083015161319360808601826131f5565b5060a08301516131a660a08601826131d7565b5060c08301516131b960c0860182612d93565b5060e08301516131cc60e0860182612d93565b508091505092915050565b6131e0816137ec565b82525050565b6131ef816137ec565b82525050565b6131fe816137f6565b82525050565b61320d816137f6565b82525050565b600061321f8285612efe565b915061322b8284612efe565b91508190509392505050565b600060208201905061324c6000830184612db1565b92915050565b60006080820190506132676000830187612db1565b6132746020830186612db1565b61328160408301856131e6565b81810360608301526132938184612e44565b905095945050505050565b600060208201905081810360008301526132b88184612dc0565b905092915050565b60006020820190506132d56000830184612e35565b92915050565b60006020820190506132f06000830184612e7d565b92915050565b600060208201905081810360008301526133108184612ec5565b905092915050565b6000610100820190508181036000830152613333818b612ec5565b90508181036020830152613347818a612ec5565b9050818103604083015261335b8189612ec5565b905061336a60608301886131e6565b6133776080830187613204565b61338460a08301866131e6565b61339160c0830185612da2565b61339e60e0830184612da2565b9998505050505050505050565b600060208201905081810360008301526133c481612f2f565b9050919050565b600060208201905081810360008301526133e481612f52565b9050919050565b6000602082019050818103600083015261340481612f75565b9050919050565b6000602082019050818103600083015261342481612f98565b9050919050565b6000602082019050818103600083015261344481612fbb565b9050919050565b6000602082019050818103600083015261346481612fde565b9050919050565b6000602082019050818103600083015261348481613001565b9050919050565b600060208201905081810360008301526134a481613024565b9050919050565b600060208201905081810360008301526134c481613047565b9050919050565b600060208201905081810360008301526134e48161306a565b9050919050565b600060208201905081810360008301526135048161308d565b9050919050565b60006020820190508181036000830152613524816130b0565b9050919050565b60006020820190508181036000830152613544816130d3565b9050919050565b60006020820190508181036000830152613564816130f6565b9050919050565b600060208201905061358060008301846131e6565b92915050565b600060208201905061359b6000830184613204565b92915050565b60006135ab6135bc565b90506135b78282613890565b919050565b6000604051905090565b600067ffffffffffffffff8211156135e1576135e06139c8565b5b6135ea826139f7565b9050602081019050919050565b600067ffffffffffffffff821115613612576136116139c8565b5b61361b826139f7565b9050602081019050919050565b6000819050602082019050919050565b600081519050919050565b600081519050919050565b600081519050919050565b6000602082019050919050565b600082825260208201905092915050565b600082825260208201905092915050565b600082825260208201905092915050565b600082825260208201905092915050565b600081905092915050565b60006136c0826137ec565b91506136cb836137ec565b9250827fffffffffffffffffffffffffffffffffffffffffffffffffffffffffffffffff03821115613700576136ff61393b565b5b828201905092915050565b6000613716826137ec565b9150613721836137ec565b9250826137315761373061396a565b5b828204905092915050565b6000613747826137ec565b9150613752836137ec565b9250828210156137655761376461393b565b5b828203905092915050565b600061377b826137cc565b9050919050565b600061378d826137cc565b9050919050565b60008115159050919050565b60007fffffffff0000000000000000000000000000000000000000000000000000000082169050919050565b600073ffffffffffffffffffffffffffffffffffffffff82169050919050565b6000819050919050565b600067ffffffffffffffff82169050919050565b6000613815826137f6565b9050919050565b82818337600083830152505050565b60005b8381101561384957808201518184015260208101905061382e565b83811115613858576000848401525b50505050565b6000600282049050600182168061387657607f821691505b6020821081141561388a57613889613999565b5b50919050565b613899826139f7565b810181811067ffffffffffffffff821117156138b8576138b76139c8565b5b80604052505050565b60006138cc826137ec565b91507fffffffffffffffffffffffffffffffffffffffffffffffffffffffffffffffff8214156138ff576138fe61393b565b5b600182019050919050565b6000613915826137ec565b9150613920836137ec565b9250826139305761392f61396a565b5b828206905092915050565b7f4e487b7100000000000000000000000000000000000000000000000000000000600052601160045260246000fd5b7f4e487b7100000000000000000000000000000000000000000000000000000000600052601260045260246000fd5b7f4e487b7100000000000000000000000000000000000000000000000000000000600052602260045260246000fd5b7f4e487b7100000000000000000000000000000000000000000000000000000000600052604160045260246000fd5b6000601f19601f8301169050919050565b7f4552433732313a207472616e7366657220746f206e6f6e20455243373231526560008201527f63656976657220696d706c656d656e7465720000000000000000000000000000602082015250565b7f4552433732313a207472616e736665722066726f6d20696e636f72726563742060008201527f6f776e6572000000000000000000000000000000000000000000000000000000602082015250565b7f4552433732313a20746f6b656e20616c7265616479206d696e74656400000000600082015250565b7f4552433732313a207472616e7366657220746f20746865207a65726f2061646460008201527f7265737300000000000000000000000000000000000000000000000000000000602082015250565b7f4552433732313a20617070726f766520746f2063616c6c657200000000000000600082015250565b7f4552433732313a2061646472657373207a65726f206973206e6f74206120766160008201527f6c6964206f776e65720000000000000000000000000000000000000000000000602082015250565b7f4552433732313a20617070726f76652063616c6c6572206973206e6f7420746f60008201527f6b656e206f776e6572206e6f7220617070726f76656420666f7220616c6c0000602082015250565b7f4552433732313a206d696e7420746f20746865207a65726f2061646472657373600082015250565b7f4552433732313a20696e76616c696420746f6b656e2049440000000000000000600082015250565b7f4552433732313a20617070726f76616c20746f2063757272656e74206f776e6560008201527f7200000000000000000000000000000000000000000000000000000000000000602082015250565b7f4552433732313a207472616e736665722063616c6c6572206973206e6f74206f60008201527f776e6572206e6f7220617070726f766564000000000000000000000000000000602082015250565b7f4552433732313a2063616c6c6572206973206e6f7420746f6b656e206f776e6560008201527f72206e6f7220617070726f766564000000000000000000000000000000000000602082015250565b7f5265656e7472616e637947756172643a207265656e7472616e742063616c6c00600082015250565b7f5072696365206d757374206265206174206c6561737420312077656900000000600082015250565b613d7f81613770565b8114613d8a57600080fd5b50565b613d9681613794565b8114613da157600080fd5b50565b613dad816137a0565b8114613db857600080fd5b50565b613dc4816137ec565b8114613dcf57600080fd5b50565b613ddb816137f6565b8114613de657600080fd5b5056fea26469706673582212207a9d81e32bb46d3ec8f1570569bb9a410b8361cf3b234ae785542ac29c6f6d2664736f6c63430008040033",
  "immutableReferences": {},
  "source": "// SPDX-License-Identifier: MIT\r\npragma solidity ^0.8.1;\r\n\r\nimport \"@openzeppelin/contracts/security/ReentrancyGuard.sol\";\r\nimport \"@openzeppelin/contracts/utils/Counters.sol\";\r\nimport \"./ERC4907.sol\";\r\n\r\ncontract eazyVideoNFTContract is ERC4907, ReentrancyGuard {\r\n    using Counters for Counters.Counter;\r\n\r\n    address owner;\r\n\r\n    mapping(uint256 => address payable) nftOwner;\r\n\r\n    Counters.Counter tID;\r\n\r\n    Counters.Counter public totalTokensMinted;\r\n\r\n    constructor() ERC4907(\"eazyVideo\", \"eazy\") {\r\n        owner = payable(msg.sender);\r\n    }\r\n\r\n    struct NFTItem {\r\n        string serviceName;\r\n        string ImageUri;\r\n        string description;\r\n        uint256 duration;\r\n        uint64 endTime;\r\n        uint256 price;\r\n        address payable owner;\r\n        address payable srviceProvider;\r\n    }\r\n\r\n    mapping(uint256 => NFTItem) private idToNftItem;\r\n    mapping(address => NFTItem[]) public userNFTItem;\r\n\r\n    function mintNFT(\r\n        string memory _serviceName,\r\n        string memory _imageUri,\r\n        string memory _description,\r\n        uint64 _duration,\r\n        uint64 _endTime,\r\n        uint256 _price,\r\n        address _owner,\r\n        address _serviceProvider\r\n    ) public payable nonReentrant {\r\n        require(_price > 0, \"Price must be at least 1 wei\");\r\n        tID.increment();\r\n        uint256 tokenID = tID.current();\r\n        _mint(_serviceProvider, tokenID);\r\n        setUser(tokenID, msg.sender, _endTime);\r\n\r\n        idToNftItem[tokenID] = NFTItem(\r\n            _serviceName,\r\n            _imageUri,\r\n            _description,\r\n            _duration,\r\n            _endTime,\r\n            _price,\r\n            payable(_owner),\r\n            payable(_serviceProvider)\r\n        );\r\n\r\n        userNFTItem[msg.sender].push(idToNftItem[tokenID]);\r\n    }\r\n\r\n    function rentNFT(\r\n        uint256 tokenID,\r\n        uint256 _amount,\r\n        uint64 _days\r\n    ) public payable nonReentrant {\r\n        setUser(tokenID, msg.sender, _days);\r\n        payable(idToNftItem[tokenID].owner).transfer(_amount);\r\n        idToNftItem[tokenID].owner = payable(msg.sender);\r\n    }\r\n\r\n    function fetchAllUserNFTItems() public view returns (NFTItem[] memory) {\r\n        return userNFTItem[msg.sender];\r\n    }\r\n}\r\n",
  "sourcePath": "C:/Users/hardi/Desktop/EazyVideo/truffle/contracts/nft.sol",
  "compiler": {
    "name": "solc",
    "version": "0.8.4+commit.c7e474f2.Emscripten.clang"
  },
  "schemaVersion": "3.4.0",
  "updatedAt": "2022-07-24T10:06:02.703Z",
  "devdoc": {
    "kind": "dev",
    "methods": {
      "approve(address,uint256)": {
        "details": "See {IERC721-approve}."
      },
      "balanceOf(address)": {
        "details": "See {IERC721-balanceOf}."
      },
      "getApproved(uint256)": {
        "details": "See {IERC721-getApproved}."
      },
      "isApprovedForAll(address,address)": {
        "details": "See {IERC721-isApprovedForAll}."
      },
      "name()": {
        "details": "See {IERC721Metadata-name}."
      },
      "ownerOf(uint256)": {
        "details": "See {IERC721-ownerOf}."
      },
      "safeTransferFrom(address,address,uint256)": {
        "details": "See {IERC721-safeTransferFrom}."
      },
      "safeTransferFrom(address,address,uint256,bytes)": {
        "details": "See {IERC721-safeTransferFrom}."
      },
      "setApprovalForAll(address,bool)": {
        "details": "See {IERC721-setApprovalForAll}."
      },
      "setUser(uint256,address,uint64)": {
        "details": "The zero address indicates there is no user Throws if `tokenId` is not valid NFT",
        "params": {
          "expires": "UNIX timestamp, The new user could use the NFT before expires",
          "user": "The new user of the NFT"
        }
      },
      "supportsInterface(bytes4)": {
        "details": "See {IERC165-supportsInterface}."
      },
      "symbol()": {
        "details": "See {IERC721Metadata-symbol}."
      },
      "tokenURI(uint256)": {
        "details": "See {IERC721Metadata-tokenURI}."
      },
      "transferFrom(address,address,uint256)": {
        "details": "See {IERC721-transferFrom}."
      },
      "userExpires(uint256)": {
        "details": "The zero value indicates that there is no user",
        "params": {
          "tokenId": "The NFT to get the user expires for"
        },
        "returns": {
          "_0": "The user expires for this NFT"
        }
      },
      "userOf(uint256)": {
        "details": "The zero address indicates that there is no user or the user is expired",
        "params": {
          "tokenId": "The NFT to get the user address for"
        },
        "returns": {
          "_0": "The user address for this NFT"
        }
      }
    },
    "version": 1
  },
  "userdoc": {
    "events": {
      "UpdateUser(uint256,address,uint64)": {
        "notice": "Emitted when the `user` of an NFT or the `expires` of the `user` is changed The zero address for user indicates that there is no user address"
      }
    },
    "kind": "user",
    "methods": {
      "setUser(uint256,address,uint64)": {
        "notice": "set the user and expires of a NFT"
      },
      "userExpires(uint256)": {
        "notice": "Get the user expires of an NFT"
      },
      "userOf(uint256)": {
        "notice": "Get the user address of an NFT"
      }
    },
    "version": 1
  }
}