{
  "contractName": "EazyVideo",
  "abi": [
    {
      "inputs": [
        {
          "internalType": "address",
          "name": "_ERC4907ContractAddress",
          "type": "address"
        }
      ],
      "stateMutability": "nonpayable",
      "type": "constructor"
    },
    {
      "anonymous": false,
      "inputs": [
        {
          "indexed": true,
          "internalType": "address",
          "name": "owner",
          "type": "address"
        },
        {
          "indexed": true,
          "internalType": "address",
          "name": "approved",
          "type": "address"
        },
        {
          "indexed": true,
          "internalType": "uint256",
          "name": "tokenId",
          "type": "uint256"
        }
      ],
      "name": "Approval",
      "type": "event"
    },
    {
      "anonymous": false,
      "inputs": [
        {
          "indexed": true,
          "internalType": "address",
          "name": "owner",
          "type": "address"
        },
        {
          "indexed": true,
          "internalType": "address",
          "name": "operator",
          "type": "address"
        },
        {
          "indexed": false,
          "internalType": "bool",
          "name": "approved",
          "type": "bool"
        }
      ],
      "name": "ApprovalForAll",
      "type": "event"
    },
    {
      "anonymous": false,
      "inputs": [
        {
          "indexed": true,
          "internalType": "address",
          "name": "from",
          "type": "address"
        },
        {
          "indexed": true,
          "internalType": "address",
          "name": "to",
          "type": "address"
        },
        {
          "indexed": true,
          "internalType": "uint256",
          "name": "tokenId",
          "type": "uint256"
        }
      ],
      "name": "Transfer",
      "type": "event"
    },
    {
      "anonymous": false,
      "inputs": [
        {
          "indexed": true,
          "internalType": "uint256",
          "name": "tokenId",
          "type": "uint256"
        },
        {
          "indexed": true,
          "internalType": "address",
          "name": "user",
          "type": "address"
        },
        {
          "indexed": false,
          "internalType": "uint64",
          "name": "expires",
          "type": "uint64"
        }
      ],
      "name": "UpdateUser",
      "type": "event"
    },
    {
      "inputs": [
        {
          "internalType": "address",
          "name": "",
          "type": "address"
        }
      ],
      "name": "accountType",
      "outputs": [
        {
          "internalType": "uint256",
          "name": "",
          "type": "uint256"
        }
      ],
      "stateMutability": "view",
      "type": "function",
      "constant": true
    },
    {
      "inputs": [
        {
          "internalType": "address",
          "name": "to",
          "type": "address"
        },
        {
          "internalType": "uint256",
          "name": "tokenId",
          "type": "uint256"
        }
      ],
      "name": "approve",
      "outputs": [],
      "stateMutability": "nonpayable",
      "type": "function"
    },
    {
      "inputs": [
        {
          "internalType": "address",
          "name": "owner",
          "type": "address"
        }
      ],
      "name": "balanceOf",
      "outputs": [
        {
          "internalType": "uint256",
          "name": "",
          "type": "uint256"
        }
      ],
      "stateMutability": "view",
      "type": "function",
      "constant": true
    },
    {
      "inputs": [],
      "name": "fetchAllUserNFTItems",
      "outputs": [
        {
          "components": [
            {
              "internalType": "string",
              "name": "serviceName",
              "type": "string"
            },
            {
              "internalType": "string",
              "name": "ImageUri",
              "type": "string"
            },
            {
              "internalType": "string",
              "name": "description",
              "type": "string"
            },
            {
              "internalType": "uint256",
              "name": "duration",
              "type": "uint256"
            },
            {
              "internalType": "uint64",
              "name": "endTime",
              "type": "uint64"
            },
            {
              "internalType": "uint256",
              "name": "price",
              "type": "uint256"
            },
            {
              "internalType": "address payable",
              "name": "owner",
              "type": "address"
            },
            {
              "internalType": "address payable",
              "name": "srviceProvider",
              "type": "address"
            }
          ],
          "internalType": "struct eazyVideoNFTContract.NFTItem[]",
          "name": "",
          "type": "tuple[]"
        }
      ],
      "stateMutability": "view",
      "type": "function",
      "constant": true
    },
    {
      "inputs": [
        {
          "internalType": "uint256",
          "name": "tokenId",
          "type": "uint256"
        }
      ],
      "name": "getApproved",
      "outputs": [
        {
          "internalType": "address",
          "name": "",
          "type": "address"
        }
      ],
      "stateMutability": "view",
      "type": "function",
      "constant": true
    },
    {
      "inputs": [
        {
          "internalType": "address",
          "name": "owner",
          "type": "address"
        },
        {
          "internalType": "address",
          "name": "operator",
          "type": "address"
        }
      ],
      "name": "isApprovedForAll",
      "outputs": [
        {
          "internalType": "bool",
          "name": "",
          "type": "bool"
        }
      ],
      "stateMutability": "view",
      "type": "function",
      "constant": true
    },
    {
      "inputs": [
        {
          "internalType": "string",
          "name": "_serviceName",
          "type": "string"
        },
        {
          "internalType": "string",
          "name": "_imageUri",
          "type": "string"
        },
        {
          "internalType": "string",
          "name": "_description",
          "type": "string"
        },
        {
          "internalType": "uint64",
          "name": "_duration",
          "type": "uint64"
        },
        {
          "internalType": "uint64",
          "name": "_endTime",
          "type": "uint64"
        },
        {
          "internalType": "uint256",
          "name": "_price",
          "type": "uint256"
        },
        {
          "internalType": "address",
          "name": "_owner",
          "type": "address"
        },
        {
          "internalType": "address",
          "name": "_serviceProvider",
          "type": "address"
        }
      ],
      "name": "mintNFT",
      "outputs": [],
      "stateMutability": "payable",
      "type": "function",
      "payable": true
    },
    {
      "inputs": [],
      "name": "name",
      "outputs": [
        {
          "internalType": "string",
          "name": "",
          "type": "string"
        }
      ],
      "stateMutability": "view",
      "type": "function",
      "constant": true
    },
    {
      "inputs": [
        {
          "internalType": "uint256",
          "name": "tokenId",
          "type": "uint256"
        }
      ],
      "name": "ownerOf",
      "outputs": [
        {
          "internalType": "address",
          "name": "",
          "type": "address"
        }
      ],
      "stateMutability": "view",
      "type": "function",
      "constant": true
    },
    {
      "inputs": [
        {
          "internalType": "uint256",
          "name": "tokenID",
          "type": "uint256"
        },
        {
          "internalType": "uint256",
          "name": "_amount",
          "type": "uint256"
        },
        {
          "internalType": "uint64",
          "name": "_days",
          "type": "uint64"
        }
      ],
      "name": "rentNFT",
      "outputs": [],
      "stateMutability": "payable",
      "type": "function",
      "payable": true
    },
    {
      "inputs": [
        {
          "internalType": "address",
          "name": "from",
          "type": "address"
        },
        {
          "internalType": "address",
          "name": "to",
          "type": "address"
        },
        {
          "internalType": "uint256",
          "name": "tokenId",
          "type": "uint256"
        }
      ],
      "name": "safeTransferFrom",
      "outputs": [],
      "stateMutability": "nonpayable",
      "type": "function"
    },
    {
      "inputs": [
        {
          "internalType": "address",
          "name": "from",
          "type": "address"
        },
        {
          "internalType": "address",
          "name": "to",
          "type": "address"
        },
        {
          "internalType": "uint256",
          "name": "tokenId",
          "type": "uint256"
        },
        {
          "internalType": "bytes",
          "name": "data",
          "type": "bytes"
        }
      ],
      "name": "safeTransferFrom",
      "outputs": [],
      "stateMutability": "nonpayable",
      "type": "function"
    },
    {
      "inputs": [
        {
          "internalType": "uint256",
          "name": "",
          "type": "uint256"
        }
      ],
      "name": "services",
      "outputs": [
        {
          "internalType": "string",
          "name": "name",
          "type": "string"
        },
        {
          "internalType": "string",
          "name": "ImageUri",
          "type": "string"
        },
        {
          "internalType": "string",
          "name": "description",
          "type": "string"
        },
        {
          "internalType": "uint64",
          "name": "planDuration",
          "type": "uint64"
        },
        {
          "internalType": "uint256",
          "name": "price",
          "type": "uint256"
        }
      ],
      "stateMutability": "view",
      "type": "function",
      "constant": true
    },
    {
      "inputs": [
        {
          "internalType": "address",
          "name": "operator",
          "type": "address"
        },
        {
          "internalType": "bool",
          "name": "approved",
          "type": "bool"
        }
      ],
      "name": "setApprovalForAll",
      "outputs": [],
      "stateMutability": "nonpayable",
      "type": "function"
    },
    {
      "inputs": [
        {
          "internalType": "uint256",
          "name": "tokenId",
          "type": "uint256"
        },
        {
          "internalType": "address",
          "name": "user",
          "type": "address"
        },
        {
          "internalType": "uint64",
          "name": "expires",
          "type": "uint64"
        }
      ],
      "name": "setUser",
      "outputs": [],
      "stateMutability": "nonpayable",
      "type": "function"
    },
    {
      "inputs": [
        {
          "internalType": "bytes4",
          "name": "interfaceId",
          "type": "bytes4"
        }
      ],
      "name": "supportsInterface",
      "outputs": [
        {
          "internalType": "bool",
          "name": "",
          "type": "bool"
        }
      ],
      "stateMutability": "view",
      "type": "function",
      "constant": true
    },
    {
      "inputs": [],
      "name": "symbol",
      "outputs": [
        {
          "internalType": "string",
          "name": "",
          "type": "string"
        }
      ],
      "stateMutability": "view",
      "type": "function",
      "constant": true
    },
    {
      "inputs": [
        {
          "internalType": "uint256",
          "name": "tokenId",
          "type": "uint256"
        }
      ],
      "name": "tokenURI",
      "outputs": [
        {
          "internalType": "string",
          "name": "",
          "type": "string"
        }
      ],
      "stateMutability": "view",
      "type": "function",
      "constant": true
    },
    {
      "inputs": [],
      "name": "totalTokensMinted",
      "outputs": [
        {
          "internalType": "uint256",
          "name": "_value",
          "type": "uint256"
        }
      ],
      "stateMutability": "view",
      "type": "function",
      "constant": true
    },
    {
      "inputs": [
        {
          "internalType": "address",
          "name": "from",
          "type": "address"
        },
        {
          "internalType": "address",
          "name": "to",
          "type": "address"
        },
        {
          "internalType": "uint256",
          "name": "tokenId",
          "type": "uint256"
        }
      ],
      "name": "transferFrom",
      "outputs": [],
      "stateMutability": "nonpayable",
      "type": "function"
    },
    {
      "inputs": [
        {
          "internalType": "uint256",
          "name": "tokenId",
          "type": "uint256"
        }
      ],
      "name": "userExpires",
      "outputs": [
        {
          "internalType": "uint256",
          "name": "",
          "type": "uint256"
        }
      ],
      "stateMutability": "view",
      "type": "function",
      "constant": true
    },
    {
      "inputs": [
        {
          "internalType": "address",
          "name": "",
          "type": "address"
        },
        {
          "internalType": "uint256",
          "name": "",
          "type": "uint256"
        }
      ],
      "name": "userNFTItem",
      "outputs": [
        {
          "internalType": "string",
          "name": "serviceName",
          "type": "string"
        },
        {
          "internalType": "string",
          "name": "ImageUri",
          "type": "string"
        },
        {
          "internalType": "string",
          "name": "description",
          "type": "string"
        },
        {
          "internalType": "uint256",
          "name": "duration",
          "type": "uint256"
        },
        {
          "internalType": "uint64",
          "name": "endTime",
          "type": "uint64"
        },
        {
          "internalType": "uint256",
          "name": "price",
          "type": "uint256"
        },
        {
          "internalType": "address payable",
          "name": "owner",
          "type": "address"
        },
        {
          "internalType": "address payable",
          "name": "srviceProvider",
          "type": "address"
        }
      ],
      "stateMutability": "view",
      "type": "function",
      "constant": true
    },
    {
      "inputs": [
        {
          "internalType": "uint256",
          "name": "tokenId",
          "type": "uint256"
        }
      ],
      "name": "userOf",
      "outputs": [
        {
          "internalType": "address",
          "name": "",
          "type": "address"
        }
      ],
      "stateMutability": "view",
      "type": "function",
      "constant": true
    },
    {
      "inputs": [],
      "name": "getAccountType",
      "outputs": [
        {
          "internalType": "uint256",
          "name": "",
          "type": "uint256"
        }
      ],
      "stateMutability": "view",
      "type": "function",
      "constant": true
    },
    {
      "inputs": [
        {
          "internalType": "uint256",
          "name": "_accountType",
          "type": "uint256"
        }
      ],
      "name": "addToPlatform",
      "outputs": [
        {
          "internalType": "string",
          "name": "",
          "type": "string"
        }
      ],
      "stateMutability": "nonpayable",
      "type": "function"
    },
    {
      "inputs": [
        {
          "internalType": "string",
          "name": "_name",
          "type": "string"
        },
        {
          "internalType": "string",
          "name": "_ImageUri",
          "type": "string"
        },
        {
          "internalType": "string",
          "name": "_description",
          "type": "string"
        },
        {
          "internalType": "uint64",
          "name": "_planDuration",
          "type": "uint64"
        },
        {
          "internalType": "uint256",
          "name": "_planPrice",
          "type": "uint256"
        }
      ],
      "name": "updateService",
      "outputs": [],
      "stateMutability": "nonpayable",
      "type": "function"
    },
    {
      "inputs": [
        {
          "internalType": "address payable",
          "name": "_serviceProviderWallet",
          "type": "address"
        }
      ],
      "name": "BuyServiceFromServiceProvider",
      "outputs": [],
      "stateMutability": "payable",
      "type": "function",
      "payable": true
    },
    {
      "inputs": [
        {
          "internalType": "uint256",
          "name": "_price",
          "type": "uint256"
        },
        {
          "internalType": "uint256",
          "name": "_days",
          "type": "uint256"
        },
        {
          "internalType": "string",
          "name": "_name",
          "type": "string"
        }
      ],
      "name": "LendPlan",
      "outputs": [],
      "stateMutability": "nonpayable",
      "type": "function"
    },
    {
      "inputs": [
        {
          "internalType": "uint256",
          "name": "tokenID",
          "type": "uint256"
        },
        {
          "internalType": "uint256",
          "name": "_amount",
          "type": "uint256"
        },
        {
          "internalType": "uint64",
          "name": "_days",
          "type": "uint64"
        }
      ],
      "name": "RentPlan",
      "outputs": [],
      "stateMutability": "nonpayable",
      "type": "function"
    }
  ],
  "bytecode": "0x60806040523480156200001157600080fd5b506040516200561538038062005615833981810160405281019062000037919062000231565b806040518060400160405280600981526020017f65617a79566964656f00000000000000000000000000000000000000000000008152506040518060400160405280600481526020017f65617a79000000000000000000000000000000000000000000000000000000008152508160009080519060200190620000bc9291906200016a565b508060019080519060200190620000d59291906200016a565b505050600160078190555033600860006101000a81548173ffffffffffffffffffffffffffffffffffffffff021916908373ffffffffffffffffffffffffffffffffffffffff16021790555080600c60006101000a81548173ffffffffffffffffffffffffffffffffffffffff021916908373ffffffffffffffffffffffffffffffffffffffff160217905550505062000310565b828054620001789062000291565b90600052602060002090601f0160209004810192826200019c5760008555620001e8565b82601f10620001b757805160ff1916838001178555620001e8565b82800160010185558215620001e8579182015b82811115620001e7578251825591602001919060010190620001ca565b5b509050620001f79190620001fb565b5090565b5b8082111562000216576000816000905550600101620001fc565b5090565b6000815190506200022b81620002f6565b92915050565b6000602082840312156200024457600080fd5b600062000254848285016200021a565b91505092915050565b60006200026a8262000271565b9050919050565b600073ffffffffffffffffffffffffffffffffffffffff82169050919050565b60006002820490506001821680620002aa57607f821691505b60208210811415620002c157620002c0620002c7565b5b50919050565b7f4e487b7100000000000000000000000000000000000000000000000000000000600052602260045260246000fd5b62000301816200025d565b81146200030d57600080fd5b50565b6152f580620003206000396000f3fe6080604052600436106101c25760003560e01c80638201a1aa116100f7578063b85908ba11610095578063c2f1f14a11610064578063c2f1f14a1461066a578063c87b56dd146106a7578063e030565e146106e4578063e985e9c51461070d576101c2565b8063b85908ba1461059a578063b88d4fde146105c3578063ba99af70146105ec578063c22c4f4314610629576101c2565b806397402651116100d157806397402651146105015780639bb4e2731461052c578063a22cb46514610548578063a3177b1514610571576101c2565b80638201a1aa146104705780638fc88c481461049957806395d89b41146104d6576101c2565b806342842e0e116101645780636352211e1161013e5780636352211e1461038757806370a08231146103c45780637a7e252c146104015780637d549e9914610445576101c2565b806342842e0e1461031757806352d6a0a3146103405780635efb61721461036b576101c2565b8063095ea7b3116101a0578063095ea7b31461026c57806323b872dd1461029557806328ef2e91146102be57806338328182146102da576101c2565b806301ffc9a7146101c757806306fdde0314610204578063081812fc1461022f575b600080fd5b3480156101d357600080fd5b506101ee60048036038101906101e99190613d1b565b61074a565b6040516101fb91906145fe565b60405180910390f35b34801561021057600080fd5b506102196107c4565b6040516102269190614634565b60405180910390f35b34801561023b57600080fd5b5061025660048036038101906102519190613f26565b610856565b6040516102639190614575565b60405180910390f35b34801561027857600080fd5b50610293600480360381019061028e9190613cdf565b61089c565b005b3480156102a157600080fd5b506102bc60048036038101906102b79190613bd9565b6109b4565b005b6102d860048036038101906102d39190613b74565b610a14565b005b3480156102e657600080fd5b5061030160048036038101906102fc9190613f26565b610d7d565b60405161030e9190614634565b60405180910390f35b34801561032357600080fd5b5061033e60048036038101906103399190613bd9565b61106e565b005b34801561034c57600080fd5b5061035561108e565b6040516103629190614971565b60405180910390f35b61038560048036038101906103809190614005565b6110d5565b005b34801561039357600080fd5b506103ae60048036038101906103a99190613f26565b61120d565b6040516103bb9190614575565b60405180910390f35b3480156103d057600080fd5b506103eb60048036038101906103e69190613b4b565b6112bf565b6040516103f89190614971565b60405180910390f35b34801561040d57600080fd5b5061042860048036038101906104239190613cdf565b611377565b60405161043c989796959493929190614656565b60405180910390f35b34801561045157600080fd5b5061045a6115c8565b6040516104679190614971565b60405180910390f35b34801561047c57600080fd5b5061049760048036038101906104929190613d6d565b6115d4565b005b3480156104a557600080fd5b506104c060048036038101906104bb9190613f26565b6117a8565b6040516104cd9190614971565b60405180910390f35b3480156104e257600080fd5b506104eb6117e6565b6040516104f89190614634565b60405180910390f35b34801561050d57600080fd5b50610516611878565b60405161052391906145dc565b60405180910390f35b61054660048036038101906105419190613e2c565b611bbd565b005b34801561055457600080fd5b5061056f600480360381019061056a9190613ca3565b612048565b005b34801561057d57600080fd5b5061059860048036038101906105939190613f9e565b61205e565b005b3480156105a657600080fd5b506105c160048036038101906105bc9190614005565b61246d565b005b3480156105cf57600080fd5b506105ea60048036038101906105e59190613c28565b6124ff565b005b3480156105f857600080fd5b50610613600480360381019061060e9190613b4b565b612561565b6040516106209190614971565b60405180910390f35b34801561063557600080fd5b50610650600480360381019061064b9190613f26565b612579565b6040516106619594939291906146e9565b60405180910390f35b34801561067657600080fd5b50610691600480360381019061068c9190613f26565b61276b565b60405161069e9190614575565b60405180910390f35b3480156106b357600080fd5b506106ce60048036038101906106c99190613f26565b6127f0565b6040516106db9190614634565b60405180910390f35b3480156106f057600080fd5b5061070b60048036038101906107069190613f4f565b612858565b005b34801561071957600080fd5b50610734600480360381019061072f9190613b9d565b61297b565b60405161074191906145fe565b60405180910390f35b60007fad092b5c000000000000000000000000000000000000000000000000000000007bffffffffffffffffffffffffffffffffffffffffffffffffffffffff1916827bffffffffffffffffffffffffffffffffffffffffffffffffffffffff191614806107bd57506107bc82612a0f565b5b9050919050565b6060600080546107d390614ca2565b80601f01602080910402602001604051908101604052809291908181526020018280546107ff90614ca2565b801561084c5780601f106108215761010080835404028352916020019161084c565b820191906000526020600020905b81548152906001019060200180831161082f57829003601f168201915b5050505050905090565b600061086182612af1565b6004600083815260200190815260200160002060009054906101000a900473ffffffffffffffffffffffffffffffffffffffff169050919050565b60006108a78261120d565b90508073ffffffffffffffffffffffffffffffffffffffff168373ffffffffffffffffffffffffffffffffffffffff161415610918576040517f08c379a000000000000000000000000000000000000000000000000000000000815260040161090f906148d1565b60405180910390fd5b8073ffffffffffffffffffffffffffffffffffffffff16610937612b3c565b73ffffffffffffffffffffffffffffffffffffffff161480610966575061096581610960612b3c565b61297b565b5b6109a5576040517f08c379a000000000000000000000000000000000000000000000000000000000815260040161099c90614871565b60405180910390fd5b6109af8383612b44565b505050565b6109c56109bf612b3c565b82612bfd565b610a04576040517f08c379a00000000000000000000000000000000000000000000000000000000081526004016109fb90614911565b60405180910390fd5b610a0f838383612c92565b505050565b6001601160003373ffffffffffffffffffffffffffffffffffffffff1673ffffffffffffffffffffffffffffffffffffffff1681526020019081526020016000205414610a96576040517f08c379a0000000000000000000000000000000000000000000000000000000008152600401610a8d906147b1565b60405180910390fd5b6000600f601360008473ffffffffffffffffffffffffffffffffffffffff1673ffffffffffffffffffffffffffffffffffffffff1681526020019081526020016000205481548110610b11577f4e487b7100000000000000000000000000000000000000000000000000000000600052603260045260246000fd5b906000526020600020906005020190506000816000018054610b3290614ca2565b80601f0160208091040260200160405190810160405280929190818152602001828054610b5e90614ca2565b8015610bab5780601f10610b8057610100808354040283529160200191610bab565b820191906000526020600020905b815481529060010190602001808311610b8e57829003601f168201915b505050505090506000826001018054610bc390614ca2565b80601f0160208091040260200160405190810160405280929190818152602001828054610bef90614ca2565b8015610c3c5780601f10610c1157610100808354040283529160200191610c3c565b820191906000526020600020905b815481529060010190602001808311610c1f57829003601f168201915b5050505050905060008360030160009054906101000a900467ffffffffffffffff1642610c699190614b11565b90506000846004015490506000856002018054610c8590614ca2565b80601f0160208091040260200160405190810160405280929190818152602001828054610cb190614ca2565b8015610cfe5780601f10610cd357610100808354040283529160200191610cfe565b820191906000526020600020905b815481529060010190602001808311610ce157829003601f168201915b505050505090508673ffffffffffffffffffffffffffffffffffffffff166108fc839081150290604051600060405180830381858888f19350505050158015610d4b573d6000803e3d6000fd5b50610d748585838960030160009054906101000a900467ffffffffffffffff168787338e611bbd565b50505050505050565b60606000610d8961108e565b14610dc9576040517f08c379a0000000000000000000000000000000000000000000000000000000008152600401610dc0906147d1565b60405180910390fd5b81601160003373ffffffffffffffffffffffffffffffffffffffff1673ffffffffffffffffffffffffffffffffffffffff168152602001908152602001600020819055506002601160003373ffffffffffffffffffffffffffffffffffffffff1673ffffffffffffffffffffffffffffffffffffffff168152602001908152602001600020541415610fae576000600f600181600181540180825580915050039060005260206000209060050201905060405180602001604052806000815250816000019080519060200190610ea09291906138b8565b5060405180602001604052806000815250816001019080519060200190610ec89291906138b8565b5060405180602001604052806000815250816002019080519060200190610ef09291906138b8565b5060008160030160006101000a81548167ffffffffffffffff021916908367ffffffffffffffff16021790555060008160040181905550600f80549050601360003373ffffffffffffffffffffffffffffffffffffffff1673ffffffffffffffffffffffffffffffffffffffff168152602001908152602001600020819055506040518060400160405280601a81526020017f4e455720534552564943452050524f5649444552204144444544000000000000815250915050611069565b6000601060018160018154018082558091505003906000526020600020906004020190506000816001018190555060008160030181905550601080549050601260003373ffffffffffffffffffffffffffffffffffffffff1673ffffffffffffffffffffffffffffffffffffffff168152602001908152602001600020819055506040518060400160405280600e81526020017f4e455720555345522041444445440000000000000000000000000000000000008152509150505b919050565b611089838383604051806020016040528060008152506124ff565b505050565b6000601160003373ffffffffffffffffffffffffffffffffffffffff1673ffffffffffffffffffffffffffffffffffffffff16815260200190815260200160002054905090565b6002600754141561111b576040517f08c379a000000000000000000000000000000000000000000000000000000000815260040161111290614931565b60405180910390fd5b600260078190555061112e833383612858565b600d600084815260200190815260200160002060060160009054906101000a900473ffffffffffffffffffffffffffffffffffffffff1673ffffffffffffffffffffffffffffffffffffffff166108fc839081150290604051600060405180830381858888f193505050501580156111aa573d6000803e3d6000fd5b5033600d600085815260200190815260200160002060060160006101000a81548173ffffffffffffffffffffffffffffffffffffffff021916908373ffffffffffffffffffffffffffffffffffffffff1602179055506001600781905550505050565b6000806002600084815260200190815260200160002060009054906101000a900473ffffffffffffffffffffffffffffffffffffffff169050600073ffffffffffffffffffffffffffffffffffffffff168173ffffffffffffffffffffffffffffffffffffffff1614156112b6576040517f08c379a00000000000000000000000000000000000000000000000000000000081526004016112ad906148b1565b60405180910390fd5b80915050919050565b60008073ffffffffffffffffffffffffffffffffffffffff168273ffffffffffffffffffffffffffffffffffffffff161415611330576040517f08c379a000000000000000000000000000000000000000000000000000000000815260040161132790614851565b60405180910390fd5b600360008373ffffffffffffffffffffffffffffffffffffffff1673ffffffffffffffffffffffffffffffffffffffff168152602001908152602001600020549050919050565b600e602052816000526040600020818154811061139357600080fd5b9060005260206000209060080201600091509150508060000180546113b790614ca2565b80601f01602080910402602001604051908101604052809291908181526020018280546113e390614ca2565b80156114305780601f1061140557610100808354040283529160200191611430565b820191906000526020600020905b81548152906001019060200180831161141357829003601f168201915b50505050509080600101805461144590614ca2565b80601f016020809104026020016040519081016040528092919081815260200182805461147190614ca2565b80156114be5780601f10611493576101008083540402835291602001916114be565b820191906000526020600020905b8154815290600101906020018083116114a157829003601f168201915b5050505050908060020180546114d390614ca2565b80601f01602080910402602001604051908101604052809291908181526020018280546114ff90614ca2565b801561154c5780601f106115215761010080835404028352916020019161154c565b820191906000526020600020905b81548152906001019060200180831161152f57829003601f168201915b5050505050908060030154908060040160009054906101000a900467ffffffffffffffff16908060050154908060060160009054906101000a900473ffffffffffffffffffffffffffffffffffffffff16908060070160009054906101000a900473ffffffffffffffffffffffffffffffffffffffff16905088565b600b8060000154905081565b6002601160003373ffffffffffffffffffffffffffffffffffffffff1673ffffffffffffffffffffffffffffffffffffffff1681526020019081526020016000205414611656576040517f08c379a000000000000000000000000000000000000000000000000000000000815260040161164d90614831565b60405180910390fd5b6040518060a001604052808681526020018581526020018481526020018367ffffffffffffffff16815260200182815250600f601360003373ffffffffffffffffffffffffffffffffffffffff1673ffffffffffffffffffffffffffffffffffffffff1681526020019081526020016000205481548110611700577f4e487b7100000000000000000000000000000000000000000000000000000000600052603260045260246000fd5b9060005260206000209060050201600082015181600001908051906020019061172a9291906138b8565b5060208201518160010190805190602001906117479291906138b8565b5060408201518160020190805190602001906117649291906138b8565b5060608201518160030160006101000a81548167ffffffffffffffff021916908367ffffffffffffffff160217905550608082015181600401559050505050505050565b60006006600083815260200190815260200160002060000160149054906101000a900467ffffffffffffffff1667ffffffffffffffff169050919050565b6060600180546117f590614ca2565b80601f016020809104026020016040519081016040528092919081815260200182805461182190614ca2565b801561186e5780601f106118435761010080835404028352916020019161186e565b820191906000526020600020905b81548152906001019060200180831161185157829003601f168201915b5050505050905090565b6060600e60003373ffffffffffffffffffffffffffffffffffffffff1673ffffffffffffffffffffffffffffffffffffffff168152602001908152602001600020805480602002602001604051908101604052809291908181526020016000905b82821015611bb457838290600052602060002090600802016040518061010001604052908160008201805461190d90614ca2565b80601f016020809104026020016040519081016040528092919081815260200182805461193990614ca2565b80156119865780601f1061195b57610100808354040283529160200191611986565b820191906000526020600020905b81548152906001019060200180831161196957829003601f168201915b5050505050815260200160018201805461199f90614ca2565b80601f01602080910402602001604051908101604052809291908181526020018280546119cb90614ca2565b8015611a185780601f106119ed57610100808354040283529160200191611a18565b820191906000526020600020905b8154815290600101906020018083116119fb57829003601f168201915b50505050508152602001600282018054611a3190614ca2565b80601f0160208091040260200160405190810160405280929190818152602001828054611a5d90614ca2565b8015611aaa5780601f10611a7f57610100808354040283529160200191611aaa565b820191906000526020600020905b815481529060010190602001808311611a8d57829003601f168201915b50505050508152602001600382015481526020016004820160009054906101000a900467ffffffffffffffff1667ffffffffffffffff1667ffffffffffffffff168152602001600582015481526020016006820160009054906101000a900473ffffffffffffffffffffffffffffffffffffffff1673ffffffffffffffffffffffffffffffffffffffff1673ffffffffffffffffffffffffffffffffffffffff1681526020016007820160009054906101000a900473ffffffffffffffffffffffffffffffffffffffff1673ffffffffffffffffffffffffffffffffffffffff1673ffffffffffffffffffffffffffffffffffffffff1681525050815260200190600101906118d9565b50505050905090565b60026007541415611c03576040517f08c379a0000000000000000000000000000000000000000000000000000000008152600401611bfa90614931565b60405180910390fd5b600260078190555060008311611c4e576040517f08c379a0000000000000000000000000000000000000000000000000000000008152600401611c4590614951565b60405180910390fd5b611c58600a612ef9565b6000611c64600a612f0f565b9050611c708282612f1d565b611c7b813387612858565b6040518061010001604052808a81526020018981526020018881526020018767ffffffffffffffff1681526020018667ffffffffffffffff1681526020018581526020018473ffffffffffffffffffffffffffffffffffffffff1681526020018373ffffffffffffffffffffffffffffffffffffffff16815250600d60008381526020019081526020016000206000820151816000019080519060200190611d249291906138b8565b506020820151816001019080519060200190611d419291906138b8565b506040820151816002019080519060200190611d5e9291906138b8565b506060820151816003015560808201518160040160006101000a81548167ffffffffffffffff021916908367ffffffffffffffff16021790555060a0820151816005015560c08201518160060160006101000a81548173ffffffffffffffffffffffffffffffffffffffff021916908373ffffffffffffffffffffffffffffffffffffffff16021790555060e08201518160070160006101000a81548173ffffffffffffffffffffffffffffffffffffffff021916908373ffffffffffffffffffffffffffffffffffffffff160217905550905050600e60003373ffffffffffffffffffffffffffffffffffffffff1673ffffffffffffffffffffffffffffffffffffffff168152602001908152602001600020600d600083815260200190815260200160002090806001815401808255809150506001900390600052602060002090600802016000909190919091506000820181600001908054611ec290614ca2565b611ecd92919061393e565b506001820181600101908054611ee290614ca2565b611eed92919061393e565b506002820181600201908054611f0290614ca2565b611f0d92919061393e565b50600382015481600301556004820160009054906101000a900467ffffffffffffffff168160040160006101000a81548167ffffffffffffffff021916908367ffffffffffffffff160217905550600582015481600501556006820160009054906101000a900473ffffffffffffffffffffffffffffffffffffffff168160060160006101000a81548173ffffffffffffffffffffffffffffffffffffffff021916908373ffffffffffffffffffffffffffffffffffffffff1602179055506007820160009054906101000a900473ffffffffffffffffffffffffffffffffffffffff168160070160006101000a81548173ffffffffffffffffffffffffffffffffffffffff021916908373ffffffffffffffffffffffffffffffffffffffff16021790555050505060016007819055505050505050505050565b61205a612053612b3c565b83836130f7565b5050565b6001601160003373ffffffffffffffffffffffffffffffffffffffff1673ffffffffffffffffffffffffffffffffffffffff16815260200190815260200160002054146120e0576040517f08c379a00000000000000000000000000000000000000000000000000000000081526004016120d7906147b1565b60405180910390fd5b60006010601260003373ffffffffffffffffffffffffffffffffffffffff1673ffffffffffffffffffffffffffffffffffffffff168152602001908152602001600020548154811061215b577f4e487b7100000000000000000000000000000000000000000000000000000000600052603260045260246000fd5b9060005260206000209060040201905060005b6001826001015461217f9190614b80565b8110156124665761223082600001600083815260200190815260200160002060000180546121ac90614ca2565b80601f01602080910402602001604051908101604052809291908181526020018280546121d890614ca2565b80156122255780601f106121fa57610100808354040283529160200191612225565b820191906000526020600020905b81548152906001019060200180831161220857829003601f168201915b505050505084613264565b15612453576040518060a00160405280848152602001836000016000848152602001908152602001600020600101805461226990614ca2565b80601f016020809104026020016040519081016040528092919081815260200182805461229590614ca2565b80156122e25780601f106122b7576101008083540402835291602001916122e2565b820191906000526020600020905b8154815290600101906020018083116122c557829003601f168201915b50505050508152602001836000016000848152602001908152602001600020600201805461230f90614ca2565b80601f016020809104026020016040519081016040528092919081815260200182805461233b90614ca2565b80156123885780601f1061235d57610100808354040283529160200191612388565b820191906000526020600020905b81548152906001019060200180831161236b57829003601f168201915b505050505081526020018567ffffffffffffffff168152602001868152508260020160008460030154815260200190815260200160002060008201518160000190805190602001906123db9291906138b8565b5060208201518160010190805190602001906123f89291906138b8565b5060408201518160020190805190602001906124159291906138b8565b5060608201518160030160006101000a81548167ffffffffffffffff021916908367ffffffffffffffff160217905550608082015181600401559050505b808061245e90614d05565b91505061216e565b5050505050565b6001601160003373ffffffffffffffffffffffffffffffffffffffff1673ffffffffffffffffffffffffffffffffffffffff16815260200190815260200160002054146124ef576040517f08c379a00000000000000000000000000000000000000000000000000000000081526004016124e6906147b1565b60405180910390fd5b6124fa8383836110d5565b505050565b61251061250a612b3c565b83612bfd565b61254f576040517f08c379a000000000000000000000000000000000000000000000000000000000815260040161254690614911565b60405180910390fd5b61255b84848484613278565b50505050565b60116020528060005260406000206000915090505481565b600f818154811061258957600080fd5b90600052602060002090600502016000915090508060000180546125ac90614ca2565b80601f01602080910402602001604051908101604052809291908181526020018280546125d890614ca2565b80156126255780601f106125fa57610100808354040283529160200191612625565b820191906000526020600020905b81548152906001019060200180831161260857829003601f168201915b50505050509080600101805461263a90614ca2565b80601f016020809104026020016040519081016040528092919081815260200182805461266690614ca2565b80156126b35780601f10612688576101008083540402835291602001916126b3565b820191906000526020600020905b81548152906001019060200180831161269657829003601f168201915b5050505050908060020180546126c890614ca2565b80601f01602080910402602001604051908101604052809291908181526020018280546126f490614ca2565b80156127415780601f1061271657610100808354040283529160200191612741565b820191906000526020600020905b81548152906001019060200180831161272457829003601f168201915b5050505050908060030160009054906101000a900467ffffffffffffffff16908060040154905085565b6000426006600084815260200190815260200160002060000160149054906101000a900467ffffffffffffffff1667ffffffffffffffff16106127e6576006600083815260200190815260200160002060000160009054906101000a900473ffffffffffffffffffffffffffffffffffffffff1690506127eb565b600090505b919050565b60606127fb82612af1565b60006128056132d4565b905060008151116128255760405180602001604052806000815250612850565b8061282f846132eb565b604051602001612840929190614551565b6040516020818303038152906040525b915050919050565b6128623384612bfd565b6128a1576040517f08c379a0000000000000000000000000000000000000000000000000000000008152600401612898906148f1565b60405180910390fd5b6000600660008581526020019081526020016000209050828160000160006101000a81548173ffffffffffffffffffffffffffffffffffffffff021916908373ffffffffffffffffffffffffffffffffffffffff160217905550818160000160146101000a81548167ffffffffffffffff021916908367ffffffffffffffff1602179055508273ffffffffffffffffffffffffffffffffffffffff16847f4e06b4e7000e659094299b3533b47b6aa8ad048e95e872d23d1f4ee55af89cfe8460405161296d919061498c565b60405180910390a350505050565b6000600560008473ffffffffffffffffffffffffffffffffffffffff1673ffffffffffffffffffffffffffffffffffffffff16815260200190815260200160002060008373ffffffffffffffffffffffffffffffffffffffff1673ffffffffffffffffffffffffffffffffffffffff16815260200190815260200160002060009054906101000a900460ff16905092915050565b60007f80ac58cd000000000000000000000000000000000000000000000000000000007bffffffffffffffffffffffffffffffffffffffffffffffffffffffff1916827bffffffffffffffffffffffffffffffffffffffffffffffffffffffff19161480612ada57507f5b5e139f000000000000000000000000000000000000000000000000000000007bffffffffffffffffffffffffffffffffffffffffffffffffffffffff1916827bffffffffffffffffffffffffffffffffffffffffffffffffffffffff1916145b80612aea5750612ae982613498565b5b9050919050565b612afa81613502565b612b39576040517f08c379a0000000000000000000000000000000000000000000000000000000008152600401612b30906148b1565b60405180910390fd5b50565b600033905090565b816004600083815260200190815260200160002060006101000a81548173ffffffffffffffffffffffffffffffffffffffff021916908373ffffffffffffffffffffffffffffffffffffffff160217905550808273ffffffffffffffffffffffffffffffffffffffff16612bb78361120d565b73ffffffffffffffffffffffffffffffffffffffff167f8c5be1e5ebec7d5bd14f71427d1e84f3dd0314c0f7b2291e5b200ac8c7c3b92560405160405180910390a45050565b600080612c098361120d565b90508073ffffffffffffffffffffffffffffffffffffffff168473ffffffffffffffffffffffffffffffffffffffff161480612c4b5750612c4a818561297b565b5b80612c8957508373ffffffffffffffffffffffffffffffffffffffff16612c7184610856565b73ffffffffffffffffffffffffffffffffffffffff16145b91505092915050565b8273ffffffffffffffffffffffffffffffffffffffff16612cb28261120d565b73ffffffffffffffffffffffffffffffffffffffff1614612d08576040517f08c379a0000000000000000000000000000000000000000000000000000000008152600401612cff90614771565b60405180910390fd5b600073ffffffffffffffffffffffffffffffffffffffff168273ffffffffffffffffffffffffffffffffffffffff161415612d78576040517f08c379a0000000000000000000000000000000000000000000000000000000008152600401612d6f906147f1565b60405180910390fd5b612d8383838361356e565b612d8e600082612b44565b6001600360008573ffffffffffffffffffffffffffffffffffffffff1673ffffffffffffffffffffffffffffffffffffffff1681526020019081526020016000206000828254612dde9190614b80565b925050819055506001600360008473ffffffffffffffffffffffffffffffffffffffff1673ffffffffffffffffffffffffffffffffffffffff1681526020019081526020016000206000828254612e359190614abb565b92505081905550816002600083815260200190815260200160002060006101000a81548173ffffffffffffffffffffffffffffffffffffffff021916908373ffffffffffffffffffffffffffffffffffffffff160217905550808273ffffffffffffffffffffffffffffffffffffffff168473ffffffffffffffffffffffffffffffffffffffff167fddf252ad1be2c89b69c2b068fc378daa952ba7f163c4a11628f55a4df523b3ef60405160405180910390a4612ef48383836136cc565b505050565b6001816000016000828254019250508190555050565b600081600001549050919050565b600073ffffffffffffffffffffffffffffffffffffffff168273ffffffffffffffffffffffffffffffffffffffff161415612f8d576040517f08c379a0000000000000000000000000000000000000000000000000000000008152600401612f8490614891565b60405180910390fd5b612f9681613502565b15612fd6576040517f08c379a0000000000000000000000000000000000000000000000000000000008152600401612fcd90614791565b60405180910390fd5b612fe26000838361356e565b6001600360008473ffffffffffffffffffffffffffffffffffffffff1673ffffffffffffffffffffffffffffffffffffffff16815260200190815260200160002060008282546130329190614abb565b92505081905550816002600083815260200190815260200160002060006101000a81548173ffffffffffffffffffffffffffffffffffffffff021916908373ffffffffffffffffffffffffffffffffffffffff160217905550808273ffffffffffffffffffffffffffffffffffffffff16600073ffffffffffffffffffffffffffffffffffffffff167fddf252ad1be2c89b69c2b068fc378daa952ba7f163c4a11628f55a4df523b3ef60405160405180910390a46130f3600083836136cc565b5050565b8173ffffffffffffffffffffffffffffffffffffffff168373ffffffffffffffffffffffffffffffffffffffff161415613166576040517f08c379a000000000000000000000000000000000000000000000000000000000815260040161315d90614811565b60405180910390fd5b80600560008573ffffffffffffffffffffffffffffffffffffffff1673ffffffffffffffffffffffffffffffffffffffff16815260200190815260200160002060008473ffffffffffffffffffffffffffffffffffffffff1673ffffffffffffffffffffffffffffffffffffffff16815260200190815260200160002060006101000a81548160ff0219169083151502179055508173ffffffffffffffffffffffffffffffffffffffff168373ffffffffffffffffffffffffffffffffffffffff167f17307eab39ab6107e8899845ad3d59bd9653f200f220920489ca2b5937696c318360405161325791906145fe565b60405180910390a3505050565b600061327083836136d1565b905092915050565b613283848484612c92565b61328f848484846136f9565b6132ce576040517f08c379a00000000000000000000000000000000000000000000000000000000081526004016132c590614751565b60405180910390fd5b50505050565b606060405180602001604052806000815250905090565b60606000821415613333576040518060400160405280600181526020017f30000000000000000000000000000000000000000000000000000000000000008152509050613493565b600082905060005b6000821461336557808061334e90614d05565b915050600a8261335e9190614b4f565b915061333b565b60008167ffffffffffffffff8111156133a7577f4e487b7100000000000000000000000000000000000000000000000000000000600052604160045260246000fd5b6040519080825280601f01601f1916602001820160405280156133d95781602001600182028036833780820191505090505b5090505b6000851461348c576001826133f29190614b80565b9150600a856134019190614d4e565b603061340d9190614abb565b60f81b818381518110613449577f4e487b7100000000000000000000000000000000000000000000000000000000600052603260045260246000fd5b60200101907effffffffffffffffffffffffffffffffffffffffffffffffffffffffffffff1916908160001a905350600a856134859190614b4f565b94506133dd565b8093505050505b919050565b60007f01ffc9a7000000000000000000000000000000000000000000000000000000007bffffffffffffffffffffffffffffffffffffffffffffffffffffffff1916827bffffffffffffffffffffffffffffffffffffffffffffffffffffffff1916149050919050565b60008073ffffffffffffffffffffffffffffffffffffffff166002600084815260200190815260200160002060009054906101000a900473ffffffffffffffffffffffffffffffffffffffff1673ffffffffffffffffffffffffffffffffffffffff1614159050919050565b613579838383613890565b8173ffffffffffffffffffffffffffffffffffffffff168373ffffffffffffffffffffffffffffffffffffffff16141580156136185750600073ffffffffffffffffffffffffffffffffffffffff166006600083815260200190815260200160002060000160009054906101000a900473ffffffffffffffffffffffffffffffffffffffff1673ffffffffffffffffffffffffffffffffffffffff1614155b156136c75760066000828152602001908152602001600020600080820160006101000a81549073ffffffffffffffffffffffffffffffffffffffff02191690556000820160146101000a81549067ffffffffffffffff02191690555050600073ffffffffffffffffffffffffffffffffffffffff16817f4e06b4e7000e659094299b3533b47b6aa8ad048e95e872d23d1f4ee55af89cfe60006040516136be9190614619565b60405180910390a35b505050565b505050565b6000815183511480156136f1575081805190602001208380519060200120145b905092915050565b600061371a8473ffffffffffffffffffffffffffffffffffffffff16613895565b15613883578373ffffffffffffffffffffffffffffffffffffffff1663150b7a02613743612b3c565b8786866040518563ffffffff1660e01b81526004016137659493929190614590565b602060405180830381600087803b15801561377f57600080fd5b505af19250505080156137b057506040513d601f19601f820116820180604052508101906137ad9190613d44565b60015b613833573d80600081146137e0576040519150601f19603f3d011682016040523d82523d6000602084013e6137e5565b606091505b5060008151141561382b576040517f08c379a000000000000000000000000000000000000000000000000000000000815260040161382290614751565b60405180910390fd5b805181602001fd5b63150b7a0260e01b7bffffffffffffffffffffffffffffffffffffffffffffffffffffffff1916817bffffffffffffffffffffffffffffffffffffffffffffffffffffffff191614915050613888565b600190505b949350505050565b505050565b6000808273ffffffffffffffffffffffffffffffffffffffff163b119050919050565b8280546138c490614ca2565b90600052602060002090601f0160209004810192826138e6576000855561392d565b82601f106138ff57805160ff191683800117855561392d565b8280016001018555821561392d579182015b8281111561392c578251825591602001919060010190613911565b5b50905061393a91906139cb565b5090565b82805461394a90614ca2565b90600052602060002090601f01602090048101928261396c57600085556139ba565b82601f1061397d57805485556139ba565b828001600101855582156139ba57600052602060002091601f016020900482015b828111156139b957825482559160010191906001019061399e565b5b5090506139c791906139cb565b5090565b5b808211156139e45760008160009055506001016139cc565b5090565b60006139fb6139f6846149cc565b6149a7565b905082815260208101848484011115613a1357600080fd5b613a1e848285614c60565b509392505050565b6000613a39613a34846149fd565b6149a7565b905082815260208101848484011115613a5157600080fd5b613a5c848285614c60565b509392505050565b600081359050613a7381615235565b92915050565b600081359050613a888161524c565b92915050565b600081359050613a9d81615263565b92915050565b600081359050613ab28161527a565b92915050565b600081519050613ac78161527a565b92915050565b600082601f830112613ade57600080fd5b8135613aee8482602086016139e8565b91505092915050565b600082601f830112613b0857600080fd5b8135613b18848260208601613a26565b91505092915050565b600081359050613b3081615291565b92915050565b600081359050613b45816152a8565b92915050565b600060208284031215613b5d57600080fd5b6000613b6b84828501613a64565b91505092915050565b600060208284031215613b8657600080fd5b6000613b9484828501613a79565b91505092915050565b60008060408385031215613bb057600080fd5b6000613bbe85828601613a64565b9250506020613bcf85828601613a64565b9150509250929050565b600080600060608486031215613bee57600080fd5b6000613bfc86828701613a64565b9350506020613c0d86828701613a64565b9250506040613c1e86828701613b21565b9150509250925092565b60008060008060808587031215613c3e57600080fd5b6000613c4c87828801613a64565b9450506020613c5d87828801613a64565b9350506040613c6e87828801613b21565b925050606085013567ffffffffffffffff811115613c8b57600080fd5b613c9787828801613acd565b91505092959194509250565b60008060408385031215613cb657600080fd5b6000613cc485828601613a64565b9250506020613cd585828601613a8e565b9150509250929050565b60008060408385031215613cf257600080fd5b6000613d0085828601613a64565b9250506020613d1185828601613b21565b9150509250929050565b600060208284031215613d2d57600080fd5b6000613d3b84828501613aa3565b91505092915050565b600060208284031215613d5657600080fd5b6000613d6484828501613ab8565b91505092915050565b600080600080600060a08688031215613d8557600080fd5b600086013567ffffffffffffffff811115613d9f57600080fd5b613dab88828901613af7565b955050602086013567ffffffffffffffff811115613dc857600080fd5b613dd488828901613af7565b945050604086013567ffffffffffffffff811115613df157600080fd5b613dfd88828901613af7565b9350506060613e0e88828901613b36565b9250506080613e1f88828901613b21565b9150509295509295909350565b600080600080600080600080610100898b031215613e4957600080fd5b600089013567ffffffffffffffff811115613e6357600080fd5b613e6f8b828c01613af7565b985050602089013567ffffffffffffffff811115613e8c57600080fd5b613e988b828c01613af7565b975050604089013567ffffffffffffffff811115613eb557600080fd5b613ec18b828c01613af7565b9650506060613ed28b828c01613b36565b9550506080613ee38b828c01613b36565b94505060a0613ef48b828c01613b21565b93505060c0613f058b828c01613a64565b92505060e0613f168b828c01613a64565b9150509295985092959890939650565b600060208284031215613f3857600080fd5b6000613f4684828501613b21565b91505092915050565b600080600060608486031215613f6457600080fd5b6000613f7286828701613b21565b9350506020613f8386828701613a64565b9250506040613f9486828701613b36565b9150509250925092565b600080600060608486031215613fb357600080fd5b6000613fc186828701613b21565b9350506020613fd286828701613b21565b925050604084013567ffffffffffffffff811115613fef57600080fd5b613ffb86828701613af7565b9150509250925092565b60008060006060848603121561401a57600080fd5b600061402886828701613b21565b935050602061403986828701613b21565b925050604061404a86828701613b36565b9150509250925092565b60006140608383614457565b905092915050565b61407181614bc6565b82525050565b61408081614bc6565b82525050565b61408f81614bb4565b82525050565b60006140a082614a3e565b6140aa8185614a6c565b9350836020820285016140bc85614a2e565b8060005b858110156140f857848403895281516140d98582614054565b94506140e483614a5f565b925060208a019950506001810190506140c0565b50829750879550505050505092915050565b61411381614bd8565b82525050565b600061412482614a49565b61412e8185614a7d565b935061413e818560208601614c6f565b61414781614e3b565b840191505092915050565b61415b81614c4e565b82525050565b600061416c82614a54565b6141768185614a8e565b9350614186818560208601614c6f565b61418f81614e3b565b840191505092915050565b60006141a582614a54565b6141af8185614a9f565b93506141bf818560208601614c6f565b6141c881614e3b565b840191505092915050565b60006141de82614a54565b6141e88185614ab0565b93506141f8818560208601614c6f565b80840191505092915050565b6000614211603283614a9f565b915061421c82614e4c565b604082019050919050565b6000614234602583614a9f565b915061423f82614e9b565b604082019050919050565b6000614257601c83614a9f565b915061426282614eea565b602082019050919050565b600061427a600a83614a9f565b915061428582614f13565b602082019050919050565b600061429d601a83614a9f565b91506142a882614f3c565b602082019050919050565b60006142c0602483614a9f565b91506142cb82614f65565b604082019050919050565b60006142e3601983614a9f565b91506142ee82614fb4565b602082019050919050565b6000614306601683614a9f565b915061431182614fdd565b602082019050919050565b6000614329602983614a9f565b915061433482615006565b604082019050919050565b600061434c603e83614a9f565b915061435782615055565b604082019050919050565b600061436f602083614a9f565b915061437a826150a4565b602082019050919050565b6000614392601883614a9f565b915061439d826150cd565b602082019050919050565b60006143b5602183614a9f565b91506143c0826150f6565b604082019050919050565b60006143d8603183614a9f565b91506143e382615145565b604082019050919050565b60006143fb602e83614a9f565b915061440682615194565b604082019050919050565b600061441e601f83614a9f565b9150614429826151e3565b602082019050919050565b6000614441601c83614a9f565b915061444c8261520c565b602082019050919050565b60006101008301600083015184820360008601526144758282614161565b9150506020830151848203602086015261448f8282614161565b915050604083015184820360408601526144a98282614161565b91505060608301516144be6060860182614515565b5060808301516144d16080860182614533565b5060a08301516144e460a0860182614515565b5060c08301516144f760c0860182614068565b5060e083015161450a60e0860182614068565b508091505092915050565b61451e81614c30565b82525050565b61452d81614c30565b82525050565b61453c81614c3a565b82525050565b61454b81614c3a565b82525050565b600061455d82856141d3565b915061456982846141d3565b91508190509392505050565b600060208201905061458a6000830184614086565b92915050565b60006080820190506145a56000830187614086565b6145b26020830186614086565b6145bf6040830185614524565b81810360608301526145d18184614119565b905095945050505050565b600060208201905081810360008301526145f68184614095565b905092915050565b6000602082019050614613600083018461410a565b92915050565b600060208201905061462e6000830184614152565b92915050565b6000602082019050818103600083015261464e818461419a565b905092915050565b6000610100820190508181036000830152614671818b61419a565b90508181036020830152614685818a61419a565b90508181036040830152614699818961419a565b90506146a86060830188614524565b6146b56080830187614542565b6146c260a0830186614524565b6146cf60c0830185614077565b6146dc60e0830184614077565b9998505050505050505050565b600060a0820190508181036000830152614703818861419a565b90508181036020830152614717818761419a565b9050818103604083015261472b818661419a565b905061473a6060830185614542565b6147476080830184614524565b9695505050505050565b6000602082019050818103600083015261476a81614204565b9050919050565b6000602082019050818103600083015261478a81614227565b9050919050565b600060208201905081810360008301526147aa8161424a565b9050919050565b600060208201905081810360008301526147ca8161426d565b9050919050565b600060208201905081810360008301526147ea81614290565b9050919050565b6000602082019050818103600083015261480a816142b3565b9050919050565b6000602082019050818103600083015261482a816142d6565b9050919050565b6000602082019050818103600083015261484a816142f9565b9050919050565b6000602082019050818103600083015261486a8161431c565b9050919050565b6000602082019050818103600083015261488a8161433f565b9050919050565b600060208201905081810360008301526148aa81614362565b9050919050565b600060208201905081810360008301526148ca81614385565b9050919050565b600060208201905081810360008301526148ea816143a8565b9050919050565b6000602082019050818103600083015261490a816143cb565b9050919050565b6000602082019050818103600083015261492a816143ee565b9050919050565b6000602082019050818103600083015261494a81614411565b9050919050565b6000602082019050818103600083015261496a81614434565b9050919050565b60006020820190506149866000830184614524565b92915050565b60006020820190506149a16000830184614542565b92915050565b60006149b16149c2565b90506149bd8282614cd4565b919050565b6000604051905090565b600067ffffffffffffffff8211156149e7576149e6614e0c565b5b6149f082614e3b565b9050602081019050919050565b600067ffffffffffffffff821115614a1857614a17614e0c565b5b614a2182614e3b565b9050602081019050919050565b6000819050602082019050919050565b600081519050919050565b600081519050919050565b600081519050919050565b6000602082019050919050565b600082825260208201905092915050565b600082825260208201905092915050565b600082825260208201905092915050565b600082825260208201905092915050565b600081905092915050565b6000614ac682614c30565b9150614ad183614c30565b9250827fffffffffffffffffffffffffffffffffffffffffffffffffffffffffffffffff03821115614b0657614b05614d7f565b5b828201905092915050565b6000614b1c82614c3a565b9150614b2783614c3a565b92508267ffffffffffffffff03821115614b4457614b43614d7f565b5b828201905092915050565b6000614b5a82614c30565b9150614b6583614c30565b925082614b7557614b74614dae565b5b828204905092915050565b6000614b8b82614c30565b9150614b9683614c30565b925082821015614ba957614ba8614d7f565b5b828203905092915050565b6000614bbf82614c10565b9050919050565b6000614bd182614c10565b9050919050565b60008115159050919050565b60007fffffffff0000000000000000000000000000000000000000000000000000000082169050919050565b600073ffffffffffffffffffffffffffffffffffffffff82169050919050565b6000819050919050565b600067ffffffffffffffff82169050919050565b6000614c5982614c3a565b9050919050565b82818337600083830152505050565b60005b83811015614c8d578082015181840152602081019050614c72565b83811115614c9c576000848401525b50505050565b60006002820490506001821680614cba57607f821691505b60208210811415614cce57614ccd614ddd565b5b50919050565b614cdd82614e3b565b810181811067ffffffffffffffff82111715614cfc57614cfb614e0c565b5b80604052505050565b6000614d1082614c30565b91507fffffffffffffffffffffffffffffffffffffffffffffffffffffffffffffffff821415614d4357614d42614d7f565b5b600182019050919050565b6000614d5982614c30565b9150614d6483614c30565b925082614d7457614d73614dae565b5b828206905092915050565b7f4e487b7100000000000000000000000000000000000000000000000000000000600052601160045260246000fd5b7f4e487b7100000000000000000000000000000000000000000000000000000000600052601260045260246000fd5b7f4e487b7100000000000000000000000000000000000000000000000000000000600052602260045260246000fd5b7f4e487b7100000000000000000000000000000000000000000000000000000000600052604160045260246000fd5b6000601f19601f8301169050919050565b7f4552433732313a207472616e7366657220746f206e6f6e20455243373231526560008201527f63656976657220696d706c656d656e7465720000000000000000000000000000602082015250565b7f4552433732313a207472616e736665722066726f6d20696e636f72726563742060008201527f6f776e6572000000000000000000000000000000000000000000000000000000602082015250565b7f4552433732313a20746f6b656e20616c7265616479206d696e74656400000000600082015250565b7f4e6f742061207573657200000000000000000000000000000000000000000000600082015250565b7f594f552041524520414c52454144592052454749535445524544000000000000600082015250565b7f4552433732313a207472616e7366657220746f20746865207a65726f2061646460008201527f7265737300000000000000000000000000000000000000000000000000000000602082015250565b7f4552433732313a20617070726f766520746f2063616c6c657200000000000000600082015250565b7f4e6f74206120736572766963652050726f766964657200000000000000000000600082015250565b7f4552433732313a2061646472657373207a65726f206973206e6f74206120766160008201527f6c6964206f776e65720000000000000000000000000000000000000000000000602082015250565b7f4552433732313a20617070726f76652063616c6c6572206973206e6f7420746f60008201527f6b656e206f776e6572206e6f7220617070726f76656420666f7220616c6c0000602082015250565b7f4552433732313a206d696e7420746f20746865207a65726f2061646472657373600082015250565b7f4552433732313a20696e76616c696420746f6b656e2049440000000000000000600082015250565b7f4552433732313a20617070726f76616c20746f2063757272656e74206f776e6560008201527f7200000000000000000000000000000000000000000000000000000000000000602082015250565b7f4552433732313a207472616e736665722063616c6c6572206973206e6f74206f60008201527f776e6572206e6f7220617070726f766564000000000000000000000000000000602082015250565b7f4552433732313a2063616c6c6572206973206e6f7420746f6b656e206f776e6560008201527f72206e6f7220617070726f766564000000000000000000000000000000000000602082015250565b7f5265656e7472616e637947756172643a207265656e7472616e742063616c6c00600082015250565b7f5072696365206d757374206265206174206c6561737420312077656900000000600082015250565b61523e81614bb4565b811461524957600080fd5b50565b61525581614bc6565b811461526057600080fd5b50565b61526c81614bd8565b811461527757600080fd5b50565b61528381614be4565b811461528e57600080fd5b50565b61529a81614c30565b81146152a557600080fd5b50565b6152b181614c3a565b81146152bc57600080fd5b5056fea2646970667358221220ce562cfe3641300059001417be3ae10455006d64ebf0339ca674d17736a5292c64736f6c63430008040033",
  "immutableReferences": {},
  "source": "// SPDX-License-Identifier: MIT\r\npragma solidity ^0.8.1;\r\n\r\nimport \"./SubsNFT.sol\";\r\n\r\n/** @title eazyVideo\r\n * @notice It is a contract for managing eazyVideo platform\r\n */\r\n\r\ncontract EazyVideo is eazyVideoNFTContract {\r\n    constructor(address _ERC4907ContractAddress)\r\n        eazyVideoNFTContract(_ERC4907ContractAddress)\r\n    {}\r\n\r\n    // For only service providers\r\n    struct Service {\r\n        string name;\r\n        string ImageUri;\r\n        string description;\r\n        uint64 planDuration;\r\n        uint256 price;\r\n    }\r\n\r\n    // For user type\r\n    struct User {\r\n        // Plan nfts of users\r\n        mapping(uint256 => Service) availablePlans;\r\n        uint256 availablePlansSize;\r\n        // For Lend nfts of users that are available for rent for a specific time.\r\n        mapping(uint256 => Service) forLendPlans;\r\n        uint256 forLendPlansSize;\r\n    }\r\n\r\n    Service[] public services;\r\n    User[] users;\r\n\r\n    // True for Service provider, False for a User\r\n    mapping(address => uint256) public accountType;\r\n    // user wallet address to user array index\r\n    mapping(address => uint256) internal userToId;\r\n    //service provider wallet address to index in services array\r\n    mapping(address => uint256) internal serviceProviderToId;\r\n\r\n    function memcmp(bytes memory a, bytes memory b)\r\n        internal\r\n        pure\r\n        returns (bool)\r\n    {\r\n        return (a.length == b.length) && (keccak256(a) == keccak256(b));\r\n    }\r\n\r\n    function strcmp(string memory a, string memory b)\r\n        internal\r\n        pure\r\n        returns (bool)\r\n    {\r\n        return memcmp(bytes(a), bytes(b));\r\n    }\r\n\r\n    /**\r\n     * @notice modifier to check if user is valid\r\n     */\r\n    modifier onlyUser() {\r\n        require(accountType[msg.sender] == 1, \"Not a user\");\r\n        _;\r\n    }\r\n\r\n    /**\r\n     * @notice modifier to check if service provider is valid\r\n     */\r\n    modifier onlyServiceProvider() {\r\n        require(accountType[msg.sender] == 2, \"Not a service Provider\");\r\n        _;\r\n    }\r\n\r\n    function getAccountType() public view returns (uint256) {\r\n        return accountType[msg.sender];\r\n    }\r\n\r\n    function addToPlatform(uint256 _accountType)\r\n        public\r\n        returns (string memory)\r\n    {\r\n        require(getAccountType() == 0, \"YOU ARE ALREADY REGISTERED\");\r\n        accountType[msg.sender] = _accountType;\r\n        // serviceProvider\r\n        if (accountType[msg.sender] == 2) {\r\n            Service storage newService = services.push();\r\n\r\n            newService.name = \"\";\r\n            newService.ImageUri = \"\";\r\n            newService.description = \"\";\r\n            newService.planDuration = 0;\r\n            newService.price = 0;\r\n\r\n            serviceProviderToId[msg.sender] = services.length;\r\n            return \"NEW SERVICE PROVIDER ADDED\";\r\n        }\r\n        //user\r\n        else {\r\n            User storage newUser = users.push();\r\n\r\n            newUser.availablePlansSize = 0;\r\n            newUser.forLendPlansSize = 0;\r\n\r\n            userToId[msg.sender] = users.length;\r\n            return \"NEW USER ADDED\";\r\n        }\r\n    }\r\n\r\n    function updateService(\r\n        string memory _name,\r\n        string memory _ImageUri,\r\n        string memory _description,\r\n        uint64 _planDuration,\r\n        uint256 _planPrice\r\n    ) public onlyServiceProvider {\r\n        services[serviceProviderToId[msg.sender]] = Service({\r\n            name: _name,\r\n            ImageUri: _ImageUri,\r\n            description: _description,\r\n            planDuration: _planDuration,\r\n            price: _planPrice\r\n        });\r\n    }\r\n\r\n    /**\r\n     * @notice method to buy service from service providers\r\n     */\r\n    function BuyServiceFromServiceProvider(\r\n        address payable _serviceProviderWallet\r\n    ) public payable onlyUser {\r\n        Service storage service = services[\r\n            serviceProviderToId[_serviceProviderWallet]\r\n        ];\r\n\r\n        string memory _name = service.name;\r\n        string memory _ImageUri = service.ImageUri;\r\n        uint64 _time = uint64(block.timestamp) + service.planDuration;\r\n        uint256 _price = service.price;\r\n        string memory _description = service.description;\r\n\r\n        payable(_serviceProviderWallet).transfer(_price);\r\n\r\n        // Mint a expirable NFT\r\n        mintNFT(\r\n            _name,\r\n            _ImageUri,\r\n            _description,\r\n            service.planDuration,\r\n            _time,\r\n            _price,\r\n            msg.sender,\r\n            _serviceProviderWallet\r\n        );\r\n    }\r\n\r\n    /**\r\n     * @notice method to lend the nfts for rents in thier profile by giving the time lending for\r\n     * User cant rent a nft for time more than he owns it - This requires a check from a nft metadata\r\n     */\r\n    function LendPlan(\r\n        uint256 _price,\r\n        uint256 _days,\r\n        string memory _name\r\n    ) public onlyUser {\r\n        User storage user = users[userToId[msg.sender]];\r\n\r\n        for (uint256 i = 0; i < user.availablePlansSize - 1; i++) {\r\n            if (strcmp(user.availablePlans[i].name, _name)) {\r\n                user.forLendPlans[user.forLendPlansSize] = Service({\r\n                    price: _price,\r\n                    name: _name,\r\n                    ImageUri: user.availablePlans[i].ImageUri,\r\n                    description: user.availablePlans[i].description,\r\n                    planDuration: uint64(_days)\r\n                });\r\n\r\n                // delete from available plans\r\n            }\r\n        }\r\n    }\r\n\r\n    /**\r\n     * @notice This method can be called by only a user wallet address to rent the\r\n     * available nfts by giving the days user is renting it for and giving the amount to\r\n     * the nft owner\r\n     */\r\n    function RentPlan(\r\n        uint256 tokenID,\r\n        uint256 _amount,\r\n        uint64 _days // _days multiplied by per day amount is total amount\r\n    ) public onlyUser {\r\n        rentNFT(tokenID, _amount, _days);\r\n    }\r\n}\r\n",
  "sourcePath": "C:/Users/hardi/Desktop/EazyVideo/truffle/contracts/eazyVideo.sol",
  "compiler": {
    "name": "solc",
    "version": "0.8.4+commit.c7e474f2.Emscripten.clang"
  },
  "schemaVersion": "3.4.0",
  "updatedAt": "2022-07-25T11:12:40.449Z",
  "networkType": "ethereum",
  "devdoc": {
    "kind": "dev",
    "methods": {
      "approve(address,uint256)": {
        "details": "See {IERC721-approve}."
      },
      "balanceOf(address)": {
        "details": "See {IERC721-balanceOf}."
      },
      "getApproved(uint256)": {
        "details": "See {IERC721-getApproved}."
      },
      "isApprovedForAll(address,address)": {
        "details": "See {IERC721-isApprovedForAll}."
      },
      "name()": {
        "details": "See {IERC721Metadata-name}."
      },
      "ownerOf(uint256)": {
        "details": "See {IERC721-ownerOf}."
      },
      "safeTransferFrom(address,address,uint256)": {
        "details": "See {IERC721-safeTransferFrom}."
      },
      "safeTransferFrom(address,address,uint256,bytes)": {
        "details": "See {IERC721-safeTransferFrom}."
      },
      "setApprovalForAll(address,bool)": {
        "details": "See {IERC721-setApprovalForAll}."
      },
      "setUser(uint256,address,uint64)": {
        "details": "The zero address indicates there is no user Throws if `tokenId` is not valid NFT",
        "params": {
          "expires": "UNIX timestamp, The new user could use the NFT before expires",
          "user": "The new user of the NFT"
        }
      },
      "supportsInterface(bytes4)": {
        "details": "See {IERC165-supportsInterface}."
      },
      "symbol()": {
        "details": "See {IERC721Metadata-symbol}."
      },
      "tokenURI(uint256)": {
        "details": "See {IERC721Metadata-tokenURI}."
      },
      "transferFrom(address,address,uint256)": {
        "details": "See {IERC721-transferFrom}."
      },
      "userExpires(uint256)": {
        "details": "The zero value indicates that there is no user",
        "params": {
          "tokenId": "The NFT to get the user expires for"
        },
        "returns": {
          "_0": "The user expires for this NFT"
        }
      },
      "userOf(uint256)": {
        "details": "The zero address indicates that there is no user or the user is expired",
        "params": {
          "tokenId": "The NFT to get the user address for"
        },
        "returns": {
          "_0": "The user address for this NFT"
        }
      }
    },
    "title": "eazyVideo",
    "version": 1
  },
  "userdoc": {
    "events": {
      "UpdateUser(uint256,address,uint64)": {
        "notice": "Emitted when the `user` of an NFT or the `expires` of the `user` is changed The zero address for user indicates that there is no user address"
      }
    },
    "kind": "user",
    "methods": {
      "BuyServiceFromServiceProvider(address)": {
        "notice": "method to buy service from service providers"
      },
      "LendPlan(uint256,uint256,string)": {
        "notice": "method to lend the nfts for rents in thier profile by giving the time lending for User cant rent a nft for time more than he owns it - This requires a check from a nft metadata"
      },
      "RentPlan(uint256,uint256,uint64)": {
        "notice": "This method can be called by only a user wallet address to rent the available nfts by giving the days user is renting it for and giving the amount to the nft owner"
      },
      "setUser(uint256,address,uint64)": {
        "notice": "set the user and expires of a NFT"
      },
      "userExpires(uint256)": {
        "notice": "Get the user expires of an NFT"
      },
      "userOf(uint256)": {
        "notice": "Get the user address of an NFT"
      }
    },
    "notice": "It is a contract for managing eazyVideo platform",
    "version": 1
  }
}