{
  "contractName": "ERC4907",
  "abi": [
    {
      "inputs": [],
      "stateMutability": "nonpayable",
      "type": "constructor"
    },
    {
      "anonymous": false,
      "inputs": [
        {
          "indexed": true,
          "internalType": "address",
          "name": "owner",
          "type": "address"
        },
        {
          "indexed": true,
          "internalType": "address",
          "name": "approved",
          "type": "address"
        },
        {
          "indexed": true,
          "internalType": "uint256",
          "name": "tokenId",
          "type": "uint256"
        }
      ],
      "name": "Approval",
      "type": "event"
    },
    {
      "anonymous": false,
      "inputs": [
        {
          "indexed": true,
          "internalType": "address",
          "name": "owner",
          "type": "address"
        },
        {
          "indexed": true,
          "internalType": "address",
          "name": "operator",
          "type": "address"
        },
        {
          "indexed": false,
          "internalType": "bool",
          "name": "approved",
          "type": "bool"
        }
      ],
      "name": "ApprovalForAll",
      "type": "event"
    },
    {
      "anonymous": false,
      "inputs": [
        {
          "indexed": true,
          "internalType": "address",
          "name": "from",
          "type": "address"
        },
        {
          "indexed": true,
          "internalType": "address",
          "name": "to",
          "type": "address"
        },
        {
          "indexed": true,
          "internalType": "uint256",
          "name": "tokenId",
          "type": "uint256"
        }
      ],
      "name": "Transfer",
      "type": "event"
    },
    {
      "anonymous": false,
      "inputs": [
        {
          "indexed": true,
          "internalType": "uint256",
          "name": "tokenId",
          "type": "uint256"
        },
        {
          "indexed": true,
          "internalType": "address",
          "name": "user",
          "type": "address"
        },
        {
          "indexed": false,
          "internalType": "uint64",
          "name": "expires",
          "type": "uint64"
        }
      ],
      "name": "UpdateUser",
      "type": "event"
    },
    {
      "inputs": [
        {
          "internalType": "address",
          "name": "to",
          "type": "address"
        },
        {
          "internalType": "uint256",
          "name": "tokenId",
          "type": "uint256"
        }
      ],
      "name": "approve",
      "outputs": [],
      "stateMutability": "nonpayable",
      "type": "function"
    },
    {
      "inputs": [
        {
          "internalType": "address",
          "name": "owner",
          "type": "address"
        }
      ],
      "name": "balanceOf",
      "outputs": [
        {
          "internalType": "uint256",
          "name": "",
          "type": "uint256"
        }
      ],
      "stateMutability": "view",
      "type": "function",
      "constant": true
    },
    {
      "inputs": [
        {
          "internalType": "uint256",
          "name": "tokenId",
          "type": "uint256"
        }
      ],
      "name": "getApproved",
      "outputs": [
        {
          "internalType": "address",
          "name": "",
          "type": "address"
        }
      ],
      "stateMutability": "view",
      "type": "function",
      "constant": true
    },
    {
      "inputs": [
        {
          "internalType": "address",
          "name": "owner",
          "type": "address"
        },
        {
          "internalType": "address",
          "name": "operator",
          "type": "address"
        }
      ],
      "name": "isApprovedForAll",
      "outputs": [
        {
          "internalType": "bool",
          "name": "",
          "type": "bool"
        }
      ],
      "stateMutability": "view",
      "type": "function",
      "constant": true
    },
    {
      "inputs": [],
      "name": "name",
      "outputs": [
        {
          "internalType": "string",
          "name": "",
          "type": "string"
        }
      ],
      "stateMutability": "view",
      "type": "function",
      "constant": true
    },
    {
      "inputs": [
        {
          "internalType": "uint256",
          "name": "tokenId",
          "type": "uint256"
        }
      ],
      "name": "ownerOf",
      "outputs": [
        {
          "internalType": "address",
          "name": "",
          "type": "address"
        }
      ],
      "stateMutability": "view",
      "type": "function",
      "constant": true
    },
    {
      "inputs": [
        {
          "internalType": "address",
          "name": "from",
          "type": "address"
        },
        {
          "internalType": "address",
          "name": "to",
          "type": "address"
        },
        {
          "internalType": "uint256",
          "name": "tokenId",
          "type": "uint256"
        }
      ],
      "name": "safeTransferFrom",
      "outputs": [],
      "stateMutability": "nonpayable",
      "type": "function"
    },
    {
      "inputs": [
        {
          "internalType": "address",
          "name": "from",
          "type": "address"
        },
        {
          "internalType": "address",
          "name": "to",
          "type": "address"
        },
        {
          "internalType": "uint256",
          "name": "tokenId",
          "type": "uint256"
        },
        {
          "internalType": "bytes",
          "name": "data",
          "type": "bytes"
        }
      ],
      "name": "safeTransferFrom",
      "outputs": [],
      "stateMutability": "nonpayable",
      "type": "function"
    },
    {
      "inputs": [
        {
          "internalType": "address",
          "name": "operator",
          "type": "address"
        },
        {
          "internalType": "bool",
          "name": "approved",
          "type": "bool"
        }
      ],
      "name": "setApprovalForAll",
      "outputs": [],
      "stateMutability": "nonpayable",
      "type": "function"
    },
    {
      "inputs": [],
      "name": "symbol",
      "outputs": [
        {
          "internalType": "string",
          "name": "",
          "type": "string"
        }
      ],
      "stateMutability": "view",
      "type": "function",
      "constant": true
    },
    {
      "inputs": [
        {
          "internalType": "uint256",
          "name": "tokenId",
          "type": "uint256"
        }
      ],
      "name": "tokenURI",
      "outputs": [
        {
          "internalType": "string",
          "name": "",
          "type": "string"
        }
      ],
      "stateMutability": "view",
      "type": "function",
      "constant": true
    },
    {
      "inputs": [
        {
          "internalType": "address",
          "name": "from",
          "type": "address"
        },
        {
          "internalType": "address",
          "name": "to",
          "type": "address"
        },
        {
          "internalType": "uint256",
          "name": "tokenId",
          "type": "uint256"
        }
      ],
      "name": "transferFrom",
      "outputs": [],
      "stateMutability": "nonpayable",
      "type": "function"
    },
    {
      "inputs": [
        {
          "internalType": "uint256",
          "name": "tokenId",
          "type": "uint256"
        },
        {
          "internalType": "address",
          "name": "user",
          "type": "address"
        },
        {
          "internalType": "uint64",
          "name": "expires",
          "type": "uint64"
        }
      ],
      "name": "setUser",
      "outputs": [],
      "stateMutability": "nonpayable",
      "type": "function"
    },
    {
      "inputs": [
        {
          "internalType": "uint256",
          "name": "tokenId",
          "type": "uint256"
        }
      ],
      "name": "userOf",
      "outputs": [
        {
          "internalType": "address",
          "name": "",
          "type": "address"
        }
      ],
      "stateMutability": "view",
      "type": "function",
      "constant": true
    },
    {
      "inputs": [
        {
          "internalType": "uint256",
          "name": "tokenId",
          "type": "uint256"
        }
      ],
      "name": "userExpires",
      "outputs": [
        {
          "internalType": "uint256",
          "name": "",
          "type": "uint256"
        }
      ],
      "stateMutability": "view",
      "type": "function",
      "constant": true
    },
    {
      "inputs": [
        {
          "internalType": "bytes4",
          "name": "interfaceId",
          "type": "bytes4"
        }
      ],
      "name": "supportsInterface",
      "outputs": [
        {
          "internalType": "bool",
          "name": "",
          "type": "bool"
        }
      ],
      "stateMutability": "view",
      "type": "function",
      "constant": true
    }
  ],
  "bytecode": "0x60806040523480156200001157600080fd5b506040518060400160405280600981526020017f65617a79566964656f00000000000000000000000000000000000000000000008152506040518060400160405280600481526020017f65617a7900000000000000000000000000000000000000000000000000000000815250816000908051906020019062000096929190620000b8565b508060019080519060200190620000af929190620000b8565b505050620001cd565b828054620000c69062000168565b90600052602060002090601f016020900481019282620000ea576000855562000136565b82601f106200010557805160ff191683800117855562000136565b8280016001018555821562000136579182015b828111156200013557825182559160200191906001019062000118565b5b50905062000145919062000149565b5090565b5b80821115620001645760008160009055506001016200014a565b5090565b600060028204905060018216806200018157607f821691505b602082108114156200019857620001976200019e565b5b50919050565b7f4e487b7100000000000000000000000000000000000000000000000000000000600052602260045260246000fd5b61276180620001dd6000396000f3fe608060405234801561001057600080fd5b50600436106101005760003560e01c80638fc88c4811610097578063c2f1f14a11610066578063c2f1f14a146102bd578063c87b56dd146102ed578063e030565e1461031d578063e985e9c51461033957610100565b80638fc88c481461023757806395d89b4114610267578063a22cb46514610285578063b88d4fde146102a157610100565b806323b872dd116100d357806323b872dd1461019f57806342842e0e146101bb5780636352211e146101d757806370a082311461020757610100565b806301ffc9a71461010557806306fdde0314610135578063081812fc14610153578063095ea7b314610183575b600080fd5b61011f600480360381019061011a9190611aa5565b610369565b60405161012c9190611e46565b60405180910390f35b61013d6103e3565b60405161014a9190611e7c565b60405180910390f35b61016d60048036038101906101689190611af7565b610475565b60405161017a9190611ddf565b60405180910390f35b61019d60048036038101906101989190611a69565b6104bb565b005b6101b960048036038101906101b49190611963565b6105d3565b005b6101d560048036038101906101d09190611963565b610633565b005b6101f160048036038101906101ec9190611af7565b610653565b6040516101fe9190611ddf565b60405180910390f35b610221600480360381019061021c91906118fe565b610705565b60405161022e9190611fde565b60405180910390f35b610251600480360381019061024c9190611af7565b6107bd565b60405161025e9190611fde565b60405180910390f35b61026f6107fb565b60405161027c9190611e7c565b60405180910390f35b61029f600480360381019061029a9190611a2d565b61088d565b005b6102bb60048036038101906102b691906119b2565b6108a3565b005b6102d760048036038101906102d29190611af7565b610905565b6040516102e49190611ddf565b60405180910390f35b61030760048036038101906103029190611af7565b61098a565b6040516103149190611e7c565b60405180910390f35b61033760048036038101906103329190611b20565b6109f2565b005b610353600480360381019061034e9190611927565b610b15565b6040516103609190611e46565b60405180910390f35b60007fad092b5c000000000000000000000000000000000000000000000000000000007bffffffffffffffffffffffffffffffffffffffffffffffffffffffff1916827bffffffffffffffffffffffffffffffffffffffffffffffffffffffff191614806103dc57506103db82610ba9565b5b9050919050565b6060600080546103f290612244565b80601f016020809104026020016040519081016040528092919081815260200182805461041e90612244565b801561046b5780601f106104405761010080835404028352916020019161046b565b820191906000526020600020905b81548152906001019060200180831161044e57829003601f168201915b5050505050905090565b600061048082610c8b565b6004600083815260200190815260200160002060009054906101000a900473ffffffffffffffffffffffffffffffffffffffff169050919050565b60006104c682610653565b90508073ffffffffffffffffffffffffffffffffffffffff168373ffffffffffffffffffffffffffffffffffffffff161415610537576040517f08c379a000000000000000000000000000000000000000000000000000000000815260040161052e90611f7e565b60405180910390fd5b8073ffffffffffffffffffffffffffffffffffffffff16610556610cd6565b73ffffffffffffffffffffffffffffffffffffffff16148061058557506105848161057f610cd6565b610b15565b5b6105c4576040517f08c379a00000000000000000000000000000000000000000000000000000000081526004016105bb90611f3e565b60405180910390fd5b6105ce8383610cde565b505050565b6105e46105de610cd6565b82610d97565b610623576040517f08c379a000000000000000000000000000000000000000000000000000000000815260040161061a90611fbe565b60405180910390fd5b61062e838383610e2c565b505050565b61064e838383604051806020016040528060008152506108a3565b505050565b6000806002600084815260200190815260200160002060009054906101000a900473ffffffffffffffffffffffffffffffffffffffff169050600073ffffffffffffffffffffffffffffffffffffffff168173ffffffffffffffffffffffffffffffffffffffff1614156106fc576040517f08c379a00000000000000000000000000000000000000000000000000000000081526004016106f390611f5e565b60405180910390fd5b80915050919050565b60008073ffffffffffffffffffffffffffffffffffffffff168273ffffffffffffffffffffffffffffffffffffffff161415610776576040517f08c379a000000000000000000000000000000000000000000000000000000000815260040161076d90611f1e565b60405180910390fd5b600360008373ffffffffffffffffffffffffffffffffffffffff1673ffffffffffffffffffffffffffffffffffffffff168152602001908152602001600020549050919050565b60006006600083815260200190815260200160002060000160149054906101000a900467ffffffffffffffff1667ffffffffffffffff169050919050565b60606001805461080a90612244565b80601f016020809104026020016040519081016040528092919081815260200182805461083690612244565b80156108835780601f1061085857610100808354040283529160200191610883565b820191906000526020600020905b81548152906001019060200180831161086657829003601f168201915b5050505050905090565b61089f610898610cd6565b8383611093565b5050565b6108b46108ae610cd6565b83610d97565b6108f3576040517f08c379a00000000000000000000000000000000000000000000000000000000081526004016108ea90611fbe565b60405180910390fd5b6108ff84848484611200565b50505050565b6000426006600084815260200190815260200160002060000160149054906101000a900467ffffffffffffffff1667ffffffffffffffff1610610980576006600083815260200190815260200160002060000160009054906101000a900473ffffffffffffffffffffffffffffffffffffffff169050610985565b600090505b919050565b606061099582610c8b565b600061099f61125c565b905060008151116109bf57604051806020016040528060008152506109ea565b806109c984611273565b6040516020016109da929190611dbb565b6040516020818303038152906040525b915050919050565b6109fc3384610d97565b610a3b576040517f08c379a0000000000000000000000000000000000000000000000000000000008152600401610a3290611f9e565b60405180910390fd5b6000600660008581526020019081526020016000209050828160000160006101000a81548173ffffffffffffffffffffffffffffffffffffffff021916908373ffffffffffffffffffffffffffffffffffffffff160217905550818160000160146101000a81548167ffffffffffffffff021916908367ffffffffffffffff1602179055508273ffffffffffffffffffffffffffffffffffffffff16847f4e06b4e7000e659094299b3533b47b6aa8ad048e95e872d23d1f4ee55af89cfe84604051610b079190611ff9565b60405180910390a350505050565b6000600560008473ffffffffffffffffffffffffffffffffffffffff1673ffffffffffffffffffffffffffffffffffffffff16815260200190815260200160002060008373ffffffffffffffffffffffffffffffffffffffff1673ffffffffffffffffffffffffffffffffffffffff16815260200190815260200160002060009054906101000a900460ff16905092915050565b60007f80ac58cd000000000000000000000000000000000000000000000000000000007bffffffffffffffffffffffffffffffffffffffffffffffffffffffff1916827bffffffffffffffffffffffffffffffffffffffffffffffffffffffff19161480610c7457507f5b5e139f000000000000000000000000000000000000000000000000000000007bffffffffffffffffffffffffffffffffffffffffffffffffffffffff1916827bffffffffffffffffffffffffffffffffffffffffffffffffffffffff1916145b80610c845750610c8382611420565b5b9050919050565b610c948161148a565b610cd3576040517f08c379a0000000000000000000000000000000000000000000000000000000008152600401610cca90611f5e565b60405180910390fd5b50565b600033905090565b816004600083815260200190815260200160002060006101000a81548173ffffffffffffffffffffffffffffffffffffffff021916908373ffffffffffffffffffffffffffffffffffffffff160217905550808273ffffffffffffffffffffffffffffffffffffffff16610d5183610653565b73ffffffffffffffffffffffffffffffffffffffff167f8c5be1e5ebec7d5bd14f71427d1e84f3dd0314c0f7b2291e5b200ac8c7c3b92560405160405180910390a45050565b600080610da383610653565b90508073ffffffffffffffffffffffffffffffffffffffff168473ffffffffffffffffffffffffffffffffffffffff161480610de55750610de48185610b15565b5b80610e2357508373ffffffffffffffffffffffffffffffffffffffff16610e0b84610475565b73ffffffffffffffffffffffffffffffffffffffff16145b91505092915050565b8273ffffffffffffffffffffffffffffffffffffffff16610e4c82610653565b73ffffffffffffffffffffffffffffffffffffffff1614610ea2576040517f08c379a0000000000000000000000000000000000000000000000000000000008152600401610e9990611ebe565b60405180910390fd5b600073ffffffffffffffffffffffffffffffffffffffff168273ffffffffffffffffffffffffffffffffffffffff161415610f12576040517f08c379a0000000000000000000000000000000000000000000000000000000008152600401610f0990611ede565b60405180910390fd5b610f1d8383836114f6565b610f28600082610cde565b6001600360008573ffffffffffffffffffffffffffffffffffffffff1673ffffffffffffffffffffffffffffffffffffffff1681526020019081526020016000206000828254610f789190612134565b925050819055506001600360008473ffffffffffffffffffffffffffffffffffffffff1673ffffffffffffffffffffffffffffffffffffffff1681526020019081526020016000206000828254610fcf91906120ad565b92505081905550816002600083815260200190815260200160002060006101000a81548173ffffffffffffffffffffffffffffffffffffffff021916908373ffffffffffffffffffffffffffffffffffffffff160217905550808273ffffffffffffffffffffffffffffffffffffffff168473ffffffffffffffffffffffffffffffffffffffff167fddf252ad1be2c89b69c2b068fc378daa952ba7f163c4a11628f55a4df523b3ef60405160405180910390a461108e838383611654565b505050565b8173ffffffffffffffffffffffffffffffffffffffff168373ffffffffffffffffffffffffffffffffffffffff161415611102576040517f08c379a00000000000000000000000000000000000000000000000000000000081526004016110f990611efe565b60405180910390fd5b80600560008573ffffffffffffffffffffffffffffffffffffffff1673ffffffffffffffffffffffffffffffffffffffff16815260200190815260200160002060008473ffffffffffffffffffffffffffffffffffffffff1673ffffffffffffffffffffffffffffffffffffffff16815260200190815260200160002060006101000a81548160ff0219169083151502179055508173ffffffffffffffffffffffffffffffffffffffff168373ffffffffffffffffffffffffffffffffffffffff167f17307eab39ab6107e8899845ad3d59bd9653f200f220920489ca2b5937696c31836040516111f39190611e46565b60405180910390a3505050565b61120b848484610e2c565b61121784848484611659565b611256576040517f08c379a000000000000000000000000000000000000000000000000000000000815260040161124d90611e9e565b60405180910390fd5b50505050565b606060405180602001604052806000815250905090565b606060008214156112bb576040518060400160405280600181526020017f3000000000000000000000000000000000000000000000000000000000000000815250905061141b565b600082905060005b600082146112ed5780806112d6906122a7565b915050600a826112e69190612103565b91506112c3565b60008167ffffffffffffffff81111561132f577f4e487b7100000000000000000000000000000000000000000000000000000000600052604160045260246000fd5b6040519080825280601f01601f1916602001820160405280156113615781602001600182028036833780820191505090505b5090505b600085146114145760018261137a9190612134565b9150600a8561138991906122f0565b603061139591906120ad565b60f81b8183815181106113d1577f4e487b7100000000000000000000000000000000000000000000000000000000600052603260045260246000fd5b60200101907effffffffffffffffffffffffffffffffffffffffffffffffffffffffffffff1916908160001a905350600a8561140d9190612103565b9450611365565b8093505050505b919050565b60007f01ffc9a7000000000000000000000000000000000000000000000000000000007bffffffffffffffffffffffffffffffffffffffffffffffffffffffff1916827bffffffffffffffffffffffffffffffffffffffffffffffffffffffff1916149050919050565b60008073ffffffffffffffffffffffffffffffffffffffff166002600084815260200190815260200160002060009054906101000a900473ffffffffffffffffffffffffffffffffffffffff1673ffffffffffffffffffffffffffffffffffffffff1614159050919050565b6115018383836117f0565b8173ffffffffffffffffffffffffffffffffffffffff168373ffffffffffffffffffffffffffffffffffffffff16141580156115a05750600073ffffffffffffffffffffffffffffffffffffffff166006600083815260200190815260200160002060000160009054906101000a900473ffffffffffffffffffffffffffffffffffffffff1673ffffffffffffffffffffffffffffffffffffffff1614155b1561164f5760066000828152602001908152602001600020600080820160006101000a81549073ffffffffffffffffffffffffffffffffffffffff02191690556000820160146101000a81549067ffffffffffffffff02191690555050600073ffffffffffffffffffffffffffffffffffffffff16817f4e06b4e7000e659094299b3533b47b6aa8ad048e95e872d23d1f4ee55af89cfe60006040516116469190611e61565b60405180910390a35b505050565b505050565b600061167a8473ffffffffffffffffffffffffffffffffffffffff166117f5565b156117e3578373ffffffffffffffffffffffffffffffffffffffff1663150b7a026116a3610cd6565b8786866040518563ffffffff1660e01b81526004016116c59493929190611dfa565b602060405180830381600087803b1580156116df57600080fd5b505af192505050801561171057506040513d601f19601f8201168201806040525081019061170d9190611ace565b60015b611793573d8060008114611740576040519150601f19603f3d011682016040523d82523d6000602084013e611745565b606091505b5060008151141561178b576040517f08c379a000000000000000000000000000000000000000000000000000000000815260040161178290611e9e565b60405180910390fd5b805181602001fd5b63150b7a0260e01b7bffffffffffffffffffffffffffffffffffffffffffffffffffffffff1916817bffffffffffffffffffffffffffffffffffffffffffffffffffffffff1916149150506117e8565b600190505b949350505050565b505050565b6000808273ffffffffffffffffffffffffffffffffffffffff163b119050919050565b600061182b61182684612039565b612014565b90508281526020810184848401111561184357600080fd5b61184e848285612202565b509392505050565b600081359050611865816126b8565b92915050565b60008135905061187a816126cf565b92915050565b60008135905061188f816126e6565b92915050565b6000815190506118a4816126e6565b92915050565b600082601f8301126118bb57600080fd5b81356118cb848260208601611818565b91505092915050565b6000813590506118e3816126fd565b92915050565b6000813590506118f881612714565b92915050565b60006020828403121561191057600080fd5b600061191e84828501611856565b91505092915050565b6000806040838503121561193a57600080fd5b600061194885828601611856565b925050602061195985828601611856565b9150509250929050565b60008060006060848603121561197857600080fd5b600061198686828701611856565b935050602061199786828701611856565b92505060406119a8868287016118d4565b9150509250925092565b600080600080608085870312156119c857600080fd5b60006119d687828801611856565b94505060206119e787828801611856565b93505060406119f8878288016118d4565b925050606085013567ffffffffffffffff811115611a1557600080fd5b611a21878288016118aa565b91505092959194509250565b60008060408385031215611a4057600080fd5b6000611a4e85828601611856565b9250506020611a5f8582860161186b565b9150509250929050565b60008060408385031215611a7c57600080fd5b6000611a8a85828601611856565b9250506020611a9b858286016118d4565b9150509250929050565b600060208284031215611ab757600080fd5b6000611ac584828501611880565b91505092915050565b600060208284031215611ae057600080fd5b6000611aee84828501611895565b91505092915050565b600060208284031215611b0957600080fd5b6000611b17848285016118d4565b91505092915050565b600080600060608486031215611b3557600080fd5b6000611b43868287016118d4565b9350506020611b5486828701611856565b9250506040611b65868287016118e9565b9150509250925092565b611b7881612168565b82525050565b611b878161217a565b82525050565b6000611b988261206a565b611ba28185612080565b9350611bb2818560208601612211565b611bbb816123dd565b840191505092915050565b611bcf816121f0565b82525050565b6000611be082612075565b611bea8185612091565b9350611bfa818560208601612211565b611c03816123dd565b840191505092915050565b6000611c1982612075565b611c2381856120a2565b9350611c33818560208601612211565b80840191505092915050565b6000611c4c603283612091565b9150611c57826123ee565b604082019050919050565b6000611c6f602583612091565b9150611c7a8261243d565b604082019050919050565b6000611c92602483612091565b9150611c9d8261248c565b604082019050919050565b6000611cb5601983612091565b9150611cc0826124db565b602082019050919050565b6000611cd8602983612091565b9150611ce382612504565b604082019050919050565b6000611cfb603e83612091565b9150611d0682612553565b604082019050919050565b6000611d1e601883612091565b9150611d29826125a2565b602082019050919050565b6000611d41602183612091565b9150611d4c826125cb565b604082019050919050565b6000611d64603183612091565b9150611d6f8261261a565b604082019050919050565b6000611d87602e83612091565b9150611d9282612669565b604082019050919050565b611da6816121d2565b82525050565b611db5816121dc565b82525050565b6000611dc78285611c0e565b9150611dd38284611c0e565b91508190509392505050565b6000602082019050611df46000830184611b6f565b92915050565b6000608082019050611e0f6000830187611b6f565b611e1c6020830186611b6f565b611e296040830185611d9d565b8181036060830152611e3b8184611b8d565b905095945050505050565b6000602082019050611e5b6000830184611b7e565b92915050565b6000602082019050611e766000830184611bc6565b92915050565b60006020820190508181036000830152611e968184611bd5565b905092915050565b60006020820190508181036000830152611eb781611c3f565b9050919050565b60006020820190508181036000830152611ed781611c62565b9050919050565b60006020820190508181036000830152611ef781611c85565b9050919050565b60006020820190508181036000830152611f1781611ca8565b9050919050565b60006020820190508181036000830152611f3781611ccb565b9050919050565b60006020820190508181036000830152611f5781611cee565b9050919050565b60006020820190508181036000830152611f7781611d11565b9050919050565b60006020820190508181036000830152611f9781611d34565b9050919050565b60006020820190508181036000830152611fb781611d57565b9050919050565b60006020820190508181036000830152611fd781611d7a565b9050919050565b6000602082019050611ff36000830184611d9d565b92915050565b600060208201905061200e6000830184611dac565b92915050565b600061201e61202f565b905061202a8282612276565b919050565b6000604051905090565b600067ffffffffffffffff821115612054576120536123ae565b5b61205d826123dd565b9050602081019050919050565b600081519050919050565b600081519050919050565b600082825260208201905092915050565b600082825260208201905092915050565b600081905092915050565b60006120b8826121d2565b91506120c3836121d2565b9250827fffffffffffffffffffffffffffffffffffffffffffffffffffffffffffffffff038211156120f8576120f7612321565b5b828201905092915050565b600061210e826121d2565b9150612119836121d2565b92508261212957612128612350565b5b828204905092915050565b600061213f826121d2565b915061214a836121d2565b92508282101561215d5761215c612321565b5b828203905092915050565b6000612173826121b2565b9050919050565b60008115159050919050565b60007fffffffff0000000000000000000000000000000000000000000000000000000082169050919050565b600073ffffffffffffffffffffffffffffffffffffffff82169050919050565b6000819050919050565b600067ffffffffffffffff82169050919050565b60006121fb826121dc565b9050919050565b82818337600083830152505050565b60005b8381101561222f578082015181840152602081019050612214565b8381111561223e576000848401525b50505050565b6000600282049050600182168061225c57607f821691505b602082108114156122705761226f61237f565b5b50919050565b61227f826123dd565b810181811067ffffffffffffffff8211171561229e5761229d6123ae565b5b80604052505050565b60006122b2826121d2565b91507fffffffffffffffffffffffffffffffffffffffffffffffffffffffffffffffff8214156122e5576122e4612321565b5b600182019050919050565b60006122fb826121d2565b9150612306836121d2565b92508261231657612315612350565b5b828206905092915050565b7f4e487b7100000000000000000000000000000000000000000000000000000000600052601160045260246000fd5b7f4e487b7100000000000000000000000000000000000000000000000000000000600052601260045260246000fd5b7f4e487b7100000000000000000000000000000000000000000000000000000000600052602260045260246000fd5b7f4e487b7100000000000000000000000000000000000000000000000000000000600052604160045260246000fd5b6000601f19601f8301169050919050565b7f4552433732313a207472616e7366657220746f206e6f6e20455243373231526560008201527f63656976657220696d706c656d656e7465720000000000000000000000000000602082015250565b7f4552433732313a207472616e736665722066726f6d20696e636f72726563742060008201527f6f776e6572000000000000000000000000000000000000000000000000000000602082015250565b7f4552433732313a207472616e7366657220746f20746865207a65726f2061646460008201527f7265737300000000000000000000000000000000000000000000000000000000602082015250565b7f4552433732313a20617070726f766520746f2063616c6c657200000000000000600082015250565b7f4552433732313a2061646472657373207a65726f206973206e6f74206120766160008201527f6c6964206f776e65720000000000000000000000000000000000000000000000602082015250565b7f4552433732313a20617070726f76652063616c6c6572206973206e6f7420746f60008201527f6b656e206f776e6572206e6f7220617070726f76656420666f7220616c6c0000602082015250565b7f4552433732313a20696e76616c696420746f6b656e2049440000000000000000600082015250565b7f4552433732313a20617070726f76616c20746f2063757272656e74206f776e6560008201527f7200000000000000000000000000000000000000000000000000000000000000602082015250565b7f4552433732313a207472616e736665722063616c6c6572206973206e6f74206f60008201527f776e6572206e6f7220617070726f766564000000000000000000000000000000602082015250565b7f4552433732313a2063616c6c6572206973206e6f7420746f6b656e206f776e6560008201527f72206e6f7220617070726f766564000000000000000000000000000000000000602082015250565b6126c181612168565b81146126cc57600080fd5b50565b6126d88161217a565b81146126e357600080fd5b50565b6126ef81612186565b81146126fa57600080fd5b50565b612706816121d2565b811461271157600080fd5b50565b61271d816121dc565b811461272857600080fd5b5056fea2646970667358221220e7a8cbcace0d7e65fdc316e638d7008864697f9750fd125c1ce4b5fc48cef1e164736f6c63430008040033",
  "immutableReferences": {},
  "source": "// SPDX-License-Identifier: MIT\npragma solidity ^0.8.1;\n\nimport \"@openzeppelin/contracts/token/ERC721/ERC721.sol\";\n\ninterface IERC4907 {\n    // Logged when the user of a token assigns a new user or updates expires\n    /// @notice Emitted when the `user` of an NFT or the `expires` of the `user` is changed\n    /// The zero address for user indicates that there is no user address\n    event UpdateUser(\n        uint256 indexed tokenId,\n        address indexed user,\n        uint64 expires\n    );\n\n    /// @notice set the user and expires of a NFT\n    /// @dev The zero address indicates there is no user\n    /// Throws if `tokenId` is not valid NFT\n    /// @param user  The new user of the NFT\n    /// @param expires  UNIX timestamp, The new user could use the NFT before expires\n    function setUser(\n        uint256 tokenId,\n        address user,\n        uint64 expires\n    ) external;\n\n    /// @notice Get the user address of an NFT\n    /// @dev The zero address indicates that there is no user or the user is expired\n    /// @param tokenId The NFT to get the user address for\n    /// @return The user address for this NFT\n    function userOf(uint256 tokenId) external view returns (address);\n\n    /// @notice Get the user expires of an NFT\n    /// @dev The zero value indicates that there is no user\n    /// @param tokenId The NFT to get the user expires for\n    /// @return The user expires for this NFT\n    function userExpires(uint256 tokenId) external view returns (uint256);\n}\n\ncontract ERC4907 is ERC721, IERC4907 {\n    struct UserInfo {\n        address user; // address of user role\n        uint64 expires; // unix timestamp, user expires\n    }\n\n    mapping(uint256 => UserInfo) internal _users;\n\n    constructor() ERC721(\"eazyVideo\", \"eazy\") {}\n\n    /// @notice set the user and expires of a NFT\n    /// @dev The zero address indicates there is no user\n    /// Throws if `tokenId` is not valid NFT\n    /// @param user  The new user of the NFT\n    /// @param expires  UNIX timestamp, The new user could use the NFT before expires\n    function setUser(\n        uint256 tokenId,\n        address user,\n        uint64 expires\n    ) public virtual override {\n        require(\n            _isApprovedOrOwner(msg.sender, tokenId),\n            \"ERC721: transfer caller is not owner nor approved\"\n        );\n        UserInfo storage info = _users[tokenId];\n        info.user = user;\n        info.expires = expires;\n        emit UpdateUser(tokenId, user, expires);\n    }\n\n    /// @notice Get the user address of an NFT\n    /// @dev The zero address indicates that there is no user or the user is expired\n    /// @param tokenId The NFT to get the user address for\n    /// @return The user address for this NFT\n    function userOf(uint256 tokenId)\n        public\n        view\n        virtual\n        override\n        returns (address)\n    {\n        if (uint256(_users[tokenId].expires) >= block.timestamp) {\n            return _users[tokenId].user;\n        } else {\n            return address(0);\n        }\n    }\n\n    /// @notice Get the user expires of an NFT\n    /// @dev The zero value indicates that there is no user\n    /// @param tokenId The NFT to get the user expires for\n    /// @return The user expires for this NFT\n    function userExpires(uint256 tokenId)\n        public\n        view\n        virtual\n        override\n        returns (uint256)\n    {\n        return _users[tokenId].expires;\n    }\n\n    /// @dev See {IERC165-supportsInterface}.\n    function supportsInterface(bytes4 interfaceId)\n        public\n        view\n        virtual\n        override\n        returns (bool)\n    {\n        return\n            interfaceId == type(IERC4907).interfaceId ||\n            super.supportsInterface(interfaceId);\n    }\n\n    function _beforeTokenTransfer(\n        address from,\n        address to,\n        uint256 tokenId\n    ) internal virtual override {\n        super._beforeTokenTransfer(from, to, tokenId);\n\n        if (from != to && _users[tokenId].user != address(0)) {\n            delete _users[tokenId];\n            emit UpdateUser(tokenId, address(0), 0);\n        }\n    }\n}\n",
  "sourcePath": "C:/Users/hardi/Desktop/EazyVideo/truffle/contracts/ERC4907.sol",
  "compiler": {
    "name": "solc",
    "version": "0.8.4+commit.c7e474f2.Emscripten.clang"
  },
  "schemaVersion": "3.4.0",
  "updatedAt": "2022-07-31T18:06:00.189Z",
  "networkType": "ethereum",
  "devdoc": {
    "kind": "dev",
    "methods": {
      "approve(address,uint256)": {
        "details": "See {IERC721-approve}."
      },
      "balanceOf(address)": {
        "details": "See {IERC721-balanceOf}."
      },
      "getApproved(uint256)": {
        "details": "See {IERC721-getApproved}."
      },
      "isApprovedForAll(address,address)": {
        "details": "See {IERC721-isApprovedForAll}."
      },
      "name()": {
        "details": "See {IERC721Metadata-name}."
      },
      "ownerOf(uint256)": {
        "details": "See {IERC721-ownerOf}."
      },
      "safeTransferFrom(address,address,uint256)": {
        "details": "See {IERC721-safeTransferFrom}."
      },
      "safeTransferFrom(address,address,uint256,bytes)": {
        "details": "See {IERC721-safeTransferFrom}."
      },
      "setApprovalForAll(address,bool)": {
        "details": "See {IERC721-setApprovalForAll}."
      },
      "setUser(uint256,address,uint64)": {
        "details": "The zero address indicates there is no user Throws if `tokenId` is not valid NFT",
        "params": {
          "expires": "UNIX timestamp, The new user could use the NFT before expires",
          "user": "The new user of the NFT"
        }
      },
      "supportsInterface(bytes4)": {
        "details": "See {IERC165-supportsInterface}."
      },
      "symbol()": {
        "details": "See {IERC721Metadata-symbol}."
      },
      "tokenURI(uint256)": {
        "details": "See {IERC721Metadata-tokenURI}."
      },
      "transferFrom(address,address,uint256)": {
        "details": "See {IERC721-transferFrom}."
      },
      "userExpires(uint256)": {
        "details": "The zero value indicates that there is no user",
        "params": {
          "tokenId": "The NFT to get the user expires for"
        },
        "returns": {
          "_0": "The user expires for this NFT"
        }
      },
      "userOf(uint256)": {
        "details": "The zero address indicates that there is no user or the user is expired",
        "params": {
          "tokenId": "The NFT to get the user address for"
        },
        "returns": {
          "_0": "The user address for this NFT"
        }
      }
    },
    "version": 1
  },
  "userdoc": {
    "events": {
      "UpdateUser(uint256,address,uint64)": {
        "notice": "Emitted when the `user` of an NFT or the `expires` of the `user` is changed The zero address for user indicates that there is no user address"
      }
    },
    "kind": "user",
    "methods": {
      "setUser(uint256,address,uint64)": {
        "notice": "set the user and expires of a NFT"
      },
      "userExpires(uint256)": {
        "notice": "Get the user expires of an NFT"
      },
      "userOf(uint256)": {
        "notice": "Get the user address of an NFT"
      }
    },
    "version": 1
  }
}